:100000000C9461160C9489160C9489160C9489161C
:100010000C9489160C9489160C9489160C948916E4
:100020000C9489160C9489160C9489160C948916D4
:100030000C9489160C9489160C9489160C948916C4
:100040000C9489160C9489160C9489160C948916B4
:100050000C9489160C9489160C9489160C94AD2571
:100060000C9489160C9489160C9489160C94891694
:100070000C9489160C9489160C9489160C94891684
:100080000C944C250C9489160C9489160C948916A2
:100090000C9489160C9489160C9489160C94891664
:1000A0000C9489160C9489160C9489160B0F9705DD
:1000B0008B898B8905411CB0D7BD9B8D110B0954D1
:1000C00030B2486F0B0F2F172C260ED8EB7BDD6C50
:1000D0008C2CD2B70B0F2F172C5C9BBDBED74D229B
:1000E0009345FA160B8F7B8535941B72D223596F7B
:1000F0005A064E286C286630686F8BCF2B1CF5840F
:10010000DC901B3A16596D198C486143614361CAF2
:10011000A02D0B0F2F162C262EA603F67ADFCDC6A8
:100120008805238BF40D0B4FEFE766EEDF3064B2EA
:10013000C77B0B0F2F162C5C585C9BBDDE7793485A
:1001400005239345FA063B073FAC5B7B5B02725984
:1001500069D66549715D56329374BD5CC94CD275E0
:100160005997A02028B93097FC3A3B473F6C0DC007
:10017000E0655D248260F0B22E2BCDBA2C29065F9B
:100180004A04C1E019D7C42ED0DED6000CFE503B85
:10019000073F6495B12E4B406E5558BDACC9655DA7
:1001A000569A75595294BCECAAD9B1B7755969D60B
:1001B0006549C9F8413B073F78091CD765090CC957
:1001C0006509C8CB25204A2E6B72ABC2EA85280888
:1001D0001A2E4B407E38398F5F452EFB82BC4B3048
:1001E000257BE415C3E101821BC4E9E6D1AD8C3562
:1001F000C6E5B47BDB635D6E252069F07773E503AC
:100200005E0A17CA53F4C6953B78E2412E91CBB8EB
:10021000E6D25B8EEB984BE4343E0E398F5F889AC2
:1002200012582370198E22468A79BFBA063D9DD096
:10023000A59175398D35CABA2C3AD638A9BA70AE9F
:1002400071BA2C3AD6B81D1659B3DFF114B9AC63A4
:100250002E91CBF8D4BA604E1ED70573C9711D73A9
:10026000C9711D73895CD631B02002EB72F214B9EA
:10027000A84739CFEF5717ECDBA5738575B8A14BAD
:1002800023EBF2E8F68D0453B2478EA732D618EF6F
:100290005717ECDB657596DE3EBF8EB9E43A2EC487
:1002A0008BD775C15C72CF251FF052B8508E9E223D
:1002B00097F1A975CC25C7F551398F1FE606DD8565
:1002C0001BA7E12862A4980759418415B101D39D69
:1002D000F2E856C61AE372DABDEDB12EB7129034C9
:1002E000F867F0792E91CB78CD11725927E0792EED
:1002F00091CBB8E6D25B8EEB984BE4343E0E3B07D5
:100300003F2428084A4E4B42C6690480044E23000D
:1003100024701A21B85E2E91F63842C838B15608BA
:100320000718A71142C66984397E003B471F5E83C8
:10033000AECB0800819C940090715A57B2249CD691
:1003400022E3E92AD25E46081967B2249C061C46BD
:100350000819A731C9F8053B873F6C09DC609CC6CA
:10036000A25E870034F07215B1C721A1E3C45A21FF
:100370001C609C86848ED35874FC503B073F6409F4
:100380000CC9698490711A938CD308739C4608AE8B
:1003900017AB8C751A012081CB3A8D304798E33426
:1003A00002400227D60AE1C33B473F6C0DBA2E0339
:1003B000365483EBB416194FD7A0EB32024020A776
:1003C0007519938C49C669048040CE6449F8453B51
:1003D000471F5852542F63B23C269939A1012081FE
:1003E0003359124E4A00C838AD976BD075190120A9
:1003F00090D3BA8C49C624E33402402067B2247CEF
:10040000093B8FBFE056026B046E8745D6ECEDB01A
:10041000585939AABA70AE718B5D185DCA89AEAEF3
:1004200072E306DD851B8371FB0BE492E33A7A8A63
:100430005CD4A3A7C8651D73895CD63197C8653C99
:100440005D173EE0F35CF27D3BCF5FBE6D585DB75C
:10045000C3226BF6A4EAC2B9C6E5F6388D095DE69B
:1004600034C61AF4F47475C1BE5D5667E9ED17E63B
:1004700092E33A7A8A5CD4632E91CB3AE692C792A1
:100480000B2017EEE38239F9781D73C971FD083B23
:100490008F5F452EFB82BC60DC2E63AC414FCF8268
:1004A000440493561446C9E6CDEA1AF4745A63DF3D
:1004B000BA4F97D505A1A1E41773E57D2EB98E0B30
:1004C000E6E473E0B42E81238FD70573F2B86E3D56
:1004D000E692E3BAA0A77C0F3B8F7F186ED05DB881
:1004E000711A8E22468AB9AFB20028008BAE41D76E
:1004F0003F239FE712B98CC7C0897211E004FC79D1
:10050000003BCF1FE006DD851BA7E12862A498FB16
:100510002A0B8002B0E81A747D1DB9EC0B721E1D07
:10052000418A4BDEE5089E0080090CA0FE349FE75F
:1005300012B98CC7C0897211E004FC1CAE3C5E1776
:10054000CCC9179C809B003F023B8F076ED05DB8E3
:1005500071A3ABEB742A638D715F65015000165D6A
:1005600083AEAF21977D415E306E9731D6A0A787CD
:1005700039822700600203A89FF25BEBE829721919
:100580008F8113E522C009F83C57DEE792EBB86093
:100590004EBEE004DC04F8181B8FBF83AB57AF5E80
:1005A000FD6D392A38200222540802110431023B21
:1005B000021B301B3025800920602400086EAF6BC1
:1005C000001B8F9FF1CAAD65812A850D85A2541C41
:1005D000CC9EBDF2B11CB5820066A10201040422CA
:1005E000A84009201003E800000402086811003345
:1005F00004B032BCAE011B8F070F085E20AFB97A82
:10060000F5EAD5DF964D1504000041000010A0006A
:1006100020082250365036F5901A7090A086A02AF5
:10062000314EB7070908080C020D0B0D020C080823
:10063000083A3B33333B3A013A110B10001010904B
:10064000100017001D1810101010101000000000EE
:100650000706040404040404000400000027DF3734
:100660009A5DDD2C368BCD62A3B291B0596C169B8E
:10067000C566B1195C2817CA45BA53368B2D63A7D6
:100680007C637FCEF08205BC21C0CC6073CA9D6FB5
:10069000ED2619090909ECEFED2F5806B0000156B7
:1006A0000110D009DC107845189537BCDFE14018FF
:1006B000190CD99FE9B81CBD7A75272A21AAA871FF
:1006C000339C2C17D30BF1EAD5E305EDC8F278196A
:1006D0003D0327DF1776BA6AB9502E940BA509455A
:1006E000004239B0D82C368BCDE240B9500E762579
:1006F000E542B950339BCD17F6E70C2F58C01306CF
:10070000303259DC7CC12736991969424202FB7BA1
:10071000FB0B96012C4080550004747A15DE1132D3
:10072000C20B1EEE32B810460643F6673A2E47AFAC
:100730005EDD894A882A6A3C5037C3C1F6845EBDB3
:10074000669D1487CBE5F1327A06279F2FD8E9AA58
:10075000E542B9502E9402A19441392137E486DC58
:10076000901B72434E3A1BB9A1DDE6C207F7B7B83A
:1007700064B178C20692C9E2414E7C6B931931266E
:10078000B0BFBF1F0B0359808C05202870062EC0F8
:100790000B823D70E22BBB0C06C321FBB31D97A35C
:1007A00057274B63100928A2CA74B05D2EAF868B01
:1007B00057AF5927C5E1625D469F0127DF2756D60F
:1007C000888BCDE042B9509A500420940BE542B991
:1007D000502E940BE542B950BB9A4DB950339BCD86
:1007E00017F6E70C2F58C01B02CC0C36A73CE05381
:1007F000BB4946424202FB7BFB0B96012C408055D5
:100800000004740237045E1146E5091FD8E1401860
:10081000190CD99FE9B81CBD7A75272A21AAA8719D
:10082000339C2C17D30BF1EAD5E305EDC8F2781908
:100830003D030B4F3A9028250C6032D90C93F2708F
:10084000C89883BA5C1EE80A03070B4F5AA5C8660E
:100850000093C96658078B1743C61C24232307320D
:10086000C31E0B8F3180140D41E0821CC19903F02F
:10087000620C9CA5B9AC4DE7620C0B4F2713198293
:100880002200A10806A0A4CF525252128100902D3E
:10089000105A5242030B0F37072A18108100200A02
:1008A00029BB0F52424343350819D5868686A60BCD
:1008B0004F1BAD220A8A008422188092863729298C
:1008C00089894000C8168829293B098FDB13012636
:1008D00050603139A03F0A094F0724202C16D04020
:1008E0008145032ABF08894F6E16308005540C02DB
:1008F00000021188FC2000098FDBD39C9775388C8F
:100900005FC115098F07649CC631A7B1E527700543
:10091000098F6B1CF63CE5CC457E8057000D8F3B64
:1009200007B2C20694A1A0062630601C387002C22D
:10093000048EFBB28E5C628E0D8FBB9331C2069427
:10094000A1A006265080BEE048D8C26D5FF6C983DC
:10095000E90D0D8F133A980D1B5086821A9840B5F9
:100960001F000E81E3BAEC9B9B404F0D8FBB933170
:10097000C20694A1A006265080BEE048D8C26D5F92
:10098000F6C983E90D0D4F3B9B8E4D006100821827
:100990009940491FB280B2806397CB8EA325A407EC
:1009A0000D4FBB9B8E490061008218992C1C2F595A
:1009B0002C8670EB72D97135CE6E0D8FBB9331C220
:1009C0000694A1A006265080BEE048D8C26D5FF60E
:1009D000C983E90D0DCFC7B98E7C2EF311E4705891
:1009E0009775599775D9D90D8FBBF394CFB1E90B92
:1009F0008E635FD6655DD6651D6E0D8F738D5B3E14
:100A0000C7B41FC8E1B22EEBB22E6BD0130D8FBB53
:100A1000F394CFB1E90B8E635FD6655DD6651D6E2D
:100A20000D8F3B87C3387AF59A45DF709AF3B22E63
:100A3000EBB22E6BD0130D8FBBF3D4A357AF393D60
:100A4000E138F6655DD6655DD6E1060D8FBBF394A2
:100A5000CFB1E90B8E635FD6655DD6651D6ED5F0AF
:100A60008D14A1C881CFD9F1AF2000199F270E8422
:100A7000C998008F0207CB67084042F800671E50F4
:100A800064584AA650197DC081C5449CEDB3E80A5C
:100A9000C0211DCFB973EC29EC24A771600101CDF1
:100AA0001830E080FE2A6E822B6F5CE38D6EC2915F
:100AB000EF0251FF0079FF01D8FF005E0000D20075
:100AC000001D1E320126011201FA00E400D400C408
:100AD00000AC000503010307030105030406070634
:100AE00004070301030703050201070304060706C1
:100AF0000502040202030304073E41553E03075F5B
:100B00002E140307142E5F08083C42BDADA5BD425C
:100B10003C003C42BDAD423C0000003CFFC33C00F9
:100B200000003C42A5BD423C0037973F133801000E
:100B3000135080004C112E201C44DC80ADC4600B8F
:100B4000B8217800E102E20408800213003801BFF6
:100B5000DEAB57BE332F000000C08E174787A3C3FC
:100B6000515407822A451564A8D2E1E8707478319F
:100B70001B000000B8CCEF70F5EABB71904CF4128A
:100B80000032701C12A10020C010EB0C90011080EC
:100B9000228250B0425101280002500004A00008F7
:100BA0004001502958A120881420002340A6150791
:100BB00080005030390C1901201765060F030B1007
:100BC000000000A0F0D0A080000000FC0229202836
:100BD000082902FD02FC0605110A171B0E11060565
:100BE000000C161F0C00040406090F060A0F0F085C
:100BF000090D0F0A090B0F0F03020F0F070D0D0D43
:100C00000F0A0E0E010D0F030E0B0B0F07050F0F32
:100C10000C083C428181818181818181423C0B0DA4
:100C2000C7831B2363FF03037B030318181B1818D8
:100C30001F18181F1F1FB5018F016A014601B90255
:100C400072021B02D6010F0FB4698619AA4AD76532
:100C5000A844356B65656D0406B00C1A31822020FE
:100C60008220468C187429127404B187AB9C8700CB
:100C700014725204A0E398E1CA69084021CF61953B
:100C8000705AB0C7690840214F510168E0B4608FC5
:100C9000D390D07159123A002997BF7ACD2CE3092D
:100CA0003C7A444E0C9617FFAEF7EF7204E0001C3E
:100CB000F6EFE4B567AE5E7DCE95EF71E6CC99D7E1
:100CC0005EBD72F635FFFFFFFFFFFFFFFFFFFFFF77
:100CD000FFFFFFFFFFFFFFFFFFFFFFFFFFFFFFFF24
:100CE000FFFFFFFFFFFFFFFFFFFF1F1F1F1F1F1F54
:100CF0001F1F1F1F1F1F1F1F1F1F1F1F1F1F1F1F04
:100D00001F1F1F1F1F1F1F1F1F1F1F1F1F1F1F25ED
:100D10000DFFFFFFFFFFFFFFFB0303BB0347FFFBCD
:100D2000C3033F83FBFFFB0303BB13FF0303FFFF6F
:100D3000FFFFFFFFFFFF1F1F1F1F1F1F1F1B181895
:100D40001B181C1F1F1B18181B1F1F1B18181B19F3
:100D50001F19191F1F1F1F1F1F1F1FCF03A8037B52
:100D60000357032B03FE0249050105D8048F0448ED
:100D700004010412100080403D010101F40404F458
:100D80000101013D408000F7E8D1C0DCA241584498
:100D90004E5841A2DCC0D0E8F7008040BDC1C1017F
:100DA000F40404F40161E1FD408000F7E8D7C3DDFD
:100DB000A25D7663775F5DA2DCC1D7E8F700804073
:100DC0003F151501FC7C54D4011F1535408000F7F8
:100DD000E8D1C0DCA241545A5A4041A2DCC0D0E85C
:100DE000F7118761C284EE100830901B7243061021
:100DF00008D9850993009B0FFF7E01F605C1059870
:100E0000053F87ABB042A9A5D4526A29B5945A4A86
:100E10002DA596524BA9A5D4526A29B5945A4A2DAC
:100E2000A596524BA9A5D4526A29B5945A4A2DA524
:100E300096524BA9A5D4526A29B5945A4A16740100
:100E40000B0D0303BB2323FF03037B030318181BB2
:100E50001C181F18181F1F1F0F0FB469469CE07045
:100E6000F596E100E35A59591B0105582E970B419D
:100E70004004415C2E97AA22414700100EBAB6BE2C
:100E80005E3EFE7E7E6E76EE3E5EBEBEB604022204
:100E9000142438051D252D140C02360A040C0E0CE2
:100EA0000E0F0A00080C0C0E0E0F0E0C00000000B6
:100EB000000000000000000000080C0E0F0E0E0CD9
:100EC0000824040C020402050A00080404020601B6
:100ED000020C0000000000000000000000000008FC
:100EE000040E01060204083221FFF20C6C6C482447
:100EF000000000008600FFFFFFFB83FD83FBFFEF88
:100F0000DF81FBF7FFFBF789F7FBFFFFFF00008C9A
:100F10000000000024486C6C0CF3FFFFF30C6C6CB9
:100F2000482400000000CC000181C1C1C1C1C1C181
:100F30000181C1C1C1C1C1C10181C1C1C1C1C1C0A2
:100F4000008C0000000024486C6C0CF3FF3F330C55
:100F50006C6C482400000000C0000C8CCCCCCCCCC5
:100F6000E018C4320A0A0A0A0418EC8CCCCCCCCCA7
:100F7000C0C8008C0000000024486C6C0C73BF00DB
:100F8000000C6C6C482400000000C0000C8CCCCC21
:100F9000CCCCFF00FF00000000000000FF8CCCCC98
:100FA000CCCCC0C8008C0000000024486C6C0C0045
:100FB000FF00000000000000000000000000000032
:100FC0000000000000000000000000000000000021
:100FD0000000000000000000000000000000000011
:100FE0000000011512FF7F7FFF0FF70BF3DB4B397A
:100FF0004ADBF30BF70FFF7F7FFF00FF0000ABAA78
:10100000A9A8A9A9A9A9A9A821220100FF00000057
:1010100003000002020202020202000000000200BD
:1010200000030000000000000058FCFEFFFFFEFC73
:10103000580000000080800000C0E0F0F8F8F0E008
:10104000C0000080800000000058FCFEFFFFFEFC96
:10105000580000000000C0E0F0F8FCFEFFFFFFFFBA
:10106000FFFFFEFCFCFEFFFFFFFFFEFFFFFFFFFF99
:10107000FFFFFFFEFFFFFFFFFEFCFCFEFFFFFFFF89
:10108000FFFFFEFCF8F0E0C0321000000000005846
:10109000A45AB5255AA4580000000080800000C062
:1010A00020D0A828D020C000008080000000005878
:1010B000A45AB5255AA458000000000040A050A82A
:1010C000542A158AA4A48A352AB4444241A0AAB558
:1010D000AAB7ADA2A5A1A2ADB6AAB5AA404142A4A5
:1010E000346A158AA4A48A152A54A850A040090E6F
:1010F00007F986AA82AA86F907003F20242A26201B
:101100003F00E0F0F8FCFCFCFCFEFFFEFCFCF8F00D
:10111000E00103070707070707070707070703019A
:101120000F0BE010E814E4B4947295B6E414E810E0
:10113000E0010205020103020202030102050201AD
:101140004B1CFFFFFFFFFFFFFFFFFFFFFF7FBFFF06
:1011500080FEFE00FF0000606060606763616161A7
:10116000616161616161616161616161616161616F
:1011700061656901610101010101010101010101D3
:10118000010101010101010303070F6F0FFFFFFFC1
:10119000FF7F43BD423C722A262A723C42BD427FF9
:1011A0000002000000FEFE00FF0A0B0A0B8A4B2A19
:1011B000ABAAABAA4B8A0B0A0B00FEFE000000771D
:1011C00032333233323332333233323332333233F7
:1011D000320000000000FFFF07F71717109F1D994E
:1011E000919F911F1D19919FF1BF50F003000000C6
:1011F000FFFF00FFD3D2D3FE01FC0300000000007C
:1012000001FED3D200FFFF000000773333333333C6
:101210003333333333333333333333330003000067
:1012200000FFFF000F0A0408020202000200000093
:101230000001010F0A050F000000000F0F000F0D45
:101240000D0D0F000F000000000000000F0D0D003D
:101250000F0F00000007030303030303030303034B
:101260000303030303030300030000000F0FFEFE4C
:10127000FEFFFFFFFEFEFEFEFEFEFEFEFEFEFEFE8B
:10128000FEFEFEFFFFFFFEFEFCF87F7F7F7F7FFFFD
:10129000FFFFFFFFFFFFFFFFFFFFFFFFFFFFFFFF5E
:1012A000FF7F7F7F7F7F00000000000303030303B5
:1012B0000303030303030303030303030300000007
:1012C00000001C12FE02FAF575F57ABA5AAACA3A5B
:1012D0003A3ABA3ACAAA5ABA7AF575F5FA0204F84D
:1012E0007F405F5F5BDC1D9A9F9F9F9C98941B1CB7
:1012F0001F1F1F1A1D1CDB5F5F40407F00000000A6
:1013000000030001010101010101000000000000D3
:1013100000000300000000009BCF39EC79CA6B8FFE
:10132000E3304F3DFA9CE3B8ACC3217F5F1BC7336A
:10133000A7358FBECE91CF791CA71CE73A65020472
:101340001055A055A075FFD5FF6E00960000000F48
:10135000008300960000000F004A01960000800BF9
:10136000024B0000000F000B024B0000800B024BF1
:101370000000000F0070034B0000000F0093024BB1
:10138000000080AF00030026010400B8010400A59E
:101390000001000080DC00090093000A00830006C1
:1013A00000AF000A0000804A01960000000F008391
:1013B00000960000000F006E0096000080DC0364C1
:1013C000004B026400BA026400008000000A410081
:1013D00001052800020523010002140101010F018B
:1013E0000201140200011E00050A050507DC0009C0
:1013F0000093000A0083000600AF000A0000800886
:10140000081C1422417F0000001C1C3E7F7F002A24
:1014100049A1CF536421F1DEB2981C330104985ED8
:1014200051800520C0428E28C00200E4D16092069F
:1014300019DD197F588E005C40380113FFAF0C4056
:101440007541A2408D12A40E407541A2408D07EA5D
:1014500000821EA807EA813A80A007EA817AA00EDE
:10146000067A7508C3210C87301CC27080C3810CBA
:1014700087301CE0F0EAD5050C07381CE07020C36B
:10148000210C07381CC870315DC070381DE0702019
:10149000C3E1F4EA028603586E8643180E7078F5AD
:1014A0006A39580E4A806139580E96831260580E78
:1014B000C6029AC05205864582C6029AC0520546A7
:1014C0000A681C101840351844B180C601810154C7
:1014D00003933081100E9C090093308110BEC04CE4
:1014E00033F9C47EB7CBA2FBBECB48FCCABE3BD807
:1014F000FBBEEF3B6C12BA53AAA4F71D66B6EFF61B
:101500007DDF771979CD4C3379094CC204209C39A1
:1015100010024CC284688101816114A828128916C6
:101520001810184681B680C6018101548341140BFE
:10153000681C1018403530091308E1C099002F9934
:101540006C16892CAC2CAC2C4C586C54AA48B0A20C
:10155000A2202A22A222222A035111140956165629
:101560001622A2B259084A102B12AC04B1A222834F
:1015700085A0A85891602588092A1B951216561631
:101580005654AC2C42511988042B0B2D8B812CAC5A
:101590002C64B0983C019E702004988409D1020309
:1015A00002C328505124122D3020308C026D018D41
:1015B000030203A806832816D0382030806A601200
:1015C0002610C28133016012260F3797C1CA306FCF
:1015D0005E2664C75853C972355F78F79D9DA9355B
:1015E000C6014F1C6F8ED3B132D77A755FB976DCE6
:1015F000DF3DBCEDACD567C0244C00C2990321C0CF
:10160000244C881618101846818A2291688101811D
:101610006114680B681C101840351844B180C6016D
:1016200081015403933081100E9C0900933081F0A6
:1016300064E923AF0FDE73140FFE82767F5D7D9B1E
:101640008FCD676BF9899CA8DB70CBF3C9E936C6EF
:101650005C3E230C26610210CE1C0801266142B4B8
:10166000C080C0300A541489440B0C080CA3409568
:101670000BE542B9502E940BE542B9502E940BE580
:1016800042B9502E940BE542B9017746C63872A193
:101690005C2817CA8572A15C2817CAC3BEE042B98C
:1016A000502E940BE542B9502E940BE542B9502EC2
:1016B000940BE542B9502E940BE5C27B8FBCC8EE6B
:1016C00050DF71A15C2817CA8572A15C2817CA85F2
:1016D00072A15C2817CA05010000FA00EE01FA00A9
:1016E0001003FA00E402EE020000FA002A02FA00F7
:1016F0000000FA00EE01FA001003FA00E402EE0224
:101700000000FA002A02FA000000FA00EE01FA00D6
:10171000DC03FA007003EE020000EE028801FA001A
:101720000B02FA004B02F4019302FA000180A18738
:10173000DD0D9BBB201BC46B2EBDE43864E3387801
:10174000DCB75EC04B6FA11BC51B0D0F0CA4C040C6
:101750000A0CA4C0400A0CA4C0400A0C78C19933FA
:1017600067CE9C7904CD87DDD213C7018702DCBA2E
:1017700045397281E0910B04BFD52D3D71DC9BC5CD
:1017800031975E7296ECE0730F1838782CDCD6A790
:10179000C61EA7E04D72EB969E380EDC088D8F11A9
:1017A0009225244B4896902C215942B204762EEB78
:1017B000B22EEBB22EEBB28E23474D474646F3DBFB
:1017C00046B3F839AC741C59E9D86405000025000B
:1017D0000000000000000001040000000000000004
:1017E0001E0078003C0001309F0974FF00010106D3
:1017F000B0FF00010106F8FF00010106F000000142
:10180000010765FF00010003250100010004250117
:101810000001020200FF0001010542FF0001010575
:1018200035FF0001010528FF0001010892FF0001BA
:101830000139063906390639062F06240620110318
:10184000106688336688338FCF0B591B60C3458081
:1018500005DE0039F38D5EBD79EDD59BD79E59101D
:101860000E060E86C488468E460E468648C48E06F0
:101870000E08110C14281502010825102111240A44
:101880001609040103070F070B0502010904080CE0
:101890000E0F0E0D0A04083F8FAE055CBD7AF5EA07
:1018A000D5AB57AF5EBD7AF5EAD5AB57AF5EBD7A23
:1018B000F5EAD5AB57AF5EBD7AF5EAD52BB0969D6C
:1018C0001C2817CA8572A15C2817CA8572A15C28DA
:1018D00017CA8572A15C2817CA8572A15C2817CA2D
:1018E0008572A15C2817CA8572A15C2817CA857207
:1018F000A15C2817CA8159298F198370436EC80DBE
:10190000B92127C6B8AC0570436EC80DB92137E4BC
:1019100086DC901B72436EC80DB901AC2547C285A9
:1019200072A15C2817CA09387B4261436143614355
:101930006143614361436143614361436143614387
:10194000618372122997CC2937E486DC10B7885B53
:10195000C42DE216718BD885DC10B7885BC42DE2EC
:1019600016718BD885DC901B72C339D97B7AF5EA66
:101970001CEA45BDA817F5A25EF4EA1CEA45BDA81D
:1019800017F5A25EF4EAD5AB73EFB357AF5EBD7A3D
:10199000F5EAD5AB57AF5EBD7AF5EAD5AB57AF5E8A
:1019A0003D032DDF3F1738817000022C60D16C544D
:1019B0002E04592C368BCD62330972201CF9630832
:1019C0005A9521CC516FECDF3FC2CD0E2C38D0EDB3
:1019D0003799400018C0E05D8BA0DB8882512480DD
:1019E000E8B87A136EE0AD37E106DEBC8A30041049
:1019F0009B091592F2290712100421C8F023142024
:101A00004BC41DC029481800805620000508480115
:101A100000902200004500000A10810A2A0301C03C
:101A200029E2369052BE030B0D0703FB0307FF07A5
:101A300003FB03071C181B181C1F1C181B181C0772
:101A400003FB0307FF8383DB1B1B1C181B181C1FD6
:101A500018181B181CFFFFF70303FF0703FB0307FE
:101A60001F1F1F18181F1C181B181CFFFFF703034C
:101A7000FF8383DB1B1B1F1F1F18181F18181B1841
:101A80001CE3633B03C7FF0703FB030719181A1B7B
:101A90001B1F1C181B181CE3633B03C7FF8383DB5E
:101AA0001B1B19181A1B1B1F18181B181C6363BB60
:101AB0000347FF0703FB03071C181B18181F1C18FC
:101AC0001B181C6363BB0347FF8383DB1B1B1C18B2
:101AD0001B18181F18181B181CFF1F870303FF076C
:101AE00003FB03071C1C1D18181D1C181B181CFFCA
:101AF0001F870303FF8383DB1B1B1C1C1D18181F80
:101B000018181B181C8383DB1B1BFF0703FB030731
:101B100018181B181C1F1C181B181C8383DB1B1B8D
:101B2000FF8383DB1B1B18181B181C1F18181B189E
:101B30001C0703DB1B33FF0703FB03071C181B18E1
:101B40001C1F1C181B181C0703DB1B33FF8383DBC4
:101B50001B1B1C181B181C1F18181B181CFB7B0BAD
:101B600083F3FF0703FB03071B181C1F1F1F1C1811
:101B70001B181C07083E7F4377617F3E0D10F0085D
:101B8000F40C24754674240CF408F000013AE7FEC6
:101B900002C7C606FF2E1900E010E81848EA8CE8D4
:101BA0004818E810E001023DE6FC04CECC0CFE2D06
:101BB0001A01F008F40C24754674240CF408F000A3
:101BC000011CF3FE02C7C606FF160D000C10000034
:101BD00080FCD6829646FEBC0000000F081F00184D
:101BE00018001F1C0700000000F8AC042C8CFCF847
:101BF0000000000F091F011919001F1C0700000039
:101C000000F8AC042C8CFC780000000F091F0119AF
:101C100019001F190E000F8F9FE04066CB1C0CBEF1
:101C2000380F3185216010110938A0B7C61CE602B3
:101C3000E0F0F8FCFCFCFCFEFFFEFCFCF8F0E00130
:101C400003070707070707070707070703010F0B26
:101C5000E010E814E4B4947295B6E414E810E001DE
:101C600002050201030202020301020502010B1038
:101C7000FFFFFF5F0F2F5F7FFFFFFF03FDD6DFD763
:101C8000F7D6FD02FD031410FFFFFFFFFFFFFFFF6C
:101C9000FFFFFFFFFFFFFFFFFFFFFFFFFFFFFFFF54
:101CA000FFFFFFFFFFFFFFFFFFFFFFFFFFFFFFFF44
:101CB0001410F04C141AFF0033332211000004C03A
:101CC000E900A0001400FFF0F6F606E6E606F600CE
:101CD00000000000F0F0FF001400090E07F986AACA
:101CE00082AA86F907003F20242A26203F001C10E4
:101CF000FFFFFFFFFFFFFFFF003333221100001A39
:101D000004C0E91DC4320A0A0A0A051DF0F6F606E7
:101D1000E6E606F60000000000F0F0FF04C0FF0059
:101D2000FF008040A050A8000810FF0033332211AC
:101D30000000FF003333221100001720EFF90636B0
:101D40003624120000F906363624120000F9063651
:101D50003624128A54AA52EA34DA54D45AD42AD2F3
:101D6000A24A94CAC4CA142A52A21A04C0E967AC8F
:101D7000532E272ED3EC67A04C141AFF00333322C6
:101D8000111A04C0E965A04C141A04C0E965A04CFE
:101D9000141AFF0033332211C0E0F0F8FCFEFFFFFD
:101DA00008088040A0502814CAC415D7EFBB7FD7BD
:101DB000DEBBF73F93737AF5EAD5AB57AF5EBD7ADA
:101DC000F5EA041597DFC9057008B122A1043704AC
:101DD00047B9442E793FA5C04026608B80821450BD
:101DE0009085E0AD5B417512000000E733CFFC5AEF
:101DF000CF9C010506EDF6C9F6EDFDFDC0EFEFFC49
:101E0000FBC0FBFCFDC1FEC1FDF7EFC0FDFBFDFB10
:101E1000C4FBFDEDCDE1ECEDFDACA6F0F98BCF2BD5
:101E2000ACA1DC901B72D223596D1938A1B0A1B0BE
:101E3000A198C1A02D01010704041E14050500028C
:101E40000204040419000000140101050303232304
:101E500000000006060606061E1402020000001915
:101E6000000B020403095C010023000E0205050BB0
:101E70000300041E000B0305050B01010228000EE0
:101E8000030507104202083204120608071020005A
:101E9000041E040B0204050B1C010228040E02059B
:101EA000050B5000001E040B020505080101022865
:101EB000040E030507101C030A3C08170508071049
:101EC00010000023080B020505084201022D080E30
:101ED0000205050B1C000423080B0306050B10016B
:101EE0000428080E030607100F040C500C1A0000FB
:101EF000000042AF00FA00C400FA00DC007701AF36
:101F0000007D00C4007D00DC007D00AF00FA00C44D
:101F100000FA00AF00FA009300FA000601FA00E9A7
:101F200000FA00DC00FA00C400FA00DC00F401C48E
:101F300000FA00C400FA00AF007D00C4007D00DCA0
:101F4000007701AF007D00C4007D00DC007D00AFA4
:101F500000FA00C400FA009300FA009300FA0006A9
:101F600001FA00E900FA00DC00FA00C400FA00AF50
:101F700000F4010000FA005D01FA004A01FA00A530
:101F800000FA00C400FA0006017701A5007D00C434
:101F900000FA000601FA00E9007D0006017D00C498
:101FA00000FA00DC007D00C4007D00DC007D00C480
:101FB000007D00DC007701C4007D00DC00FA00C475
:101FC00000FA00AF00FA00C4007D00AF007D00A55C
:101FD00000FA00C400FA0006017701A5007D00C4E4
:101FE00000FA000601FA00E9007D0006017D00C448
:101FF00000FA00DC00F4012601F401DC00F4015DCC
:1020000001FA004A01FA00A500FA00C400FA00062D
:10201000017701A5007D00C400FA000601FA00AFB7
:1020200000FA00C4007D00AF007D00A500FA00C4E6
:1020300000FA0006017701A5007D00C400FA000641
:1020400001FA00AF00FA00C4007D00AF007D00E996
:10205000007D00DC007D00E9007D00DC007D00E902
:10206000007701AF007D00A5007701C4007D00AFBF
:1020700000FA00C4007D00AF007D00E9007D00DCB7
:10208000007D00E9007D00DC007D00E9007701AF04
:10209000007D00A5007701C4007D000080258FCF62
:1020A00066387AF5EAD5AB57AF5EBD7AF5EAD5ABBF
:1020B000578F64BEEBA050101011101011101011AA
:1020C000101011101011101011101011101011100B
:1020D00010111010111010111010111010111010FB
:1020E00011101011101011100A65140000FCFEFEF2
:1020F000FEFEFEFFFFFFFEFFFFFFFEFCB8F0FEFF4F
:10210000FFFFFFFF7F7F7F7F3F3F7F3F1F1F0F004E
:102110000103030707070707020000000000000093
:102120000012130000FC06FACA922E9DE5C996CD56
:102130006549165CB8F00E41AC563B874D434144AF
:102140002E37402217100F00010202050504050575
:1021500002000000000000000001010000B8FCFEC9
:10216000FFFFFFFEFFFFFFFEFEFEFEFEFC00000F76
:102170001F1F3F7F3F3F7F7F7F7FFFFFFFFFFFFEF0
:10218000F000000000000000000207070707070337
:102190000301001213B85C164965CD96C9E59D2E62
:1021A00092CAFA06FC00000F10172240372E444155
:1021B000434D873B56AC410EF0000000000000008C
:1021C0000002050504050502020100010000011FCF
:1021D000168040A05028D4EA723A9A9A1232F5E159
:1021E00091E1F234129A9A3A72EAD42850A04080CF
:1021F0000700020500E73F3C1D5CDC3DA420A9A4CC
:1022000029A0A43DDC5C1D3C3FE70005020007005F
:1022100000000002152B242D2C2C262A2A2A2A2ADB
:102220002A2A262C2C2D242B150200000000000148
:1022300002011C088046DFFF07038247DF7F870318
:1022400007070E1E362E546C58B8B8D8B85C631CFD
:102250002060E0E0F0F8FBFAFCFFFEFCF0F0F0F0AC
:10226000E00000000000000107070F0F0F0707073D
:102270000301110C2060E0E0F0F87B6A6C7FFAFC4F
:10228000F0F0E050A000000000000001030305038F
:102290000503010201000001011E10000000000002
:1022A0000000008040000000800000818202B2F443
:1022B000F8F870307070E0C08020405060E8E8F0BE
:1022C000E0E1FA7F3F02070FF50FFFFBFCFF010083
:1022D00000000C229F7F0A000001BB074A07D206BC
:1022E0005D0662084A083208AF0895087A083C7E05
:1022F000FFFFFFFFFFFFFFFF7E3C003C7EFFFFFF75
:10230000FFFFFFFFFFFFFFFFFFFFFFFFFFFFFFFFDD
:10231000FFFFFFFFFFFFFFFFFFFFFFFFFFFFFF7E4E
:102320003C33083C4281BD89BD81BD9589423C005A
:102330003C42BDA5A5A5A5A5A5A5A5A5A5A5A5A501
:10234000A5A5A5A5A5A5A5A5A5A5A5A5A5A5A5A53D
:10235000A5A5A5BD423C0904040800070003000828
:1023600004E608D708CA0810090309F7080F8F3ACE
:1023700033620F6B1EF95C0A9FC969AFCBBAACCB55
:10238000BACC020F8F3A8101281C109863020219FF
:10239000280844372585CF0027849CC65E7B5C8D4A
:1023A000B3BA09A00985096B09520938091D094BFF
:1023B0000A360A200A0D0AFA09E709D409544152DB
:1023C00041544F4D414D4F4D454E4F5641534F5344
:1023D000494B414B494D554E555455535552455314
:1023E0004554455045504F50495041000808504011
:1023F000584455407F000808007F405544584050DD
:1024000008080A021A22AA02FE00080800FE02AA10
:10241000221A020A20496E76656E746F72F920786E
:10242000A0537461746973746963F34865616C7473
:1024300068203A0A536B696C6C203A0A44656665F9
:102440006E6365203A0A476F6C64203A0A44756EE1
:1024500067656F6E7320BA2020202052756E65F379
:1024600020456E656D79205374F34E616D653A0AAF
:102470004865616C7468203A0A446566656E6365F8
:10248000203A8A536176652047616D650A4E65770B
:102490002047616D658A526573746F72652047616C
:1024A0006DE561A06E6F7468696E67A1596F7520E4
:1024B000696E666C6963746564A020707473206FC4
:1024C000662064616D616765AE506C757320616EE6
:1024D000206578747261A0596F75207265676169B3
:1024E0006E6564A0206865616C746820706F696EA9
:1024F0007473AE2020417A7461726F6B2073746FB5
:102500006C65A020687020706F696E7473AE206176
:10251000747461636B732CA02064616D61676520C6
:10252000707473AE5468652047656C6174696E6F32
:10253000757320437562652073746F6C6520610A42
:102540002020A02072756EE52066726F6D20796F75
:1025500075A120596F75206B696C6C65642041739F
:102560007461726F6B20616E642066726565640AC7
:102570007468652076696C6C616765727320667239
:102580006F6D20746865206375727365A1596F75EE
:102590002073636F726564A020676F6C6420636F43
:1025A000696E73AE20736B696C6C20706F696E74AA
:1025B00073AE596F75206469656421204C6F736533
:1025C0002068616C66206F6620796F75720A202022
:1025D00020202020676F6C6420616E6420736B691B
:1025E0006C6C20706F696E7473A147D053D0596FB3
:1025F000752063617374A04E6F6E6520A150726583
:10260000737320506C6179204F6E20546170E570B7
:10261000726573656E74F341535441524FCB202061
:102620002048657265206C6965732056616D70691C
:10263000726963732E0A2020426F726E2031383423
:1026400033202D2044656320313838B22052657321
:102650007420496E2050656163652046696C6D6F1A
:1026600074652E0A2020426F726E2031383431207A
:102670002D2044656320313837B920202050726501
:10268000737320506C6179204F6E20546170650A1D
:102690002020202020446576656C6F7065642032B0
:1026A0003031B957656C636F6D6520747261766502
:1026B0006C6C657220746F2074686520746F77EE9F
:1026C0006F6620477269666F72642E2054686520B9
:1026D0006576696C2041737461726FCB6861732099
:1026E0007475726E656420757320616C6C20696E00
:1026F000746F2070756D706B69EE70656F706C65CE
:102700002E20506C656173652068656C7020757350
:10271000206465666561F474686973206372617A28
:10272000792077697A617264A14265207375726558
:1027300020746F20657175697020796F757273658B
:102740006CE670726F7065726C792E20596F75200F
:1027500063616E207072657373202224252074EFEC
:1027600061636365737320796F757220696E766536
:102770006E746F727920616E642074EF766965778C
:1027800020696E666F726D6174696F6E2061626F31
:10279000757420796F75206FF2796F757220656E90
:1027A000656D696573AE496E20636F6D6261742CEF
:1027B00020636173742072756E657320746F20736B
:1027C000636F72E527706F6B6572272068616E64B6
:1027D000732E205072657373696E67202223252043
:1027E00077696CEC63617374207468652072756E30
:1027F0006573202D206A756D7020616EE4746F75AD
:1028000063682072756E657320746F2073656C65E4
:10281000637420746865ED666F722072656361731E
:1028200074696E672E204E6F726D616C6C792079C1
:102830006FF563616E206361737420332074696D7A
:1028400065732C2062757420736F6DE56974656D16
:1028500073206D69676874206769766520796F7584
:10286000206578747261AE4372797374616C20482C
:10287000656C6D65F4486967682048656C6D65F442
:10288000526F756E642048656C6D65F446697265BB
:1028900020506F74696FEE4865616C746820506FEA
:1028A00074696FEE537065656420506F74696FEEE4
:1028B0004669726520426C617AE54865616C696EB3
:1028C000672057696EE4526973696E6720537461BB
:1028D000F256656E6F6D204D6973F435204669724E
:1028E0006520444DC74865616C2032302048D033A4
:1028F000352044616D6167E53220502E20444DC77C
:10290000612046697665206F662061204B696E64A0
:10291000A16120466F7572206F662061204B696E41
:1029200064A161205468726565206F662061204B48
:10293000696E64A154776F205061697273A1612040
:1029400046756C6C20486F757365A1596F75207062
:1029500069636B656420757020736F6D65204850E6
:10296000A1202020205468616E6B20796F7520664D
:102970006F7220736176696E670A20202020202004
:1029800075732066726F6D2074686520437572736D
:1029900065A1204F766572777269746520657869E4
:1029A0007374696E672067616D653F0A202020207F
:1029B000202020202020222325205965732020203C
:1029C00020222425204EEF20205374617274206150
:1029D000206E65772067616D653F0A2020202020EA
:1029E0002223252059657320202020222425204ED3
:1029F000EF202047616D65207374617465207265F6
:102A000073746F726564A120202020596F75206156
:102A10006C726561647920686176650A206F6E6505
:102A2000206F662074686F73652068656C6D6574CF
:102A300073A12020596F7520616C726561647920E3
:102A4000686176652061730A6D616E79206F66201A
:102A5000746865736520706F74696F6E730A2020E7
:102A6000617320796F752063616E20636172727982
:102A700020A1202020427579207468697320697430
:102A8000656D3F0A202020222325205965732020D0
:102A90002020222425204EEF596F7520646F206E70
:102AA0006F7420686176650A202020656E6F7567F7
:102AB0006820676F6C64A1202020596F75206172B7
:102AC00065206361727279696E670A206F6E652096
:102AD0006F662074686F73652072756E6573A120D0
:102AE0002042757920746869732072756E653F0A9B
:102AF00020202223252059657320202020222425F0
:102B0000204EEF20596F7520646F206E6F7420681F
:102B10006176650A20202020656E6F7567682053F6
:102B200050A1202020202020202041206D6F6E7396
:102B30007465722061747461636B7320796F75A121
:102B40005468726F77207468652072756E657320A3
:102B5000616761696EA1202047616D6520737461B2
:102B60007465207361766564A10308000000002F7E
:102B700000003C7EC3F5C381B5CB7E3C0000000065
:102B8000030000000000000000000000081C0840D6
:102B900020000808080020000000003F213F223FDD
:102BA000203329272329371E113F37253D3F253D57
:102BB0003905033F253F07053F14000000000000D2
:102BC00000000000000000000229062000203C0B4D
:102BD0003C3F253B3F21333F213E3F25213F05011F
:102BE0003F213B3F043F3F000030203F3F043B3F3D
:102BF00020003F0E3F3F023F3F213F3F090F1F1183
:102C00003F3F053B372D3B013F013F203F0F300F3A
:102C10003F183F330C33033C03312D2300000000E9
:102C20000000000000000000000000000000182468
:102C30003C3E24183C242418243E183428083E0A1C
:102C40005C543C3E04383A0000403A003E083402EE
:102C50003E003C083C3C043C3C243C7C24181824AA
:102C60007C3C040C282414041E243C203C1C201C06
:102C70003C103C3408345C503C34242C01010704E3
:102C8000041E1405050002020404041900000014C7
:102C90000101050303232300000006060606061EA5
:102CA0001402020000000A41000105280002052369
:102CB000010002140101010F010201140200011EB2
:102CC000782711241FBECFEFDAE0DEBFCDBF11E0C1
:102CD000A0E0B1E0E8E4FFE602C005900D92A03666
:102CE000B107D9F726E0A0E6B1E001C01D92A036F9
:102CF000B207E1F716E1C1E6D6E104C02197FE0173
:102D00000E949C37C036D107C9F70E94B7270C94A0
:102D1000A2370C940000982F8091FE05923051F05C
:102D2000933019F0911107C0089590910106990F01
:102D3000890F0895880F90910106FACFEFE9F1E02D
:102D400081E0A0E0B8E000800EBC8111012C119759
:102D5000A0FDFDCF0192B9F70DB408952F923F92D7
:102D60004F925F926F927F928F929F92AF92BF929B
:102D7000CF92DF92EF92FF920F931F93CF93DF9347
:102D8000CDB7DEB760970FB6F894DEBF0FBECDBFEC
:102D90001C015A8349830B87FA013491319644917F
:102DA0004E83832F8F778F5F682E712CC301820D26
:102DB000931D97FD99C150E8251631040CF094C17C
:102DC000842F8F738F5FAB01480F511D57FD8CC14E
:102DD000603471050CF088C1331F3327331F388BE3
:102DE00091E09D833E8136FF1D828B0177FF04C0F9
:102DF00000271127061B170B07701127AB0177FF60
:102E000002C0495F5F4FFA01A3E0F595E795AA95E7
:102E1000E1F7F887EF8377FF0CC00115110549F042
:102E20003197F887EF8348E050E0BA01601B710BDF
:102E30008B01682F669566956695877009F06F5FC0
:102E40007B85A30141505109711102C050E040E05F
:102E500097E0A0E1B0E080E0512C412C912C812C36
:102E6000E62FF0E0FD87EC876C857D85861697065A
:102E70000CF03AC1EE24E394F12CFD0173E0F695D9
:102E8000E7957A95E1F769817A81E60FF71FE4917A
:102E90006E2F70E0FD01E770FF2702C07595679502
:102EA000EA95E2F7FD013196FF87EE8760FF06C0E5
:102EB000FFEFEF1AFF0AAE85BF85DFCF31E0E316E3
:102EC000F10409F0A1C0EE85FF8563E0F695E79572
:102ED0006A95E1F769817A81E60FF71FE491F0E0E6
:102EE000EE84FF8477E0E722FF2402C0F595E795A2
:102EF000EA94E2F7E170FF27BF016F5F7F4F7C83A9
:102F00006B831296F12CE12C6B817C816E157F0511
:102F100009F4DCC07889772359F0692F70E03D818E
:102F2000332309F4B9C0685A7E4FFB016081862BB8
:102F3000915008F0C7C0882309F448C0DF80D80C3E
:102F4000F7E0FD150CF442C0B101640F751F603845
:102F50007105E0F590E0002E02C0880F991F0A94D9
:102F6000E2F7D7FC15C03D2D60E83603F0011124CF
:102F7000E20DF31DE40FF51FBF0161567E4F5B01AB
:102F8000FB016081222309F48EC0682BF501608368
:102F900001151105D9F0F7E0DF16C1F03FEFD316A8
:102FA000ACF0ED2DDD0CFF0B3196F695FE2FEE27E4
:102FB000F795E795E20DF31DE40FF51FE156FE4F7F
:102FC0006081222309F473C0692B60836E8167FFDF
:102FD00004C07D8181E078277D839FEF491A590ADB
:102FE0003B85332309F467C0415051094614570407
:102FF00044F04FEF841A940AA30141505109512C17
:10300000412C97E080E05EC0B701615071097A877A
:103010006987E1E0F0E0098402C0EE0FFF1F0A9427
:10302000E2F7BF016F5F7F4F7C836B83D12CC12C94
:10303000AE84BF84AC0CBD1CF50133E0F695E7957A
:103040003A95E1F769817A81E60FF71FE4916E2FD7
:1030500070E0E7E0AE22BB2402C075956795AA94A4
:10306000E2F760FF0EC061E070E00C2C02C0660F5A
:10307000771F0A94E2F7EB81FC81E60FF71FFC83D0
:10308000EB83FFEFCF1ADF0A69857A85C616D7066C
:103090007CF2AE0DBF1D36CFE7E0F0E0E61BF70B8C
:1030A000E85AFE4F43CF782F709567236FCF892F53
:1030B000809568238ACF461457046CF44F5F5F4FA6
:1030C00080E097E06FEFE61AF60A1ECF71E03889CC
:1030D000731B788BC9CE5FEF851A950A50E040E0EC
:1030E00080E0512C412CEDCF60960FB6F894DEBFF6
:1030F0000FBECDBFDF91CF911F910F91FF90EF9049
:10310000DF90CF90BF90AF909F908F907F906F9007
:103110005F904F903F902F9008952F923F924F9243
:103120005F926F927F928F929F92AF92BF92CF9257
:10313000DF92EF92FF920F931F93CF93DF9300D014
:1031400000D000D0CDB7DEB7DB014115510509F441
:103150003AC1FA019490319674914E5F5F4FA92C59
:10316000B12CBA82A982222321F1E1E0F0E0372FCD
:10317000377011F4F0E0E0E0C72EC694C694C69410
:10318000CE0EDF2ED11CA980BA80CA9CF001CB9C48
:10319000F00DDA9CF00D112463E0B62EEB1002C0A6
:1031A000EE0FFF1F2E9F60012F9FD00C11244C0D9E
:1031B0005D1D29813A81280F391F3A832983121610
:1031C00013060CF000C1803891050CF0FCC09D0185
:1031D000270F311D121613060CF0F5C0A034B105EF
:1031E0000CF0F1C04115510509F4EDC03A2F3770CC
:1031F000632E9D01B7FF02C0295F3F4FE3E0359585
:103200002795EA95E1F7F22FB7FF04C0662011F089
:10321000FFEFF20F22273327281B390B97FD02C03F
:1032200030E020E0A981BA8160E8F62EF81AA038D3
:10323000B1050CF4F92CF21AAF2F0F2E000CBB0BBA
:10324000FF3F0CF0A1C0EA2FE095E983E1E0672F92
:10325000677009F4E0E0769576957695E70FAE0F06
:10326000B11D199714F0E8E0EF1B79807F0E772DE0
:1032700060E87603D00111248A0F9B1F820F931FF1
:10328000262C062C000C330873E0A2E0E712A1E024
:10329000B92DBF19BA9FB02D1124AA2EB12C698166
:1032A000969E200D311D11242A9DB0012B9D700D7D
:1032B0003A9D700D11246A01C60ED71E0115110525
:1032C00009F48A01950121503109620F731F060F1D
:1032D000171F6FEF70E0062C02C0660F771F0A946D
:1032E000E2F79B01209530953A8329834E2E4F0EAD
:1032F0004B2F50E0AF9D400D511D1124741409F463
:1033000062C0DC01A156BE4F1E821D82512CF514F5
:1033100009F451C0ED81FE81EC0DFD1D249130E0DA
:10332000022C02C0220F331F0A94E2F762E0E61675
:1033300009F43EC07BEFE71229C0F901E095F09552
:10334000FC83EB8330E020E077FC05C09C907B8120
:103350009722922A9C92662071F0E6E0E7155CF0D5
:103360004D01F0E88F0E911CF4012081FC812F2388
:10337000232BF401208353942D813E812A0D3B1D84
:103380003E832D831196C3CF198260CFED81FE81DC
:10339000E00FF11FE491F0E0022C02C0EE0FFF1FDE
:1033A0000A94E2F7BF01609570957C836B83CCCF64
:1033B00069817A81FACF7394C40ED51E040F151F4C
:1033C00080589F4F9BCF26960FB6F894DEBF0FBE56
:1033D000CDBFDF91CF911F910F91FF90EF90DF90C4
:1033E000CF90BF90AF909F908F907F906F905F90A5
:1033F0004F903F902F900895E7EEF5E080E0919197
:1034000091118F5F95E0ED3EF907C9F70895482FB8
:10341000209102013091030186B52827C9019695B4
:10342000879520FF02C024EB92279093030180939D
:103430000201641B770B0E947437840F08959091EA
:10344000E505981721F08093E5051092DD050895B4
:10345000E091E6058091DB05E43041F094E0E99FDE
:10346000F0011124EA55F34DE4918E0F0895EFE930
:10347000F5E0A08DB0E0A25BBE4F8C918F3F49F488
:10348000838D811107C0349695E0E33BF90789F7F6
:10349000089581E00895EF920F931F93EE24E39433
:1034A000890120E00E948D181F910F91EF900895DF
:1034B000CF92DF92EF92FF920F931F93CF93DF9300
:1034C000EC017B016A01A90120E00E94AE1621E017
:1034D000A601B701CE010E94AE16DF91CF911F91D8
:1034E0000F91FF90EF90DF90CF900895209197017A
:1034F0003091980127703327232B51F49091B30515
:103500009F5F891719F09093B30508951092B30542
:10351000089520918701E0918501F0918601CF0106
:1035200002969093860180938501222319F085915C
:1035300094910895808191810895E1E7F0E0808180
:103540008D7F808310929100469847981092840155
:103550000895CF92DF92EF92FF92CF93DF930E9474
:10356000891A811520E8920741F4DF91CF91FF90ED
:10357000EF90DF90CF900C949D1A21E0209384016E
:10358000813020E8920751F480918201909183016B
:1035900090938601809385010E94891A97FD05C04A
:1035A00020918101222309F45BC020918001211127
:1035B00057C021E020938801EC01DF77209709F0C4
:1035C00052C081E08093890146983FE9C32E3FE0D5
:1035D000D32EE12CF12CCAEFD0E0E0917E01F091E6
:1035E0007F010995811103C081E080938901809159
:1035F0008801882329F080918901882309F446C035
:1036000047980E94891A009709F444C09C01DE0182
:103610000E944B37DC01CB0129E0B595A795979522
:1036200087952A95D1F7109290002AE02093910077
:10363000D0929900C092980080938A0190938B0158
:10364000A0938C01B0938D01809171008260809372
:103650007100DF91CF91FF90EF90DF90CF900895B0
:1036600010928801A9CF9E0150E040E060E472E42E
:103670008FE090E00E940A3769017A0181E0C81A60
:10368000D108E108F10810928901A7CF4699B8CF77
:10369000479AB7CF8FEF9FEFDC01C5CF9C01E1E7E1
:1036A000F0E090819D7F908381E08093870130934B
:1036B00086012093850130938301209382010C942D
:1036C000A91AEF920F931F933AEFE32E10E000E058
:1036D0000E948D181F910F91EF900895EF920F9314
:1036E0001F933BEFE32E10E000E00E948D181F9126
:1036F0000F91EF900895CF93DF93D82FDF776091EC
:103700009001DA3061F480918F0180938E01809175
:103710009301680F60939001DF91CF910895C82FB6
:1037200020EE2D0F6F5F062E000C770B80918E011F
:10373000082E000C990B3091910149E65BE2313083
:1037400079F40E94611B90918E01D03229F0CF75DF
:10375000C93411F0D73239F49E5F90938E01DCCFDB
:103760000E946E1BF0CFD252D43010F0CC3411F442
:103770009D5FF3CF809192018D5F980FEECF1F93E5
:10378000CF93DF93C4E1D4E2882339F0FE01949112
:10379000219697FFFBCF8150F7CFFE011491812F27
:1037A0000E947B1B219617FFF8CFDF91CF911F91CD
:1037B00008950F931F93CF93DF9300D000D0CDB720
:1037C000DEB71C82FE0134962AE0622F0E945A372F
:1037D000905D92938111F9CF8F01F80181918F0152
:1037E000882319F00E947B1BF8CF0F900F900F9049
:1037F0000F90DF91CF911F910F9108950E94D91BD7
:103800008AE00C947B1BEF920F931F9332E0E32E20
:1038100010E000E00E948D181F910F91EF90089525
:10382000F89487E78093000880930108A89588E1C1
:103830008093600088E080936000FFCFBC0190E03F
:1038400080E0AB01FC010E94391C41505109E109A3
:10385000F10928F068517C4F8F4F9F4FF6CFAB0195
:10386000FC010E94391C641775078E079F07C8F377
:103870000895A9E7B1E02FB7F8947D918D919C91BF
:1038800066B52FBFA89B05C06F3F18F47F5F8F4FB1
:103890009F4F22E0660F771F881F991F2A95D1F747
:1038A0000895811109C086EA5C988EBD00000DB4B0
:1038B00007FEFDCF5C9A089587EAF6CF80917D01DF
:1038C000089510927D013E983F9808953E9A3F9A40
:1038D00081E080937D010895480F592F511D1416E2
:1038E0001506D4F580389105B9F197FF02C090E034
:1038F00080E04138510514F040E850E0481BFB01DE
:1039000077FD379633E0F595E7953A95E1F7F6952B
:10391000FE2FEE27F795E795E80FF91FE156FE4FCA
:103920006770772781E090E001C0880F6A95EAF719
:10393000382F213041F4415078F08191DF01119707
:10394000832B8C93F8CF8095415030F09191DF011B
:10395000119798239C93F8CF089520E191E061FDA1
:1039600094E060FD990F62FD9295687F269FD001DB
:103970001124A80FA156BE4F8C91442319F0892B16
:103980008C93089590958923FBCFDF92EF92FF925D
:103990000F931F93CF93DF937C01D22E8B01040FE3
:1039A000111DEB0177FF02C0D0E0C0E0C801013477
:1039B000110514F080E490E0C817D9075CF480E8A2
:1039C000E816F10428F44D2DBE01C7010E94AD1C7C
:1039D0002196ECCFDF91CF911F910F91FF90EF9047
:1039E000DF900895BF92CF92DF92EF92FF920F93F4
:1039F0001F93CF93DF93C62FD42F082F880F110B5F
:103A000068017801E60EF11CCE14DF045CF420E0BE
:103A10004D2F70E060E0C6010E94C51C8FEFC81AF0
:103A2000D80AF2CFBB24BA94BD0EC25068019FEFF2
:103A3000C91AD90A21E04C2F70E060E0C6010E944B
:103A40006C1C8B2D8150990BBC018034910528F49E
:103A500021E04C2FC6010E946C1C21E04B2D70E030
:103A600060E0C6010E94C51CC6018C0F911D21E0BB
:103A70004B2D70E060E001970E94C51C20E04AE0F9
:103A800054E26FEF7FEFC8010E94031C98E0E91A2F
:103A9000F10820E040E054E26FEF7FEFC7010E94A1
:103AA000031C8D2F8850990BEC0120E046EF53E268
:103AB000BC01C8010E94031C20E04CEE53E2BE0191
:103AC000C701DF91CF911F910F91FF90EF90DF9091
:103AD000CF90BF900C94031CEF92FF920F931F9313
:103AE000CF93DF93182F8091DF05C091DC058823E9
:103AF00031F0E091E005F0E0E65CFE4FC08190918E
:103B0000E505892F8D7F01E0813009F000E080918B
:103B1000DE05D0E0E090ED05F090EE05882321F081
:103B20008770843008F04FC02091DD05923068F135
:103B30009430A8F58091970180FF3CC093E080917C
:103B4000DD05890F9927991F880F991FFC01E15501
:103B5000FC4D25913491FC01EF55FC4D459154915C
:103B6000BE01C7010E94581A8091E605843009F40D
:103B700057C09091E505913009F48FC090F100E0B5
:103B8000933009F08FC001E08DC080919701909132
:103B9000980166E070E00E947437892B11F090E084
:103BA000CECF2F5F233019F02093DD05F8CF109290
:103BB000DD05F5CF2F5F243019F02093DD05BECF52
:103BC0001092DD05BBCF8DEF9FEF002311F081E058
:103BD00090E02DE633E243E853E2BE018E0D9F1DD7
:103BE000C1CF0091DD05002309F45CC000E034E0A2
:103BF00090E0880F991FFC01E959FC4DA591B49103
:103C0000FC01EF59FC4D45915491BE01631B7109B4
:103C10008091ED059091EE059D0102960E94581A43
:103C20008091DF05882361F08091ED059091EE058C
:103C300020E046E553E26DE270E002960E94611BCF
:103C4000112391F12EEE32E241E253E270E060E0A6
:103C500090E080E00E944B1A8091D805883040F4B3
:103C600020919701309198012F7133272131E0F095
:103C7000853608F084E663E00E946637D82FC0E0FE
:103C8000CD1790F48C2F90E021E042E063E070E0EB
:103C900040960E94C51CCE5FF3CF9091DD0501E0F8
:103CA0009111A5CF35E0A4CFDF91CF911F910F9156
:103CB000FF90EF900895089566E080E00E94071A53
:103CC000482F56E0580FE6E0451700F5842F6E2F79
:103CD0000E945A37892F292F30E021563A4FD901B7
:103CE000A85BBF4F9C91992379F09150843038F4B0
:103CF0004091E605841303C044E04093E605285B49
:103D00003F4FF901908308954F5FDECF80E0089523
:103D1000CF93C62FC69549E0849F402D1124455F5F
:103D200080E48C1B0E94F21C8AE48C1BEEE8F1E01C
:103D30008083818385E08283CF910895FC01208177
:103D4000222341F01092AE051092A1051092F605C3
:103D5000108208958091A10581508093A10581E092
:103D60008093F6050895CF93DF93C82FD0915F0617
:103D7000DD23F9F0D23009F49BC0C5FF06C0DD2376
:103D800009F4C6C0D150D0935F06C6FF08C0809129
:103D90005F06833009F4BEC08F5F80935F06C2FF69
:103DA00005C010925C068FEF80935906DF91CF918A
:103DB00008950E94FC19C7FF0EC0909157069330DA
:103DC00020F091509093570606C02091560621117D
:103DD00013C09111F6CFC4FF24C090915706282F2D
:103DE00030E0923068F42150310992171306CCF478
:103DF0009F5F9093570615C0215020935606EBCF36
:103E000080915606482F50E0BA016C5F7F4F6217D1
:103E10007307E4F0490F511D215031094217530730
:103E20003CF3C3FFAACF8091570620915606280F76
:103E3000E7EEF5E030E090E04191442319F02317DC
:103E400049F03F5F9F5F9630B9F797CF8F5F8093C0
:103E50005606E7CFEDEFE90FE33018F09093E60553
:103E60008CCFE130B1F0E230E9F09091FE05965F41
:103E70009093FE05F0E0E651FA4F908191509083C7
:103E800091117BCF882309F478CF81508093570616
:103E900074CF9091D8059C5E953608F094E6909387
:103EA000D805E8CF9091A5059F5F9093A505E2CF37
:103EB00087FF11C090915A0683E0890F981758F434
:103EC000282F2370E22FF0E0EF51FA4F3081332397
:103ED000D9F020935A06C4FF50CF80915A0621E0B2
:103EE000280F90E003962817190611F00CF045CF23
:103EF000322F3370E32FF0E0EF51FA4F408144232B
:103F000029F030935A0639CF8150D8CF2F5FEBCFAD
:103F1000D3E039CF80E041CF2093A1058093F7050E
:103F20006093EF051092F30581E08093F4054093D0
:103F3000F0058093F6050895EFE9F5E0118212820D
:103F400091E0938F89E0808F978F848F93A380A3D4
:103F500097A384A393A780A70895CF93C82F8830F1
:103F600099F080E0CA3089F00E949C1FC33039F07C
:103F700008F052C0CC2309F457C0C130F1F580E8F5
:103F80008093000184E064C08BE68093A1053091AA
:103F9000FA052091FB058091FC05813091F5809117
:103FA00000069091FF05930F9093FF05820F809379
:103FB00000068091FF058093FE05809100068093A6
:103FC000FF05109200068091020680930106809101
:103FD000030680930206109203061092FC051092CD
:103FE000FD0583E08093A505CA3039F48091AF05C3
:103FF000843019F481E08093AD05C093A805CF917A
:1040000008958091030690910206930F9093020603
:10401000820F80930306CDCFC530A1F0C93069F778
:1040200081E08093A105E9CF81E080930B0680E8D1
:104030008093000182E08093010183EF9EE10E9462
:104040004E1BDBCF0E949D1A80E88093000182E026
:1040500080930101D2CF8091ED059091EE058C56B1
:1040600091098531910568F42091A8052A3049F419
:1040700063E070E00E948837660F6B5D6093DC053B
:10408000089585E28093DC0508951F93CF93DF9315
:10409000D82FC62F122F85FF0BC080E00E941F1A59
:1040A000D6FF34C081E0DF91CF911F910C941F1A8D
:1040B00065FF27C08091ED059091EE05853F2FEFBC
:1040C0009207ACF0042E000C550B4817590744F723
:1040D00082E00E941F1A8091ED059091EE050197F4
:1040E0009093EE058093ED050E942B20D9CF8FE7AA
:1040F00090E09093EE058093ED0580E00E94AD1F67
:10410000CFCF8091E505823059F6C7CFC6FF18C0E2
:104110008091ED059091EE0518171906B4F083E033
:104120000E941F1A8091ED059091EE0501969093E3
:10413000EE058093ED05DF91CF911F910C942B201C
:104140008091E505833009F4ADCFDF91CF911F91C8
:1041500008950F93CF93DF93EB0100E021E0AC01D2
:1041600061E270E088E090E00E94AE1621E0AE01CE
:104170006DE270E087E090E00E94AE16DF91CF9193
:104180000F9108958F929F92AF92BF92CF92DF923C
:10419000EF92FF920F931F93CF93DF939AE0499F83
:1041A000A0011124C82FD0E02396D12CC12CCA0124
:1041B0008B5C914E7C01A62EB12C450194E0890EBA
:1041C000911CF701EC0DFD1D149100E021E04DE183
:1041D0005EE1B501CE0103970E94AE16212F43EF99
:1041E0005DE1B401CE010E94031C8FEFC81AD80A0A
:1041F0002D9695E0C916D10421F7DF91CF911F913B
:104200000F91FF90EF90DF90CF90BF90AF909F9075
:104210008F900895CF93C82F85E680938E01809369
:104220008F0185E3809390011092910180E00E94BC
:10423000D91BC43640F480E00E94D91BCA3018F460
:1042400080E00E94D91B8C2F0E94D91B81E08093B3
:104250009101CF910895CF92DF92EF92FF920F9349
:104260001F93CF93DF93D82E8EE0E82E86E0F82EB2
:10427000D70115968C911597D81227C0C090AD051F
:10428000C0910706D0910806EC91E250E830E8F4BE
:10429000F0E0E35BFE4D0C949C3755217621C32161
:1042A000D121F421DC21E6212122CE0106971196AD
:1042B000ED91FC9100E02AEA3DE143EC5DE161E231
:1042C00070E08E0F9F1F0E94581AB6E0EB0EF11C93
:1042D000E6E5EE16E6E0FE0659F6DF91CF911F9176
:1042E0000F91FF90EF90DF90CF900895F7018181BB
:1042F000928128E93DE140EA5DE16AE070E08E01EB
:1043000005511109800F911F0E944B1AD701119678
:10431000ED91FC9120E04AE35DE162E070E0CE01C6
:104320000D978E0F9F1F0E94031CF70181819281C0
:1043300020E048E25DE162E170E0800F911F0E94A1
:10434000031CD7011196ED91FC9120E04EEE5CE14B
:1043500062E270E0CE014C978E0F9F1F0E94031CFB
:10436000CC2009F4B2CFCE010997D7011196ED9177
:10437000FC9120E04AED5CE164E270E08E0F9F1F4B
:104380000E94031CA2CFF7018181928126E83CE1C3
:1043900040EB5CE162E270E08C0F9D1F0E944B1AC3
:1043A00094CFCE0104971196ED91FC9120E04EE65A
:1043B0005CE162E270E0E2CFF7018181928120E36B
:1043C0003CE14EE45CE168E270E0E6CF11968D914D
:1043D0009C9100E020E046E15CE162E270E08C0F3D
:1043E0009D1F0E94AE1671CFF70123810180F281DB
:1043F000E02DCE01CC20E1F004974CEC5BE165E2CE
:1044000070E08E0F9F1F0E946E1B8091970190910C
:10441000980187709927892B09F057CFD7011396F8
:104420008C9113978F5F833049F013968C934DCF07
:1044300005974CE75BE162E270E0E3CFF70113829E
:1044400044CF14968C911497882309F43ECF809121
:104450009701909198018F719927813108F435CF98
:10446000CE0105971196ED91FC91129713962C9120
:1044700043E75BE16BE270E08E0F9F1F0E946E1BB3
:1044800024CFEEE8F1E082E5808381838AE18283B4
:104490008FE10C94BF1BCF93C82F682F81E00E943F
:1044A000881EC6958CE48C1BEEE8F1E08083818346
:1044B00085E082838EE1CF910C94BF1BCF93DF9375
:1044C000EC01262F47E25AE163E270E089E590E0D3
:1044D0000E94611B20E0AE0163E270E087E690E09D
:1044E000DF91CF910C94611BEF92FF920F93CF93CA
:1044F0007C01C62F00E021E042EA59E162E070E071
:104500008DE490E00E94AE1621E0A70168E070E023
:104510008FE590E00E94AE1621E044E459E161E2AB
:1045200070E081E590E00E94AE1621E047EF58E18F
:1045300063E370E081E590E00E94AE1621E047E978
:1045400058E16EE170E085E090E00E94AE16809147
:104550005C0681111BC06091A60581E0682770E0B0
:1045600020E04CE858E181E290E00E94031C809139
:10457000A7056BE370E0882311F06CE370E020E0A6
:1045800041E858E181E290E00E94031C84E58093B9
:104590008E0180938F0185E3809390018CE1C1119E
:1045A00001C08DE1CF910F91FF90EF900C94BF1B54
:1045B000CF93DF93EC0184E690E00E94F436888389
:1045C000CE01DF91CF910895CF92DF92EF92FF92CB
:1045D0000F931F93CF93DF9300D000D000D01F9292
:1045E000CDB7DEB78091AF05843031F11F8294EBF7
:1045F000E92E95E0F92E8E010F5F1F4F6801F7013C
:1046000061917F0170E0660F771F63547C4D42E03B
:1046100050E0C6010E94EB36F2E0CF0ED11C87EBD2
:10462000E81685E0F80659F7F80181918F01882393
:1046300031F00E947B1BF8CF82E20E94BF1B2796BD
:104640000FB6F894DEBF0FBECDBFDF91CF911F91A3
:104650000F91FF90EF90DF90CF9008950F931F93ED
:10466000CF938091AF05823009F48EC0C0F58823C6
:1046700009F46DC0813009F47FC000E021E04DE90C
:1046800050E270E060E089E490E00E94AE16809114
:10469000B005883048F420919701309198012F712E
:1046A0003327213108F4AEC021E2829FC0011124DA
:1046B0006091B20570E00E9488378B01C0E08C2FBA
:1046C00090E08017910708F09DC021E042E06AE089
:1046D00070E0855B9F4F0E94C51CCE5FF0CF83309A
:1046E00009F465C0843049F6E091B305F0E0E25D7D
:1046F000FD4D649170E06B5E7F4F20E04FEC51E226
:104700008DE490E00E94611BE091B305F0E0E55379
:10471000FE4D649170E0625E7F4F2DE531E243E92A
:1047200051E281E490E00E944B1AE091B305F0E081
:10473000E75AFE4D649170E0625E7F4F2BEE30E2EF
:1047400041E251E286E690E00E944B1A2EC0E091D1
:10475000B305F0E0EE0FFF1FE851FD4D4591549178
:1047600000E021E062E270E086E590E00E94AE1693
:1047700083E00E94761A81CFE091B305F0E0EE0F5E
:10478000FF1FEE51FD4DEACFE091B305F0E0EE0FD3
:10479000FF1FE652FD4D4591549100E021E062E19A
:1047A00070E08BE490E00E94AE1684E0E2CFE091EE
:1047B000B305F0E0E952FD4D649170E0665E7F4F15
:1047C00020E049E952E28BE490E00E94611BE09115
:1047D000B305F0E0EA56FD4D649170E06B5E7F4FEB
:1047E00020E532E242E752E28CE490E00E944B1A6C
:1047F00020E042E352E26AE270E084E590E00E9449
:10480000611BB6CF8091AF05843069F080E580935D
:104810008E0180938F0181E080939001CF911F9151
:104820000F910C94E4228EE4F2CF0F931F93CF9359
:10483000DF93CDB7DEB72A970FB6F894DEBF0FBE71
:10484000CDBF9AE0899FB0011124635A714E4AE0AE
:1048500050E0CE0101960E94EB3689818093AF052E
:104860001092B30504EB15E067E180E00E94071A9F
:10487000F80181938F01F5E0073B1F07A9F78A81B3
:104880008093B1058B818093B0058093B2052A9601
:104890000FB6F894DEBF0FBECDBFDF91CF911F9151
:1048A0000F910895DF92EF92FF920F931F93CF9392
:1048B000DF93CDB7DEB768970FB6F894DEBF0FBEB3
:1048C000CDBFD090AF0584E0D81699F08FE50EEFFC
:1048D0001FEFE82EF12C0E151F056CF420E04FE5BC
:1048E00058E162E370E0C8010E94031C005F1F4FA3
:1048F000F2CF8FE7ECCF84E0D81651F000E021E052
:1049000047E458E166E370E080E790E00E94AE166D
:1049100020E04FE358E16BEF7FEF87E790E00E94E4
:10492000031C20E04FE358E170E060E08CE790E08A
:104930000E94031C87E0E7E0F1E0DE011B96019096
:104940000D928A95E1F787E0EEE0F1E0DE01529604
:1049500001900D928A95E1F780910B068150990B99
:104960002AE0289FB001299F700D1124635A714ECF
:104970004AE050E0CE0101960E94EB3610E000E0E4
:104980008A8590E0002E02C0959587950A94E2F7FB
:1049900080FF1AC0F801EE0FFF1FEF5CF74E459144
:1049A0005491E2E1F0E0EC0FFD1FE00FF11F608198
:1049B00070E0EBE0F0E0EC0FFD1FE00FF11F8081F5
:1049C00020E090E00E94611B0F5F1F4F083011052F
:1049D000B9F668960FB6F894DEBF0FBECDBFDF9173
:1049E000CF911F910F91FF90EF90DF900895FF926C
:1049F0000F931F93CF93DF931092AE0583E68093BE
:104A00009F050FE915E0C4E6D0E0F801F1908F01B1
:104A1000CE010E94F436F81621F06F2DCE010E94CF
:104A2000FC362196C532F1E0DF0779F724E648E548
:104A300061E088E5DF91CF911F910F91FF900C9479
:104A40008C1F41E550E060EE77E185E096E00E9442
:104A5000EB36EFE9F5E08CE0DF011D928A95E9F78E
:104A600083E08683089580E00E94AD1F0E94212587
:104A70008FEF80935A061092120646E150E06AECDE
:104A800077E188ED95E00E94EB368CE390E090931F
:104A9000EE058093ED0508951F920F920FB60F92C9
:104AA00011242F933F934F935F936F937F938F9333
:104AB0009F93AF93BF93EF93FF9380918A0190915F
:104AC0008B01A0918C01B0918D01892B8A2B8B2BAE
:104AD00009F440C08091890181110BC088B190E434
:104AE000892788B980918801882319F088B1805876
:104AF00088B980918A0190918B01A0918C01B0912D
:104B00008D01181619061A061B069CF480918A015D
:104B100090918B01A0918C01B0918D010197A10919
:104B2000B10980938A0190938B01A0938C01B0937B
:104B30008D01FF91EF91BF91AF919F918F917F91E7
:104B40006F915F914F913F912F910F900FBE0F90FA
:104B50001F9018950E94A91AECCF0F920FB61F92C2
:104B600011248F939F93EF93FF93E5E7F1E08091FA
:104B7000740191E08D5F8D3710F08D579395809380
:104B800074018081890F9181911D8083918382813D
:104B90009381811D911D82839383E9E7F1E08081F8
:104BA000918101968083918382819381811D911DE2
:104BB00082839383FF91EF919F918F911F900FBEFE
:104BC0000F901895CF93DF93FC0190E09F5F9F01BA
:104BD0002F5F3F4FD901892F861750F44D91508197
:104BE000451720F4ED012197588340838F5FF4CF60
:104BF000F9016913EBCFDF91CF9108954F925F9246
:104C00006F927F928F929F92AF92BF92CF92DF92DC
:104C1000EF92FF920F931F93CF93DF93CDB7DEB741
:104C200063970FB6F894DEBF0FBECDBF8C01CE01E7
:104C300001965C0186E0D5011D928A95E9F7809185
:104C4000040190910501A0910601898B9A8BAB8B91
:104C5000E091E605512CE43021F0EC0FFD2FF11D21
:104C600051888FEFF801808311821282138214869B
:104C70008091B9058C878091BD058D878091C10594
:104C80008E878091C5058F878091C905888B65E0E7
:104C9000CE010C960E94E2258091E405882359F10B
:104CA0008D859C85981739F19E85891721F18F850F
:104CB000981709F198898917F1F023E0D8012D930D
:104CC000CD0144E050E060EA7CE20E94EB36D8017E
:104CD000EC91BAE0EB9FF0011124EB57F34DE49116
:104CE000E50DD8011C96EC931C9782E014968C93EA
:104CF000149715968C9391EE692E95E0792E2CE7FA
:104D0000C22E2CE2D22E4301412CF40181914F019D
:104D1000882309F459C0C6018C579C427C0145E0A8
:104D200050E0B601CE0107960E94EB3665E0CE0159
:104D300007960E94E2258985873009F445C02F81B6
:104D40009C85291341C028859D8529133DC09E85DA
:104D500089133AC09A858F85981336C09B858889B8
:104D6000981332C0D8014D92CD01B7016E57734DE3
:104D700044E050E00E94EB36F701EB57F34DE4912D
:104D8000D8011C96EC931C97411003C081E0149647
:104D90008C93F8018181580E518263960FB6F89476
:104DA000DEBF0FBECDBFDF91CF911F910F91FF905E
:104DB000EF90DF90CF90BF90AF909F908F907F90BB
:104DC0006F905F904F9008954394FAE0CF0ED11CFE
:104DD00084E048129ACFFE013C969E012F5E3F4F21
:104DE000A191AA0DBB2DB11D8C918F5F8C93E21701
:104DF000F307B1F766E0C5010E94E2258CE7C82EF3
:104E00008CE2D82EF12CD3018D913D018823D1F174
:104E1000F601EC57FC425F0145E050E0B601CE01DF
:104E200007960E94EB368985873061F58E81823046
:104E300048F18D81823030F18F819D85891719F07D
:104E40002F8582131FC08A85981719F09F858913B3
:104E500019C0D801FD92CD01B5016E57734D44E0E4
:104E600050E00E94EB36B3E0FB1204C082E0F80190
:104E700084838583D80111968C911197580E1196D1
:104E80005C928BCFF394BAE0CB0ED11CE4E0FE121F
:104E9000BACF8E81853041F483E3D8018C938DE2C3
:104EA000850D11968C9379CF843039F484E3F80121
:104EB00080838EE1850D818370CF833069F48D818D
:104EC000823029F487E3D8018C9389E1E9CF85E327
:104ED000F801808384E1EECF823009F05ECF8D81CE
:104EE000823009F05ACF86E3D8018C938AE0D8CF7C
:104EF0001092990110929A0180E180939B01109287
:104F000098011092970110929D0188E391E090938F
:104F100095018093940189E08093930181E08093CF
:104F2000920110928F011092900110928E01809345
:104F300091012EE53CE130937F0120937E0120E03A
:104F400030E8309373012093720146983E9A479857
:104F50003F9A8093E505EEE0F6E086E596E021E0F5
:104F60002483158236968E179F07D1F70895CDB703
:104F7000DEB76897DEBFCDBF11E01093E00010925E
:104F8000E2001092E10080E28093D8001092D700F6
:104F900080916500806880936500789483E084BD8B
:104FA00083E085BD10936E00E1E8F0E083E080834C
:104FB000E0E881E08083E3EC81E08083E2EC81E063
:104FC0008083EAE787E0808380688083559A209A0F
:104FD0005D9A289A8C9A84988AE090E00E941E1C20
:104FE0007C9B0E94101C81EC80937C0085B1806FBB
:104FF00085B984B1877E84B984B1876E84B95E9A9D
:105000005F988AB1806D8AB9769A6E9881B3806F05
:1050100081BB899880B38D7080BB80E58CBD1DBD40
:1050200085E090E00E941E1C5F9A85E090E00E945F
:105030001E1C5E985C98EEE5FAE084918EBD00003F
:105040000DB407FEFDCF31962AE0EB36F207A9F743
:105050005C9A81E880936400809165008160809310
:10506000650089E180939B0182E090E00E94F43624
:10507000882329F10E94661C3324339455245394C9
:1050800099E0492E25EE622E25E0722E8FB7F89416
:10509000409175015091760160917701709178018E
:1050A0008FBF80919C01342F381B832F90919D01DD
:1050B000992341F030939E0110929D01E7CF0E9409
:1050C000611CDACF90919B01391738F48F5F8917F3
:1050D000E8F633BE889513BED9CF81E080939D0159
:1050E00040939C0180919701909198010196909333
:1050F0009801809397012091990120939A018FB193
:105100008095807F669B88601C9B8460809399015A
:1051100090916501923009F4ABC008F057C0992313
:1051200009F478C0913009F0B1CF2095822369F05D
:1051300080916401882319F08CE780936401809149
:105140006401811106C0509264018091640188233A
:1051500041F08F5F809364018D3719F482E0809372
:10516000650100E021E048EB57E161E170E08FE28A
:1051700090E00E94AE1621E04DE957E16AE170E04F
:105180008BE290E00E94AE1621E04DE957E16AE122
:1051900070E089E490E00E94AE1610916401111154
:1051A0003EC021E04DE957E16AE170E08AE390E01A
:1051B0000E94AE1621E045E657E16EE270E08AE11A
:1051C00090E00E94AE160E949E1660CF943009F4C3
:1051D000C7C008F458C0953009F058CF1091990114
:1051E00080919A0180958123888FE091A805EB300A
:1051F00008F07AC1F0E0E150F74D0C949C37B629E5
:10520000F42B732CA92C192D442D682DEA2FFA2F7D
:10521000A230D430109264015092650186CF00E034
:1052200021E04AE457E16AE170E08AE390E00E94FD
:10523000AE1621E04EE257E16EE270E08CE290E0C3
:105240000E94AE16812F6FE00E945A378370E82EBD
:105250000FE410E0F12CEF1409F4B5CF41E061E365
:1052600070E0C8010E94AD1CF3940E5F1F4FF3CF96
:10527000109261011092600188ED96E10E944E1B30
:1052800083E0809365012091990180919A01809536
:10529000822390916201992319F0915090936201B9
:1052A00024FF57C090916001903108F09ACE9F5F23
:1052B0009093600190916101903218F49F5F9093F8
:1052C000610183FF03C094E09093650182FF1AC0DF
:1052D00080917D01882309F43FC00E94611C10E089
:1052E00000917D0182E090E00E94F436081729F0D9
:1052F000602F82E090E00E94FC361093630188E208
:105300008093620100E021E04CE354E166E070E04C
:1053100090E080E00E94AE1680916101803249F4F5
:1053200021E041E154E165E370E080E390E00E9418
:10533000AE1680916201882309F445CF2091630164
:105340004FEF53E168E370E088E790E00E94031CB0
:105350003ACF10926001AECF0E94661C11E0C0CF20
:105360000E94332585E08093650138CF90915C06DB
:10537000911174C79091AE052091A1059111C2C100
:10538000222339F0283C09F4DAC0CE0148960E9465
:105390009E1E888D82FD50925C069091A105983CDE
:1053A00059F085FFD6C080E00E941F1A888D86FFC5
:1053B00015C181E00E941F1A888D87FF0CC0809163
:1053C000A105883C09F05EC18091F305882319F09E
:1053D00081508093F305988D94FF13C08091A105AF
:1053E000883C79F48091F305282F30E02E5F3F4F01
:1053F0004091F4054217130621F01CF08F5F809353
:10540000F30593FF71C0E0900706F09008068091C5
:10541000ED059091EE05E81AF90A18E2A12E11E0C7
:10542000B12E0EE2C02E01E0D02E10E000E082E8A6
:10543000282E4701B5E68B1A910880911206882321
:1054400009F180910F069091100603968E0D9F1D15
:105450004397C0F424E64EE561E08AE40E948C1F85
:10546000109212066FE085E00E94071A9091D8050D
:10547000890F853608F084E68093D8058DEE93E198
:105480000E944E1BF601819191916F018E0D9F1D1F
:105490000396439738F424E64EE562E083E2800FFA
:1054A0000E948C1FD5018D919D915D018E0D9F1DD8
:1054B0000996439758F48091AD05882309F409C1F2
:1054C00024E648E662E08BE40E948C1FE3E18E163E
:1054D000910420F45092AE051092A1050F5F1F4F6A
:1054E0000330110509F0A9CF8091DF05882349F029
:1054F0008091E0058F5F8093E005843111F4109274
:10550000DF058091DE05882319F081508093DE0548
:105510008091A8058B3010F00C944633E82FF0E012
:10552000EC56F54D0C949C3731312D332D33D1335E
:10553000D13320342034203420348D349D348C7089
:1055400021F01092A105188E91E093259093F60515
:1055500020CF15FF3DC082E00E941F1A8091ED050B
:105560009091EE058D33910534F001979093EE05FF
:105570008093ED051BCF20910706309108062F3F41
:105580003105ECF48091970180FD09C080910506FA
:1055900090910606019690930606809305068091E9
:1055A000090690910A06029690930A0680930906CE
:1055B0002F5F3F4F3093080620930706F7CE2F3F0B
:1055C000310509F0F3CE833091050CF4EFCECDCF49
:1055D0008091E505823009F0E9CEE5CE16FF4CC09A
:1055E00083E00E941F1A8091ED059091EE058C33A7
:1055F000910534F401969093EE058093ED05DCCE91
:1056000020910706309108062235AFEF3A07ECF0FB
:105610008091970180FD09C0809105069091060652
:105620000197909306068093050680910906909154
:105630000A06029790930A068093090621503109C1
:105640003093080620930706B7CE2091AD052111AF
:10565000B3CE8038910574F210910B06115085EF8E
:105660009FEF9093EE058093ED0585E00E94AD1FBE
:10567000812F0E941524A0CE8091E505833009F08A
:105680009BCE97CE8091AD058111A5CE00910706E6
:10569000109108068091ED059091EE05081B190BFD
:1056A00080910C06800F912F911D0996439718F455
:1056B00081E00E94AD1F80910D06080F111D075F4C
:1056C0001F4F0331110508F086CE83E00E94AD1F05
:1056D00082CEF801E651FC4E8491F801E951FC4E6E
:1056E000E491B8ECB093A105E093F50592E09093B6
:1056F000EF051092F3058093F4052092F005509287
:10570000F605E4CE211153C087FF07C090915B06D8
:10571000992319F0915090935B0684FF10C0CE013D
:1057200001960E94D82280915B06882329F09981F6
:10573000933629F4823018F48F5F80935B06888D4E
:1057400082FD1092AE0583FFCFCE80915B06813043
:1057500049F1D0F0823009F0C7CEBFE9EB2EB5E0B9
:10576000FB2E04E610E0C8010E94F436D7018D93A9
:105770007D010F5F1F4F0532B1E01B07A1F724E643
:1057800044E661E08EE40BC0CE0101960E94D8226F
:105790008981833631F52FEF48E662E08CE40E9480
:1057A0008C1FA2CE2EEF44E562E08DE4F8CF50923C
:1057B000F60582FF04C01092AE051092A10583FF8A
:1057C00093CE80915B06882361F0813009F08CCE06
:1057D0001092AE051092A1051092AD050E943325DE
:1057E00083CE0E94F72480CE90915C06911136C53D
:1057F0008091A105882321F0CE0148960E949E1E2B
:10580000988D292F221F2227221F41F08091A30566
:10581000882309F43EC081508093A3052093A605F8
:1058200021E094FD38C020E02093A70592FD50921E
:105830005C0693FF59CE6091A305E4E06E9FB00132
:10584000112465537C4E44E050E0CE0101960E9445
:10585000EB3689818130A9F140F1823009F4AEC084
:105860009C818091D9058917C8F11092A10581E525
:105870008093F70582E08093EF051092F305509234
:10588000F4059CE49093F0055092F6058093A805EA
:105890002BCE86E0C1CF8091A305863020F48F5FA8
:1058A0008093A305C1CF80E0FBCFEA81F0E0E9510E
:1058B000FA4F80818130A1F624E64EE562E08FE464
:1058C0006ECFEA81ED5FF0E0E951FA4F80818530DB
:1058D00039F624E648E563E080E561CF24E646E456
:1058E00062E082E55CCF5092F60583FF1FC06091B5
:1058F000A305F4E06F9FB001112465537C4E44E092
:1059000050E0CE0101960E94EB368DEB93E10E94B0
:105910004E1B8981882381F08130B1F08091D905B7
:105920009C81891B8093D9055092A805888D82FFA0
:10593000DBCD5092A805D8CDEA81F0E0E951FA4FCD
:1059400080818F5F8083EACFEA81F0E0E651FA4FF1
:10595000F7CF90915C06911181C48091A1058823B5
:1059600021F0CE0148960E949E1E988D97FF2AC076
:105970008091A205882321F181508093A205509245
:10598000A60594FF28C08091A205843010F58F5F92
:105990008093A2055092A70592FD50925C0693FF5A
:1059A000A3CD2091A205822F90E03AE0239FF00141
:1059B0001124E65CF14EE4912430A1F480E0A6C10C
:1059C00084E0DBCF8091A6058823D9F21092A6054A
:1059D000D8CF80E0DDCF8091A7058823E9F210922F
:1059E000A705DACF8F519A4FDC018C91811109C044
:1059F0008091DA058E1750F424E646E462E085E5EE
:105A0000CECE24E646E562E083E5C9CE1092A1053C
:105A100084E58093F70582E08093EF051092F3050B
:105A20005092F4058AE48093F0055092F60584E0E4
:105A30002DCF5092F60583FF22C08DEB93E10E949B
:105A40004E1B8091A205A82FB0E02AE0829FF001B2
:105A50001124E65CF14EE491AF51BA4F9C919F5FE7
:105A60009C939091DA059E1B9093DA0593E09093B6
:105A7000A80590915A069F3F11F480935A06888D8D
:105A800082FF32CD83E002CF8091ED059091EE054B
:105A9000059759F462E080E00E94071A81110CC05A
:105AA0000E949C1F86E08093A80521E344EF612FAC
:105AB000888D0E94452018CD0E949C1F87E080930E
:105AC000A80524E642E861E086E50E948C1FEDCF40
:105AD00090915C069111C2C39091A105973609F48B
