:100000000C940E160C9436160C9436160C94361668
:100010000C9436160C9436160C9436160C94361630
:100020000C9436160C9436160C9436160C94361620
:100030000C9436160C9436160C9436160C94361610
:100040000C9436160C9436160C9436160C94361600
:100050000C9436160C9436160C9436160C946526B1
:100060000C9436160C9436160C9436160C943616E0
:100070000C9436160C9436160C9436160C943616D0
:100080000C94AF260C9436160C9436160C94361637
:100090000C9436160C9436160C9436160C943616B0
:1000A0000C9436160C9436160C9436160B0F9705D6
:1000B0008B898B8905411CB0D7BD9B8D110B0954D1
:1000C00030B2486F0B0F2F172C260ED8EB7BDD6C50
:1000D0008C2CD2B70B0F2F172C5C9BBDBED74D229B
:1000E0009345FA160B8F7B8535941B72D223596F7B
:1000F0005A064E286C286630686F8BCF2B1CF5840F
:10010000DC901B3A16596D198C486143614361CAF2
:10011000A02D0B0F2F162C262EA603F67ADFCDC6A8
:100120008805238BF40D0B4FEFE766EEDF3064B2EA
:10013000C77B0B0F2F162C5C585C9BBDDE7793485A
:1001400005239345FA063B073FAC5B7B5B02725984
:1001500069D66549715D56329374BD5CC94CD275E0
:100160005997A02028B93097FC3A3B473F6C0DC007
:10017000E0655D248260F0B22E2BCDBA2C29065F9B
:100180004A04C1E019D7C42ED0DED6000CFE503B85
:10019000073F6495B12E4B406E5558BDACC9655DA7
:1001A000569A75595294BCECAAD9B1B7755969D60B
:1001B0006549C9F8413B073F78091CD765090CC957
:1001C0006509C8CB25204A2E6B72ABC2EA85280888
:1001D0001A2E4B407E38398F5F452EFB82BC4B3048
:1001E000257BE415C3E101821BC4E9E6D1AD8C3562
:1001F000C6E5B47BDB635D6E252069F07773E503AC
:100200005E0A17CA53F4C6953B78E2412E91CBB8EB
:10021000E6D25B8EEB984BE4343E0E398F5F889AC2
:1002200012582370198E22468A79BFBA063D9DD096
:10023000A59175398D35CABA2C3AD638A9BA70AE9F
:1002400071BA2C3AD6B81D1659B3DFF114B9AC63A4
:100250002E91CBF8D4BA604E1ED70573C9711D73A9
:10026000C9711D73895CD631B02002EB72F214B9EA
:10027000A84739CFEF5717ECDBA5738575B8A14BAD
:1002800023EBF2E8F68D0453B2478EA732D618EF6F
:100290005717ECDB657596DE3EBF8EB9E43A2EC487
:1002A0008BD775C15C72CF251FF052B8508E9E223D
:1002B00097F1A975CC25C7F551398F1FE606DD8565
:1002C0001BA7E12862A4980759418415B101D39D69
:1002D000F2E856C61AE372DABDEDB12EB7129034C9
:1002E000F867F0792E91CB78CD11725927E0792EED
:1002F00091CBB8E6D25B8EEB984BE4343E0E3B07D5
:100300003F2428084A4E4B42C6690480044E23000D
:1003100024701A21B85E2E91F63842C838B15608BA
:100320000718A71142C66984397E003B471F5E83C8
:10033000AECB0800819C940090715A57B2249CD691
:1003400022E3E92AD25E46081967B2249C061C46BD
:100350000819A731C9F8053B873F6C09DC609CC6CA
:10036000A25E870034F07215B1C721A1E3C45A21FF
:100370001C609C86848ED35874FC503B073F6409F4
:100380000CC9698490711A938CD308739C4608AE8B
:1003900017AB8C751A012081CB3A8D304798E33426
:1003A00002400227D60AE1C33B473F6C0DBA2E0339
:1003B000365483EBB416194FD7A0EB32024020A776
:1003C0007519938C49C669048040CE6449F8453B51
:1003D000471F5852542F63B23C269939A1012081FE
:1003E0003359124E4A00C838AD976BD075190120A9
:1003F00090D3BA8C49C624E33402402067B2247CEF
:10040000093B8FBFE056026B046E8745D6ECEDB01A
:10041000585939AABA70AE718B5D185DCA89AEAEF3
:1004200072E306DD851B8371FB0BE492E33A7A8A63
:100430005CD4A3A7C8651D73895CD63197C8653C99
:100440005D173EE0F35CF27D3BCF5FBE6D585DB75C
:10045000C3226BF6A4EAC2B9C6E5F6388D095DE69B
:1004600034C61AF4F47475C1BE5D5667E9ED17E63B
:1004700092E33A7A8A5CD4632E91CB3AE692C792A1
:100480000B2017EEE38239F9781D73C971FD083B23
:100490008F5F452EFB82BC60DC2E63AC414FCF8268
:1004A000440493561446C9E6CDEA1AF4745A63DF3D
:1004B000BA4F97D505A1A1E41773E57D2EB98E0B30
:1004C000E6E473E0B42E81238FD70573F2B86E3D56
:1004D000E692E3BAA0A77C0F3B8F7F186ED05DB881
:1004E000711A8E22468AB9AFB20028008BAE41D76E
:1004F0003F239FE712B98CC7C0897211E004FC79D1
:10050000003BCF1FE006DD851BA7E12862A498FB16
:100510002A0B8002B0E81A747D1DB9EC0B721E1D07
:10052000418A4BDEE5089E0080090CA0FE349FE75F
:1005300012B98CC7C0897211E004FC1CAE3C5E1776
:10054000CCC9179C809B003F023B8F076ED05DB8E3
:1005500071A3ABEB742A638D715F65015000165D6A
:1005600083AEAF21977D415E306E9731D6A0A787CD
:1005700039822700600203A89FF25BEBE829721919
:100580008F8113E522C009F83C57DEE792EBB86093
:100590004EBEE004DC04F8181B8FBF83AB57AF5E80
:1005A000FD6D392A38200222540802110431023B21
:1005B000021B301B3025800920602400086EAF6BC1
:1005C000001B8F9FF1CAAD65812A850D85A2541C41
:1005D000CC9EBDF2B11CB5820066A10201040422CA
:1005E000A84009201003E800000402086811003345
:1005F00004B032BCAE011B8F070F085E20AFB97A82
:10060000F5EAD5DF964D1504000041000010A0006A
:1006100020082250365036F5901A7090A086A02AF5
:10062000314EB7070908080C020D0B0D020C080823
:10063000083A3B33333B3A013A110B10001010904B
:10064000100017001D1810101010101000000000EE
:100650000706040404040404000400000027DF3734
:100660009A5DDD2C368BCD62A3B291B0596C169B8E
:10067000C566B1195C2817CA45BA53368B2D63A7D6
:100680007C637FCEF08205BC21C0CC6073CA9D6FB5
:10069000ED2619090909ECEFED2F5806B0000156B7
:1006A0000110D009DC107845189537BCDFE14018FF
:1006B000190CD99FE9B81CBD7A75272A21AAA871FF
:1006C000339C2C17D30BF1EAD5E305EDC8F278196A
:1006D0003D0327DF1776BA6AB9502E940BA509455A
:1006E000004239B0D82C368BCDE240B9500E762579
:1006F000E542B950339BCD17F6E70C2F58C01306CF
:10070000303259DC7CC12736991969424202FB7BA1
:10071000FB0B96012C4080550004747A15DE1132D3
:10072000C20B1EEE32B810460643F6673A2E47AFAC
:100730005EDD894A882A6A3C5037C3C1F6845EBDB3
:10074000669D1487CBE5F1327A06279F2FD8E9AA58
:10075000E542B9502E9402A19441392137E486DC58
:10076000901B72434E3A1BB9A1DDE6C207F7B7B83A
:1007700064B178C20692C9E2414E7C6B931931266E
:10078000B0BFBF1F0B0359808C05202870062EC0F8
:100790000B823D70E22BBB0C06C321FBB31D97A35C
:1007A00057274B63100928A2CA74B05D2EAF868B01
:1007B00057AF5927C5E1625D469F0127DF2756D60F
:1007C000888BCDE042B9509A500420940BE542B991
:1007D000502E940BE542B950BB9A4DB950339BCD86
:1007E00017F6E70C2F58C01B02CC0C36A73CE05381
:1007F000BB4946424202FB7BFB0B96012C408055D5
:100800000004740237045E1146E5091FD8E1401860
:10081000190CD99FE9B81CBD7A75272A21AAA8719D
:10082000339C2C17D30BF1EAD5E305EDC8F2781908
:100830003D030B4F3A9028250C6032D90C93F2708F
:10084000C89883BA5C1EE80A03070B4F5AA5C8660E
:100850000093C96658078B1743C61C24232307320D
:10086000C31E0B8F3180140D41E0821CC19903F02F
:10087000620C9CA5B9AC4DE7620C0B4F2713198293
:100880002200A10806A0A4CF525252128100902D3E
:10089000105A5242030B0F37072A18108100200A02
:1008A00029BB0F52424343350819D5868686A60BCD
:1008B0004F1BAD220A8A008422188092863729298C
:1008C00089894000C8168829293B098FDB13012636
:1008D00050603139A03F0A094F0724202C16D04020
:1008E0008145032ABF08894F6E16308005540C02DB
:1008F00000021188FC2000098FDBD39C9775388C8F
:100900005FC115098F07649CC631A7B1E527700543
:10091000098F6B1CF63CE5CC457E8057000D8F3B64
:1009200007B2C20694A1A0062630601C387002C22D
:10093000048EFBB28E5C628E0D8FBB9331C2069427
:10094000A1A006265080BEE048D8C26D5FF6C983DC
:10095000E90D0D8F133A980D1B5086821A9840B5F9
:100960001F000E81E3BAEC9B9B404F0D8FBB933170
:10097000C20694A1A006265080BEE048D8C26D5F92
:10098000F6C983E90D0D4F3B9B8E4D006100821827
:100990009940491FB280B2806397CB8EA325A407EC
:1009A0000D4FBB9B8E490061008218992C1C2F595A
:1009B0002C8670EB72D97135CE6E0D8FBB9331C220
:1009C0000694A1A006265080BEE048D8C26D5FF60E
:1009D000C983E90D0DCFC7B98E7C2EF311E4705891
:1009E0009775599775D9D90D8FBBF394CFB1E90B92
:1009F0008E635FD6655DD6651D6E0D8F738D5B3E14
:100A0000C7B41FC8E1B22EEBB22E6BD0130D8FBB53
:100A1000F394CFB1E90B8E635FD6655DD6651D6E2D
:100A20000D8F3B87C3387AF59A45DF709AF3B22E63
:100A3000EBB22E6BD0130D8FBBF3D4A357AF393D60
:100A4000E138F6655DD6655DD6E1060D8FBBF394A2
:100A5000CFB1E90B8E635FD6655DD6651D6ED5F0AF
:100A60008D14A1C881CFD9F1AF2000199F270E8422
:100A7000C998008F0207CB67084042F800671E50F4
:100A800064584AA650197DC081C5449CEDB3E80A5C
:100A9000C0211DCFB973EC29EC24A771600101CDF1
:100AA0001830E080FE2A6E822B6F5CE38D6EC2915F
:100AB000EF0251FF0079FF01D8FF005E0000D20075
:100AC00000241F320126011201FA00E400D400C400
:100AD00000AC000503010307030105030406070634
:100AE00004070301030703050201070304060706C1
:100AF0000502040202030304073E41553E03075F5B
:100B00002E140307142E5F08083C42BDADA5BD425C
:100B10003C003C42BDAD423C0000003CFFC33C00F9
:100B200000003C42A5BD423C0037973F133801000E
:100B3000135080004C112E201C44DC80ADC4600B8F
:100B4000B8217800E102E20408800213003801BFF6
:100B5000DEAB57BE332F000000C08E174787A3C3FC
:100B6000515407822A451564A8D2E1E8707478319F
:100B70001B000000B8CCEF70F5EABB71904CF4128A
:100B80000032701C12A10020C010EB0C90011080EC
:100B9000228250B0425101280002500004A00008F7
:100BA0004001502958A120881420002340A6150791
:100BB00080005030390C1901201765060F030B1007
:100BC000000000A0F0D0A080000000FC0229202836
:100BD000082902FD02FC0605110A171B0E11060565
:100BE000000C161F0C00040406090F060A0F0F085C
:100BF000090D0F0A090B0F0F03020F0F070D0D0D43
:100C00000F0A0E0E010D0F030E0B0B0F07050F0F32
:100C10000C083C428181818181818181423C0B0DA4
:100C2000C7831B2363FF03037B030318181B1818D8
:100C30001F18181F1F1FB5018F016A014601B90255
:100C400072021B02D6010F0FB4698619AA4AD76532
:100C5000A844356B65656D0406B00C1A31822020FE
:100C60008220468C187429127404B187AB9C8700CB
:100C700014725204A0E398E1CA69084021CF61953B
:100C8000705AB0C7690840214F510168E0B4608FC5
:100C9000D390D07159123A002997BF7ACD2CE3092D
:100CA0003C7A444E0C9617FFAEF7EF7204E0001C3E
:100CB000F6EFE4B567AE5E7DCE95EF71E6CC99D7E1
:100CC0005EBD72F635FFFFFFFFFFFFFFFFFFFFFF77
:100CD000FFFFFFFFFFFFFFFFFFFFFFFFFFFFFFFF24
:100CE000FFFFFFFFFFFFFFFFFFFF1F1F1F1F1F1F54
:100CF0001F1F1F1F1F1F1F1F1F1F1F1F1F1F1F1F04
:100D00001F1F1F1F1F1F1F1F1F1F1F1F1F1F1F25ED
:100D10000DFFFFFFFFFFFFFFFB0303BB0347FFFBCD
:100D2000C3033F83FBFFFB0303BB13FF0303FFFF6F
:100D3000FFFFFFFFFFFF1F1F1F1F1F1F1F1B181895
:100D40001B181C1F1F1B18181B1F1F1B18181B19F3
:100D50001F19191F1F1F1F1F1F1F1FCF03A8037B52
:100D60000357032B03FE0249050105D8048F0448ED
:100D700004010412100080403D010101F40404F458
:100D80000101013D408000F7E8D1C0DCA241584498
:100D90004E5841A2DCC0D0E8F7008040BDC1C1017F
:100DA000F40404F40161E1FD408000F7E8D7C3DDFD
:100DB000A25D7663775F5DA2DCC1D7E8F700804073
:100DC0003F151501FC7C54D4011F1535408000F7F8
:100DD000E8D1C0DCA241545A5A4041A2DCC0D0E85C
:100DE000F7118761C284EE100830901B7243061021
:100DF00008D9850993009B0FFF7E01F605C1059870
:100E0000053F87ABB042A9A5D4526A29B5945A4A86
:100E10002DA596524BA9A5D4526A29B5945A4A2DAC
:100E2000A596524BA9A5D4526A29B5945A4A2DA524
:100E300096524BA9A5D4526A29B5945A4A16740100
:100E40000B0D0303BB2323FF03037B030318181BB2
:100E50001C181F18181F1F1F0F0FB469469CE07045
:100E6000F596E100E35A59591B0105582E970B419D
:100E70004004415C2E97AA22414700100EBAB6BE2C
:100E80005E3EFE7E7E6E76EE3E5EBEBEB604022204
:100E9000142438051D252D140C02360A040C0E0CE2
:100EA0000E0F0A00080C0C0E0E0F0E0C00000000B6
:100EB000000000000000000000080C0E0F0E0E0CD9
:100EC0000824040C020402050A00080404020601B6
:100ED000020C0000000000000000000000000008FC
:100EE000040E01060204083221FFF20C6C6C482447
:100EF000000000008600FFFFFFFB83FD83FBFFEF88
:100F0000DF81FBF7FFFBF789F7FBFFFFFF00008C9A
:100F10000000000024486C6C0CF3FFFFF30C6C6CB9
:100F2000482400000000CC000181C1C1C1C1C1C181
:100F30000181C1C1C1C1C1C10181C1C1C1C1C1C0A2
:100F4000008C0000000024486C6C0CF3FF3F330C55
:100F50006C6C482400000000C0000C8CCCCCCCCCC5
:100F6000E018C4320A0A0A0A0418EC8CCCCCCCCCA7
:100F7000C0C8008C0000000024486C6C0C73BF00DB
:100F8000000C6C6C482400000000C0000C8CCCCC21
:100F9000CCCCFF00FF00000000000000FF8CCCCC98
:100FA000CCCCC0C8008C0000000024486C6C0C0045
:100FB000FF00000000000000000000000000000032
:100FC0000000000000000000000000000000000021
:100FD0000000000000000000000000000000000011
:100FE0000000011512FF7F7FFF0FF70BF3DB4B397A
:100FF0004ADBF30BF70FFF7F7FFF00FF0000ABAA78
:10100000A9A8A9A9A9A9A9A821220100FF00000057
:1010100003000002020202020202000000000200BD
:1010200000030000000000000058FCFEFFFFFEFC73
:10103000580000000080800000C0E0F0F8F8F0E008
:10104000C0000080800000000058FCFEFFFFFEFC96
:10105000580000000000C0E0F0F8FCFEFFFFFFFFBA
:10106000FFFFFEFCFCFEFFFFFFFFFEFFFFFFFFFF99
:10107000FFFFFFFEFFFFFFFFFEFCFCFEFFFFFFFF89
:10108000FFFFFEFCF8F0E0C0321000000000005846
:10109000A45AB5255AA4580000000080800000C062
:1010A00020D0A828D020C000008080000000005878
:1010B000A45AB5255AA458000000000040A050A82A
:1010C000542A158AA4A48A352AB4444241A0AAB558
:1010D000AAB7ADA2A5A1A2ADB6AAB5AA404142A4A5
:1010E000346A158AA4A48A152A54A850A040090E6F
:1010F00007F986AA82AA86F907003F20242A26201B
:101100003F00E0F0F8FCFCFCFCFEFFFEFCFCF8F00D
:10111000E00103070707070707070707070703019A
:101120000F0BE010E814E4B4947295B6E414E810E0
:10113000E0010205020103020202030102050201AD
:101140004B1CFFFFFFFFFFFFFFFFFFFFFF7FBFFF06
:1011500080FEFE00FF0000606060606763616161A7
:10116000616161616161616161616161616161616F
:1011700061656901610101010101010101010101D3
:10118000010101010101010303070F6F0FFFFFFFC1
:10119000FF7F43BD423C722A262A723C42BD427FF9
:1011A0000002000000FEFE00FF0A0B0A0B8A4B2A19
:1011B000ABAAABAA4B8A0B0A0B00FEFE000000771D
:1011C00032333233323332333233323332333233F7
:1011D000320000000000FFFF07F71717109F1D994E
:1011E000919F911F1D19919FF1BF50F003000000C6
:1011F000FFFF00FFD3D2D3FE01FC0300000000007C
:1012000001FED3D200FFFF000000773333333333C6
:101210003333333333333333333333330003000067
:1012200000FFFF000F0A0408020202000200000093
:101230000001010F0A050F000000000F0F000F0D45
:101240000D0D0F000F000000000000000F0D0D003D
:101250000F0F00000007030303030303030303034B
:101260000303030303030300030000000F0FFEFE4C
:10127000FEFFFFFFFEFEFEFEFEFEFEFEFEFEFEFE8B
:10128000FEFEFEFFFFFFFEFEFCF87F7F7F7F7FFFFD
:10129000FFFFFFFFFFFFFFFFFFFFFFFFFFFFFFFF5E
:1012A000FF7F7F7F7F7F00000000000303030303B5
:1012B0000303030303030303030303030300000007
:1012C00000001C12FE02FAF575F57ABA5AAACA3A5B
:1012D0003A3ABA3ACAAA5ABA7AF575F5FA0204F84D
:1012E0007F405F5F5BDC1D9A9F9F9F9C98941B1CB7
:1012F0001F1F1F1A1D1CDB5F5F40407F00000000A6
:1013000000030001010101010101000000000000D3
:101310000000030000000000F8FCFEFFFFFFFFFEDE
:10132000FCF8000103010303010301000A0A00F8AD
:10133000E4EAFEFEEAE4F800000001000101000119
:1013400000009BCF39EC79CA6B8FE3304F3DFA9C9C
:10135000E3B8ACC3217F5F1BC733A7358FBECE91E7
:10136000CF791CA71CE73A6502041055A055A0755B
:10137000FFD5FF6E00960000000F0083009600006E
:10138000000F004A01960000800B024B0000000F86
:10139000000B024B0000800B024B0000000F00709E
:1013A000034B0000000F0093024B00008093028962
:1013B00000DC03890070038900DC038900100389C5
:1013C00000DC038900E4028900DC038900930289C0
:1013D00000DC0389006E028900DC03890093028926
:1013E00000DC038900E4028900DC03890093021316
:1013F00001EE011301B8011301EE0113014A014C82
:101400000400800B02850088018500B80185000B6F
:10141000020A018801850088010A014B0285000B40
:10142000028500700385004B020A010B028500B89B
:10143000010A016E0285006E0285006E020A014BF0
:10144000020A014B0285000B0285000B0215020007
:10145000804A01960000000F008300960000000FF4
:10146000006E0096000080DC0364004B026400BA4A
:10147000026400008000000A410001052800020506
:1014800023010002140101010F01020114020001F5
:101490001E08081C1422417F0000001C1C3E7F7F98
:1014A000002A49A1CF536421F1DEB2981C33010414
:1014B000985E51800520C0428E28C00200E4D160B1
:1014C000920619DD197F588E005C40380113FFAF7A
:1014D0000C407541A2408D12A40E407541A2408D72
:1014E00007EA00821EA807EA813A80A007EA817A0B
:1014F000A00E067A7508C3210C87301CC27080C309
:10150000810C87301CE0F0EAD5050C07381CE07030
:1015100020C3210C07381CC870315DC070381DE035
:101520007020C3E1F4EA028603586E8643180E70F9
:1015300078F56A39580E4A806139580E96831260E0
:10154000580EC6029AC05205864582C6029AC052FB
:1015500005460A681C101840351844B180C6018140
:10156000015403933081100E9C090093308110BE0A
:10157000C04C33F9C47EB7CBA2FBBECB48FCCABE7D
:101580003BD8FBBEEF3B6C12BA53AAA4F71D66B65C
:10159000EFF67DDF771979CD4C3379094CC2042001
:1015A0009C3910024CC284688101816114A8281200
:1015B00089161810184681B680C6018101548341EE
:1015C000140B681C1018403530091308E1C099004D
:1015D0002F996C16892CAC2CAC2C4C586C54AA4806
:1015E000B0A2A2202A22A222222A035111140956B3
:1015F00016561622A2B259084A102B12AC04B1A2F8
:10160000228385A0A85891602588092A1B95121667
:1016100056165654AC2C42511988042B0B2D8B8135
:101620002CAC2C64B0983C019E702004988409D1A5
:10163000020302C328505124122D3020308C026D39
:10164000018D030203A806832816D0382030806A53
:1016500060122610C28133016012260F3797C1CA6B
:10166000306F5E2664C75853C972355F78F79D9D09
:10167000A935C6014F1C6F8ED3B132D77A755FB9C9
:1016800076DCDF3DBCEDACD567C0244C00C29903CD
:1016900021C0244C881618101846818A229168812E
:1016A00001816114680B681C101840351844B18022
:1016B000C60181015403933081100E9C09009330C0
:1016C00081F064E923AF0FDE73140FFE82767F5D35
:1016D0007D9B8FCD676BF9899CA8DB70CBF3C9E943
:1016E00036C65C3E230C26610210CE1C0801266122
:1016F00042B4C080C0300A541489440B0C080CA3B7
:1017000040950BE542B9502E940BE542B9502E940A
:101710000BE542B9502E940BE542B9017746C63825
:1017200072A15C2817CA8572A15C2817CAC3BEE0E3
:1017300042B9502E940BE542B9502E940BE542B9B4
:10174000502E940BE542B9502E940BE5C27B8FBC12
:10175000C8EE50DF71A15C2817CA8572A15C2817FA
:10176000CA8572A15C2817CA05010000FA00EE01C3
:10177000FA001003FA00E402EE020000FA002A0266
:10178000FA000000FA00EE01FA001003FA00E40289
:10179000EE020000FA002A02FA000000FA00EE0150
:1017A000FA00DC03FA007003EE020000EE0288018A
:1017B000FA000B02FA004B02F4019302FA000180D6
:1017C0000208D4D205087F7F3E1C084120FE010597
:1017D000F1F1F111D1B1D111F15151515151515199
:1017E000515151515151510000FF00007F7F0909B3
:1017F0000F06007F7F19396F46007F7F49494141BD
:1018000000266F49497B3200266F49497B32FF0031
:1018100000FFFFFFFEFFFEFF0279CD95A5CD790108
:1018200011111101F9F901010000FF00007F7F098A
:10183000090F06007F7F40404040007C7E0B0B7EFE
:101840007C00070F78780F0700000000000000FF01
:1018500000001F3F3F33333333333E36363E363E90
:10186000363E36363E36363E360000FF00003E7FBE
:1018700041417F3E007F7F0E1C7F7F000000000003
:101880000000000000000000000000000000000058
:101890003F405040404078464141595941414141C3
:1018A0005959414141414141414100007F000001FE
:1018B000017F7F0101007C7E0B0B7E7C007F7F0916
:1018C000090F06007F7F49494141000000000000E8
:1018D0000064050000250000000000000000010475
:1018E000000000000000001E0078003C0001309F56
:1018F0000974FF00010106B0FF00010106F8FF00B6
:10190000010106F0000001010765FF000100032549
:10191000010001000425010001020200FF00010195
:101920000542FF0001010535FF0001010528FF0008
:1019300001010892FF00010139063906390639060E
:101940002F062406201103106688336688338FCF54
:101950000B591B60C3458005DE0039F38D5EBD79F0
:10196000EDD59BD79E59100E060E86C488468E462E
:101970000E468648C48E060E08110C142815020166
:101980000825102111240A1609040103070F070B6B
:101990000502010904080C0E0F0E0D0A04083F8F02
:1019A000AE055CBD7AF5EAD5AB57AF5EBD7AF5EA18
:1019B000D5AB57AF5EBD7AF5EAD5AB57AF5EBD7A12
:1019C000F5EAD52BB0969D1C2817CA8572A15C2814
:1019D00017CA8572A15C2817CA8572A15C2817CA2C
:1019E0008572A15C2817CA8572A15C2817CA857206
:1019F000A15C2817CA8572A15C2817CA8159298F52
:101A0000198370436EC80DB92127C6B8AC05704361
:101A10006EC80DB92137E486DC901B72436EC80D89
:101A2000B901AC2547C28572A15C2817CA09387B69
:101A30004261436143614361436143614361436187
:101A400043614361436143618372122997CC293713
:101A5000E486DC10B7885BC42DE216718BD885DC78
:101A600010B7885BC42DE216718BD885DC901B7291
:101A7000C339D97B7AF5EA1CEA45BDA817F5A25E01
:101A8000F4EA1CEA45BDA817F5A25EF4EAD5AB73EB
:101A9000EFB357AF5EBD7AF5EAD5AB57AF5EBD7A0F
:101AA000F5EAD5AB57AF5E3D032DDF3F17388170A8
:101AB00000022C60D16C542E04592C368BCD62332D
:101AC0000972201CF963085A9521CC516FECDF3F55
:101AD000C2CD0E2C38D0ED3799400018C0E05D8B98
:101AE000A0DB8882512480E8B87A136EE0AD37E13C
:101AF00006DEBC8A3004109B091592F229071210E9
:101B00000421C8F02314204BC41DC02948180080AC
:101B10005620000508480100902200004500000AF8
:101B200010810A2A0301C029E2369052BE030B0D30
:101B30000703FB0307FF0703FB03071C181B181C05
:101B40001F1C181B181C0703FB0307FF8383DB1BE9
:101B50001B1C181B181C1F18181B181CFFFFF70351
:101B600003FF0703FB03071F1F1F18181F1C181B69
:101B7000181CFFFFF70303FF8383DB1B1B1F1F1FC3
:101B800018181F18181B181CE3633B03C7FF070333
:101B9000FB030719181A1B1B1F1C181B181CE363D7
:101BA0003B03C7FF8383DB1B1B19181A1B1B1F1862
:101BB000181B181C6363BB0347FF0703FB03071CC9
:101BC000181B18181F1C181B181C6363BB0347FF46
:101BD0008383DB1B1B1C181B18181F18181B181CD1
:101BE000FF1F870303FF0703FB03071C1C1D1818B7
:101BF0001D1C181B181CFF1F870303FF8383DB1B9F
:101C00001B1C1C1D18181F18181B181C8383DB1B9A
:101C10001BFF0703FB030718181B181C1F1C181BAE
:101C2000181C8383DB1B1BFF8383DB1B1B18181B08
:101C3000181C1F18181B181C0703DB1B33FF070396
:101C4000FB03071C181B181C1F1C181B181C070360
:101C5000DB1B33FF8383DB1B1B1C181B181C1F188B
:101C6000181B181CFB7B0B83F3FF0703FB03071BED
:101C7000181C1F1F1F1C181B181C07083E7F4377CA
:101C8000617F3E0D10F008F40C24754674240CF4AA
:101C900008F000013AE7FE02C7C606FF2E1900E071
:101CA00010E81848EA8CE84818E810E001023DE620
:101CB000FC04CECC0CFE2D1A01F008F40C24754661
:101CC00074240CF408F000011CF3FE02C7C606FFE2
:101CD000160D000C10000080FCD6829646FEBC005B
:101CE00000000F081F001818001F1C07000000004C
:101CF000F8AC042C8CFCF80000000F091F01191926
:101D0000001F1C0700000000F8AC042C8CFC7800BD
:101D100000000F091F011919001F190E000F8F9FD6
:101D2000E04066CB1C0CBE380F31852160101109D4
:101D300038A0B7C61CE602E0F0F8FCFCFCFCFEFF95
:101D4000FEFCFCF8F0E00103070707070707070799
:101D500007070703010F0BE010E814E4B494729531
:101D6000B6E414E810E001020502010302020203D6
:101D700001020502010B10FFFFFF5F0F2F5F7FFFC6
:101D8000FFFF03FDD6DFD7F7D6FD02FD031410FFDA
:101D9000FFFFFFFFFFFFFFFFFFFFFFFFFFFFFFFF53
:101DA000FFFFFFFFFFFFFFFFFFFFFFFFFFFFFFFF43
:101DB000FFFFFFFFFFFFFF1410F04C141AFF00336A
:101DC000332211000004C0E900A0001400FFF0F667
:101DD000F606E6E606F60000000000F0F0FF00144C
:101DE00000090E07F986AA82AA86F907003F202477
:101DF0002A26203F001C10FFFFFFFFFFFFFFFF0010
:101E00003333221100001A04C0E91DC4320A0A0A41
:101E10000A051DF0F6F606E6E606F60000000000EC
:101E2000F0F0FF04C0FF00FF008040A050A80008B1
:101E300010FF00333322110000FF00333322110062
:101E4000001720EFF906363624120000F906363660
:101E500024120000F906363624128A54AA52EA34B3
:101E6000DA54D45AD42AD2A24A94CAC4CA142A52DE
:101E7000A21A04C0E967AC532E272ED3EC67A04CFE
:101E8000141AFF00333322111A04C0E965A04C1460
:101E90001A04C0E965A04C141AFF0033332211C0A4
:101EA000E0F0F8FCFEFFFF08088040A0502814CAAC
:101EB000C415D7EFBB7FD7DEBBF73F93737AF5EA44
:101EC000D5AB57AF5EBD7AF5EA041597DFC905704B
:101ED00008B122A104370447B9442E793FA5C04078
:101EE00026608B808214509085E0AD5B41751200B6
:101EF0000000E733CFFC5ACF9C010506EDF6C9F68A
:101F0000EDFDFDC0EFEFFCFBC0FBFCFDC1FEC1FD24
:101F1000F7EFC0FDFBFDFBC4FBFDEDCDE1ECEDFDFE
:101F2000ACA6F0F98BCF2BACA1DC901B72D223595D
:101F30006D1938A1B0A1B0A198C1A02D010107046D
:101F4000041E1405050002020404041919000014FB
:101F50000101050303232300000006060606061EF2
:101F600014020200000019000B020403095C0100C6
:101F700023000E0205050B0300041E000B030505DC
:101F80000B01010228000E0305071042020832046B
:101F900012060807102000041E040B0204050B1C87
:101FA000010228040E0205050B5000001E040B025E
:101FB00005050801010228040E030507101C030A89
:101FC0003C08170508071010000023080B02050540
:101FD000084201022D080E0205050B1C000423080F
:101FE0000B0306050B10010428080E030607100F4B
:101FF000040C500C1A000000004200050A050507F9
:1020000070031900930219000B021900E006190071
:1020100000804A01FA007201FA009F0177014A012B
:102020007D0072017D009F017D004A01FA0072016E
:10203000FA004A01FA001501FA00EE01FA00B801AF
:10204000FA009F01FA007201FA009F01F401720187
:10205000FA007201FA004A017D0072017D009F01C1
:1020600077014A017D0072017D009F017D004A01D8
:10207000FA007201FA001501FA001501FA00EE01EA
:10208000FA00B801FA009F01FA007201FA004A0151
:10209000F4010000FA009302FA006E02FA00370120
:1020A000FA007201FA00EE01770137017D0072013A
:1020B000FA00EE01FA00B8017D00EE017D00720128
:1020C000FA009F017D0072017D009F017D00720179
:1020D0007D009F01770172017D009F01FA0072016E
:1020E000FA004A01FA0072017D004A017D003701C1
:1020F000FA007201FA00EE01770137017D007201EA
:10210000FA00EE01FA00B8017D00EE017D007201D7
:10211000FA009F01F4012A02F4019F01F4019302E5
:10212000FA006E02FA003701FA007201FA00EE01BD
:10213000770137017D007201FA00EE01FA004A01D1
:10214000FA0072017D004A017D003701FA00720138
:10215000FA00EE01770137017D007201FA00EE010D
:10216000FA004A01FA0072017D004A017D00B801BF
:102170007D009F017D00B8017D009F017D00B801B9
:1021800077014A017D003701770172017D007201FC
:102190007D00EE017D003701FA004A01E80300806E
:1021A000258FCF66387AF5EAD5AB57AF5EBD7AF5A5
:1021B000EAD5AB578F64BEEBA05010101110101170
:1021C000101011101011101011101011101011100A
:1021D00010111010111010111010111010111010FA
:1021E00011101011101011101011100A65140000B8
:1021F000FCFEFEFEFEFEFFFFFFFEFFFFFFFEFCB843
:10220000F0FEFFFFFFFFFF7F7F7F7F3F3F7F3F1F8E
:102210001F0F000103030707070707020000000064
:102220000000000012130000FC06FACA922E9DE581
:10223000C996CD6549165CB8F00E41AC563B874D4A
:102240004341442E37402217100F000102020505BA
:10225000040505020000000000000000010100006C
:10226000B8FCFEFFFFFFFEFFFFFFFEFEFEFEFEFCD2
:1022700000000F1F1F3F7F3F3F7F7F7F7FFFFFFFDC
:10228000FFFFFEF00000000000000000020707074B
:102290000707030301001213B85C164965CD96C900
:1022A000E59D2E92CAFA06FC00000F101722403757
:1022B0002E4441434D873B56AC410EF000000000D8
:1022C00000000000020505040505020201000100EE
:1022D00000011F168040A05028D4EA723A9A9A1240
:1022E00032F5E191E1F234129A9A3A72EAD4285026
:1022F000A040800700020500E73F3C1D5CDC3DA4D8
:1023000020A9A429A0A43DDC5C1D3C3FE7000502F8
:1023100000070000000002152B242D2C2C262A2A51
:102320002A2A2A2A2A262C2C2D242B1502000000CA
:1023300000000102011C088046DFFF07038247DF1F
:102340007F870307070E1E362E546C58B8B8D8B8CE
:102350005C631C2060E0E0F0F8FBFAFCFFFEFCF0A0
:10236000F0F0F0E00000000000000107070F0F0F81
:102370000707070301110C2060E0E0F0F87B6A6CAE
:102380007FFAFCF0F0E050A0000000000000010324
:102390000305030503010201000001011E100000F6
:1023A00000000000000080400000008000008182EA
:1023B00002B2F4F8F870307070E0C08020405060D5
:1023C000E8E8F0E0E1FA7F3F02070FF50FFFFBFCC2
:1023D000FF010000000C229F7F0A000001BB074A9A
:1023E00007D2065D0662084A083208AF0895087AE7
:1023F000083C7EFFFFFFFFFFFFFFFF7E3C003C7EAF
:10240000FFFFFFFFFFFFFFFFFFFFFFFFFFFFFFFFDC
:10241000FFFFFFFFFFFFFFFFFFFFFFFFFFFFFFFFCC
:10242000FFFF7E3C33083C4281BD89BD81BD95895B
:10243000423C003C42BDA5A5A5A5A5A5A5A5A5A571
:10244000A5A5A5A5A5A5A5A5A5A5A5A5A5A5A5A53C
:10245000A5A5A5A5A5A5BD423C0904040800070043
:1024600003000804E608D708CA0810090309F7089A
:102470000F8F3A33620F6B1EF95C0A9FC969AFCBAD
:10248000BAACCBBACC020F8F3A8101281C109863EA
:10249000020219280844372585CF0027849CC65E90
:1024A0007B5C8DB3BA09A00985096B09520938090B
:1024B0001D094B0A360A200A0D0AFA09E709D40950
:1024C00054415241544F4D414D4F4D454E4F564151
:1024D000534F53494B414B494D554E555455535508
:1024E0005245534554455045504F504950410008BE
:1024F000085040584455407F000808007F4055442C
:1025000058405008080A021A22AA02FE00080800D1
:10251000FE02AA221A020A204982802078208053D3
:10252000746174BDC68088203A0A53B3203A0A8980
:10253000203A0A476F6C64203A0A44756E67656FEB
:102540006E73203A80B62052756E65738020456E9A
:10255000656D7920537473804E616D653A0A8820E9
:102560003A0A89203A0A8053C4208A0A4E657720A5
:102570008A0A8052C1C2208A80D280B168B9218083
:102580008B20CA666C696374B880208CBC8D2E80E9
:10259000506CCB20616E208E20808B20CC6761CA6E
:1025A000B8802068C86C7468208F2E80B790209106
:1025B0002080206870208F2E8020922C2080208DFB
:1025C000208C2E80932047656C6174CAC9732043A8
:1025D000756265209120610AB68020948020952044
:1025E0009680208B20B3B89020972066CC65640A33
:1025F00098207669BE6167CE732095209820637518
:1026000072CD21808B2073636F72B8802099206314
:102610006FCA732E80209A208F2E808B206469656C
:102620006421204C6FCD2068616C66BC9B0AB5208C
:10263000992097209A208F21804750805350808B7B
:10264000209C20804EAE20218041535441524F4B5C
:1026500080B64865CC206CC52056616D706972C625
:102660002E0AB79D208733202D209E208632802081
:1026700052C120496E2050C863652046696C6D6F59
:1026800074652E0AB79D208731202D209E20863923
:1026900080B650B420506C6179204F6E2054617028
:1026A000650AB5446576656C6F70B8323031398033
:1026B00057656C636F6D65207472C4BECE20BA9886
:1026C000BB776E806F6620477269A3642E209320CB
:1026D0006576696C209080686173207475726EB83D
:1026E000CB2061BE20CABA70C76BCA8070656F709C
:1026F0006C652E20506CC8CD2068656C7020CB2096
:10270000646566C874809F206372617A79207769F6
:102710007ACF6421804265207375CC20BA657175CB
:102720006970209BCD6C668070726F70CE6C792E54
:10273000208B20A02070B420222425BB80616363FD
:10274000657373209B2069822097BB8076696577CB
:1027500020CAA36D6174C3206162C97420A1206F77
:1027600072809B20656E656DC52E80496E20636FFB
:102770006D6261742C209C20947320BA7363C280B4
:1027800027706F6BCE27206897732E2050B4B92026
:10279000222325207769BE809C2098209473202DC9
:1027A000206AC720978074C9636820947320BACDCB
:1027B0006C65637420986D80A320CC9CB92E204E4C
:1027C0006F726D61BE7920A180A0209C203320749F
:1027D000696D65732C2062757420A480C06D7320B0
:1027E0006D696768742067BF20A1208E2E804372B8
:1027F000797374616C2048818048696768204881DA
:102800008052C96E6420488180A520A6808820A6B9
:1028100080537065B8A680A520426C617A658048B7
:10282000C86CB92057CA6480526973B9205374CFF9
:102830008056656E6F6D204DBD803520A520A78028
:1028400048C86C2032302048508033352044616DB8
:10285000616765803220502E20A780D246BF8380DA
:10286000D246C9728380D2D1CC65838054776F20E1
:1028700050616972732180D24675BE2048C9CD214E
:10288000808B207069636BB8757020A4204850213C
:1028900080B620D1616E6B20A120A320736176B930
:1028A0000AB520CB2095209820437572CD21802039
:1028B0004F76CE7772C0206578BDB920A93F0AB5A2
:1028C000B584B6208580B75374CF7420D26E6577F7
:1028D00020A93F0AB584B6208580B78A20AB207234
:1028E000C1C2642180B6208B20AC20AD0A20AEBCD2
:1028F000AF206881732180B78B20AC20AD2061733D
:102900000A6D616E79BC98CD20706F74C3730AB77D
:10291000617320A120A02063CF7279202180B6B0FE
:10292000209F20C06D3F0AB684B62085808BD0B131
:1029300020AD0AB6B220992180B68B2061CC2063ED
:10294000CF7279B90A20AEBCAF2094732180B7B0A2
:10295000209F20943F0AB784B6208580208BD0B179
:1029600020AD0AB620B22053502180B5B641206D6B
:102970006F6E7374CE2092209680D1726F772098FC
:1029800020947320616761CA2180B78A20AB2073CD
:10299000C4642180656C6D65F46E76656E746F72CB
:1029A000F9206F662061204B696E64A122232520E7
:1029B0005965F3222425204EEF3138B83138B44818
:1029C00065616C74E8446566656E63E547616DE555
:1029D000596FF57074F364616D6167E565787472C1
:1029E000E1706F696E74F341737461726FCB7374CD
:1029F0006F6CE561747461636BF35468E572756EB6
:102A0000E566726FED796F75A1616EE47468E567D4
:102A10006F6CE4736B696CEC796F75F2636173F4DE
:102A2000426F72EE4465E3746869F36361EE796F37
:102A3000F572756E65F3666FF2736F6DE5466972D8
:102A4000E5506F74696FEE444DC74B696E64A167C2
:102A5000616DE55965F373746174E5616C7265616C
:102A600064F9686176E56F6EE574686F73E54275C9
:102A7000F96E6FF4656E6F7567E86B696CEC726583
:102A800073F320202020A02020A020A06564A0694E
:102A90006EE7746FA02074EF206F66A06973F46C0A
:102AA000EC6976E56974E56573F46F72E5696FEE5C
:102AB0006176E56965F36963F3756DF065E16FF55E
:102AC00069EE75F372E573E565F261F220646FA05B
:102AD00054E861A00308000000002F00003C7EC302
:102AE000F5C381B5CB7E3C00000000030000000070
:102AF00000000000000000081C0840200008080832
:102B00000020000000003F213F223F2033292723DF
:102B100029371E113F37253D3F253D3905033F2508
:102B20003F07053F14000000000000000000000007
:102B30000000000229062000203C0B3C3F253B3FC3
:102B400021333F213E3F25213F05013F213B3F04EB
:102B50003F3F000030203F3F043B3F20003F0E3FFF
:102B60003F023F3F213F3F090F1F113F3F053B37CA
:102B70002D3B013F013F203F0F300F3F183F330CEB
:102B800033033C03312D2318243C3E24183C2424D9
:102B900018243E183428083E0A5C543C3E04383A57
:102BA0000000403A003E0834023E003C083C3C0431
:102BB0003C3C243C7C241818247C3C040C28241421
:102BC000041E243C203C1C201C3C103C3408345C7B
:102BD000503C34242C01010704041E140505000296
:102BE000020404041919000014010105030323233E
:102BF00000000006060606061E1402020000000A77
:102C00004100010528000205230100021401010111
:102C10000F010201140200011E00A62811241FBE8C
:102C2000CFEFDAE0DEBFCDBF11E0A0E0B1E0ECE92C
:102C3000F0E702C005900D92AA36B107D9F726E059
:102C4000AAE6B1E001C01D92A737B207E1F716E18D
:102C5000CEE0D6E104C02197FE010E944638CD3077
:102C6000D107C9F70E94E5280C944C380C94000059
:102C7000982F80911506923051F0933019F09111F0
:102C800007C0089590911806990F890F0895880F2D
:102C900090911806FACFE6EBF1E081E0A0E0B8E011
:102CA00000800EBC8111012C1197A0FDFDCF019277
:102CB000B9F70DB408956F927F928F929F92AF9261
:102CC000BF92CF92DF92EF92FF920F931F93CF9319
:102CD000DF939C01FA0194903196E491C92CD12C98
:102CE000C601820F931F803891051CF080E8982E52
:102CF000921AEB0183E0D595C7958A95E1F78C2F61
:102D000091E0FE2FF77009F490E0E695E695E695E0
:102D10009E0FFE01E90FF11D399714F098E09C1BFE
:102D20004E5F5F4FE62FE7708E2E8E011695102FA7
:102D3000002717950795020F131FAE2E0E2E000CBD
:102D4000BB08AFEFB0E002C0AA0FBB1FEA95E2F7E5
:102D5000A095B0957B2E282F2C1B291798F5B8012C
:102D60006A547E4FF12CE12CE91430F5FA01EE0D96
:102D7000FF1D249130E00A2C02C0220F331F0A9459
:102D8000E2F787FD08C0FB016080E62DEA236E2E86
:102D9000622AFB016082882049F087303CF4FB0105
:102DA000E058FF4F20812721232B2083FFEFEF1ACC
:102DB000FF0A6F5F7F4FD8CF4C0D5D1D00581F4F2E
:102DC0008F5FC9CFDF91CF911F910F91FF90EF904F
:102DD000DF90CF90BF90AF909F908F907F906F903B
:102DE00008952F923F924F925F926F927F928F92AF
:102DF0009F92AF92BF92CF92DF92EF92FF920F938A
:102E00001F93CF93DF9300D000D000D0CDB7DEB7B3
:102E1000DB014115510509F43AC1FA01949031964C
:102E200074914E5F5F4FA92CB12CBA82A9822223E4
:102E300021F1E1E0F0E0372F377011F4F0E0E0E04D
:102E4000C72EC694C694C694CE0EDF2ED11CA98080
:102E5000BA80CA9CF001CB9CF00DDA9CF00D1124D5
:102E600063E0B62EEB1002C0EE0FFF1F2E9F600135
:102E70002F9FD00C11244C0D5D1D29813A81280F04
:102E8000391F3A832983121613060CF000C18038CB
:102E900091050CF0FCC09D01270F311D1216130681
:102EA0000CF0F5C0A034B1050CF0F1C0411551058E
:102EB00009F4EDC03A2F3770632E9D01B7FF02C0B1
:102EC000295F3F4FE3E035952795EA95E1F7F22F2B
:102ED000B7FF04C0662011F0FFEFF20F222733275F
:102EE000281B390B97FD02C030E020E0A981BA8190
:102EF00060E8F62EF81AA038B1050CF4F92CF21A95
:102F0000AF2F0F2E000CBB0BFF3F0CF0A1C0EA2F20
:102F1000E095E983E1E0672F677009F4E0E07695DA
:102F200076957695E70FAE0FB11D199714F0E8E08E
:102F3000EF1B79807F0E772D60E87603D001112496
:102F40008A0F9B1F820F931F262C062C000C330820
:102F500073E0A2E0E712A1E0B92DBF19BA9FB02D2E
:102F60001124AA2EB12C6981969E200D311D1124A9
:102F70002A9DB0012B9D700D3A9D700D11246A01A0
:102F8000C60ED71E0115110509F48A0195012150BD
:102F90003109620F731F060F171F6FEF70E0062CC9
:102FA00002C0660F771F0A94E2F79B0120953095C7
:102FB0003A8329834E2E4F0E4B2F50E0AF9D400D8C
:102FC000511D1124741409F462C0DC01AA54BE4FCF
:102FD0001E821D82512CF51409F451C0ED81FE8131
:102FE000EC0DFD1D249130E0022C02C0220F331F96
:102FF0000A94E2F762E0E61609F43EC07BEFE712BE
:1030000029C0F901E095F095FC83EB8330E020E0E6
:1030100077FC05C09C907B819722922A9C92662027
:1030200071F0E6E0E7155CF04D01F0E88F0E911CC1
:10303000F4012081FC812F23232BF401208353945E
:103040002D813E812A0D3B1D3E832D831196C3CFDA
:10305000198260CFED81FE81E00FF11FE491F0E075
:10306000022C02C0EE0FFF1F0A94E2F7BF01609529
:1030700070957C836B83CCCF69817A81FACF73940E
:10308000C40ED51E040F151F80589F4F9BCF269648
:103090000FB6F894DEBF0FBECDBFDF91CF911F9169
:1030A0000F91FF90EF90DF90CF90BF90AF909F90E7
:1030B0008F907F906F905F904F903F902F900895EA
:1030C0002F923F924F925F926F927F928F929F9238
:1030D000AF92BF92CF92DF92EF92FF920F931F9326
:1030E000CF93DF93CDB7DEB760970FB6F894DEBF0E
:1030F0000FBECDBF1C015A8349830B87FA0134915F
:10310000319644914E83832F8F778F5F682E712C79
:10311000C301820D931D97FD99C150E82516310416
:103120000CF094C1842F8F738F5FAB01480F511D3A
:1031300057FD8CC1603471050CF088C1331F3327F3
:10314000331F388B91E09D833E8136FF1D828B01BA
:1031500077FF04C000271127061B170B07701127E4
:10316000AB0177FF02C0495F5F4FFA01A3E0F5951D
:10317000E795AA95E1F7F887EF8377FF0CC0011573
:10318000110549F03197F887EF8348E050E0BA0124
:10319000601B710B8B01682F66956695669587702D
:1031A00009F06F5F7B85A30141505109711102C085
:1031B00050E040E097E0A0E1B0E080E0512C412CED
:1031C000912C812CE62FF0E0FD87EC876C857D85C6
:1031D000861697060CF03AC1EE24E394F12CFD011B
:1031E00073E0F695E7957A95E1F769817A81E60FC4
:1031F000F71FE4916E2F70E0FD01E770FF2702C01A
:1032000075956795EA95E2F7FD013196FF87EE87A0
:1032100060FF06C0FFEFEF1AFF0AAE85BF85DFCF64
:1032200031E0E316F10409F0A1C0EE85FF8563E00B
:10323000F695E7956A95E1F769817A81E60FF71FC0
:10324000E491F0E0EE84FF8477E0E722FF2402C0FF
:10325000F595E795EA94E2F7E170FF27BF016F5F0C
:103260007F4F7C836B831296F12CE12C6B817C81E8
:103270006E157F0509F4DCC07889772359F0692F32
:1032800070E03D81332309F4B9C06E597E4FFB01D4
:103290006081862B915008F0C7C0882309F448C08C
:1032A000DF80D80CF7E0FD150CF442C0B101640FCB
:1032B000751F60387105E0F590E0002E02C0880FA0
:1032C000991F0A94E2F7D7FC15C03D2D60E836033C
:1032D000F0011124E20DF31DE40FF51FBF016A5444
:1032E0007E4F5B01FB016081222309F48EC0682BB5
:1032F000F501608301151105D9F0F7E0DF16C1F083
:103300003FEFD316ACF0ED2DDD0CFF0B3196F695AB
:10331000FE2FEE27F795E795E20DF31DE40FF51F5D
:10332000EA54FE4F6081222309F473C0692B608345
:103330006E8167FF04C07D8181E078277D839FEFE8
:10334000491A590A3B85332309F467C04150510992
:103350004614570444F04FEF841A940AA3014150D5
:103360005109512C412C97E080E05EC0B7016150BB
:1033700071097A876987E1E0F0E0098402C0EE0F05
:10338000FF1F0A94E2F7BF016F5F7F4F7C836B835F
:10339000D12CC12CAE84BF84AC0CBD1CF50133E034
:1033A000F695E7953A95E1F769817A81E60FF71F7F
:1033B000E4916E2F70E0E7E0AE22BB2402C0759569
:1033C0006795AA94E2F760FF0EC061E070E00C2CF4
:1033D00002C0660F771F0A94E2F7EB81FC81E60FCB
:1033E000F71FFC83EB83FFEFCF1ADF0A69857A852D
:1033F000C616D7067CF2AE0DBF1D36CFE7E0F0E073
:10340000E61BF70BEE59FE4F43CF782F70956723DD
:103410006FCF892F809568238ACF461457046CF4A8
:103420004F5F5F4F80E097E06FEFE61AF60A1ECF1E
:1034300071E03889731B788BC9CE5FEF851A950AC6
:1034400050E040E080E0512C412CEDCF60960FB66B
:10345000F894DEBF0FBECDBFDF91CF911F910F91CA
:10346000FF90EF90DF90CF90BF90AF909F908F90A4
:103470007F906F905F904F903F902F900895EEEF68
:10348000F5E080E0919191118F5F96E0E430F907CB
:10349000C9F70895482F209103013091040186B5A2
:1034A0002827C9019695879520FF02C024EB922713
:1034B0009093040180930301641B770B0E941E38D4
:1034C000840F08959091FC05981721F08093FC05D6
:1034D0001092F4050895E091FD058091F205E43025
:1034E00041F094E0E99FF0011124E150F44DE491A2
:1034F0008E0F0895E6EBF5E0A08DB0E0A85ABE4F20
:103500008C918F3F49F4838D811107C0349695E0EB
:10351000EA3CF90789F7089581E00895EF920F9347
:103520001F93EE24E394890120E00E94F1161F917D
:103530000F91EF900895CF92DF92EF92FF920F9349
:103540001F93CF93DF93EC017B016A01A90120E077
:103550000E94601821E0A601B701CE010E94601808
:10356000DF91CF911F910F91FF90EF90DF90CF905F
:1035700008952091AE013091AF0127703327232B9E
:1035800051F49091CA059F5F891719F09093CA056D
:1035900008951092CA050895A1EAB1E02FB7F894F2
:1035A0007D918D919C9166B52FBFA89B05C06F3F03
:1035B00018F47F5F8F4F9F4F22E0660F771F881FA1
:1035C000991F2A95D1F7089520919401E0919201D5
:1035D000F0919301CF010296909393018093920111
:1035E000222319F085919491089580819181089505
:1035F000E1E7F0E080818D7F808310929100469812
:103600004798109291010895CF92DF92EF92FF9226
:10361000CF93DF930E94E41A811520E8920741F4CA
:10362000DF91CF91FF90EF90DF90CF900C94F81A3C
:1036300021E020939101813020E8920751F480919C
:103640008F019091900190939301809392010E9439
:10365000E41A97FD05C020918E01222309F45BC076
:1036600020918D01211157C021E020939501EC019B
:10367000DF77209709F052C081E080939601469849
:103680003FE9C32E3FE0D32EE12CF12CCAEFD0E06E
:10369000E0918B01F0918C010995811103C081E0CB
:1036A0008093960180919501882329F0809196015D
:1036B000882309F446C047980E94E41A009709F449
:1036C00044C09C01DE010E94F537DC01CB0129E0FA
:1036D000B595A795979587952A95D1F71092900063
:1036E0002AE020939100D0929900C0929800809394
:1036F000970190939801A0939901B0939A018091BA
:103700007100826080937100DF91CF91FF90EF9004
:10371000DF90CF90089510929501A9CF9E0150E0BF
:1037200040E060E472E48FE090E00E94B437690109
:103730007A0181E0C81AD108E108F10810929601D7
:10374000A7CF4699B8CF479AB7CF8FEF9FEFDC014D
:10375000C5CF9C01E1E7F0E090819D7F908381E0FF
:1037600080939401309393012093920130939001C0
:1037700020938F010C94041BEF920F931F933AEF49
:10378000E32E10E000E00E94F1161F910F91EF90E0
:103790000895EF920F931F933BEFE32E10E000E0AC
:1037A0000E94F1161F910F91EF900895CF93DF9330
:1037B000C82FCF776091A701CA3061F48091A6012C
:1037C0008093A5018091AA01680F6093A701DF9102
:1037D000CF9108959091A50120EEC13608F02AED11
:1037E0002C0FD82F6F5F062E000C770B892F990FA7
:1037F000990B3091A80144ED5AE2313079F40E94DE
:10380000BC1B9091A501C03229F0DF75D93411F0AD
:10381000C73239F49E5F9093A501D9CF0E94C91B8E
:10382000F0CFC252C43010F0DC3411F49D5FF3CFFE
:103830008091A9018D5F980FEECF1F93CF93DF93F7
:10384000EB01142F8823C1F0FE01949121961123DE
:1038500021F09038C9F78150F5CF97FFF5CFFBCF16
:1038600087FD17C087FF12C08F7740E064E979E2D7
:1038700081500E941D1C2196FE018491112381F329
:10388000803881F7DF91CF911F9108950E94D61B58
:10389000F2CF8F77DF91CF911F910C94D61B41E02F
:1038A00067E175E20C941D1C0F931F93CF93DF9378
:1038B00000D000D0CDB7DEB71C82FE0134962AE0DE
:1038C000622F0E940438905D92938111F9CF8F018D
:1038D000F80181918F01882319F00E94D61BF8CF3F
:1038E0000F900F900F900F90DF91CF911F910F913C
:1038F00008950E94541C8AE00C94D61BEF920F93FB
:103900001F9332E0E32E10E000E00E94F1161F91B9
:103910000F91EF900895F89487E7809300088093C3
:103920000108A89588E18093600088E0809360009A
:10393000FFCFBC0190E080E0AB01FC010E94CC1AFB
:1039400041505109E109F10928F068517C4F8F4F2E
:103950009F4FF6CFAB01FC010E94CC1A641775078C
:103960008E079F07C8F30895811109C086EA5C9805
:103970008EBD00000DB407FEFDCF5C9A089587EA66
:10398000F6CF80918A01089510928A013E983F985F
:1039900008953E9A3F9A81E080938A010895480FE6
:1039A000592F511D14161506D4F580389105B9F11B
:1039B00097FF02C090E080E04138510514F040E8E4
:1039C00050E0481BFB0177FD379633E0F595E7950E
:1039D0003A95E1F7F695FE2FEE27F795E795E80F74
:1039E000F91FEA54FE4F6770772781E090E001C02D
:1039F000880F6A95EAF7382F213041F4415078F06A
:103A00008191DF011197832B8C93F8CF80954150E2
:103A100030F09191DF01119798239C93F8CF08958E
:103A200020E191E061FD94E060FD990F62FD9295C7
:103A3000687F269FD0011124A80FAA54BE4F8C91F5
:103A4000442319F0892B8C93089590958923FBCFFB
:103A5000DF92EF92FF920F931F93CF93DF937C013E
:103A6000D22E8B01040F111DEB0177FF02C0D0E0B5
:103A7000C0E0C8010134110514F080E490E0C817DB
:103A8000D9075CF480E8E816F10428F44D2DBE0156
:103A9000C7010E94101D2196ECCFDF91CF911F919D
:103AA0000F91FF90EF90DF900895BF92CF92DF9239
:103AB000EF92FF920F931F93CF93DF93C62FD42FD4
:103AC000082F880F110B68017801E60EF11CCE1447
:103AD000DF045CF420E04D2F70E060E0C6010E943E
:103AE000281D8FEFC81AD80AF2CFBB24BA94BD0E96
:103AF000C25068019FEFC91AD90A21E04C2F70E02B
:103B000060E0C6010E94CF1C8B2D8150990BBC0137
:103B10008034910528F421E04C2FC6010E94CF1C6F
:103B200021E04B2D70E060E0C6010E94281DC60117
:103B30008C0F911D21E04B2D70E060E001970E94F9
:103B4000281D20E04DE055E26FEF7FEFC8010E9495
:103B50007E1C98E0E91AF10820E043E055E26FEF9F
:103B60007FEFC7010E947E1C8D2F8850990BEC01BE
:103B700020E049EF54E2BC01C8010E947E1C20E015
:103B80004FEE54E2BE01C701DF91CF911F910F911B
:103B9000FF90EF90DF90CF90BF900C947E1CEF923F
:103BA000FF920F931F93CF93DF93182F8091F60509
:103BB000C091F305882331F0E091F705F0E0EC5B6C
:103BC000FE4FC0818091FC05982F9D7F01E09130D0
:103BD00009F000E03091F505D0E0E0900406F090A7
:103BE000050631114DC02091F405823040F084303B
:103BF000A8F48091AE0180FF3AC033E00FC08091FD
:103C0000AE019091AF0166E070E00E941E38892BF2
:103C100029F42F5F233041F12093F4058091F405BE
:103C2000830F9927991F880F991FFC01EE54FB4DB4
:103C300025913491FC01EC55FB4D45915491BE0109
:103C4000C7010E949B1A8091FD05843009F445C08C
:103C50009091FC05913009F47EC000F100E09330B2
:103C600009F07EC001E07CC01092F405D7CF2F5F31
:103C7000243019F02093F405C0CF1092F405BDCF85
:103C80008DEF9FEF002311F081E090E020E734E218
:103C900046E854E2BE018E0D9F1DD3CF0091F4057E
:103CA000002309F45DC000E034E090E0880F991F24
:103CB000FC01E659FB4DA591B491FC01EC59FB4D7B
:103CC00045915491BE01631B710980910406909146
:103CD00005069D0102960E949B1A8091F605882395
:103CE00009F448C08091040690910506029620E0F0
:103CF00049E554E26EE270E01123A1F10E94BC1B81
:103D000021EF33E244E254E270E060E090E080E0D2
:103D10000E948E1A8091EF05883040F42091AE0108
:103D20003091AF012F713327213130F1853608F002
:103D300084E663E00E941038D82FC0E0CD17E0F48D
:103D40008C2F90E021E042E063E070E040960E941A
:103D5000281DCE5FF3CF9091F40501E09111A4CF1F
:103D600035E0A3CFDF91CF911F910F91FF90EF909E
:103D70000C94C91B1111C4CFDF91CF911F910F91EA
:103D8000FF90EF900895089566E080E00E944A1A3F
:103D9000482F56E0580FE6E0451700F5842F6E2FA8
:103DA0000E940438892F292F30E02A543A4FD90134
:103DB000A85BBF4F9C91992379F09150843038F4DF
:103DC0004091FD05841303C044E04093FD05285B4A
:103DD0003F4FF901908308954F5FDECF80E0089553
:103DE000CF93C62FC69549E0849F402D1124455F8F
:103DF00080E48C1B0E94551D8AE48C1BE5EAF1E0EF
:103E00008083818385E08283CF910895FC012081A6
:103E1000222341F01092C5051092B80510920D06AC
:103E2000108208958091B80581508093B80581E093
:103E300080930D060895CF93DF93C82FD091760617
:103E4000DD23F9F0D23009F49BC0C5FF06C0DD23A5
:103E500009F4C6C0D150D0937606C6FF08C0809141
:103E60007606833009F4BEC08F5F80937606C2FF6A
:103E700005C0109273068FEF80937006DF91CF918B
:103E800008950E943F1AC7FF0EC090916E069330AE
:103E900020F0915090936E0606C020916D0621117E
:103EA00013C09111F6CFC4FF24C090916E06282F45
:103EB00030E0923068F42150310992171306CCF4A7
:103EC0009F5F90936E0615C0215020936D06EBCF37
:103ED00080916D06482F50E0BA016C5F7F4F6217EA
:103EE0007307E4F0490F511D215031094217530760
:103EF0003CF3C3FFAACF80916E0620916D06280F78
:103F0000EEEFF5E030E090E04191442319F0231703
:103F100049F03F5F9F5F9630B9F797CF8F5F8093EF
:103F20006D06E7CFEDEFE90FE33018F09093FD0554
:103F30008CCFE130B1F0E230E9F090911506965F58
:103F400090931506F0E0EF5FF94F908191509083C8
:103F500091117BCF882309F478CF815080936E062E
:103F600074CF9091EF059C5E953608F094E690939F
:103F7000EF05E8CF9091BC059F5F9093BC05E2CF21
:103F800087FF11C09091710683E0890F981758F44C
:103F9000282F2370E22FF0E0E850FA4F30813323CE
:103FA000D9F020937106C4FF50CF8091710621E0B3
:103FB000280F90E003962817190611F00CF045CF52
:103FC000322F3370E32FF0E0E850FA4F4081442362
:103FD00029F03093710639CF8150D8CF2F5FEBCFC6
:103FE000D3E039CF80E041CF2093B80580930E060F
:103FF0006093060610920A0681E080930B064093B8
:10400000070680930D060895E6EBF5E01182128213
:1040100091E0938F89E0808F978F848F93A380A303
:1040200097A384A393A780A70895CF93C82F883020
:1040300099F080E0CA3089F00E940420C33039F042
:1040400008F052C0CC2309F457C0C130F1F580E824
:104050008093010184E064C08BE68093B8053091C1
:1040600011062091120680911306813091F58091FE
:10407000170690911606930F90931606820F809361
:104080001706809116068093150680911706809377
:1040900016061092170680911906809318068091D3
:1040A0001A068093190610921A061092130610929F
:1040B000140683E08093BC05CA3039F48091C605AC
:1040C000843019F481E08093C405C093BF05CF917B
:1040D000089580911A0690911906930F90931906EE
:1040E000820F80931A06CDCFC530A1F0C93069F791
:1040F00081E08093B805E9CF81E08093220680E8D3
:104100008093010182E08093020182E190E20E94AB
:10411000A91BDBCF0E94F81A80E88093010182E09E
:1041200080930201D2CF1F93CF93DF93C0911E06DD
:10413000D0911F068091040690910506C81BD90BEB
:104140008091C405811116C0809123068C0F9D2F8C
:10415000911D0996439718F481E00E9415208091E3
:1041600024068C0F9D2F911D0996439718F483E028
:104170000E94152010912906112331F18091260605
:104180009091270603968C0F9D1F4397E8F424E631
:104190004EE561E088E40E94F41F109229066FE06A
:1041A00085E00E944A1A9091EF05890F853608F044
:1041B00084E68093EF0580E090E20E94A91B812FA6
:1041C000DF91CF911F910895CE01885991094397AE
:1041D00028F488E28093000111E0F1CFA8E3B1E078
:1041E000E2E3F1E030E020E0822F4D915D914C0F51
:1041F0005D1F4D5F5F4F4331510538F424E64EE5B6
:1042000062E08F5D0E94F41FE7CF819191918C0F46
:104210009D1F0996439730F51091C405112339F07D
:1042200024E648E662E089E40E94F41FC8CFF90161
:10423000E350F04E8491F901E650F04EE49198EC91
:104240009093B805E0930C0692E0909306061092C6
:104250000A0680930B0682E88093070681E080932C
:104260000D06BACF2F5F3F4F2330310509F0BCCF89
:10427000C556D10910E0639708F0A1CF81E0809383
:10428000C5051092B805A8CF809104069091050647
:104290008C5691098531910568F42091BF052A302B
:1042A00049F463E070E00E943238660F6B5D609302
:1042B000F305089585E28093F30508951F93CF9346
:1042C000DF93D82FC62F122F85FF0BC080E00E94EE
:1042D000621AD6FF34C081E0DF91CF911F910C9418
:1042E000621A65FF27C08091040690910506853FFC
:1042F0002FEF9207ACF0042E000C550B481759070E
:1043000044F782E00E94621A8091040690910506AB
:10431000019790930506809304060E944421D9CF0B
:104320008FE790E0909305068093040680E00E945A
:104330001520CFCF8091FC05823059F6C7CFC6FF3C
:1043400018C0809104069091050618171906B4F05C
:1043500083E00E94621A80910406909105060196FE
:104360009093050680930406DF91CF911F910C94E2
:1043700044218091FC05833009F4ADCFDF91CF91CA
:104380001F9108950F93CF93DF93EB0100E021E09D
:10439000AC0161E270E088E090E00E94601821E0EA
:1043A000AE016DE270E087E090E00E946018DF915E
:1043B000CF910F9108958F929F92AF92BF92CF921B
:1043C000DF92EF92FF920F931F93CF93DF939AE0C8
:1043D000499FA0011124C82FD0E02396D12CC12CD5
:1043E000CA01845C904E7C01A62EB12C450194E05C
:1043F000890E911CF701EC0DFD1D149100E021E0E8
:1044000044E25FE1B501CE0103970E946018212FBD
:104410004AEF5EE1B401CE010E947E1C8FEFC81A04
:10442000D80A2D9695E0C916D10421F7DF91CF91D6
:104430001F910F91FF90EF90DF90CF90BF90AF90C2
:104440009F908F900895CF93C82F85E68093A50104
:104450008093A60185E38093A7011092A80180E0D4
:104460000E94541CC43640F480E00E94541CCA30A0
:1044700018F480E00E94541C8C2F0E94541C81E090
:104480008093A801CF910895CF92DF92EF92FF928F
:104490000F931F93CF93DF93D82E85E2E82E86E00B
:1044A000F82ED70115968C911597D81227C0C09079
:1044B000C405C0911E06D0911F06EC91E250E83071
:1044C000E8F4F0E0EA59FD4D0C9446386E228F2254
:1044D000DC22EA220D23F522FF223A23CE010697A1
:1044E0001196ED91FC9100E021EB3EE14AEC5EE19A
:1044F00061E270E08E0F9F1F0E949B1AB6E0EB0EE8
:10450000F11CEDE6EE16E6E0FE0659F6DF91CF91DE
:104510001F910F91FF90EF90DF90CF900895F701DA
:10452000818192812FE93EE147EA5EE16AE070E035
:104530008E0105511109800F911F0E948E1AD7011B
:104540001196ED91FC9120E041E45EE162E070E0C3
:10455000CE010D978E0F9F1F0E947E1CF701818157
:10456000928120E04FE25EE162E170E0800F911FF6
:104570000E947E1CD7011196ED91FC9120E045EF41
:104580005DE162E270E0CE014C978E0F9F1F0E94AA
:104590007E1CCC2009F4B2CFCE010997D701119629
:1045A000ED91FC9120E041EE5DE164E270E08E0F60
:1045B0009F1F0E947E1CA2CFF701818192812DE86E
:1045C0003DE147EB5DE162E270E08C0F9D1F0E94D0
:1045D0008E1A94CFCE0104971196ED91FC9120E0B4
:1045E00045E75DE162E270E0E2CFF701818192810F
:1045F00027E33DE145E55DE168E270E0E6CF119635
:104600008D919C9100E020E04DE15DE162E270E07F
:104610008C0F9D1F0E94601871CFF70123810180CC
:10462000F281E02DCE01CC20E1F0049743ED5CE176
:1046300065E270E08E0F9F1F0E94C91B8091AE0142
:104640009091AF0187709927892B09F057CFD70137
:1046500013968C9113978F5F833049F013968C9348
:104660004DCF059743E85CE162E270E0E3CFF701EC
:10467000138244CF14968C911497882309F43ECF6B
:104680008091AE019091AF018F719927813108F42B
:1046900035CFCE0105971196ED91FC9112971396A7
:1046A0002C914AE75CE16BE270E08E0F9F1F0E9445
:1046B000C91B24CFE5EAF1E082E5808381838AE1AA
:1046C00082838FE10C944F1CCF93C82F682F81E019
:1046D0000E94F01EC6958CE48C1BE5EAF1E0808315
:1046E000818385E082838EE1CF910C944F1CCF9320
:1046F000DF93EC01262F4EE25BE163E270E089E597
:1047000090E00E94BC1B20E0AE0163E270E087E60F
:1047100090E0DF91CF910C94BC1BEF92FF920F932E
:10472000CF937C01C62F00E021E049EA5AE162E024
:1047300070E08DE490E00E94601821E0A70168E03D
:1047400070E08FE590E00E94601821E04BE45AE1B0
:1047500061E270E081E590E00E94601821E04EEF98
:1047600059E163E370E081E590E00E94601821E088
:104770004EE959E16EE170E085E090E00E9460183A
:104780008091730681111BC06091BD0581E068278F
:1047900070E020E043E959E181E290E00E947E1C54
:1047A0008091BE056BE370E0882311F06CE370E04C
:1047B00020E048E859E181E290E00E947E1C84E517
:1047C0008093A5018093A60185E38093A7018CE1E6
:1047D000C11101C08DE1CF910F91FF90EF900C942A
:1047E0004F1CCF93DF93EC0185E690E00E949E374B
:1047F0008883CE01DF91CF910895CF92DF92EF921F
:10480000FF920F931F93CF93DF9300D000D000D07F
:104810001F92CDB7DEB78091C605843031F11F827B
:104820009BECE92E95E0F92E8E010F5F1F4F68017A
:10483000F70161917F0170E0660F771F60547B4D37
:1048400042E050E0C6010E949537F2E0CF0ED11C45
:104850008EECE81685E0F80659F7F80181918F0192
:10486000882331F00E94D61BF8CF80E20E944F1CB3
:1048700027960FB6F894DEBF0FBECDBFDF91CF9164
:104880001F910F91FF90EF90DF90CF9008950F93BD
:104890001F93CF938091C605823009F48EC0C0F576
:1048A000882309F46DC0813009F47FC000E021E065
:1048B00040EA51E270E060E089E490E00E94601814
:1048C0008091C705883048F42091AE013091AF0146
:1048D0002F713327213108F4AEC021E2829FC0013D
:1048E00011246091C90570E00E9432388B01C0E04C
:1048F0008C2F90E08017910708F09DC021E042E0E6
:104900006AE070E0855B9F4F0E94281DCE5FF0CF6C
:10491000833009F465C0843049F6E091CA05F0E0BF
:10492000EF5CFC4D649170E06B5E7F4F20E042EDE8
:1049300052E28DE490E00E94BC1BE091CA05F0E0D9
:10494000E253FD4D649170E0625E7F4F20E632E2FB
:1049500046E952E281E490E00E948E1AE091CA0595
:10496000F0E0E45AFD4D649170E0625E7F4F2EEE00
:1049700031E244E252E286E690E00E948E1A2EC0B6
:10498000E091CA05F0E0EE0FFF1FE551FC4D4591A7
:10499000549100E021E062E270E086E590E00E9440
:1049A000601883E00E94B91A81CFE091CA05F0E057
:1049B000EE0FFF1FEB51FC4DEACFE091CA05F0E08E
:1049C000EE0FFF1FE352FC4D4591549100E021E0B2
:1049D00062E170E08BE490E00E94601884E0E2CF36
:1049E000E091CA05F0E0E652FC4D649170E0665E2D
:1049F0007F4F20E04CE953E28BE490E00E94BC1B27
:104A0000E091CA05F0E0E756FC4D649170E06B5E02
:104A10007F4F23E533E245E753E28CE490E00E94C8
:104A20008E1A20E045E353E26AE270E084E590E00C
:104A30000E94BC1BB6CF8091C605843069F080E52A
:104A40008093A5018093A60181E08093A701CF9177
:104A50001F910F910C94FD238EE4F2CF0F931F93BF
:104A6000CF93DF93CDB7DEB72A970FB6F894DEBFAA
:104A70000FBECDBF9AE0899FB00111246C59704ED2
:104A80004AE050E0CE0101960E94953789818093DB
:104A9000C6051092CA050BEC15E067E180E00E94A4
:104AA0004A1AF80181938F01F5E00E3C1F07A9F720
:104AB0008A818093C8058B818093C7058093C9053F
:104AC0002A960FB6F894DEBF0FBECDBFDF91CF910F
:104AD0001F910F910895DF92EF92FF920F931F9312
:104AE000CF93DF93CDB7DEB768970FB6F894DEBFEC
:104AF0000FBECDBFD090C60584E0D81699F08FE5E3
:104B00000EEF1FEFE82EF12C0E151F056CF420E0C0
:104B100046E659E162E370E0C8010E947E1C005F36
:104B20001F4FF2CF8FE7ECCF84E0D81651F000E0B2
:104B300021E04EE459E166E370E080E790E00E94F6
:104B4000601820E046E459E16BEF7FEF87E790E0E3
:104B50000E947E1C20E046E459E170E060E08CE7B2
:104B600090E00E947E1C87E0E8E0F1E0DE011B9609
:104B700001900D928A95E1F787E0EFE0F1E0DE0128
:104B8000529601900D928A95E1F78091220681500C
:104B9000990B2AE0289FB001299F700D11246C59B0
:104BA000704E4AE050E0CE0101960E94953710E029
:104BB00000E08A8590E0002E02C0959587950A94C2
:104BC000E2F780FF1AC0F801EE0FFF1FE85CF64E17
:104BD00045915491E2E1F0E0EC0FFD1FE00FF11F71
:104BE000608170E0EBE0F0E0EC0FFD1FE00FF11FE3
:104BF000808120E090E00E94BC1B0F5F1F4F0830B7
:104C00001105B9F668960FB6F894DEBF0FBECDBF9A
:104C1000DF91CF911F910F91FF90EF90DF9008955A
:104C2000FF920F931F93CF93DF931092C50583E6F6
:104C30008093B60506EB15E0C5E6D0E0F801F190EB
:104C40008F01CE010E949E37F81621F06F2DCE0104
:104C50000E94A6372196C632F1E0DF0779F724E6F5
:104C600048E561E086E5DF91CF911F910F91FF90BC
:104C70000C94F41F41E550E067EE78E18CE196E09A
:104C80000E949537E6EBF5E08CE0DF011D928A95F6
:104C9000E9F783E08683089580E00E9415200E9452
:104CA0003A268FEF809371061092290646E150E074
:104CB00061ED78E18FEE95E00E9495378CE390E00E
:104CC000909305068093040608950F920FB68F9374
:104CD0009F93EF93FF9380919C018D5F8D3708F038
:104CE0008D5780939C01EDE9F1E080818E4F8083A8
:104CF00091819F4F918382818F4F828383818F4FD8
:104D00008383E1EAF1E080818F5F808381818F4F2F
:104D1000818382818F4F828383818F4F83838FB181
:104D20008F6066991C9B88278F3681F480919B0148
:104D3000981B963068F0E0E0F8E087E78083818395
:104D400088E180936000F0936000FFCF90939B0117
:104D5000FF91EF919F918F910FBE0F9018951F9229
:104D60000F920FB60F9211242F933F934F935F939F
:104D70006F937F938F939F93AF93BF93EF93FF9323
:104D80008091970190919801A0919901B0919A0119
:104D9000892B8A2B8B2B09F440C0809196018111BD
:104DA0000BC088B190E4892788B980919501882348
:104DB00019F088B1805888B9809197019091980135
:104DC000A0919901B0919A01181619061A061B06AE
:104DD0009CF48091970190919801A0919901B091D4
:104DE0009A010197A109B1098093970190939801C5
:104DF000A0939901B0939A01FF91EF91BF91AF9168
:104E00009F918F917F916F915F914F913F912F91E2
:104E10000F900FBE0F901F9018950E94041BECCFAF
:104E2000CF93DF93FC0190E09F5F9F012F5F3F4F87
:104E3000D901892F861750F44D915081451720F4E0
:104E4000ED012197588340838F5FF4CFF9016913F7
:104E5000EBCFDF91CF9108954F925F926F927F9247
:104E60008F929F92AF92BF92CF92DF92EF92FF927A
:104E70000F931F93CF93DF93CDB7DEB763970FB632
:104E8000F894DEBF0FBECDBF8C01CE0101965C0150
:104E900086E0D5011D928A95E9F7809105019091F0
:104EA0000601A0910701898B9A8BAB8BE091FD05E0
:104EB000512CE43021F0EC0FFD2FF11D51888FEFC4
:104EC000F801808311821282138214868091D005AA
:104ED0008C878091D4058D878091D8058E878091AD
:104EE000DC058F878091E005888B65E0CE010C960C
:104EF0000E9410278091FB05882359F18D859C85A0
:104F0000981739F19E85891721F18F85981709F136
:104F100098898917F1F023E0D8012D93CD0144E061
:104F200050E069EF7BE20E949537D801EC91BAE03E
:104F3000EB9FF0011124E252F44DE491E50DD8010C
:104F40001C96EC931C9782E014968C9314971596FC
:104F50008C9398EF692E95E0792E25EDC22E2BE2E9
:104F6000D22E4301412CF40181914F01882309F491
:104F700059C0C601855D9B427C0145E050E0B60109
:104F8000CE0107960E94953765E0CE0107960E94F4
:104F900010278985873009F445C02F819C85291306
:104FA00041C028859D8529133DC09E8589133AC03F
:104FB0009A858F85981336C09B858889981332C04F
:104FC000D8014D92CD01B7016552744D44E050E0D7
:104FD0000E949537F701E252F44DE491D8011C96F6
:104FE000EC931C97411003C081E014968C93F80158
:104FF0008181580E518263960FB6F894DEBF0FBEC2
:10500000CDBFDF91CF911F910F91FF90EF90DF9077
:10501000CF90BF90AF909F908F907F906F905F9058
:105020004F9008954394FAE0CF0ED11C84E04812CB
:105030009ACFFE013C969E012F5E3F4FA191AA0D93
:10504000BB2DB11D8C918F5F8C93E217F307B1F7E5
:1050500066E0C5010E94102785EDC82E8BE2D82E90
:10506000F12CD3018D913D018823D1F1F601E55D4D
:10507000FB425F0145E050E0B601CE0107960E9479
:1050800095378985873061F58E81823048F18D8131
:10509000823030F18F819D85891719F02F85821319
:1050A0001FC08A85981719F09F85891319C0D801E8
:1050B000FD92CD01B5016552744D44E050E00E946F
:1050C0009537B3E0FB1204C082E0F8018483858346
:1050D000D80111968C911197580E11965C928BCF36
:1050E000F394BAE0CB0ED11CE4E0FE12BACF8E816D
:1050F000853041F483E3D8018C938DE2850D1196C0
:105100008C9379CF843039F484E3F80180838EE185
:10511000850D818370CF833069F48D81823029F4CD
:1051200087E3D8018C9389E1E9CF85E3F801808397
:1051300084E1EECF823009F05ECF8D81823009F0BC
:105140005ACF86E3D8018C938AE0D8CF1092B00171
:105150001092B10180E18093B2011092AF011092E0
:10516000AE011092B40182E491E09093AC0180937F
:10517000AB0189E08093AA0181E08093A90110929C
:10518000A6011092A7011092A5018093A80121EC1D
:105190003CE130938C0120938B0120E030E8309388
:1051A00089012093880146983E9A47983F9A8093B8
:1051B000FC05E5E2F6E08DE696E021E02483158229
:1051C00036968E179F07D1F70895CDB7DEB768974B
:1051D000DEBFCDBF11E01093E0001092E20010920C
:1051E000E10080E28093D8001092D70080916500A2
:1051F000806880936500789483E084BD83E085BDFA
:1052000010936E00E1E8F0E083E08083E0E881E065
:105210008083E1E983E08083E0E981E08083E1EC61
:1052200087E08083E3EC81E08083E0EC82E08083B0
:10523000E2EC81E08083EAE787E080838068808316
:10524000559A209A5D9A289A8C9A84988AE090E0E0
:105250000E94991C7C9B0E948B1C81EC80937C009B
:1052600085B1806F85B984B1877E84B984B1876E3A
:1052700084B95E9A5F988AB1806D8AB9769A6E9881
:1052800081B3806F81BB899880B38D7080BB80E5CE
:105290008CBD1DBD85E090E00E94991C5F9A85E061
:1052A00090E00E94991C5E985C98EEE5FAE084918B
:1052B0008EBD00000DB407FEFDCF31962AE0EB361F
:1052C000F207A9F75C9A81E88093640080916500F9
:1052D00081608093650089E18093B20182E090E073
:1052E0000E949E37882351F10E94C91C8824839410
:1052F00011E02224239459E0952E6CEF662E65E090
:10530000762E7AECC72E75E0D72E8FB7F8944091A1
:105310009D0150919E0160919F017091A0018FBFEE
:105320008091B301342F381B832F9091B4019923BE
:1053300041F03093B5011092B401E7CF0E94C41C34
:10534000D5CF9091B201391738F48F5F8917E8F6FD
:1053500083BE889513BED9CF2092B4014093B30188
:105360008091AE019091AF0101969093AF0180932F
:10537000AE012091B0012093B1018FB18095807F63
:10538000669B88601C9B84608093B00190917B0138
:10539000923009F46DC008F03FC0992309F45FC052
:1053A000913009F0B2CF2095822319F082E08093EA
:1053B0007B014BEC57E161E170E080E290E00E94FC
:1053C0005B168091AE019091AF0160E370E00E94A6
:1053D0001E38883108F046C001E18C3008F00EE13B
:1053E00044EC57E169E170E08BE590E00E945B16C8
:1053F000602F70E041E084E390E00E94101D00FD0A
:1054000008C040EC57E16CE170E08DE290E00E9452
:105410005B160E944B1679CF943009F4A1C098F125
:10542000953009F072CF0091B0018091B101809563
:105430008023888FE091BF05EB3008F0E5C0F0E0F5
:10544000EC5DF54D0C944638B62A502CCF2C052D2A
:10545000752DA02DC42D3C304C30FC302E311093D6
:105460007B01A1CF0FE1843208F4C2CF00E2C0CFAC
:1054700010927801109277018AE697E10E94A91BA9
:1054800083E080937B012091B0018091B1018095F0
:10549000822390917901992319F091509093790189
:1054A00024FF57C090917701903108F0D4CE9F5FD0
:1054B0009093770190917801903218F49F5F9093C8
:1054C000780183FF03C094E090937B0182FF1AC0B0
:1054D00080918A01882309F43FC00E94C41C00E027
:1054E000F0908A0182E090E00E949E37F81629F041
:1054F0006F2D82E090E00E94A63700937A0188E247
:105500008093790100E021E04EEC54E166E070E028
:1055100090E080E00E94601880917801803249F428
:1055200021E043EA54E165E370E080E390E00E940B
:10553000601880917901882309F46BCF20917A015A
:1055400041E954E168E370E088E790E00E947E1C46
:1055500060CF10927701AECF0E94C91C01E0C0CF8E
:105560000E944C2685E080937B015DCF909173066D
:105570009111D4C69091C5052091B80591111BC118
:10558000222339F0283C09F46AC0CE0148960E94D3
:10559000061F888D82FD109373069091B805983C84
:1055A00059F085FF66C080E00E94621A888D86FFF0
:1055B000A5C081E00E94621A888D87FF0CC080918F
:1055C000B805883C09F0EEC080910A06882319F0DE
:1055D000815080930A06988D94FF13C08091B8057E
:1055E000883C79F480910A06282F30E02E5F3F4FE7
:1055F00040910B064217130621F01CF08F5F809339
:105600000A0693FD0E9493208091F605882349F0B5
:105610008091F7058F5F8093F705843111F4109224
:10562000F6058091F505882319F081508093F505E2
:105630008091BF058B3010F00C94E533E82FF0E03B
:10564000EC5DF44D0C9446389131CC33CC3371344D
:105650007134C034C034C034C0342D353D358C7005
:1056600021F01092B805188E91E0982590930D06C0
:1056700090CF05FF3DC082E00E94621A809104062F
:10568000909105068D33910534F0019790930506AE
:10569000809304068BCF20911E0630911F062F3F6A
:1056A0003105ECF48091AE0180FD09C080911C06AB
:1056B00090911D06019690931D0680931C06809183
:1056C0002006909121060296909321068093200651
:1056D0002F5F3F4F30931F0620931E0667CF2F3F4B
:1056E000310509F063CF833091050CF45FCFCDCF46
:1056F0008091FC05823009F059CF55CF06FF4CC090
:1057000083E00E94621A80910406909105068C3312
:10571000910534F4019690930506809304064CCFCE
:1057200020911E0630911F0622354FEF3407ECF012
:105730008091AE0180FD09C080911C0690911D06EC
:10574000019790931D0680931C06809120069091EE
:10575000210602979093210680932006215031095B
:1057600030931F0620931E0627CF2091C4052111D8
:1057700023CF8038910574F200912206015085EF05
:105780009FEF909305068093040685E00E94152004
:10579000802F0E942E2510CF8091FC05833009F0C8
:1057A0000BCF07CF0E949320811115CF1093F605E0
:1057B0001092F70510CF211156C087FF07C09091B6
:1057C0007206992319F091509093720684FF10C0CD
:1057D000CE0101960E94F12380917206882329F060
:1057E0009981933629F4823018F48F5F8093720682
:1057F000888D82FD1092C50583FF06CF80917206C9
:10580000813061F1E8F0823009F0FECE36EBA32E54
:1058100035E0B32E45E6E42EF12CC7010E949E37F9
:10582000D5018D935D01BFEFEB1AFB0AE6E2EE16A0
:10583000E1E0FE0691F724E644E661E08CE40BC06B
:10584000CE0101960E94F1238981833631F52FEF35
:1058500048E662E08AE40E94F41FD6CE2EEF44E5CB
:1058600062E08BE4F8CF10930D0682FF04C0109223
:10587000C5051092B80583FFC7CE809172068823B4
:1058800061F0813009F0C0CE1092C5051092B805C4
:105890001092C4050E944C26B7CE0E941026B4CEAA
:1058A0009091730691113AC58091B805882321F033
:1058B000CE0148960E94061F988D292F221F22276D
:1058C000221F41F08091BA05882309F43EC081501F
:1058D0008093BA052093BD0521E094FD38C020E0F7
:1058E0002093BE0592FD1093730693FF8DCE6091B9
:1058F000BA05F4E06F9FB00111246B587B4E44E071
:1059000050E0CE0101960E94953789818130A9F13E
:1059100040F1823009F4AEC09C818091F005891776
:10592000C8F11092B8058FE480930E0682E0809350
:10593000060610920A0610930B069CE49093070645
:1059400010930D068093BF055FCE86E0C1CF809196
:10595000BA05863020F48F5F8093BA05C1CF80E00E
:10596000FBCFEA81F0E0E250FA4F80818130A1F66E
:1059700024E64EE562E08DE46ECFEA81ED5FF0E073
:10598000E250FA4F8081853039F624E648E563E03D
:105990008EE461CF24E646E462E080E55CCF1093BC
:1059A0000D0683FF1FC06091BA0524E0629FB0011D
:1059B00011246B587B4E44E050E0CE0101960E94CA
:1059C000953787E694E10E94A91B8981882381F09D
:1059D0008130B1F08091F0059C81891B8093F005A6
:1059E0001093BF05888D82FF0FCE1093BF050CCE9C
:1059F000EA81F0E0E250FA4F80818F5F8083EACF46
:105A0000EA81F0E0EF5FF94FF7CF909173069111C3
:105A100085C48091B805882321F0CE0148960E9464
:105A2000061F988D97FF2AC08091B905882321F120
:105A300081508093B9051093BD0594FF28C08091D3
:105A4000B905843010F58F5F8093B9051093BE05BA
:105A500092FD1093730693FFD7CD2091B905822F45
:105A600090E03AE0239FF0011124EF5BF04EE491C7
:105A70002430A1F480E0A2C184E0DBCF8091BD0599
:105A80008823D9F21092BD05D8CF80E0DDCF809178
:105A9000BE058823E9F21092BE05DACF88509A4FEE
:105AA000DC018C91811109C08091F1058E1750F4B1
:105AB00024E646E462E083E5CECE24E646E562E0F5
:105AC00081E5C9CE1092B80582E580930E0682E08A
:105AD0008093060610920A0610930B068AE48093C0
