:100000000C9408160C9430160C9430160C94301680
:100010000C9430160C9430160C9430160C94301648
:100020000C9430160C9430160C9430160C94301638
:100030000C9430160C9430160C9430160C94301628
:100040000C9430160C9430160C9430160C94301618
:100050000C9430160C9430160C9430160C949D258C
:100060000C9430160C9430160C9430160C943016F8
:100070000C9430160C9430160C9430160C943016E8
:100080000C94E7250C9430160C9430160C94301612
:100090000C9430160C9430160C9430160C943016C8
:1000A0000C9430160C9430160C9430160B0F9705E8
:1000B0008B898B8905411CB0D7BD9B8D110B0954D1
:1000C00030B2486F0B0F2F172C260ED8EB7BDD6C50
:1000D0008C2CD2B70B0F2F172C5C9BBDBED74D229B
:1000E0009345FA160B8F7B8535941B72D223596F7B
:1000F0005A064E286C286630686F8BCF2B1CF5840F
:10010000DC901B3A16596D198C486143614361CAF2
:10011000A02D0B0F2F162C262EA603F67ADFCDC6A8
:100120008805238BF40D0B4FEFE766EEDF3064B2EA
:10013000C77B0B0F2F162C5C585C9BBDDE7793485A
:1001400005239345FA063B073FAC5B7B5B02725984
:1001500069D66549715D56329374BD5CC94CD275E0
:100160005997A02028B93097FC3A3B473F6C0DC007
:10017000E0655D248260F0B22E2BCDBA2C29065F9B
:100180004A04C1E019D7C42ED0DED6000CFE503B85
:10019000073F6495B12E4B406E5558BDACC9655DA7
:1001A000569A75595294BCECAAD9B1B7755969D60B
:1001B0006549C9F8413B073F78091CD765090CC957
:1001C0006509C8CB25204A2E6B72ABC2EA85280888
:1001D0001A2E4B407E38398F5F452EFB82BC4B3048
:1001E000257BE415C3E101821BC4E9E6D1AD8C3562
:1001F000C6E5B47BDB635D6E252069F07773E503AC
:100200005E0A17CA53F4C6953B78E2412E91CBB8EB
:10021000E6D25B8EEB984BE4343E0E398F5F889AC2
:1002200012582370198E22468A79BFBA063D9DD096
:10023000A59175398D35CABA2C3AD638A9BA70AE9F
:1002400071BA2C3AD6B81D1659B3DFF114B9AC63A4
:100250002E91CBF8D4BA604E1ED70573C9711D73A9
:10026000C9711D73895CD631B02002EB72F214B9EA
:10027000A84739CFEF5717ECDBA5738575B8A14BAD
:1002800023EBF2E8F68D0453B2478EA732D618EF6F
:100290005717ECDB657596DE3EBF8EB9E43A2EC487
:1002A0008BD775C15C72CF251FF052B8508E9E223D
:1002B00097F1A975CC25C7F551398F1FE606DD8565
:1002C0001BA7E12862A4980759418415B101D39D69
:1002D000F2E856C61AE372DABDEDB12EB7129034C9
:1002E000F867F0792E91CB78CD11725927E0792EED
:1002F00091CBB8E6D25B8EEB984BE4343E0E3B07D5
:100300003F2428084A4E4B42C6690480044E23000D
:1003100024701A21B85E2E91F63842C838B15608BA
:100320000718A71142C66984397E003B471F5E83C8
:10033000AECB0800819C940090715A57B2249CD691
:1003400022E3E92AD25E46081967B2249C061C46BD
:100350000819A731C9F8053B873F6C09DC609CC6CA
:10036000A25E870034F07215B1C721A1E3C45A21FF
:100370001C609C86848ED35874FC503B073F6409F4
:100380000CC9698490711A938CD308739C4608AE8B
:1003900017AB8C751A012081CB3A8D304798E33426
:1003A00002400227D60AE1C33B473F6C0DBA2E0339
:1003B000365483EBB416194FD7A0EB32024020A776
:1003C0007519938C49C669048040CE6449F8453B51
:1003D000471F5852542F63B23C269939A1012081FE
:1003E0003359124E4A00C838AD976BD075190120A9
:1003F00090D3BA8C49C624E33402402067B2247CEF
:10040000093B8FBFE056026B046E8745D6ECEDB01A
:10041000585939AABA70AE718B5D185DCA89AEAEF3
:1004200072E306DD851B8371FB0BE492E33A7A8A63
:100430005CD4A3A7C8651D73895CD63197C8653C99
:100440005D173EE0F35CF27D3BCF5FBE6D585DB75C
:10045000C3226BF6A4EAC2B9C6E5F6388D095DE69B
:1004600034C61AF4F47475C1BE5D5667E9ED17E63B
:1004700092E33A7A8A5CD4632E91CB3AE692C792A1
:100480000B2017EEE38239F9781D73C971FD083B23
:100490008F5F452EFB82BC60DC2E63AC414FCF8268
:1004A000440493561446C9E6CDEA1AF4745A63DF3D
:1004B000BA4F97D505A1A1E41773E57D2EB98E0B30
:1004C000E6E473E0B42E81238FD70573F2B86E3D56
:1004D000E692E3BAA0A77C0F3B8F7F186ED05DB881
:1004E000711A8E22468AB9AFB20028008BAE41D76E
:1004F0003F239FE712B98CC7C0897211E004FC79D1
:10050000003BCF1FE006DD851BA7E12862A498FB16
:100510002A0B8002B0E81A747D1DB9EC0B721E1D07
:10052000418A4BDEE5089E0080090CA0FE349FE75F
:1005300012B98CC7C0897211E004FC1CAE3C5E1776
:10054000CCC9179C809B003F023B8F076ED05DB8E3
:1005500071A3ABEB742A638D715F65015000165D6A
:1005600083AEAF21977D415E306E9731D6A0A787CD
:1005700039822700600203A89FF25BEBE829721919
:100580008F8113E522C009F83C57DEE792EBB86093
:100590004EBEE004DC04F8181B8FBF83AB57AF5E80
:1005A000FD6D392A38200222540802110431023B21
:1005B000021B301B3025800920602400086EAF6BC1
:1005C000001B8F9FF1CAAD65812A850D85A2541C41
:1005D000CC9EBDF2B11CB5820066A10201040422CA
:1005E000A84009201003E800000402086811003345
:1005F00004B032BCAE011B8F070F085E20AFB97A82
:10060000F5EAD5DF964D1504000041000010A0006A
:1006100020082250365036F5901A7090A086A02AF5
:10062000314EB7070908080C020D0B0D020C080823
:10063000083A3B33333B3A013A110B10001010904B
:10064000100017001D1810101010101000000000EE
:100650000706040404040404000400000027DF3734
:100660009A5DDD2C368BCD62A3B291B0596C169B8E
:10067000C566B1195C2817CA45BA53368B2D63A7D6
:100680007C637FCEF08205BC21C0CC6073CA9D6FB5
:10069000ED2619090909ECEFED2F5806B0000156B7
:1006A0000110D009DC107845189537BCDFE14018FF
:1006B000190CD99FE9B81CBD7A75272A21AAA871FF
:1006C000339C2C17D30BF1EAD5E305EDC8F278196A
:1006D0003D0327DF1776BA6AB9502E940BA509455A
:1006E000004239B0D82C368BCDE240B9500E762579
:1006F000E542B950339BCD17F6E70C2F58C01306CF
:10070000303259DC7CC12736991969424202FB7BA1
:10071000FB0B96012C4080550004747A15DE1132D3
:10072000C20B1EEE32B810460643F6673A2E47AFAC
:100730005EDD894A882A6A3C5037C3C1F6845EBDB3
:10074000669D1487CBE5F1327A06279F2FD8E9AA58
:10075000E542B9502E9402A19441392137E486DC58
:10076000901B72434E3A1BB9A1DDE6C207F7B7B83A
:1007700064B178C20692C9E2414E7C6B931931266E
:10078000B0BFBF1F0B0359808C05202870062EC0F8
:100790000B823D70E22BBB0C06C321FBB31D97A35C
:1007A00057274B63100928A2CA74B05D2EAF868B01
:1007B00057AF5927C5E1625D469F0127DF2756D60F
:1007C000888BCDE042B9509A500420940BE542B991
:1007D000502E940BE542B950BB9A4DB950339BCD86
:1007E00017F6E70C2F58C01B02CC0C36A73CE05381
:1007F000BB4946424202FB7BFB0B96012C408055D5
:100800000004740237045E1146E5091FD8E1401860
:10081000190CD99FE9B81CBD7A75272A21AAA8719D
:10082000339C2C17D30BF1EAD5E305EDC8F2781908
:100830003D030B4F3A9028250C6032D90C93F2708F
:10084000C89883BA5C1EE80A03070B4F5AA5C8660E
:100850000093C96658078B1743C61C24232307320D
:10086000C31E0B8F3180140D41E0821CC19903F02F
:10087000620C9CA5B9AC4DE7620C0B4F2713198293
:100880002200A10806A0A4CF525252128100902D3E
:10089000105A5242030B0F37072A18108100200A02
:1008A00029BB0F52424343350819D5868686A60BCD
:1008B0004F1BAD220A8A008422188092863729298C
:1008C00089894000C8168829293B098FDB13012636
:1008D00050603139A03F0A094F0724202C16D04020
:1008E0008145032ABF08894F6E16308005540C02DB
:1008F00000021188FC2000098FDBD39C9775388C8F
:100900005FC115098F07649CC631A7B1E527700543
:10091000098F6B1CF63CE5CC457E8057000D8F3B64
:1009200007B2C20694A1A0062630601C387002C22D
:10093000048EFBB28E5C628E0D8FBB9331C2069427
:10094000A1A006265080BEE048D8C26D5FF6C983DC
:10095000E90D0D8F133A980D1B5086821A9840B5F9
:100960001F000E81E3BAEC9B9B404F0D8FBB933170
:10097000C20694A1A006265080BEE048D8C26D5F92
:10098000F6C983E90D0D4F3B9B8E4D006100821827
:100990009940491FB280B2806397CB8EA325A407EC
:1009A0000D4FBB9B8E490061008218992C1C2F595A
:1009B0002C8670EB72D97135CE6E0D8FBB9331C220
:1009C0000694A1A006265080BEE048D8C26D5FF60E
:1009D000C983E90D0DCFC7B98E7C2EF311E4705891
:1009E0009775599775D9D90D8FBBF394CFB1E90B92
:1009F0008E635FD6655DD6651D6E0D8F738D5B3E14
:100A0000C7B41FC8E1B22EEBB22E6BD0130D8FBB53
:100A1000F394CFB1E90B8E635FD6655DD6651D6E2D
:100A20000D8F3B87C3387AF59A45DF709AF3B22E63
:100A3000EBB22E6BD0130D8FBBF3D4A357AF393D60
:100A4000E138F6655DD6655DD6E1060D8FBBF394A2
:100A5000CFB1E90B8E635FD6655DD6651D6ED5F0AF
:100A60008D14A1C881CFD9F1AF2000199F270E8422
:100A7000C998008F0207CB67084042F800671E50F4
:100A800064584AA650197DC081C5449CEDB3E80A5C
:100A9000C0211DCFB973EC29EC24A771600101CDF1
:100AA0001830E080FE2A6E822B6F5CE38D6EC2915F
:100AB000EF0251FF0079FF01D8FF005E0000D20075
:100AC00000191F320126011201FA00E400D400C40B
:100AD00000AC000503010307030105030406070634
:100AE00004070301030703050201070304060706C1
:100AF0000502040202030304073E41553E03075F5B
:100B00002E140307142E5F08083C42BDADA5BD425C
:100B10003C003C42BDAD423C0000003CFFC33C00F9
:100B200000003C42A5BD423C0037973F133801000E
:100B3000135080004C112E201C44DC80ADC4600B8F
:100B4000B8217800E102E20408800213003801BFF6
:100B5000DEAB57BE332F000000C08E174787A3C3FC
:100B6000515407822A451564A8D2E1E8707478319F
:100B70001B000000B8CCEF70F5EABB71904CF4128A
:100B80000032701C12A10020C010EB0C90011080EC
:100B9000228250B0425101280002500004A00008F7
:100BA0004001502958A120881420002340A6150791
:100BB00080005030390C1901201765060F030B1007
:100BC000000000A0F0D0A080000000FC0229202836
:100BD000082902FD02FC0605110A171B0E11060565
:100BE000000C161F0C00040406090F060A0F0F085C
:100BF000090D0F0A090B0F0F03020F0F070D0D0D43
:100C00000F0A0E0E010D0F030E0B0B0F07050F0F32
:100C10000C083C428181818181818181423C0B0DA4
:100C2000C7831B2363FF03037B030318181B1818D8
:100C30001F18181F1F1FB5018F016A014601B90255
:100C400072021B02D6010F0FB4698619AA4AD76532
:100C5000A844356B65656D0406B00C1A31822020FE
:100C60008220468C187429127404B187AB9C8700CB
:100C700014725204A0E398E1CA69084021CF61953B
:100C8000705AB0C7690840214F510168E0B4608FC5
:100C9000D390D07159123A002997BF7ACD2CE3092D
:100CA0003C7A444E0C9617FFAEF7EF7204E0001C3E
:100CB000F6EFE4B567AE5E7DCE95EF71E6CC99D7E1
:100CC0005EBD72F635FFFFFFFFFFFFFFFFFFFFFF77
:100CD000FFFFFFFFFFFFFFFFFFFFFFFFFFFFFFFF24
:100CE000FFFFFFFFFFFFFFFFFFFF1F1F1F1F1F1F54
:100CF0001F1F1F1F1F1F1F1F1F1F1F1F1F1F1F1F04
:100D00001F1F1F1F1F1F1F1F1F1F1F1F1F1F1F25ED
:100D10000DFFFFFFFFFFFFFFFB0303BB0347FFFBCD
:100D2000C3033F83FBFFFB0303BB13FF0303FFFF6F
:100D3000FFFFFFFFFFFF1F1F1F1F1F1F1F1B181895
:100D40001B181C1F1F1B18181B1F1F1B18181B19F3
:100D50001F19191F1F1F1F1F1F1F1FCF03A8037B52
:100D60000357032B03FE0249050105D8048F0448ED
:100D700004010412100080403D010101F40404F458
:100D80000101013D408000F7E8D1C0DCA241584498
:100D90004E5841A2DCC0D0E8F7008040BDC1C1017F
:100DA000F40404F40161E1FD408000F7E8D7C3DDFD
:100DB000A25D7663775F5DA2DCC1D7E8F700804073
:100DC0003F151501FC7C54D4011F1535408000F7F8
:100DD000E8D1C0DCA241545A5A4041A2DCC0D0E85C
:100DE000F7118761C284EE100830901B7243061021
:100DF00008D9850993009B0FFF7E01F605C1059870
:100E0000053F87ABB042A9A5D4526A29B5945A4A86
:100E10002DA596524BA9A5D4526A29B5945A4A2DAC
:100E2000A596524BA9A5D4526A29B5945A4A2DA524
:100E300096524BA9A5D4526A29B5945A4A16740100
:100E40000B0D0303BB2323FF03037B030318181BB2
:100E50001C181F18181F1F1F0F0FB469469CE07045
:100E6000F596E100E35A59591B0105582E970B419D
:100E70004004415C2E97AA22414700100EBAB6BE2C
:100E80005E3EFE7E7E6E76EE3E5EBEBEB604022204
:100E9000142438051D252D140C02360A040C0E0CE2
:100EA0000E0F0A00080C0C0E0E0F0E0C00000000B6
:100EB000000000000000000000080C0E0F0E0E0CD9
:100EC0000824040C020402050A00080404020601B6
:100ED000020C0000000000000000000000000008FC
:100EE000040E01060204083221FFF20C6C6C482447
:100EF000000000008600FFFFFFFB83FD83FBFFEF88
:100F0000DF81FBF7FFFBF789F7FBFFFFFF00008C9A
:100F10000000000024486C6C0CF3FFFFF30C6C6CB9
:100F2000482400000000CC000181C1C1C1C1C1C181
:100F30000181C1C1C1C1C1C10181C1C1C1C1C1C0A2
:100F4000008C0000000024486C6C0CF3FF3F330C55
:100F50006C6C482400000000C0000C8CCCCCCCCCC5
:100F6000E018C4320A0A0A0A0418EC8CCCCCCCCCA7
:100F7000C0C8008C0000000024486C6C0C73BF00DB
:100F8000000C6C6C482400000000C0000C8CCCCC21
:100F9000CCCCFF00FF00000000000000FF8CCCCC98
:100FA000CCCCC0C8008C0000000024486C6C0C0045
:100FB000FF00000000000000000000000000000032
:100FC0000000000000000000000000000000000021
:100FD0000000000000000000000000000000000011
:100FE0000000011512FF7F7FFF0FF70BF3DB4B397A
:100FF0004ADBF30BF70FFF7F7FFF00FF0000ABAA78
:10100000A9A8A9A9A9A9A9A821220100FF00000057
:1010100003000002020202020202000000000200BD
:1010200000030000000000000058FCFEFFFFFEFC73
:10103000580000000080800000C0E0F0F8F8F0E008
:10104000C0000080800000000058FCFEFFFFFEFC96
:10105000580000000000C0E0F0F8FCFEFFFFFFFFBA
:10106000FFFFFEFCFCFEFFFFFFFFFEFFFFFFFFFF99
:10107000FFFFFFFEFFFFFFFFFEFCFCFEFFFFFFFF89
:10108000FFFFFEFCF8F0E0C0321000000000005846
:10109000A45AB5255AA4580000000080800000C062
:1010A00020D0A828D020C000008080000000005878
:1010B000A45AB5255AA458000000000040A050A82A
:1010C000542A158AA4A48A352AB4444241A0AAB558
:1010D000AAB7ADA2A5A1A2ADB6AAB5AA404142A4A5
:1010E000346A158AA4A48A152A54A850A040090E6F
:1010F00007F986AA82AA86F907003F20242A26201B
:101100003F00E0F0F8FCFCFCFCFEFFFEFCFCF8F00D
:10111000E00103070707070707070707070703019A
:101120000F0BE010E814E4B4947295B6E414E810E0
:10113000E0010205020103020202030102050201AD
:101140004B1CFFFFFFFFFFFFFFFFFFFFFF7FBFFF06
:1011500080FEFE00FF0000606060606763616161A7
:10116000616161616161616161616161616161616F
:1011700061656901610101010101010101010101D3
:10118000010101010101010303070F6F0FFFFFFFC1
:10119000FF7F43BD423C722A262A723C42BD427FF9
:1011A0000002000000FEFE00FF0A0B0A0B8A4B2A19
:1011B000ABAAABAA4B8A0B0A0B00FEFE000000771D
:1011C00032333233323332333233323332333233F7
:1011D000320000000000FFFF07F71717109F1D994E
:1011E000919F911F1D19919FF1BF50F003000000C6
:1011F000FFFF00FFD3D2D3FE01FC0300000000007C
:1012000001FED3D200FFFF000000773333333333C6
:101210003333333333333333333333330003000067
:1012200000FFFF000F0A0408020202000200000093
:101230000001010F0A050F000000000F0F000F0D45
:101240000D0D0F000F000000000000000F0D0D003D
:101250000F0F00000007030303030303030303034B
:101260000303030303030300030000000F0FFEFE4C
:10127000FEFFFFFFFEFEFEFEFEFEFEFEFEFEFEFE8B
:10128000FEFEFEFFFFFFFEFEFCF87F7F7F7F7FFFFD
:10129000FFFFFFFFFFFFFFFFFFFFFFFFFFFFFFFF5E
:1012A000FF7F7F7F7F7F00000000000303030303B5
:1012B0000303030303030303030303030300000007
:1012C00000001C12FE02FAF575F57ABA5AAACA3A5B
:1012D0003A3ABA3ACAAA5ABA7AF575F5FA0204F84D
:1012E0007F405F5F5BDC1D9A9F9F9F9C98941B1CB7
:1012F0001F1F1F1A1D1CDB5F5F40407F00000000A6
:1013000000030001010101010101000000000000D3
:101310000000030000000000F8FCFEFFFFFFFFFEDE
:10132000FCF8000103010303010301000A0A00F8AD
:10133000E4EAFEFEEAE4F800000001000101000119
:1013400000009BCF39EC79CA6B8FE3304F3DFA9C9C
:10135000E3B8ACC3217F5F1BC733A7358FBECE91E7
:10136000CF791CA71CE73A6502041055A055A0755B
:10137000FFD5FF6E00960000000F0083009600006E
:10138000000F004A01960000800B024B0000000F86
:10139000000B024B0000800B024B0000000F00709E
:1013A000034B0000000F0093024B00008093028962
:1013B00000DC03890070038900DC038900100389C5
:1013C00000DC038900E4028900DC038900930289C0
:1013D00000DC0389006E028900DC03890093028926
:1013E00000DC038900E4028900DC03890093021316
:1013F00001EE011301B8011301EE0113014A014C82
:101400000400800B02850088018500B80185000B6F
:10141000020A018801850088010A014B0285000B40
:10142000028500700385004B020A010B028500B89B
:10143000010A016E0285006E0285006E020A014BF0
:10144000020A014B0285000B0285000B0215020007
:10145000804A01960000000F008300960000000FF4
:10146000006E0096000080DC0364004B026400BA4A
:10147000026400008000000A410001052800020506
:1014800023010002140101010F01020114020001F5
:101490001E08081C1422417F0000001C1C3E7F7F98
:1014A000002A49A1CF536421F1DEB2981C33010414
:1014B000985E51800520C0428E28C00200E4D160B1
:1014C000920619DD197F588E005C40380113FFAF7A
:1014D0000C407541A2408D12A40E407541A2408D72
:1014E00007EA00821EA807EA813A80A007EA817A0B
:1014F000A00E067A7508C3210C87301CC27080C309
:10150000810C87301CE0F0EAD5050C07381CE07030
:1015100020C3210C07381CC870315DC070381DE035
:101520007020C3E1F4EA028603586E8643180E70F9
:1015300078F56A39580E4A806139580E96831260E0
:10154000580EC6029AC05205864582C6029AC052FB
:1015500005460A681C101840351844B180C6018140
:10156000015403933081100E9C090093308110BE0A
:10157000C04C33F9C47EB7CBA2FBBECB48FCCABE7D
:101580003BD8FBBEEF3B6C12BA53AAA4F71D66B65C
:10159000EFF67DDF771979CD4C3379094CC2042001
:1015A0009C3910024CC284688101816114A8281200
:1015B00089161810184681B680C6018101548341EE
:1015C000140B681C1018403530091308E1C099004D
:1015D0002F996C16892CAC2CAC2C4C586C54AA4806
:1015E000B0A2A2202A22A222222A035111140956B3
:1015F00016561622A2B259084A102B12AC04B1A2F8
:10160000228385A0A85891602588092A1B95121667
:1016100056165654AC2C42511988042B0B2D8B8135
:101620002CAC2C64B0983C019E702004988409D1A5
:10163000020302C328505124122D3020308C026D39
:10164000018D030203A806832816D0382030806A53
:1016500060122610C28133016012260F3797C1CA6B
:10166000306F5E2664C75853C972355F78F79D9D09
:10167000A935C6014F1C6F8ED3B132D77A755FB9C9
:1016800076DCDF3DBCEDACD567C0244C00C29903CD
:1016900021C0244C881618101846818A229168812E
:1016A00001816114680B681C101840351844B18022
:1016B000C60181015403933081100E9C09009330C0
:1016C00081F064E923AF0FDE73140FFE82767F5D35
:1016D0007D9B8FCD676BF9899CA8DB70CBF3C9E943
:1016E00036C65C3E230C26610210CE1C0801266122
:1016F00042B4C080C0300A541489440B0C080CA3B7
:1017000040950BE542B9502E940BE542B9502E940A
:101710000BE542B9502E940BE542B9017746C63825
:1017200072A15C2817CA8572A15C2817CAC3BEE0E3
:1017300042B9502E940BE542B9502E940BE542B9B4
:10174000502E940BE542B9502E940BE5C27B8FBC12
:10175000C8EE50DF71A15C2817CA8572A15C2817FA
:10176000CA8572A15C2817CA05010000FA00EE01C3
:10177000FA001003FA00E402EE020000FA002A0266
:10178000FA000000FA00EE01FA001003FA00E40289
:10179000EE020000FA002A02FA000000FA00EE0150
:1017A000FA00DC03FA007003EE020000EE0288018A
:1017B000FA000B02FA004B02F4019302FA000180D6
:1017C0004120FE0105F1F1F111D1B1D111F15151D9
:1017D0005151515151515151515151510000FF003E
:1017E000007F7F09090F06007F7F19396F46007F50
:1017F0007F4949414100266F49497B3200266F49A4
:10180000497B32FF0000FFFFFFFEFFFEFF0279CDA4
:1018100095A5CD790111111101F9F901010000FF20
:1018200000007F7F09090F06007F7F404040400095
:101830007C7E0B0B7E7C00070F78780F07007F7F84
:101840003E1C0800FF00001F3F3F33333333333E5D
:1018500036363E363E363E36363E36363E3600006C
:10186000FF00003E7F41417F3E007F7F0E1C7F7F57
:101870000000000000000000000000000000000068
:1018800000000000003F4050404040784641415930
:101890005941414141595941414141414141410031
:1018A000007F000001017F7F0101007C7E0B0B7E29
:1018B0007C007F7F09090F06007F7F494941410075
:1018C000000000000000640500002500000000008A
:1018D0000000000104000000000000001E0078006D
:1018E0003C0001309F0974FF00010106B0FF0001B8
:1018F0000106F8FF00010106F0000001010765FF85
:10190000000100032501000100042501000102027D
:1019100000FF0001010542FF0001010535FF000144
:10192000010528FF0001010892FF00010139063975
:1019300006390639062F062406201103106688335F
:101940006688338FCF0B591B60C3458005DE003995
:10195000F38D5EBD79EDD59BD79E59100E060E8690
:10196000C488468E460E468648C48E060E08110C64
:1019700014281502010825102111240A1609040152
:1019800003070F070B0502010904080C0E0F0E0DCB
:101990000A04083F8FAE055CBD7AF5EAD5AB57AFB8
:1019A0005EBD7AF5EAD5AB57AF5EBD7AF5EAD5AB49
:1019B00057AF5EBD7AF5EAD52BB0969D1C2817CAA5
:1019C0008572A15C2817CA8572A15C2817CA857226
:1019D000A15C2817CA8572A15C2817CA8572A15C10
:1019E0002817CA8572A15C2817CA8572A15C2817BE
:1019F000CA8159298F198370436EC80DB92127C632
:101A0000B8AC0570436EC80DB92137E486DC901B75
:101A100072436EC80DB901AC2547C28572A15C281E
:101A200017CA09387B4261436143614361436143A3
:101A30006143614361436143614361436183721266
:101A40002997CC2937E486DC10B7885BC42DE216D1
:101A5000718BD885DC10B7885BC42DE216718BD8EA
:101A600085DC901B72C339D97B7AF5EA1CEA45BD47
:101A7000A817F5A25EF4EA1CEA45BDA817F5A25E18
:101A8000F4EAD5AB73EFB357AF5EBD7AF5EAD5ABE9
:101A900057AF5EBD7AF5EAD5AB57AF5E3D032DDF9C
:101AA0003F1738817000022C60D16C542E04592CE1
:101AB000368BCD62330972201CF963085A9521CC0C
:101AC000516FECDF3FC2CD0E2C38D0ED379940007E
:101AD00018C0E05D8BA0DB8882512480E8B87A13BF
:101AE0006EE0AD37E106DEBC8A3004109B0915922A
:101AF000F2290712100421C8F02314204BC41DC082
:101B0000294818008056200005084801009022004E
:101B1000004500000A10810A2A0301C029E236901C
:101B200052BE030B0D0703FB0307FF0703FB03076D
:101B30001C181B181C1F1C181B181C0703FB030771
:101B4000FF8383DB1B1B1C181B181C1F18181B187A
:101B50001CFFFFF70303FF0703FB03071F1F1F18EB
:101B6000181F1C181B181CFFFFF70303FF8383DBE0
:101B70001B1B1F1F1F18181F18181B181CE3633B83
:101B800003C7FF0703FB030719181A1B1B1F1C18A9
:101B90001B181CE3633B03C7FF8383DB1B1B191864
:101BA0001A1B1B1F18181B181C6363BB0347FF0776
:101BB00003FB03071C181B18181F1C181B181C6399
:101BC00063BB0347FF8383DB1B1B1C181B18181FF9
:101BD00018181B181CFF1F870303FF0703FB0307CD
:101BE0001C1C1D18181D1C181B181CFF1F87030325
:101BF000FF8383DB1B1B1C1C1D18181F18181B18C8
:101C00001C8383DB1B1BFF0703FB030718181B1830
:101C10001C1F1C181B181C8383DB1B1BFF8383DB0F
:101C20001B1B18181B181C1F18181B181C0703DB7C
:101C30001B33FF0703FB03071C181B181C1F1C1872
:101C40001B181C0703DB1B33FF8383DB1B1B1C18C8
:101C50001B181C1F18181B181CFB7B0B83F3FF079A
:101C600003FB03071B181C1F1F1F1C181B181C0736
:101C7000083E7F4377617F3E0D10F008F40C247519
:101C80004674240CF408F000013AE7FE02C7C606C9
:101C9000FF2E1900E010E81848EA8CE84818E81010
:101CA000E001023DE6FC04CECC0CFE2D1A01F0084A
:101CB000F40C24754674240CF408F000011CF3FEA7
:101CC00002C7C606FF160D000C10000080FCD6826D
:101CD0009646FEBC0000000F081F001818001F1CCD
:101CE0000700000000F8AC042C8CFCF80000000F8A
:101CF000091F011919001F1C0700000000F8AC049F
:101D00002C8CFC780000000F091F011919001F1905
:101D10000E000F8F9FE04066CB1C0CBE380F318544
:101D2000216010110938A0B7C61CE602E0F0F8FCEB
:101D3000FCFCFCFEFFFEFCFCF8F0E00103070707DB
:101D4000070707070707070703010F0BE010E81451
:101D5000E4B4947295B6E414E810E00102050201BF
:101D6000030202020301020502010B10FFFFFF5FE5
:101D70000F2F5F7FFFFFFF03FDD6DFD7F7D6FD02F2
:101D8000FD031410FFFFFFFFFFFFFFFFFFFFFFFF3B
:101D9000FFFFFFFFFFFFFFFFFFFFFFFFFFFFFFFF53
:101DA000FFFFFFFFFFFFFFFFFFFFFFFF1410F04CDF
:101DB000141AFF0033332211000004C0E900A00010
:101DC0001400FFF0F6F606E6E606F6000000000056
:101DD000F0F0FF001400090E07F986AA82AA86F91E
:101DE00007003F20242A26203F001C10FFFFFFFF92
:101DF000FFFFFFFF003333221100001A04C0E91D6A
:101E0000C4320A0A0A0A051DF0F6F606E6E606F6E8
:101E10000000000000F0F0FF04C0FF00FF00804061
:101E2000A050A8000810FF00333322110000FF006B
:101E30003333221100001720EFF906363624120042
:101E400000F906363624120000F906363624128AC6
:101E500054AA52EA34DA54D45AD42AD2A24A94CA9E
:101E6000C4CA142A52A21A04C0E967AC532E272E02
:101E7000D3EC67A04C141AFF00333322111A04C0AC
:101E8000E965A04C141A04C0E965A04C141AFF00BF
:101E900033332211C0E0F0F8FCFEFFFF0808804059
:101EA000A0502814CAC415D7EFBB7FD7DEBBF73FBD
:101EB00093737AF5EAD5AB57AF5EBD7AF5EA0415B0
:101EC00097DFC9057008B122A104370447B9442E31
:101ED000793FA5C04026608B808214509085E0AD8C
:101EE0005B417512000000E733CFFC5ACF9C01051F
:101EF00006EDF6C9F6EDFDFDC0EFEFFCFBC0FBFC07
:101F0000FDC1FEC1FDF7EFC0FDFBFDFBC4FBFDED18
:101F1000CDE1ECEDFDACA6F0F98BCF2BACA1DC90C4
:101F20001B72D223596D1938A1B0A1B0A198C1A0DC
:101F30002D01010704041E14050500020204040417
:101F400019190000140101050303232300000006F2
:101F5000060606061E14020200000019000B020409
:101F600003095C010023000E0205050B0300041E9B
:101F7000000B0305050B01010228000E03050710E5
:101F8000420208320412060807102000041E040B47
:101F90000204050B1C010228040E0205050B50006B
:101FA000001E040B0205050801010228040E0305AA
:101FB00007101C030A3C081705080710100000232F
:101FC000080B020505084201022D080E0205050B4B
:101FD0001C000423080B0306050B10010428080E3F
:101FE000030607100F040C500C1A000000004200FA
:101FF000050A05050770031900930219000B021961
:1020000000E006190000804A01FA007201FA009F00
:102010000177014A017D0072017D009F017D004A28
:1020200001FA007201FA004A01FA001501FA00EE05
:1020300001FA00B801FA009F01FA007201FA009F4C
:1020400001F4017201FA007201FA004A017D007286
:10205000017D009F0177014A017D0072017D009F93
:10206000017D004A01FA007201FA001501FA00151B
:1020700001FA00EE01FA00B801FA009F01FA0072BD
:1020800001FA004A01F4010000FA009302FA006E1E
:1020900002FA003701FA007201FA00EE0177013707
:1020A000017D007201FA00EE01FA00B8017D00EE38
:1020B000017D007201FA009F017D0072017D009F89
:1020C000017D0072017D009F01770172017D009FFB
:1020D00001FA007201FA004A01FA0072017D004A19
:1020E000017D003701FA007201FA00EE0177013735
:1020F000017D007201FA00EE01FA00B8017D00EEE8
:10210000017D007201FA009F01F4012A02F4019F8F
:1021100001F4019302FA006E02FA003701FA00722C
:1021200001FA00EE01770137017D007201FA00EE3D
:1021300001FA004A01FA0072017D004A017D003770
:1021400001FA007201FA00EE01770137017D007299
:1021500001FA00EE01FA004A01FA0072017D004A1C
:10216000017D00B8017D009F017D00B8017D009FC9
:10217000017D00B80177014A017D003701770172C6
:10218000017D0072017D00EE017D003701FA004AF9
:1021900001E8030080258FCF66387AF5EAD5AB5782
:1021A000AF5EBD7AF5EAD5AB578F64BEEBA0501099
:1021B000101110101110101110101110101110101A
:1021C0001110101110101110101110101110101109
:1021D00010101110101110101110101110101110FA
:1021E0000A65140000FCFEFEFEFEFEFFFFFFFEFF80
:1021F000FFFFFEFCB8F0FEFFFFFFFFFF7F7F7F7F4A
:102200003F3F7F3F1F1F0F0001030307070707071B
:1022100002000000000000000012130000FC06FA9B
:10222000CA922E9DE5C996CD6549165CB8F00E415F
:10223000AC563B874D4341442E37402217100F00C8
:10224000010202050504050502000000000000006F
:102250000001010000B8FCFEFFFFFFFEFFFFFFFED4
:10226000FEFEFEFEFC00000F1F1F3F7F3F3F7F7FF3
:102270007F7FFFFFFFFFFFFEF00000000000000077
:1022800000020707070707030301001213B85C16D3
:102290004965CD96C9E59D2E92CAFA06FC00000F4D
:1022A00010172240372E4441434D873B56AC410E18
:1022B000F000000000000000000205050405050212
:1022C000020100010000011F168040A05028D4EA3E
:1022D000723A9A9A1232F5E191E1F234129A9A3AEC
:1022E00072EAD42850A040800700020500E73F3C76
:1022F0001D5CDC3DA420A9A429A0A43DDC5C1D3C00
:102300003FE700050200070000000002152B242D06
:102310002C2C262A2A2A2A2A2A2A262C2C2D242B1F
:10232000150200000000000102011C088046DFFFCA
:1023300007038247DF7F870307070E1E362E546C84
:1023400058B8B8D8B85C631C2060E0E0F0F8FBFA3D
:10235000FCFFFEFCF0F0F0F0E000000000000001E7
:1023600007070F0F0F0707070301110C2060E0E0BC
:10237000F0F87B6A6C7FFAFCF0F0E050A0000000FF
:102380000000000103030503050301020100000131
:10239000011E10000000000000000080400000004E
:1023A000800000818202B2F4F8F870307070E0C0F2
:1023B0008020405060E8E8F0E0E1FA7F3F02070F3C
:1023C000F50FFFFBFCFF010000000C229F7F0A00BD
:1023D0000001BB074A07D2065D0662084A083208B8
:1023E000AF0895087A083C7EFFFFFFFFFFFFFFFF65
:1023F0007E3C003C7EFFFFFFFFFFFFFFFFFFFFFF74
:10240000FFFFFFFFFFFFFFFFFFFFFFFFFFFFFFFFDC
:10241000FFFFFFFFFFFFFF7E3C33083C4281BD8989
:10242000BD81BD9589423C003C42BDA5A5A5A5A5A1
:10243000A5A5A5A5A5A5A5A5A5A5A5A5A5A5A5A54C
:10244000A5A5A5A5A5A5A5A5A5A5A5BD423C09042D
:10245000040800070003000804E608D708CA0810AB
:10246000090309F7080F8F3A33620F6B1EF95C0AF4
:102470009FC969AFCBBAACCBBACC020F8F3A8101FE
:10248000281C109863020219280844372585CF00BC
:1024900027849CC65E7B5C8DB3BA09A00985096B55
:1024A00009520938091D094B0A360A200A0D0AFA91
:1024B00009E709D40954415241544F4D414D4F4D04
:1024C000454E4F5641534F53494B414B494D554E45
:1024D00055545553555245534554455045504F500A
:1024E0004950410008085040584455407F000808B2
:1024F000007F40554458405008080A021A22AA0298
:10250000FE00080800FE02AA221A020A2049828060
:102510002078208053746174BDC68088203A0A53A5
:10252000B3203A0A89203A0A476F6C64203A0A4479
:10253000756E67656F6E73203A80B62052756E6552
:10254000738020456E656D7920537473804E616D84
:10255000653A0A88203A0A89203A0A8053C4208AB8
:102560000A4E6577208A0A8052C1C2208A80D280B2
:10257000B168B921808B20CA666C696374B8802009
:102580008CBC8D2E80506CCB20616E208E20808B79
:1025900020CC6761CAB8802068C86C7468208F2E10
:1025A00080B79020912080206870208F2E8020920C
:1025B0002C2080208D208C2E80932047656C6174A8
:1025C000CAC9732043756265209120610AB68020D4
:1025D00094802095209680208B20B3B8902097205F
:1025E00066CC65640A98207669BE6167CE732095D3
:1025F000209820637572CD21808B2073636F72B831
:1026000080209920636FCA732E80209A208F2E809D
:102610008B206469656421204C6FCD2068616C66F5
:10262000BC9B0AB520992097209A208F2180475083
:10263000805350808B209C20804EAE2021804153BF
:102640005441524F4B80B64865CC206CC520566132
:102650006D706972C62E0AB79D208733202D209E8B
:10266000208632802052C120496E2050C8636520E8
:1026700046696C6D6F74652E0AB79D208731202DD9
:10268000209E20863980B650B420506C6179204F4E
:102690006E20546170650AB5446576656C6F70B8DC
:1026A000323031398057656C636F6D65207472C448
:1026B000BECE20BA98BB776E806F6620477269A342
:1026C000642E2093206576696C2090806861732069
:1026D0007475726EB8CB2061BE20CABA70C76BCA5F
:1026E0008070656F706C652E20506CC8CD20686559
:1026F0006C7020CB20646566C874809F2063726113
:102700007A792077697ACF6421804265207375CC0D
:1027100020BA6571756970209BCD6C668070726F90
:1027200070CE6C792E208B20A02070B4202224251E
:10273000BB80616363657373209B2069822097BBB4
:10274000807669657720CAA36D6174C3206162C910
:102750007420A1206F72809B20656E656DC52E80F0
:10276000496E20636F6D6261742C209C20947320ED
:10277000BA7363C28027706F6BCE27206897732E61
:102780002050B4B920222325207769BE809C209850
:10279000209473202D206AC720978074C963682015
:1027A000947320BACD6C65637420986D80A320CC9F
:1027B0009CB92E204E6F726D61BE7920A180A02041
:1027C0009C20332074696D65732C2062757420A47D
:1027D00080C06D73206D696768742067BF20A12079
:1027E0008E2E804372797374616C204881804869B1
:1027F00067682048818052C96E6420488180A52086
:10280000A6808820A680537065B8A680A520426C5B
:10281000617A658048C86CB92057CA648052697370
:10282000B9205374CF8056656E6F6D204DBD8035D5
:1028300020A520A78048C86C203230204850803323
:10284000352044616D616765803220502E20A7805D
:10285000D246BF8380D246C9728380D2D1CC6583F1
:102860008054776F2050616972732180D24675BEA3
:102870002048C9CD21808B207069636BB8757020AA
:10288000A42048502180B620D1616E6B20A120A3E6
:1028900020736176B90AB520CB2095209820437526
:1028A00072CD2180204F76CE7772C0206578BDB979
:1028B00020A93F0AB5B584B6208580B75374CF747C
:1028C00020D26E657720A93F0AB584B6208580B7EF
:1028D0008A20AB2072C1C2642180B6208B20AC203C
:1028E000AD0A20AEBCAF206881732180B78B20ACCD
:1028F00020AD2061730A6D616E79BC98CD20706F38
:1029000074C3730AB7617320A120A02063CF7279CA
:10291000202180B6B0209F20C06D3F0AB684B6202B
:1029200085808BD0B120AD0AB6B220992180B68BBC
:102930002061CC2063CF7279B90A20AEBCAF20945D
:10294000732180B7B0209F20943F0AB784B62085BA
:1029500080208BD0B120AD0AB620B2205350218008
:10296000B5B641206D6F6E7374CE2092209680D1E3
:10297000726F77209820947320616761CA2180B7B5
:102980008A20AB2073C4642180656C6D65F46E761B
:10299000656E746F72F9206F662061204B696E64FA
:1029A000A1222325205965F3222425204EEF31381A
:1029B000B83138B44865616C74E8446566656E6327
:1029C000E547616DE5596FF57074F364616D61679A
:1029D000E565787472E1706F696E74F341737461C8
:1029E000726FCB73746F6CE561747461636BF354D5
:1029F00068E572756EE566726FED796F75A1616E4F
:102A0000E47468E5676F6CE4736B696CEC796F75FF
:102A1000F2636173F4426F72EE4465E3746869F3C4
:102A20006361EE796FF572756E65F3666FF2736FC1
:102A30006DE5466972E5506F74696FEE444DC74BA2
:102A4000696E64A167616DE55965F373746174E53E
:102A5000616C72656164F9686176E56F6EE5746852
:102A60006F73E54275F96E6FF4656E6F7567E86BAD
:102A7000696CEC726573F320202020A02020A02038
:102A8000A06564A0696EE7746FA02074EF206F6684
:102A9000A06973F46CEC6976E56974E56573F46FAD
:102AA00072E5696FEE6176E56965F36963F3756DEB
:102AB000F065E16FF569EE75F372E573E565F26156
:102AC000F220646FA054E861A00308000000002F0A
:102AD00000003C7EC3F5C381B5CB7E3C0000000006
:102AE000030000000000000000000000081C084077
:102AF00020000808080020000000003F213F223F7E
:102B0000203329272329371E113F37253D3F253DF7
:102B10003905033F253F07053F1400000000000072
:102B200000000000000000000229062000203C0BED
:102B30003C3F253B3F21333F213E3F25213F0501BF
:102B40003F213B3F043F3F000030203F3F043B3FDD
:102B500020003F0E3F3F023F3F213F3F090F1F1123
:102B60003F3F053B372D3B013F013F203F0F300FDB
:102B70003F183F330C33033C03312D2318243C3ED4
:102B800024183C242418243E183428083E0A5C5497
:102B90003C3E04383A0000403A003E0834023E0011
:102BA0003C083C3C043C3C243C7C241818247C3CE1
:102BB000040C282414041E243C203C1C201C3C1023
:102BC0003C3408345C503C34242C01010704041EBE
:102BD000140505000202040404191900001401017F
:102BE000050303232300000006060606061E140242
:102BF000020000000A41000105280002052301002F
:102C000002140101010F010201140200011E152826
:102C100011241FBECFEFDAE0DEBFCDBF11E0A0E090
:102C2000B1E0E4E0FFE602C005900D92A636B107E0
:102C3000D9F726E0A6E6B1E001C01D92AE36B20794
:102C4000E1F716E1C8E0D6E104C02197FE010E9439
:102C50007A37C730D107C9F70E943F280C948037D4
:102C60000C940000982F80910C06923051F0933014
:102C700019F0911107C0089590910F06990F890FCF
:102C80000895880F90910F06FACFEDEAF1E081E008
:102C9000A0E0B8E000800EBC8111012C1197A0FDCE
:102CA000FDCF0192B9F70DB408952F923F924F9244
:102CB0005F926F927F928F929F92AF92BF92CF92CC
:102CC000DF92EF92FF920F931F93CF93DF9300D089
:102CD00000D000D0CDB7DEB7DB014115510509F4B6
:102CE0003AC1FA019490319674914E5F5F4FA92CCE
:102CF000B12CBA82A982222321F1E1E0F0E0372F42
:102D0000377011F4F0E0E0E0C72EC694C694C69484
:102D1000CE0EDF2ED11CA980BA80CA9CF001CB9CBC
:102D2000F00DDA9CF00D112463E0B62EEB1002C01A
:102D3000EE0FFF1F2E9F60012F9FD00C11244C0D12
:102D40005D1D29813A81280F391F3A832983121684
:102D500013060CF000C1803891050CF0FCC09D01F9
:102D6000270F311D121613060CF0F5C0A034B10563
:102D70000CF0F1C04115510509F4EDC03A2F377040
:102D8000632E9D01B7FF02C0295F3F4FE3E03595F9
:102D90002795EA95E1F7F22FB7FF04C0662011F0FE
:102DA000FFEFF20F22273327281B390B97FD02C0B4
:102DB00030E020E0A981BA8160E8F62EF81AA03848
:102DC000B1050CF4F92CF21AAF2F0F2E000CBB0B2F
:102DD000FF3F0CF0A1C0EA2FE095E983E1E0672F07
:102DE000677009F4E0E0769576957695E70FAE0F7B
:102DF000B11D199714F0E8E0EF1B79807F0E772D55
:102E000060E87603D00111248A0F9B1F820F931F65
:102E1000262C062C000C330873E0A2E0E712A1E098
:102E2000B92DBF19BA9FB02D1124AA2EB12C6981DA
:102E3000969E200D311D11242A9DB0012B9D700DF1
:102E40003A9D700D11246A01C60ED71E0115110599
:102E500009F48A01950121503109620F731F060F91
:102E6000171F6FEF70E0062C02C0660F771F0A94E1
:102E7000E2F79B01209530953A8329834E2E4F0E21
:102E80004B2F50E0AF9D400D511D1124741409F4D7
:102E900062C0DC01A355BE4F1E821D82512CF51469
:102EA00009F451C0ED81FE81EC0DFD1D249130E04F
:102EB000022C02C0220F331F0A94E2F762E0E616EA
:102EC00009F43EC07BEFE71229C0F901E095F095C7
:102ED000FC83EB8330E020E077FC05C09C907B8195
:102EE0009722922A9C92662071F0E6E0E7155CF04A
:102EF0004D01F0E88F0E911CF4012081FC812F23FD
:102F0000232BF401208353942D813E812A0D3B1DF8
:102F10003E832D831196C3CF198260CFED81FE8150
:102F2000E00FF11FE491F0E0022C02C0EE0FFF1F52
:102F30000A94E2F7BF01609570957C836B83CCCFD8
:102F400069817A81FACF7394C40ED51E040F151FC0
:102F500080589F4F9BCF26960FB6F894DEBF0FBECA
:102F6000CDBFDF91CF911F910F91FF90EF90DF9038
:102F7000CF90BF90AF909F908F907F906F905F9019
:102F80004F903F902F9008952F923F924F925F92D3
:102F90006F927F928F929F92AF92BF92CF92DF9269
:102FA000EF92FF920F931F93CF93DF93CDB7DEB7CE
:102FB00060970FB6F894DEBF0FBECDBF1C015A83D9
:102FC00049830B87FA013491319644914E83832FC4
:102FD0008F778F5F682E712CC301820D931D97FD33
:102FE00099C150E8251631040CF094C1842F8F73D9
:102FF0008F5FAB01480F511D57FD8CC160347105C7
:103000000CF088C1331F3327331F388B91E09D8329
:103010003E8136FF1D828B0177FF04C000271127F8
:10302000061B170B07701127AB0177FF02C0495F22
:103030005F4FFA01A3E0F595E795AA95E1F7F887C8
:10304000EF8377FF0CC00115110549F03197F88720
:10305000EF8348E050E0BA01601B710B8B01682FD1
:10306000669566956695877009F06F5F7B85A3010D
:1030700041505109711102C050E040E097E0A0E1D9
:10308000B0E080E0512C412C912C812CE62FF0E017
:10309000FD87EC876C857D85861697060CF03AC116
:1030A000EE24E394F12CFD0173E0F695E7957A9513
:1030B000E1F769817A81E60FF71FE4916E2F70E0E6
:1030C000FD01E770FF2702C075956795EA95E2F765
:1030D000FD013196FF87EE8760FF06C0FFEFEF1A14
:1030E000FF0AAE85BF85DFCF31E0E316F10409F0BA
:1030F000A1C0EE85FF8563E0F695E7956A95E1F757
:1031000069817A81E60FF71FE491F0E0EE84FF8495
:1031100077E0E722FF2402C0F595E795EA94E2F70D
:10312000E170FF27BF016F5F7F4F7C836B83129637
:10313000F12CE12C6B817C816E157F0509F4DCC0DC
:103140007889772359F0692F70E03D81332309F4A2
:10315000B9C0635A7E4FFB016081862B915008F005
:10316000C7C0882309F448C0DF80D80CF7E0FD15FC
:103170000CF442C0B101640F751F60387105E0F5B1
:1031800090E0002E02C0880F991F0A94E2F7D7FC46
:1031900015C03D2D60E83603F0011124E20DF31D4A
:1031A000E40FF51FBF0163557E4F5B01FB0160819A
:1031B000222309F48EC0682BF501608301151105E7
:1031C000D9F0F7E0DF16C1F03FEFD316ACF0ED2DEC
:1031D000DD0CFF0B3196F695FE2FEE27F795E79560
:1031E000E20DF31DE40FF51FE355FE4F608122232E
:1031F00009F473C0692B60836E8167FF04C07D8111
:1032000081E078277D839FEF491A590A3B85332354
:1032100009F467C0415051094614570444F04FEF78
:10322000841A940AA30141505109512C412C97E072
:1032300080E05EC0B701615071097A876987E1E07B
:10324000F0E0098402C0EE0FFF1F0A94E2F7BF010D
:103250006F5F7F4F7C836B83D12CC12CAE84BF8486
:10326000AC0CBD1CF50133E0F695E7953A95E1F716
:1032700069817A81E60FF71FE4916E2F70E0E7E035
:10328000AE22BB2402C075956795AA94E2F760FF51
:103290000EC061E070E00C2C02C0660F771F0A942C
:1032A000E2F7EB81FC81E60FF71FFC83EB83FFEF76
:1032B000CF1ADF0A69857A85C616D7067CF2AE0D6D
:1032C000BF1D36CFE7E0F0E0E61BF70BE35AFE4FF9
:1032D00043CF782F709567236FCF892F8095682310
:1032E0008ACF461457046CF44F5F5F4F80E097E03D
:1032F0006FEFE61AF60A1ECF71E03889731B788BE0
:10330000C9CE5FEF851A950A50E040E080E0512C6D
:10331000412CEDCF60960FB6F894DEBF0FBECDBF47
:10332000DF91CF911F910F91FF90EF90DF90CF90A1
:10333000BF90AF909F908F907F906F905F904F90D5
:103340003F902F900895E5EFF5E080E09191911185
:103350008F5F95E0EB3FF907C9F70895482F20915B
:1033600004013091050186B52827C90196958795F6
:1033700020FF02C024EB9227909305018093040163
:10338000641B770B0E945237840F08959091F305C8
:10339000981721F08093F3051092EB050895E091C2
:1033A000F4058091E905E43041F094E0E99FF001F3
:1033B0001124EC50F44DE4918E0F0895EDEAF5E000
:1033C000A08DB0E0AD5ABE4F8C918F3F49F4838DF4
:1033D000811107C0349695E0E13CF90789F708951B
:1033E00081E00895EF920F931F93EE24E3948901F7
:1033F00020E00E9455161F910F91EF900895CF92F3
:10340000DF92EF92FF920F931F93CF93DF93EC0124
:103410007B016A01A90120E00E94C41721E0A601F6
:10342000B701CE010E94C417DF91CF911F910F9178
:10343000FF90EF90DF90CF9008952091A5013091FB
:10344000A60127703327232B51F49091C1059F5F6C
:10345000891719F09093C10508951092C105089538
:10346000E5E0F0E00E94451A319728F068517C4F62
:103470008F4F9F4FF9CFAB01FC010E94451A641793
:1034800075078E079F07C8F30895A1EAB1E02FB72B
:10349000F8947D918D919C9166B52FBFA89B05C036
:1034A0006F3F18F47F5F8F4F9F4F22E0660F771FAB
:1034B000881F991F2A95D1F7089520919401E091D2
:1034C0009201F0919301CF01029690939301809322
:1034D0009201222319F08591949108958081918120
:1034E0000895E1E7F0E080818D7F80831092910064
:1034F00046984798109291010895CF92DF92EF92EB
:10350000FF92CF93DF930E945D1A811520E8920706
:1035100041F4DF91CF91FF90EF90DF90CF900C942A
:10352000711A21E020939101813020E8920751F433
:1035300080918F01909190019093930180939201DB
:103540000E945D1A97FD05C020918E01222309F487
:103550005BC020918D01211157C021E0209395017E
:10356000EC01DF77209709F052C081E0809396014B
:1035700046983FE9C32E3FE0D32EE12CF12CCAEF51
:10358000D0E0E0918B01F0918C010995811103C08D
:1035900081E08093960180919501882329F08091A4
:1035A0009601882309F446C047980E945D1A009747
:1035B00009F444C09C01DE010E942937DC01CB01E3
:1035C00029E0B595A795979587952A95D1F71092FB
:1035D00090002AE020939100D0929900C092980028
:1035E0008093970190939801A0939901B0939A01C9
:1035F00080917100826080937100DF91CF91FF9084
:10360000EF90DF90CF90089510929501A9CF9E0181
:1036100050E040E060E472E48FE090E00E94E83621
:1036200069017A0181E0C81AD108E108F108109215
:103630009601A7CF4699B8CF479AB7CF8FEF9FEFA4
:10364000DC01C5CF9C01E1E7F0E090819D7F908394
:1036500081E0809394013093930120939201309301
:10366000900120938F010C947D1AEF920F931F937A
:103670003AEFE32E10E000E00E9455161F910F91E3
:10368000EF900895EF920F931F933BEFE32E10E01E
:1036900000E00E9455161F910F91EF900895CF936F
:1036A000DF93C82FCF776091A901CA3061F4809170
:1036B000A8018093A7018091AC01680F6093A901D4
:1036C000DF91CF9108959091A70120EEC13608F0C7
:1036D0002AED2C0FD82F6F5F062E000C770B892F49
:1036E000990F990B3091AA0149EC5AE2313079F4E3
:1036F0000E94351B9091A701C03229F0DF75D934A3
:1037000011F0C73239F49E5F9093A701D9CF0E9480
:10371000421BF0CFC252C43010F0DC3411F49D5F74
:10372000F3CF8091AB018D5F980FEECF1F93CF93B6
:10373000DF93EB01142F8823C1F0FE0194912196B1
:10374000112321F09038C9F78150F5CF97FFF5CFBD
:10375000FBCF87FD17C087FF12C08F7740E069E875
:1037600079E281500E94961B2196FE0184911123DB
:1037700081F3803881F7DF91CF911F9108950E94E6
:103780004F1BF2CF8F77DF91CF911F910C944F1B7E
:1037900041E06CE075E20C94961B0F931F93CF935E
:1037A000DF9300D000D0CDB7DEB71C82FE01349687
:1037B0002AE0622F0E943837905D92938111F9CFF1
:1037C0008F01F80181918F01882319F00E944F1B0E
:1037D000F8CF0F900F900F900F90DF91CF911F9126
:1037E0000F9108950E94CD1B8AE00C944F1BEF921D
:1037F0000F931F9332E0E32E10E000E00E94551675
:103800001F910F91EF900895811109C086EA5C988D
:103810008EBD00000DB407FEFDCF5C9A089587EAC7
:10382000F6CF80918A01089510928A013E983F98C0
:1038300008953E9A3F9A81E080938A010895480F47
:10384000592F511D14161506D4F580389105BCF575
:1038500097FF02C090E080E04138510514F040E845
:1038600050E0481BFB0177FD379633E0F595E7956F
:103870003A95E1F7F695FE2FEE27F795E795E80FD5
:10388000F91FE355FE4F6770772781E090E001C094
:10389000880F6A95EAF7382F213041F4415078F0CB
:1038A0008191DF011197832B8C93F8CF8095415044
:1038B00030F09191DF01119798239C93F8CF0895F0
:1038C000CF93460F572F511D77FF02C070E060E085
:1038D00030E1FA014134510514F0E0E4F0E06E17F4
:1038E0007F07D4F480389105A0F4FB01C1E0E1FD2D
:1038F000C4E0E0FDCC0FE2FDC295E87F3E9FD00121
:103900001124A80FA355BE4F0C900C2A20FF0C26A3
:103910000C926F5F7F4FDDCFCF910895BF92CF9212
:10392000DF92EF92FF920F931F93CF93DF93C62FF7
:10393000D42F082F880F110B68017801E60EF11CB7
:10394000CE14DF045CF420E04D2F70E060E0C6018F
:103950000E94601C8FEFC81AD80AF2CFBB24BA9419
:10396000BD0EC25068019FEFC91AD90A21E04C2F41
:1039700070E060E0C6010E941F1C8B2D8150990BE6
:10398000BC018034910528F421E04C2FC6010E942F
:103990001F1C21E04B2D70E060E0C6010E94601CFE
:1039A000C6018C0F911D21E04B2D70E060E0019766
:1039B0000E94601C20E042E055E26FEF7FEFC801FB
:1039C0000E94F71B98E0E91AF10820E048EF54E262
:1039D0006FEF7FEFC7010E94F71B8D2F8850990B67
:1039E000EC0120E04EEE54E2BC01C8010E94F71B3E
:1039F00020E044EE54E2BE01C701DF91CF911F9158
:103A00000F91FF90EF90DF90CF90BF900C94F71B39
:103A1000EF92FF920F931F93CF93DF93182F809114
:103A2000ED05C091EA05882331F0E091EE05F0E064
:103A3000E15CFE4FC0818091F305982F9D7F01E0EE
:103A4000913009F000E03091EC05D0E0E090FB050A
:103A5000F090FC0531114DC02091EB05823040F013
:103A60008430A8F48091A50180FF3AC033E00FC0F4
:103A70008091A5019091A60166E070E00E94523706
:103A8000892B29F42F5F233041F12093EB0580919E
:103A9000EB05830F9927991F880F991FFC01E955A2
:103AA000FB4D25913491FC01E756FB4D4591549116
:103AB000BE01C7010E94FF198091F405843009F40A
:103AC00045C09091F305913009F47EC000F100E00B
:103AD000933009F07EC001E07CC01092EB05D7CF97
:103AE0002F5F243019F02093EB05C0CF1092EB0527
:103AF000BDCF8DEF9FEF002311F081E090E025E630
:103B000034E24BE754E2BE018E0D9F1DD3CF0091EE
:103B1000EB05002309F45DC000E034E090E0880F7D
:103B2000991FFC01E15AFB4DA591B491FC01E75AA4
:103B3000FB4D45915491BE01631B71098091FB05BA
:103B40009091FC059D0102960E94FF198091ED0560
:103B5000882309F448C08091FB059091FC050296EA
:103B600020E04EE454E26EE270E01123A1F10E94E5
:103B7000351B26EE33E249E154E270E060E090E06C
:103B800080E00E94F2198091E605883040F420918F
:103B9000A5013091A6012F713327213130F18536EF
:103BA00008F084E663E00E944437D82FC0E0CD17C8
:103BB000E0F48C2F90E021E042E063E070E040967A
:103BC0000E94601CCE5FF3CF9091EB0501E0911154
:103BD000A4CF35E0A3CFDF91CF911F910F91FF903C
:103BE000EF900C94421B1111C4CFDF91CF911F9124
:103BF0000F91FF90EF90089566E080E00E94AE196B
:103C0000482F56E0580FE6E0451700F5842F6E2F39
:103C10000E943837892F292F30E023553A4FD90198
:103C2000A85BBF4F9C91992379F09150843038F470
:103C30004091F405841303C044E04093F405285BED
:103C40003F4FF901908308954F5FDECF80E00895E4
:103C5000CF93C62FC69549E0849F402D1124455F20
:103C600080E48C1B0E948E1C8AE48C1BE7EAF1E046
:103C70008083818385E08283CF910895FC01208138
:103C8000222341F01092BC051092AF051092040659
:103C9000108208958091AF0581508093AF0581E037
:103CA000809304060895CF93DF93C82FD0916D06BB
:103CB000DD23F9F0D23009F49BC0C5FF06C0DD2337
:103CC00009F4C6C0D150D0936D06C6FF08C08091DC
:103CD0006D06833009F4BEC08F5F80936D06C2FF0E
:103CE00005C010926A068FEF80936706DF91CF912F
:103CF00008950E94A319C7FF0EC0909165069330E6
:103D000020F091509093650606C020916406211121
:103D100013C09111F6CFC4FF24C090916506282FDF
:103D200030E0923068F42150310992171306CCF438
:103D30009F5F9093650615C0215020936406EBCFDA
:103D400080916406482F50E0BA016C5F7F4F621784
:103D50007307E4F0490F511D2150310942175307F1
:103D60003CF3C3FFAACF8091650620916406280F1B
:103D7000E5EFF5E030E090E04191442319F023179E
:103D800049F03F5F9F5F9630B9F797CF8F5F809381
:103D90006406E7CFEDEFE90FE33018F09093F405F8
:103DA0008CCFE130B1F0E230E9F090910C06965FF3
:103DB00090930C06F0E0E850FA4F90819150908378
:103DC00091117BCF882309F478CF815080936506C9
:103DD00074CF9091E6059C5E953608F094E690933A
:103DE000E605E8CF9091B3059F5F9093B305E2CFCE
:103DF00087FF11C09091680683E0890F981758F4E7
:103E0000282F2370E22FF0E0E151FA4F3081332365
:103E1000D9F020936806C4FF50CF8091680621E056
:103E2000280F90E003962817190611F00CF045CFE3
:103E3000322F3370E32FF0E0E151FA4F40814423F9
:103E400029F03093680639CF8150D8CF2F5FEBCF60
:103E5000D3E039CF80E041CF2093AF0580930506B2
:103E60006093FD051092010681E080930206409365
:103E7000FE05809304060895EDEAF5E011821282B2
:103E800091E0938F89E0808F978F848F93A380A395
:103E900097A384A393A780A70895CF93C82F8830B2
:103EA00099F080E0CA3089F00E943C1FC33039F09D
:103EB00008F052C0CC2309F457C0C130F1F580E8B6
:103EC0008093020184E064C08BE68093AF0530915B
:103ED00008062091090680910A06813091F58091AB
:103EE0000E0690910D06930F90930D06820F80930E
:103EF0000E0680910D0680930C0680910E0680932D
:103F00000D0610920E068091100680930F06809188
:103F10001106809310061092110610920A06109254
:103F20000B0683E08093B305CA3039F48091BD0558
:103F3000843019F481E08093BB05C093B605CF911E
:103F400008958091110690911006930F909310069A
:103F5000820F80931106CDCFC530A1F0C93069F72B
:103F600081E08093AF05E9CF81E08093190680E876
:103F70008093020182E08093030187E090E20E9437
:103F8000221BDBCF0E94711A80E88093020182E03D
:103F900080930301D2CF1F93CF93DF93C091150677
:103FA000D09116068091FB059091FC05C81BD90B9A
:103FB0008091BB05811116C080911A068C0F9D2F30
:103FC000911D0996439718F481E00E944D1F80913E
:103FD0001B068C0F9D2F911D0996439718F483E0C3
:103FE0000E944D1F10912006112331F180911D0672
:103FF00090911E0603968C0F9D1F4397E8F424E6CC
:104000004EE561E088E40E942C1F109220066FE0CC
:1040100085E00E94AE199091E605890F853608F07B
:1040200084E68093E60585EF9FE10E94221B812FA5
:10403000DF91CF911F910895CE018859910943973F
:1040400028F488E28093010111E0F1CFA9E3B1E007
:10405000E3E3F1E030E020E0822F4D915D914C0FE1
:104060005D1F4D5F5F4F4331510538F424E64EE547
:1040700062E08F5D0E942C1FE7CF819191918C0FA0
:104080009D1F0996439730F51091BB05112339F018
:1040900024E648E662E089E40E942C1FC8CFF901BB
:1040A000EE50F04E8491F901E151F04EE49198EC1C
:1040B0009093AF05E093030692E09093FD05109274
:1040C00001068093020682E88093FE0581E08093DA
:1040D0000406BACF2F5F3F4F2330310509F0BCCF24
:1040E000C556D10910E0639708F0A1CF81E0809315
:1040F000BC051092AF05A8CF8091FB059091FC05FF
:104100008C5691098531910568F42091B6052A30C5
:1041100049F463E070E00E946637660F6B5D609360
:10412000EA05089585E28093EA0508951F93CF93E9
:10413000DF93D82FC62F122F85FF0BC080E00E947F
:10414000C619D6FF34C081E0DF91CF911F910C9446
:10415000C61965FF27C08091FB059091FC05853F3E
:104160002FEF9207ACF0042E000C550B481759079F
:1041700044F782E00E94C6198091FB059091FC05EE
:1041800001979093FC058093FB050E947C20D9CF7A
:104190008FE790E09093FC058093FB0580E00E9400
:1041A0004D1FCFCF8091F305823059F6C7CFC6FFA0
:1041B00018C08091FB059091FC0518171906B4F002
:1041C00083E00E94C6198091FB059091FC05019641
:1041D0009093FC058093FB05DF91CF911F910C9488
:1041E0007C208091F305833009F4ADCFDF91CF912E
:1041F0001F9108950F93CF93DF93EB0100E021E02F
:10420000AC0161E270E088E090E00E94C41721E018
:10421000AE016DE270E087E090E00E94C417DF918C
:10422000CF910F9108958F929F92AF92BF92CF92AC
:10423000DF92EF92FF920F931F93CF93DF939AE059
:10424000499FA0011124C82FD0E02396D12CC12C66
:10425000CA018F5C904E7C01A62EB12C450194E0E2
:10426000890E911CF701EC0DFD1D149100E021E079
:1042700049E15FE1B501CE0103970E94C417212FE8
:104280004FEE5EE1B401CE010E94F71B8FEFC81A1A
:10429000D80A2D9695E0C916D10421F7DF91CF9168
:1042A0001F910F91FF90EF90DF90CF90BF90AF9054
:1042B0009F908F900895CF93C82F85E68093A70194
:1042C0008093A80185E38093A9011092AA0180E060
:1042D0000E94CD1BC43640F480E00E94CD1BCA3042
:1042E00018F480E00E94CD1B8C2F0E94CD1B81E032
:1042F0008093AA01CF910895CF92DF92EF92FF921F
:104300000F931F93CF93DF93D82E8CE1E82E86E096
:10431000F82ED70115968C911597D81227C0C0900A
:10432000BB05C0911506D0911606EC91E250E8301D
:10433000E8F4F0E0E256FE4D0C947A37A621C7214E
:104340001422222245222D2237227222CE010697E4
:104350001196ED91FC9100E026EA3EE14FEB5EE123
:1043600061E270E08E0F9F1F0E94FF19B6E0EB0E16
:10437000F11CE4E6EE16E6E0FE0659F6DF91CF9179
:104380001F910F91FF90EF90DF90CF900895F7016C
:104390008181928124E93EE14CE95EE16AE070E0CE
:1043A0008E0105511109800F911F0E94F219D7014A
:1043B0001196ED91FC9120E046E35EE162E070E051
:1043C000CE010D978E0F9F1F0E94F71BF701818171
:1043D000928120E044E25EE162E170E0800F911F93
:1043E0000E94F71BD7011196ED91FC9120E04AEE57
:1043F0005DE162E270E0CE014C978E0F9F1F0E943C
:10440000F71BCC2009F4B2CFCE010997D701119642
:10441000ED91FC9120E046ED5DE164E270E08E0FED
:104420009F1F0E94F71BA2CFF7018181928122E892
:104430003DE14CEA5DE162E270E08C0F9D1F0E945D
:10444000F21994CFCE0104971196ED91FC9120E0E2
:104450004AE65DE162E270E0E2CFF701818192819C
:104460002CE23DE14AE45DE168E270E0E6CF1196BE
:104470008D919C9100E020E042E15DE162E270E01C
:104480008C0F9D1F0E94C41771CFF70123810180FB
:10449000F281E02DCE01CC20E1F0049748EC5CE104
:1044A00065E270E08E0F9F1F0E94421B8091A50164
:1044B0009091A60187709927892B09F057CFD701D2
:1044C00013968C9113978F5F833049F013968C93DA
:1044D0004DCF059748E75CE162E270E0E3CFF7017A
:1044E000138244CF14968C911497882309F43ECFFD
:1044F0008091A5019091A6018F719927813108F4CF
:1045000035CFCE0105971196ED91FC911297139638
:104510002C914FE65CE16BE270E08E0F9F1F0E94D2
:10452000421B24CFE7EAF1E082E5808381838AE1C0
:1045300082838FE10C94C81BCF93C82F682F81E032
:104540000E94281EC6958CE48C1BE7EAF1E080836C
:10455000818385E082838EE1CF910C94C81BCF9339
:10456000DF93EC01262F43E25BE163E270E089E533
:1045700090E00E94351B20E0AE0163E270E087E628
:1045800090E0DF91CF910C94351BEF92FF920F9347
:10459000CF937C01C62F00E021E04EE95AE162E0B2
:1045A00070E08DE490E00E94C41721E0A70168E06C
:1045B00070E08FE590E00E94C41721E040E45AE1EA
:1045C00061E270E081E590E00E94C41721E043EFD2
:1045D00059E163E370E081E590E00E94C41721E0B7
:1045E00043E959E16EE170E085E090E00E94C41774
:1045F00080916A0681111BC06091B40581E0682733
:1046000070E020E048E859E181E290E00E94F71B69
:104610008091B5056BE370E0882311F06CE370E0E6
:1046200020E04DE759E181E290E00E94F71B84E52C
:104630008093A7018093A80185E38093A9018CE171
:10464000C11101C08DE1CF910F91FF90EF900C94BB
:10465000C81BCF93DF93EC0185E690E00E94D23631
:104660008883CE01DF91CF910895CF92DF92EF92B0
:10467000FF920F931F93CF93DF9300D000D000D011
:104680001F92CDB7DEB78091BD05843031F11F8216
:1046900092ECE92E95E0F92E8E010F5F1F4F680115
:1046A000F70161917F0170E0660F771F6B547B4DBE
:1046B00042E050E0C6010E94C936F2E0CF0ED11CA4
:1046C00085ECE81685E0F80659F7F80181918F012D
:1046D000882331F00E944F1BF8CF80E20E94C81B54
:1046E00027960FB6F894DEBF0FBECDBFDF91CF91F6
:1046F0001F910F91FF90EF90DF90CF9008950F934F
:104700001F93CF938091BD05823009F48EC0C0F510
:10471000882309F46DC0813009F47FC000E021E0F6
:1047200045E951E270E060E089E490E00E94C4173E
:104730008091BE05883048F42091A5013091A601F2
:104740002F713327213108F4AEC021E2829FC001CE
:1047500011246091C00570E00E9466378B01C0E0B3
:104760008C2F90E08017910708F09DC021E042E077
:104770006AE070E0855B9F4F0E94601CCE5FF0CFC7
:10478000833009F465C0843049F6E091C105F0E05A
:10479000EA5DFC4D649170E06B5E7F4F20E047EC7A
:1047A00052E28DE490E00E94351BE091C105F0E0FB
:1047B000ED53FD4D649170E0625E7F4F25E532E27E
:1047C0004BE852E281E490E00E94F219E091C105C9
:1047D000F0E0EF5AFD4D649170E0625E7F4F23EE92
:1047E00031E249E152E286E690E00E94F2192EC0E1
:1047F000E091C105F0E0EE0FFF1FE052FC4D459146
:10480000549100E021E062E270E086E590E00E94D1
:10481000C41783E00E941D1A81CFE091C105F0E02A
:10482000EE0FFF1FE652FC4DEACFE091C105F0E02C
:10483000EE0FFF1FEE52FC4D4591549100E021E038
:1048400062E170E08BE490E00E94C41784E0E2CF64
:10485000E091C105F0E0E153FC4D649170E0665ECB
:104860007F4F20E041E953E28BE490E00E94351B4A
:10487000E091C105F0E0E257FC4D649170E06B5EA1
:104880007F4F28E433E24AE653E28CE490E00E9452
:10489000F21920E04AE253E26AE270E084E590E037
:1048A0000E94351BB6CF8091BD05843069F080E54C
:1048B0008093A7018093A80181E08093A901CF9103
:1048C0001F910F910C9435238EE4F2CF0F931F9319
:1048D000CF93DF93CDB7DEB72A970FB6F894DEBF3C
:1048E0000FBECDBF9AE0899FB0011124675A704E68
:1048F0004AE050E0CE0101960E94C936898180933A
:10490000BD051092C10502EC15E067E180E00E9450
:10491000AE19F80181938F01F5E0053C1F07A9F757
:104920008A818093BF058B818093BE058093C005EB
:104930002A960FB6F894DEBF0FBECDBFDF91CF91A0
:104940001F910F910895DF92EF92FF920F931F93A3
:10495000CF93DF93CDB7DEB768970FB6F894DEBF7D
:104960000FBECDBFD090BD0584E0D81699F08FE57D
:104970000EEF1FEFE82EF12C0E151F056CF420E052
:104980004BE559E162E370E0C8010E94F71B005F4C
:104990001F4FF2CF8FE7ECCF84E0D81651F000E044
:1049A00021E043E459E166E370E080E790E00E9493
:1049B000C41720E04BE359E16BEF7FEF87E790E00E
:1049C0000E94F71B20E04BE359E170E060E08CE7C8
:1049D00090E00E94F71B87E0E9E0F1E0DE011B9622
:1049E00001900D928A95E1F787E0E0E1F1E0DE01C8
:1049F000529601900D928A95E1F7809119068150A7
:104A0000990B2AE0289FB001299F700D1124675A45
:104A1000704E4AE050E0CE0101960E94C93610E087
:104A200000E08A8590E0002E02C0959587950A9453
:104A3000E2F780FF1AC0F801EE0FFF1FE35DF64EAC
:104A400045915491E2E1F0E0EC0FFD1FE00FF11F02
:104A5000608170E0EBE0F0E0EC0FFD1FE00FF11F74
:104A6000808120E090E00E94351B0F5F1F4F0830CF
:104A70001105B9F668960FB6F894DEBF0FBECDBF2C
:104A8000DF91CF911F910F91FF90EF90DF900895EC
:104A9000FF920F931F93CF93DF931092BC0583E691
:104AA0008093AD050DEA15E0C5E6D0E0F801F19080
:104AB0008F01CE010E94D236F81621F06F2DCE0163
:104AC0000E94DA362196C632F1E0DF0779F724E654
:104AD00048E561E086E5DF91CF911F910F91FF904E
:104AE0000C942C1F41E550E06CED78E183E196E0F9
:104AF0000E94C936EDEAF5E08CE0DF011D928A954F
:104B0000E9F783E08683089580E00E944D1F0E94AC
:104B100072258FEF809368061092200646E150E0E0
:104B200066EC78E186EE95E00E94C9368CE390E071
:104B30009093FC058093FB0508950F920FB68F9319
:104B40009F93EF93FF9380919C018D5F8D3708F0C9
:104B50008D5780939C01EDE9F1E080818E4F808339
:104B600091819F4F918382818F4F828383818F4F69
:104B70008383E1EAF1E080818F5F808381818F4FC1
:104B8000818382818F4F828383818F4F83838FB113
:104B90008F6066991C9B88278F3681F480919B01DA
:104BA000981B963068F0E0E0F8E087E78083818327
:104BB00088E180936000F0936000FFCF90939B01A9
:104BC000FF91EF919F918F910FBE0F9018951F92BB
:104BD0000F920FB60F9211242F933F934F935F9331
:104BE0006F937F938F939F93AF93BF93EF93FF93B5
:104BF0008091970190919801A0919901B0919A01AB
:104C0000892B8A2B8B2B09F440C08091960181114E
:104C10000BC088B190E4892788B9809195018823D9
:104C200019F088B1805888B98091970190919801C6
:104C3000A0919901B0919A01181619061A061B063F
:104C40009CF48091970190919801A0919901B09165
:104C50009A010197A109B109809397019093980156
:104C6000A0939901B0939A01FF91EF91BF91AF91F9
:104C70009F918F917F916F915F914F913F912F9174
:104C80000F900FBE0F901F9018950E947D1AECCFC9
:104C9000CF93DF93FC0190E09F5F9F012F5F3F4F19
:104CA000D901892F861750F44D915081451720F472
:104CB000ED012197588340838F5FF4CFF901691389
:104CC000EBCFDF91CF9108953F924F925F926F9219
:104CD0007F928F929F92AF92BF92CF92DF92EF928C
:104CE000FF920F931F93CF93DF93CDB7DEB76397F8
:104CF0000FB6F894DEBF0FBECDBF8C01CE0101967A
:104D00005C0186E0D5011D928A95E9F78091060144
:104D100090910701A0910801898B9A8BAB8BE09150
:104D2000F405512CE43021F0EC0FFD2FF11D5188DA
:104D30008FEFF80180831182128213821486809192
:104D4000C7058C878091CB058D878091CF058E8795
:104D50008091D3058F878091D705888B65E0CE0140
:104D60000C960E9448268091F205882359F18D8582
:104D70009C85981739F19E85891721F18F859817A1
:104D800009F198898917F1F023E0D8012D93CD011D
:104D900044E050E06EEE7BE20E94C936D801EC910F
:104DA000BAE0EB9FF0011124ED52F44DE491E50DD2
:104DB000D8011C96EC931C9782E014968C93149760
:104DC00015968C938C85823069F48D85823051F4F0
:104DD0008E85843039F48F85843021F4E1E0888930
:104DE000843009F0E0E0F0E0E151FA4F40804420E7
:104DF000B9F121E0F8012193CF0144E050E06AEDE0
:104E00007BE20E94C936D801EC91BAE0EB9FF00139
:104E10001124ED52F44DE491E50DD8011C96EC936C
:104E20001C9789E1850D14968C93149715961C9206
:104E300063960FB6F894DEBF0FBECDBFDF91CF9162
:104E40001F910F91FF90EF90DF90CF90BF90AF90A8
:104E50009F908F907F906F905F904F903F900895BC
:104E60009FEE692E95E0792E2AECC22E2BE2D22EEF
:104E70004301312CF40181914F01882309F442C090
:104E8000C6018A5C9B427C0145E050E0B601CE0140
:104E900007960E94C93665E0CE0107960E94482613
:104EA0008985873079F12F819C8529132BC028852E
:104EB0009D85291327C09E85891324C09A858F85D7
:104EC000981320C09B85888998131CC0D8013D92F7
:104ED000CD01B7016053744D44E050E00E94C936E3
:104EE000F701ED52F44DE491D8011C96EC931C9718
:104EF000311003C081E014968C93F8018181580E23
:104F0000518296CF3394FAE0CF0ED11C84E0381250
:104F1000B1CFFE013C969E012F5E3F4FA191AA0D9D
:104F2000BB2DB11D8C918F5F8C93E217F307B1F706
:104F300066E0C5010E9448268AECE82E8BE2F82E36
:104F4000D3018D913D018823D1F1F701EA5CFB4249
:104F50006F0145E050E0B701CE0107960E94C936C7
:104F60008985873061F58E81823048F18D8182306C
:104F700030F18F819D85891719F02F8582131FC00D
:104F80008A85981719F09F85891319C0D8014D9209
:104F9000CD01B6016053744D44E050E00E94C93623
:104FA000B3E04B1204C082E0F80184838583D8010A
:104FB00011968C911197580E11965C9239CF4394AB
:104FC000BAE0EB0EF11CE4E04E12BACF8E818530D0
:104FD00041F483E3D8018C938DE2850D11968C9377
:104FE00027CF843039F484E3F80180838EE1850D86
:104FF00081831ECF833069F48D81823029F487E369
:10500000D8018C9389E1E9CF85E3F801808384E1BD
:10501000EECF823009F00CCF8D81823009F008CFBD
:1050200086E3D8018C938AE0D8CF89E08093AC01E5
:1050300081E08093AB011092A8011092A901109217
:10504000A7018093AA0121E13CE130938C012093D8
:105050008B0120E030E83093890120938801469845
:105060003E9A47983F9A8093F305ECE1F6E08483FB
:105070001582369696E0E436F907C9F70895CDB75C
:10508000DEB76897DEBFCDBF91E09093E00010924D
:10509000E2001092E10080E28093D8001092D700E5
:1050A00080916500806880936500789483E084BD7A
:1050B00083E085BD90936E00E1E8F0E083E08083BB
:1050C000E0E881E08083E1E983E08083E0E981E05A
:1050D0008083E1EC87E08083E3EC81E08083E0EC97
:1050E00082E08083E2EC81E08083EAE787E08083EE
:1050F0008068808381EC80937C0081EF85B987EEA6
:1051000084B982E38BB982EF8AB9769A6E9880EF80
:1051100081BB10BA80E58CBD9DBD0E94301A5F9A9C
:105120000E94301A5C98EEE5FAE085918EBD000091
:105130000DB407FEFDCFEB36C1F75C9A81E8809392
:10514000640081E08093650089E18093000182E042
:1051500090E00E94D2368823B9F00E94191C88245E
:10516000839411E02224239469E0962E7CE3672E39
:10517000712CE3EFCE2EE5E0DE2E809173018823C3
:1051800031F010927301F9CF0E94141CE8CF909176
:105190009D0180917401292F281B822F20910001ED
:1051A000821738F48F5F821740F783BE889513BE4D
:1051B000E4CF2092730190937401E5EAF1E08081DD
:1051C000918101968083918320917A0120937901C6
:1051D0008FB18095807F669B88601C9B84608093E4
:1051E0007A0190917B01923009F468C010F59923FF
:1051F00009F443C0913009F0C0CF2095822319F003
:1052000082E080937B0120E040EC57E160E170E0B8
:1052100080E290E00E94F71B8091A5019091A60189
:105220008F739927803260F5803108F439C081E3AB
:1052300038C0943009F4BEC008F44BC0953009F072
:105240009CCF00917A018091790180958023888F8D
:10525000E091B605EB3008F001C1F0E0EE5CF64DF0
:105260000C947A37E0297A2BF92B2F2C9F2CCA2CFF
:10527000EE2C722F822F3230623010937B01BDCF23
:105280008033D0F481E580936103807A31F485EA3C
:1052900080935A0385E980935B030E9445166DCF86
:1052A00081E1109288031092890310928A03109270
:1052B0008B0310928C03E7CF81E9E5CF1092760142
:1052C000109275018AE697E10E94221B83E0809389
:1052D0007B0120917A0180917901809582239091C0
:1052E0007701992319F091509093770124FF5BC0C7
:1052F00090917501903108F052C09F5F90937501B5
:1053000090917601903218F49F5F9093760183FF1D
:1053100003C094E090937B0182FF1AC080918A01C0
:10532000882309F443C00E94141C00E0F0908A0115
:1053300082E090E00E94D236F81629F06F2D82E0CC
:1053400090E00E94DA360093780188E2809377013A
:1053500000E021E04EEC54E166E070E090E080E097
:105360000E94C41780917601803249F421E043EA1B
:1053700054E165E370E080E390E00E94C4178091FF
:105380007701882309F489CF2091780141E954E11C
:1053900068E370E088E790E00E94F71B7ECFF89406
:1053A0000C94D325ADCF10927501AACF0E94191C81
:1053B00001E0BCCF0E94842585E080937B0141CF32
:1053C00090916A069111DEC69091BC052091AF05BF
:1053D00091111BC1222339F0283C09F46AC0CE0187
:1053E00048960E943E1E888D82FD10936A06909119
:1053F000AF05983C59F085FF66C080E00E94C61951
:10540000888D86FFA5C081E00E94C619888D87FF20
:105410000CC08091AF05883C09F0EEC08091010678
:10542000882319F0815080930106988D94FF13C052
:105430008091AF05883C79F480910106282F30E0F7
:105440002E5F3F4F409102064217130621F01CF0D9
:105450008F5F8093010693FD0E94CB1F8091ED0525
:10546000882349F08091EE058F5F8093EE058431AB
:1054700011F41092ED058091EC05882319F081500C
:105480008093EC058091B6058B3010F00C941933A5
:10549000E82FF0E0E25BF54D0C947A37C53000332D
:1054A0000033A533A533F433F433F433F4336134E8
:1054B00071348C7021F01092AF05188E91E0982510
:1054C0009093040690CF05FF3DC082E00E94C6196C
:1054D0008091FB059091FC058D33910534F0019787
:1054E0009093FC058093FB058BCF2091150630919E
:1054F00016062F3F3105ECF48091A50180FD09C00F
:10550000809113069091140601969093140680934F
:10551000130680911706909118060296909318062C
:10552000809317062F5F3F4F309316062093150682
:1055300067CF2F3F310509F063CF833091050CF41D
:105540005FCFCDCF8091F305823009F059CF55CF91
:1055500006FF4CC083E00E94C6198091FB05909124
:10556000FC058C33910534F401969093FC058093EF
:10557000FB054CCF209115063091160622354FEFD2
:105580003407ECF08091A50180FD09C080911306DD
:1055900090911406019790931406809313068091BE
:1055A0001706909118060297909318068093170695
:1055B00021503109309316062093150627CF2091EC
:1055C000BB05211123CF8038910574F20091190693
:1055D000015085EF9FEF9093FC058093FB0585E0DC
:1055E0000E944D1F802F0E94662410CF8091F305EA
:1055F000833009F00BCF07CF0E94CB1F811115CF4D
:105600001093ED051092EE0510CF211156C087FFC3
:1056100007C090916906992319F0915090936906FB
:1056200084FF10C0CE0101960E9429238091690653
:10563000882329F09981933629F4823018F48F5FFA
:1056400080936906888D82FD1092BC0583FF06CF8A
:1056500080916906813061F1E8F0823009F0FECE78
:105660004DEAA42E45E0B42E55E6E52EF12CC701F7
:105670000E94D236D5018D935D01BFEFEB1AFB0A74
:10568000E6E2EE16E1E0FE0691F724E644E661E08C
:105690008CE40BC0CE0101960E94292389818336B8
:1056A00031F52FEF48E662E08AE40E942C1FD6CE47
:1056B0002EEF44E562E08BE4F8CF1093040682FFFE
:1056C00004C01092BC051092AF0583FFC7CE809135
:1056D0006906882361F0813009F0C0CE1092BC05C4
:1056E0001092AF051092BB050E948425B7CE0E9490
:1056F0004825B4CE90916A06911144C58091AF05BA
:10570000882321F0CE0148960E943E1E988D292FB5
:10571000221F2227221F41F08091B105882309F41E
:105720003EC081508093B1052093B40521E094FDE3
:1057300038C020E02093B50592FD10936A0693FFD0
:105740008DCE6091B105F4E06F9FB00111246B58CC
:105750007B4E44E050E0CE0101960E94C93689811B
:105760008130A9F140F1823009F4AEC09C81809172
:10577000E7058917C8F11092AF058FE480930506FD
:1057800082E08093FD0510920106109302069CE4CE
:105790009093FE05109304068093B6055FCE86E0D5
:1057A000C1CF8091B105863020F48F5F8093B10521
:1057B000C1CF80E0FBCFEA81F0E0EB50FA4F80816F
:1057C0008130A1F624E64EE562E08DE46ECFEA81F9
:1057D000ED5FF0E0EB50FA4F8081853039F624E63A
:1057E00048E563E08EE461CF24E646E462E080E5CC
:1057F0005CCF1093040683FF1FC06091B10524E0C5
:10580000629FB00111246B587B4E44E050E0CE0102
:1058100001960E94C93687E694E10E94221B898185
:10582000882381F08130B1F08091E7059C81891B4C
:105830008093E7051093B605888D82FF0FCE1093F5
:10584000B6050CCEEA81F0E0EB50FA4F80818F5F15
:105850008083EACFEA81F0E0E850FA4FF7CF9091E9
:105860006A0691118FC48091AF05882321F0CE0183
:1058700048960E943E1E988D97FF2AC08091B005E1
:10588000882321F181508093B0051093B40594FFD3
:1058900028C08091B005843010F58F5F8093B005EB
:1058A0001093B50592FD10936A0693FFD7CD209112
:1058B000B005822F90E03AE0239FF0011124EA5CCA
:1058C000F04EE4912430A1F480E0AEC184E0DBCF5F
:1058D0008091B4058823D9F21092B405D8CF80E026
:1058E000DDCF8091B5058823E9F21092B505DACFB6
:1058F00081519A4FDC018C91811109C08091E8059A
:105900008E1750F424E646E462E083E5CECE24E62A
:1059100046E562E081E5C9CE1092AF0582E580934D
:10592000050682E08093FD051092010610930206A1
:105930008AE48093FE051093040684E02DCF109333
:10594000040683FF22C087E694E10E94221B809117
:10595000B005A82FB0E02AE0829FF0011124EA5C94
:10596000F04EE491A151BA4F9C919F5F9C9390910E
:10597000E8059E1B9093E80593E09093B6059091FF
:1059800068069F3F11F480936806888D82FF66CD7C
:1059900083E002CF8091FB059091FC05059759F4B7
:1059A00062E080E00E94AE1981110CC00E943C1F91
:1059B00086E08093B60521E344EF602F888D0E9436
:1059C00096204CCD0E943C1F87E08093B60524E6CC
:1059D00042E861E084E50E942C1FEDCF90916A06B9
:1059E0009111D0C39091AF05973609F44FC108F0DB
:1059F000DBC0953609F40FC108F026C1913008F0DC
:105A000073C382FD10936A0621E340E0602F0E9479
:105A10009620888D83FF31C08091AE059091B305AB
:105A2000891758F52DEAE22E25E0F22E21EC35E01B
:105A30005701D5015896EC91F0E0ED5AFE4F908158
:105A40009F3FD9F4B4E0AB0EB11C2A153B0589F792
:105A5000882309F4EDC1CE0101960E9464260E94BC
:105A6000DE19811106C289818F3F09F016C224E632
:105A70004EE561E085E50E942C1F8091AE058823EC
:105A8000E9F19091B3058917C8F5ADEAB5E081EC6D
:105A900095E05896EC915897F0E0ED5AFE4F208132
:105AA0002F3F61F514968A179B0799F7888D87FF1A
:105AB00025C08091FB059091FC05CB97F8F489E80F
:105AC00093E10E94221B8091FB059091FC050796B3
:105AD0006DE070E00E946637FB01FF27EE0FFF1FAD
