:100000000C94ED150C9415160C9415160C941516ED
:100010000C9415160C9415160C9415160C941516B4
:100020000C9415160C9415160C9415160C941516A4
:100030000C9415160C9415160C9415160C94151694
:100040000C9415160C9415160C9415160C94151684
:100050000C9415160C9415160C9415160C94132666
:100060000C9415160C9415160C9415160C94151664
:100070000C9415160C9415160C9415160C94151654
:100080000C94B2250C9415160C9415160C94151698
:100090000C9415160C9415160C9415160C94151634
:1000A0000C9415160C9415160C9415160B0F970539
:1000B0008B898B8905411CB0D7BD9B8D110B0954D1
:1000C00030B2486F0B0F2F172C260ED8EB7BDD6C50
:1000D0008C2CD2B70B0F2F172C5C9BBDBED74D229B
:1000E0009345FA160B8F7B8535941B72D223596F7B
:1000F0005A064E286C286630686F8BCF2B1CF5840F
:10010000DC901B3A16596D198C486143614361CAF2
:10011000A02D0B0F2F162C262EA603F67ADFCDC6A8
:100120008805238BF40D0B4FEFE766EEDF3064B2EA
:10013000C77B0B0F2F162C5C585C9BBDDE7793485A
:1001400005239345FA063B073FAC5B7B5B02725984
:1001500069D66549715D56329374BD5CC94CD275E0
:100160005997A02028B93097FC3A3B473F6C0DC007
:10017000E0655D248260F0B22E2BCDBA2C29065F9B
:100180004A04C1E019D7C42ED0DED6000CFE503B85
:10019000073F6495B12E4B406E5558BDACC9655DA7
:1001A000569A75595294BCECAAD9B1B7755969D60B
:1001B0006549C9F8413B073F78091CD765090CC957
:1001C0006509C8CB25204A2E6B72ABC2EA85280888
:1001D0001A2E4B407E38398F5F452EFB82BC4B3048
:1001E000257BE415C3E101821BC4E9E6D1AD8C3562
:1001F000C6E5B47BDB635D6E252069F07773E503AC
:100200005E0A17CA53F4C6953B78E2412E91CBB8EB
:10021000E6D25B8EEB984BE4343E0E398F5F889AC2
:1002200012582370198E22468A79BFBA063D9DD096
:10023000A59175398D35CABA2C3AD638A9BA70AE9F
:1002400071BA2C3AD6B81D1659B3DFF114B9AC63A4
:100250002E91CBF8D4BA604E1ED70573C9711D73A9
:10026000C9711D73895CD631B02002EB72F214B9EA
:10027000A84739CFEF5717ECDBA5738575B8A14BAD
:1002800023EBF2E8F68D0453B2478EA732D618EF6F
:100290005717ECDB657596DE3EBF8EB9E43A2EC487
:1002A0008BD775C15C72CF251FF052B8508E9E223D
:1002B00097F1A975CC25C7F551398F1FE606DD8565
:1002C0001BA7E12862A4980759418415B101D39D69
:1002D000F2E856C61AE372DABDEDB12EB7129034C9
:1002E000F867F0792E91CB78CD11725927E0792EED
:1002F00091CBB8E6D25B8EEB984BE4343E0E3B07D5
:100300003F2428084A4E4B42C6690480044E23000D
:1003100024701A21B85E2E91F63842C838B15608BA
:100320000718A71142C66984397E003B471F5E83C8
:10033000AECB0800819C940090715A57B2249CD691
:1003400022E3E92AD25E46081967B2249C061C46BD
:100350000819A731C9F8053B873F6C09DC609CC6CA
:10036000A25E870034F07215B1C721A1E3C45A21FF
:100370001C609C86848ED35874FC503B073F6409F4
:100380000CC9698490711A938CD308739C4608AE8B
:1003900017AB8C751A012081CB3A8D304798E33426
:1003A00002400227D60AE1C33B473F6C0DBA2E0339
:1003B000365483EBB416194FD7A0EB32024020A776
:1003C0007519938C49C669048040CE6449F8453B51
:1003D000471F5852542F63B23C269939A1012081FE
:1003E0003359124E4A00C838AD976BD075190120A9
:1003F00090D3BA8C49C624E33402402067B2247CEF
:10040000093B8FBFE056026B046E8745D6ECEDB01A
:10041000585939AABA70AE718B5D185DCA89AEAEF3
:1004200072E306DD851B8371FB0BE492E33A7A8A63
:100430005CD4A3A7C8651D73895CD63197C8653C99
:100440005D173EE0F35CF27D3BCF5FBE6D585DB75C
:10045000C3226BF6A4EAC2B9C6E5F6388D095DE69B
:1004600034C61AF4F47475C1BE5D5667E9ED17E63B
:1004700092E33A7A8A5CD4632E91CB3AE692C792A1
:100480000B2017EEE38239F9781D73C971FD083B23
:100490008F5F452EFB82BC60DC2E63AC414FCF8268
:1004A000440493561446C9E6CDEA1AF4745A63DF3D
:1004B000BA4F97D505A1A1E41773E57D2EB98E0B30
:1004C000E6E473E0B42E81238FD70573F2B86E3D56
:1004D000E692E3BAA0A77C0F3B8F7F186ED05DB881
:1004E000711A8E22468AB9AFB20028008BAE41D76E
:1004F0003F239FE712B98CC7C0897211E004FC79D1
:10050000003BCF1FE006DD851BA7E12862A498FB16
:100510002A0B8002B0E81A747D1DB9EC0B721E1D07
:10052000418A4BDEE5089E0080090CA0FE349FE75F
:1005300012B98CC7C0897211E004FC1CAE3C5E1776
:10054000CCC9179C809B003F023B8F076ED05DB8E3
:1005500071A3ABEB742A638D715F65015000165D6A
:1005600083AEAF21977D415E306E9731D6A0A787CD
:1005700039822700600203A89FF25BEBE829721919
:100580008F8113E522C009F83C57DEE792EBB86093
:100590004EBEE004DC04F8181B8FBF83AB57AF5E80
:1005A000FD6D392A38200222540802110431023B21
:1005B000021B301B3025800920602400086EAF6BC1
:1005C000001B8F9FF1CAAD65812A850D85A2541C41
:1005D000CC9EBDF2B11CB5820066A10201040422CA
:1005E000A84009201003E800000402086811003345
:1005F00004B032BCAE011B8F070F085E20AFB97A82
:10060000F5EAD5DF964D1504000041000010A0006A
:1006100020082250365036F5901A7090A086A02AF5
:10062000314EB7070908080C020D0B0D020C080823
:10063000083A3B33333B3A013A110B10001010904B
:10064000100017001D1810101010101000000000EE
:100650000706040404040404000400000027DF3734
:100660009A5DDD2C368BCD62A3B291B0596C169B8E
:10067000C566B1195C2817CA45BA53368B2D63A7D6
:100680007C637FCEF08205BC21C0CC6073CA9D6FB5
:10069000ED2619090909ECEFED2F5806B0000156B7
:1006A0000110D009DC107845189537BCDFE14018FF
:1006B000190CD99FE9B81CBD7A75272A21AAA871FF
:1006C000339C2C17D30BF1EAD5E305EDC8F278196A
:1006D0003D0327DF1776BA6AB9502E940BA509455A
:1006E000004239B0D82C368BCDE240B9500E762579
:1006F000E542B950339BCD17F6E70C2F58C01306CF
:10070000303259DC7CC12736991969424202FB7BA1
:10071000FB0B96012C4080550004747A15DE1132D3
:10072000C20B1EEE32B810460643F6673A2E47AFAC
:100730005EDD894A882A6A3C5037C3C1F6845EBDB3
:10074000669D1487CBE5F1327A06279F2FD8E9AA58
:10075000E542B9502E9402A19441392137E486DC58
:10076000901B72434E3A1BB9A1DDE6C207F7B7B83A
:1007700064B178C20692C9E2414E7C6B931931266E
:10078000B0BFBF1F0B0359808C05202870062EC0F8
:100790000B823D70E22BBB0C06C321FBB31D97A35C
:1007A00057274B63100928A2CA74B05D2EAF868B01
:1007B00057AF5927C5E1625D469F0127DF2756D60F
:1007C000888BCDE042B9509A500420940BE542B991
:1007D000502E940BE542B950BB9A4DB950339BCD86
:1007E00017F6E70C2F58C01B02CC0C36A73CE05381
:1007F000BB4946424202FB7BFB0B96012C408055D5
:100800000004740237045E1146E5091FD8E1401860
:10081000190CD99FE9B81CBD7A75272A21AAA8719D
:10082000339C2C17D30BF1EAD5E305EDC8F2781908
:100830003D030B4F3A9028250C6032D90C93F2708F
:10084000C89883BA5C1EE80A03070B4F5AA5C8660E
:100850000093C96658078B1743C61C24232307320D
:10086000C31E0B8F3180140D41E0821CC19903F02F
:10087000620C9CA5B9AC4DE7620C0B4F2713198293
:100880002200A10806A0A4CF525252128100902D3E
:10089000105A5242030B0F37072A18108100200A02
:1008A00029BB0F52424343350819D5868686A60BCD
:1008B0004F1BAD220A8A008422188092863729298C
:1008C00089894000C8168829293B098FDB13012636
:1008D00050603139A03F0A094F0724202C16D04020
:1008E0008145032ABF08894F6E16308005540C02DB
:1008F00000021188FC2000098FDBD39C9775388C8F
:100900005FC115098F07649CC631A7B1E527700543
:10091000098F6B1CF63CE5CC457E8057000D8F3B64
:1009200007B2C20694A1A0062630601C387002C22D
:10093000048EFBB28E5C628E0D8FBB9331C2069427
:10094000A1A006265080BEE048D8C26D5FF6C983DC
:10095000E90D0D8F133A980D1B5086821A9840B5F9
:100960001F000E81E3BAEC9B9B404F0D8FBB933170
:10097000C20694A1A006265080BEE048D8C26D5F92
:10098000F6C983E90D0D4F3B9B8E4D006100821827
:100990009940491FB280B2806397CB8EA325A407EC
:1009A0000D4FBB9B8E490061008218992C1C2F595A
:1009B0002C8670EB72D97135CE6E0D8FBB9331C220
:1009C0000694A1A006265080BEE048D8C26D5FF60E
:1009D000C983E90D0DCFC7B98E7C2EF311E4705891
:1009E0009775599775D9D90D8FBBF394CFB1E90B92
:1009F0008E635FD6655DD6651D6E0D8F738D5B3E14
:100A0000C7B41FC8E1B22EEBB22E6BD0130D8FBB53
:100A1000F394CFB1E90B8E635FD6655DD6651D6E2D
:100A20000D8F3B87C3387AF59A45DF709AF3B22E63
:100A3000EBB22E6BD0130D8FBBF3D4A357AF393D60
:100A4000E138F6655DD6655DD6E1060D8FBBF394A2
:100A5000CFB1E90B8E635FD6655DD6651D6ED5F0AF
:100A60008D14A1C881CFD9F1AF2000199F270E8422
:100A7000C998008F0207CB67084042F800671E50F4
:100A800064584AA650197DC081C5449CEDB3E80A5C
:100A9000C0211DCFB973EC29EC24A771600101CDF1
:100AA0001830E080FE2A6E822B6F5CE38D6EC2915F
:100AB000EF0251FF0079FF01D8FF005E0000D20075
:100AC00000C71E320126011201FA00E400D400C45E
:100AD00000AC00C0F8FCFEFEFFFFFFFFFFFFFEFEC4
:100AE000FCF8C0FFFFFF7FFFFFFFFFFFFFFFFF7F5F
:100AF000FFFFFF10100080F018ECAC1EFEFE1EACD5
:100B0000EC18F08000007F3F1F3E7E7F1F1F7F7E1E
:100B10003E1F3F7F00050301030703010503040691
:100B20000706040703010307030502010703040680
:100B300007060502040202030304073E41553E0373
:100B4000075F2E140307142E5F08083C42BDADA5B5
:100B5000BD423C003C42BDAD423C0000003CFFC3F6
:100B60003C0000003C42A5BD423C0037973F133893
:100B70000100135080004C112E201C44DC80ADC4B9
:100B8000600BB8217800E102E2040880021300380B
:100B900001BFDEAB57BE332F000000C08E17478762
:100BA000A3C3515407822A451564A8D2E1E87074A2
:100BB00078311B000000B8CCEF70F5EABB71904CA7
:100BC000F4120032701C12A10020C010EB0C900136
:100BD0001080228250B0425101280002500004A02F
:100BE00000084001502958A120881420002340A665
:100BF000150780005030390C1901201765060F03C6
:100C00000B10000000A0F0D0A080000000FC022922
:100C10002028082902FD02FC0605110A171B0E11E7
:100C20000605000C161F0C00040406090F060A0F27
:100C30000F08090D0F0A090B0F0F03020F0F070D05
:100C40000D0D0F0A0E0E010D0F030E0B0B0F0705F6
:100C50000F0F0C083C428181818181818181423C5E
:100C60000B0DC7831B2363FF03037B030318181BB0
:100C700018181F18181F1F1FB5018F016A014601A0
:100C8000B90272021B02D6010F0FB4698619AA4A73
:100C9000D765A844356B65656D0406B00C1A3182C2
:100CA00020208220468C187429127404B187AB9CD2
:100CB000870014725204A0E398E1CA69084021CF6A
:100CC0006195705AB0C7690840214F510168E0B47E
:100CD000608FD390D07159123A002997BF7ACD2CEA
:100CE000E3093C7A444E0C9617FFAEF7EF7204E02E
:100CF000001CF6EFE4B567AE5E7DCE95EF71E6CCF5
:100D000099D75EBD72F635FFFFFFFFFFFFFFFFFFC4
:100D1000FFFFFFFFFFFFFFFFFFFFFFFFFFFFFFFFE3
:100D2000FFFFFFFFFFFFFFFFFFFFFFFF1F1F1F1F53
:100D30001F1F1F1F1F1F1F1F1F1F1F1F1F1F1F1FC3
:100D40001F1F1F1F1F1F1F1F1F1F1F1F1F1F1F1FB3
:100D50001F250DFFFFFFFFFFFFFFFB0303BB034743
:100D6000FFFBC3033F83FBFFFB0303BB13FF030333
:100D7000FFFFFFFFFFFFFFFF1F1F1F1F1F1F1F1B87
:100D800018181B181C1F1F1B18181B1F1F1B1818B7
:100D90001B191F19191F1F1F1F1F1F1F1FCF03A85C
:100DA000037B0357032B03FE0249050105D8048F7B
:100DB000044804010412100080403D010101F404C4
:100DC00004F40101013D408000F7E8D1C0DCA241FC
:100DD00058444E5841A2DCC0D0E8F7008040BDC165
:100DE000C101F40404F40161E1FD408000F7E8D79B
:100DF000C3DDA25D7663775F5DA2DCC1D7E8F70053
:100E000080403F151501FC7C54D4011F15354080EE
:100E100000F7E8D1C0DCA241545A5A4041A2DCC0DC
:100E2000D0E8F7118761C284EE100830901B72433E
:100E3000061008D9850993009B0FFF7E01F605C1B6
:100E40000598053F87ABB042A9A5D4526A29B5944D
:100E50005A4A2DA596524BA9A5D4526A29B5945A3F
:100E60004A2DA596524BA9A5D4526A29B5945A4A3F
:100E70002DA596524BA9A5D4526A29B5945A4A1663
:100E800074010B0D0303BB2323FF03037B03031830
:100E9000181B1C181F18181F1F1F0F0FB469469C22
:100EA000E070F596E100E35A59591B0105582E9759
:100EB0000B414004415C2E97AA22414700100EBA14
:100EC000B6BE5E3EFE7E7E6E76EE3E5EBEBEB60474
:100ED0000222142438051D252D140C02360A040C98
:100EE0000E0C0E0F0A00080C0C0E0E0F0E0C00005C
:100EF0000000000000000000000000080C0E0F0EB3
:100F00000E0C0824040C020402050A000804040262
:100F10000601020C000000000000000000000000BC
:100F20000008040E01060204083221FFF20C6C6C6A
:100F30004824000000008600FFFFFFFB83FD83FBC9
:100F4000FFEFDF81FBF7FFFBF789F7FBFFFFFF00F8
:100F5000008C0000000024486C6C0CF3FFFFF30CC5
:100F60006C6C482400000000CC000181C1C1C1C1EB
:100F7000C1C10181C1C1C1C1C1C10181C1C1C1C161
:100F8000C1C0008C0000000024486C6C0CF3FF3FD3
:100F9000330C6C6C482400000000C0000C8CCCCCDE
:100FA000CCCCE018C4320A0A0A0A0418EC8CCCCC67
:100FB000CCCCC0C8008C0000000024486C6C0C73C2
:100FC000BF00000C6C6C482400000000C0000C8CBA
:100FD000CCCCCCCCFF00FF00000000000000FF8C58
:100FE000CCCCCCCCC0C8008C0000000024486C6C79
:100FF0000C00FF00000000000000000000000000E6
:1010000000000000000000000000000000000000E0
:1010100000000000000000000000000000000000D0
:1010200000000000011512FF7F7FFF0FF70BF3DBBD
:101030004B394ADBF30BF70FFF7F7FFF00FF000008
:10104000ABAAA9A8A9A9A9A9A9A821220100FF00C2
:10105000000003000002020202020202000000007F
:10106000020000030000000000000058FCFEFFFF2B
:10107000FEFC580000000080800000C0E0F0F8F89E
:10108000F0E0C0000080800000000058FCFEFFFF80
:10109000FEFC580000000000C0E0F0F8FCFEFFFF7E
:1010A000FFFFFFFFFEFCFCFEFFFFFFFFFEFFFFFF59
:1010B000FFFFFFFFFFFEFFFFFFFFFEFCFCFEFFFF49
:1010C000FFFFFFFFFEFCF8F0E0C032100000000060
:1010D0000058A45AB5255AA458000000008080008A
:1010E00000C020D0A828D020C000008080000000D0
:1010F0000058A45AB5255AA458000000000040A08A
:1011000050A8542A158AA4A48A352AB4444241A07E
:10111000AAB5AAB7ADA2A5A1A2ADB6AAB5AA4041EB
:1011200042A4346A158AA4A48A152A54A850A0405F
:10113000090E07F986AA82AA86F907003F20242A09
:1011400026203F00E0F0F8FCFCFCFCFEFFFEFCFC6F
:10115000F8F0E00103070707070707070707070776
:1011600003010F0BE010E814E4B4947295B6E41494
:10117000E810E00102050201030202020301020578
:1011800002014B1CFFFFFFFFFFFFFFFFFFFFFF7F81
:10119000BFFF80FEFE00FF0000606060606763616B
:1011A000616161616161616161616161616161612F
:1011B00061616165690161010101010101010101D3
:1011C0000101010101010101010303070F6F0FFF7D
:1011D000FFFFFF7F43BD423C722A262A723C42BD7C
:1011E000427F0002000000FEFE00FF0A0B0A0B8A8D
:1011F0004B2AABAAABAA4B8A0B0A0B00FEFE0000DF
:1012000000773233323332333233323332333233A4
:101210003233320000000000FFFF07F71717109F5E
:101220001D99919F911F1D19919FF1BF50F00300CF
:101230000000FFFF00FFD3D2D3FE01FC030000003B
:10124000000001FED3D200FFFF00000077333333EC
:1012500033333333333333333333333333330003C1
:10126000000000FFFF000F0A040802020200020053
:1012700000000001010F0A050F000000000F0F0021
:101280000F0D0D0D0F000F000000000000000F0DEE
:101290000D000F0F00000007030303030303030304
:1012A00003030303030303030300030000000F0F02
:1012B000FEFEFEFFFFFFFEFEFEFEFEFEFEFEFEFE4B
:1012C000FEFEFEFEFEFFFFFFFEFEFCF87F7F7F7F3F
:1012D0007FFFFFFFFFFFFFFFFFFFFFFFFFFFFFFF9E
:1012E000FFFFFF7F7F7F7F7F00000000000303037D
:1012F00003030303030303030303030303030300C1
:10130000000000001C12FE02FAF575F57ABA5AAA1E
:10131000CA3A3A3ABA3ACAAA5ABA7AF575F5FA0204
:1013200004F87F405F5F5BDC1D9A9F9F9F9C9894B1
:101330001B1C1F1F1F1A1D1CDB5F5F40407F00002E
:101340000000000300010101010101010000000093
:10135000000000000300000000009BCF39EC79CAB8
:101360006B8FE3304F3DFA9CE3B8ACC3217F5F1B2A
:10137000C733A7358FBECE91CF791CA71CE73A653E
:1013800002041055A055A075FFD5FF6E0096000011
:10139000000F008300960000000F004A0196000035
:1013A000800B024B0000000F000B024B0000800B73
:1013B000024B0000000F0070034B0000000F009371
:1013C000024B00008093028800DC038800700388D1
:1013D00000DC03880010038800DC038800E4028836
:1013E00000DC03880093028800DC0388006E02881A
:1013F00000DC03880093028800DC038800E4028894
:1014000000DC03880093021001EE011001B8011006
:1014100001EE0110014A01420400800B02850088A0
:10142000018500B80185000B020A0188018500884A
:10143000010A014B0285000B028500700385004BF9
:10144000020A010B028500B8010A016E0285006ED6
:101450000285006E020A014B020A014B0285000B55
:101460000285000B02150200804A01960000000F61
:10147000008300960000000F006E0096000080DCE4
:101480000364004B026400BA026400008000000A9A
:101490004100010528000205230100021401010199
:1014A0000F010201140200011E08081C1422417FD2
:1014B0000000001C1C3E7F7F002A49A1CF536421FD
:1014C000F1DEB2981C330104985E51800520C042C1
:1014D0008E28C00200E4D160920619DD197F588E73
:1014E000005C40380113FFAF0C407541A2408D12E3
:1014F000A40E407541A2408D07EA00821EA807EAAB
:10150000813A80A007EA817AA00E067A7508C32185
:101510000C87301CC27080C3810C87301CE0F0EA5D
:10152000D5050C07381CE07020C3210C07381CC8F7
:1015300070315DC070381DE07020C3E1F4EA0286AE
:1015400003586E8643180E7078F56A39580E4A8033
:101550006139580E96831260580EC6029AC0520521
:10156000864582C6029AC05205460A681C10184079
:10157000351844B180C60181015403933081100EA7
:101580009C090093308110BEC04C33F9C47EB7CBA8
:10159000A2FBBECB48FCCABE3BD8FBBEEF3B6C12E5
:1015A000BA53AAA4F71D66B6EFF67DDF771979CD99
:1015B0004C3379094CC204209C3910024CC2846817
:1015C0008101816114A8281289161810184681B665
:1015D00080C6018101548341140B681C10184035EA
:1015E00030091308E1C099002F996C16892CAC2C96
:1015F000AC2C4C586C54AA48B0A2A2202A22A22299
:10160000222A03511114095616561622A2B259085D
:101610004A102B12AC04B1A2228385A0A858916075
:101620002588092A1B95121656165654AC2C425181
:101630001988042B0B2D8B812CAC2C64B0983C01A9
:101640009E702004988409D1020302C328505124BB
:10165000122D3020308C026D018D030203A8068309
:101660002816D0382030806A60122610C2813301DB
:101670006012260F3797C1CA306F5E2664C7585371
:10168000C972355F78F79D9DA935C6014F1C6F8ED5
:10169000D3B132D77A755FB976DCDF3DBCEDACD51E
:1016A00067C0244C00C2990321C0244C881618102E
:1016B0001846818A2291688101816114680B681C37
:1016C000101840351844B180C6018101540393308D
:1016D00081100E9C0900933081F064E923AF0FDE86
:1016E00073140FFE82767F5D7D9B8FCD676BF989CA
:1016F0009CA8DB70CBF3C9E936C65C3E230C26619F
:101700000210CE1C0801266142B4C080C0300A54C9
:101710001489440B0C080CA340950BE542B9502EDC
:10172000940BE542B9502E940BE542B9502E940B20
:10173000E542B9017746C63872A15C2817CA85729E
:10174000A15C2817CAC3BEE042B9502E940BE542F3
:10175000B9502E940BE542B9502E940BE542B95086
:101760002E940BE5C27B8FBCC8EE50DF71A15C28C4
:1017700017CA8572A15C2817CA8572A15C2817CA8E
:1017800005010000FA00EE01FA001003FA00E4027D
:10179000EE020000FA002A02FA000000FA00EE0150
:1017A000FA001003FA00E402EE020000FA002A0236
:1017B000FA000000FA00EE01FA00DC03FA00700300
:1017C000EE020000EE028801FA000B02FA004B0262
:1017D000F4019302FA000180A187DD0D9BBB201B61
:1017E000C46B2EBDE43864E33878DCB75EC04B6F61
:1017F000A11BC51B0D0F0CA4C0400A0CA4C0400ABD
:101800000CA4C0400A0C78C1993367CE9C7904CDF2
:1018100087DDD213C7018702DCBA45397281E091B6
:101820000B04BFD52D3D71DC9BC531975E7296ECE4
:10183000E0730F1838782CDCD6A7C61EA7E04D72CF
:10184000EB969E380EDC088D8F119225244B48961E
:10185000902C215942B204762EEBB22EEBB22EEB35
:10186000B28E23474D474646F3DB46B3F839AC7496
:101870001C59E9D8640500002500000000000000A4
:10188000000104000000000000001E0078003C0081
:1018900001309F0974FF00010106B0FF000101063D
:1018A000F8FF00010106F0000001010765FF0001DB
:1018B000000325010001000425010001020200FFD0
:1018C0000001010542FF0001010535FF000101058E
:1018D00028FF0001010892FF00010139063906398D
:1018E0000639062F062406621103106688336688BF
:1018F000338FCF0B591B60C3458005DE0039F38D54
:101900005EBD79EDD59BD79E59100E060E86C48814
:10191000468E460E468648C48E060E08110C1428C4
:101920001502010825102111240A160904010307D4
:101930000F070B0502010904080C0E0F0E0D0A0417
:10194000083F8FAE055CBD7AF5EAD5AB57AF5EBDFB
:101950007AF5EAD5AB57AF5EBD7AF5EAD5AB57AFAE
:101960005EBD7AF5EAD52BB0969D1C2817CA857204
:10197000A15C2817CA8572A15C2817CA8572A15C70
:101980002817CA8572A15C2817CA8572A15C28171E
:10199000CA8572A15C2817CA8572A15C2817CA8102
:1019A00059298F198370436EC80DB92127C6B8AC69
:1019B0000570436EC80DB92137E486DC901B724375
:1019C0006EC80DB901AC2547C28572A15C2817CA43
:1019D00009387B4261436143614361436143614331
:1019E000614361436143614361436183721229979B
:1019F000CC2937E486DC10B7885BC42DE216718BE6
:101A0000D885DC10B7885BC42DE216718BD885DCD5
:101A1000901B72C339D97B7AF5EA1CEA45BDA81739
:101A2000F5A25EF4EA1CEA45BDA817F5A25EF4EA49
:101A3000D5AB73EFB357AF5EBD7AF5EAD5AB57AF11
:101A40005EBD7AF5EAD5AB57AF5E3D032DDF3F179C
:101A500038817000022C60D16C542E04592C368BC6
:101A6000CD62330972201CF963085A9521CC516F5D
:101A7000ECDF3FC2CD0E2C38D0ED3799400018C0B6
:101A8000E05D8BA0DB8882512480E8B87A136EE099
:101A9000AD37E106DEBC8A3004109B091592F229AD
:101AA0000712100421C8F02314204BC41DC029487C
:101AB00018008056200005084801009022000045CB
:101AC00000000A10810A2A0301C029E2369052BEA2
:101AD000030B0D0703FB0307FF0703FB03071C189A
:101AE0001B181C1F1C181B181C0703FB0307FF8374
:101AF00083DB1B1B1C181B181C1F18181B181CFF32
:101B0000FFF70303FF0703FB03071F1F1F18181F1F
:101B10001C181B181CFFFFF70303FF8383DB1B1B31
:101B20001F1F1F18181F18181B181CE3633B03C73F
:101B3000FF0703FB030719181A1B1B1F1C181B1890
:101B40001CE3633B03C7FF8383DB1B1B19181A1BB2
:101B50001B1F18181B181C6363BB0347FF0703FBFD
:101B600003071C181B18181F1C181B181C6363BBC9
:101B70000347FF8383DB1B1B1C181B18181F181837
:101B80001B181CFF1F870303FF0703FB03071C1C15
:101B90001D18181D1C181B181CFF1F870303FF832B
:101BA00083DB1B1B1C1C1D18181F18181B181C83FB
:101BB00083DB1B1BFF0703FB030718181B181C1FE5
:101BC0001C181B181C8383DB1B1BFF8383DB1B1B65
:101BD00018181B181C1F18181B181C0703DB1B33B5
:101BE000FF0703FB03071C181B181C1F1C181B18DE
:101BF0001C0703DB1B33FF8383DB1B1B1C181B1819
:101C00001C1F18181B181CFB7B0B83F3FF0703FB1F
:101C100003071B181C1F1F1F1C181B181C07083E3E
:101C20007F4377617F3E0D10F008F40C24754674F5
:101C3000240CF408F000013AE7FE02C7C606FF2EA6
:101C40001900E010E81848EA8CE84818E810E001AC
:101C5000023DE6FC04CECC0CFE2D1A01F008F40C7B
:101C600024754674240CF408F000011CF3FE02C72E
:101C7000C606FF160D000C10000080FCD6829646AA
:101C8000FEBC0000000F081F001818001F1C0700F2
:101C9000000000F8AC042C8CFCF80000000F091FB9
:101CA000011919001F1C0700000000F8AC042C8C5F
:101CB000FC780000000F091F011919001F190E0000
:101CC0000F8F9FE04066CB1C0CBE380F3185216022
:101CD00010110938A0B7C61CE602E0F0F8FCFCFCC5
:101CE000FCFEFFFEFCFCF8F0E00103070707070716
:101CF00007070707070703010F0BE010E814E4B418
:101D0000947295B6E414E810E001020502010302A2
:101D100002020301020502010B10FFFFFF5F0F2FFC
:101D20005F7FFFFFFF03FDD6DFD7F7D6FD02FD0380
:101D30001410FFFFFFFFFFFFFFFFFFFFFFFFFFFF8D
:101D4000FFFFFFFFFFFFFFFFFFFFFFFFFFFFFFFFA3
:101D5000FFFFFFFFFFFFFFFFFFFF1410F04C141AFF
:101D6000FF0033332211000004C0E900A00014007A
:101D7000FFF0F6F606E6E606F60000000000F0F0DA
:101D8000FF001400090E07F986AA82AA86F9070047
:101D90003F20242A26203F001C10FFFFFFFFFFFFEB
:101DA000FFFF003333221100001A04C0E91DC432C2
:101DB0000A0A0A0A051DF0F6F606E6E606F600002F
:101DC000000000F0F0FF04C0FF00FF008040A050C2
:101DD000A8000810FF00333322110000FF00333346
:101DE000221100001720EFF906363624120000F900
:101DF00006363624120000F906363624128A54AA12
:101E000052EA34DA54D45AD42AD2A24A94CAC4CA5E
:101E1000142A52A21A04C0E967AC532E272ED3EC21
:101E200067A04C141AFF00333322111A04C0E9656D
:101E3000A04C141A04C0E965A04C141AFF003333F7
:101E40002211C0E0F0F8FCFEFFFF08088040A0501F
:101E50002814CAC415D7EFBB7FD7DEBBF73F9373F7
:101E60007AF5EAD5AB57AF5EBD7AF5EA041597DF90
:101E7000C9057008B122A104370447B9442E793F3F
:101E8000A5C04026608B808214509085E0AD5B41F8
:101E90007512000000E733CFFC5ACF9C010506ED18
:101EA000F6C9F6EDFDFDC0EFEFFCFBC0FBFCFDC18C
:101EB000FEC1FDF7EFC0FDFBFDFBC4FBFDEDCDE179
:101EC000ECEDFDACA6F0F98BCF2BACA1DC901B7236
:101ED000D223596D1938A1B0A1B0A198C1A02D018C
:101EE000010704041E140505000202040404191964
:101EF0000000140101050303232300000006060669
:101F000006061E14020200000019000B0204030959
:101F10005C010023000E0205050B0300041E000BEC
:101F20000305050B01010228000E030507104202FC
:101F300008320412060807102000041E040B0204D5
:101F4000050B1C010228040E0205050B5000001EA3
:101F5000040B0205050801010228040E0305071001
:101F60001C030A3C08170508071010000023080B83
:101F7000020505084201022D080E0205050B1C0092
:101F80000423080B0306050B10010428080E0306A2
:101F900007100F040C500C1A000000004200050A44
:101FA00005050770031900930219000B021900E0E0
:101FB00006190000805D01FA008801FA00B8017777
:101FC000015D017D0088017D00B8017D005D01FAA1
:101FD000008801FA005D01FA002601FA000B02FAFE
:101FE00000D201FA00B801FA008801FA00B801F441
:101FF000018801FA008801FA005D017D0088017DF9
:1020000000B80177015D017D0088017D00B8017D88
:10201000005D01FA008801FA002601FA002601FAA3
:10202000000B02FA00D201FA00B801FA008801FAA6
:10203000005D01F4010000FA00BA02FA009302FA0E
:10204000004A01FA008801FA000B0277014A017D7B
:10205000008801FA000B02FA00D2017D000B027D1C
:10206000008801FA00B8017D0088017D00B8017D7B
:102070000088017D00B801770188017D00B801FA70
:10208000008801FA005D01FA0088017D005D017D94
:10209000004A01FA008801FA000B0277014A017D2B
:1020A000008801FA000B02FA00D2017D000B027DCC
:1020B000008801FA00B801F4014B02F401B801F400
:1020C00001BA02FA009302FA004A01FA008801FA02
:1020D000000B0277014A017D008801FA000B02FA29
:1020E000005D01FA0088017D005D017D004A01FA72
:1020F000008801FA000B0277014A017D008801FA8D
:10210000000B02FA005D01FA0088017D005D017D8F
:1021100000D2017D00B8017D00D2017D00B8017DB3
:1021200000D20177015D017D004A01770188017DC0
:10213000005D01FA0088017D005D017D00D2017D16
:1021400000B8017D00D2017D00B8017D00D2017789
:10215000015D017D004A01770188017D0000802535
:102160008FCF66387AF5EAD5AB57AF5EBD7AF5EA20
:10217000D5AB578F64BEEBA050101011101011108A
:10218000101110101110101110101110101110104A
:102190001110101110101110101110101110101139
:1021A000101011101011101011100A65140000FC0D
:1021B000FEFEFEFEFEFFFFFFFEFFFFFFFEFCB8F08F
:1021C000FEFFFFFFFFFF7F7F7F7F3F3F7F3F1F1FA0
:1021D0000F000103030707070707020000000000C4
:1021E00000000012130000FC06FACA922E9DE5C9F9
:1021F00096CD6549165CB8F00E41AC563B874D4311
:1022000041442E37402217100F0001020205050439
:10221000050502000000000000000001010000B8F8
:10222000FCFEFFFFFFFEFFFFFFFEFEFEFEFEFC00CA
:10223000000F1F1F3F7F3F3F7F7F7F7FFFFFFFFF1D
:10224000FFFEF00000000000000000020707070783
:1022500007030301001213B85C164965CD96C9E562
:102260009D2E92CAFA06FC00000F10172240372E4E
:102270004441434D873B56AC410EF0000000000046
:10228000000000020505040505020201000100002E
:10229000011F168040A05028D4EA723A9A9A12324E
:1022A000F5E191E1F234129A9A3A72EAD42850A0F8
:1022B00040800700020500E73F3C1D5CDC3DA42098
:1022C000A9A429A0A43DDC5C1D3C3FE70005020059
:1022D000070000000002152B242D2C2C262A2A2A68
:1022E0002A2A2A2A262C2C2D242B15020000000035
:1022F000000102011C088046DFFF07038247DF7FE1
:10230000870307070E1E362E546C58B8B8D8B85C31
:10231000631C2060E0E0F0F8FBFAFCFFFEFCF0F04C
:10232000F0F0E00000000000000107070F0F0F07AA
:1023300007070301110C2060E0E0F0F87B6A6C7F76
:10234000FAFCF0F0E050A0000000000000010303E0
:1023500005030503010201000001011E1000000039
:102360000000000000804000000080000081820228
:10237000B2F4F8F870307070E0C08020405060E82F
:10238000E8F0E0E1FA7F3F02070FF50FFFFBFCFFEB
:10239000010000000C229F7F0A000001BB074A07D2
:1023A000D2065D0662084A083208AF0895087A0826
:1023B0003C7EFFFFFFFFFFFFFFFF7E3C003C7EFFF8
:1023C000FFFFFFFFFFFFFFFFFFFFFFFFFFFFFFFF1D
:1023D000FFFFFFFFFFFFFFFFFFFFFFFFFFFFFFFF0D
:1023E000FF7E3C33083C4281BD89BD81BD95894259
:1023F0003C003C42BDA5A5A5A5A5A5A5A5A5A5A54F
:10240000A5A5A5A5A5A5A5A5A5A5A5A5A5A5A5A57C
:10241000A5A5A5A5A5BD423C090404080007000325
:10242000000804E608D708CA0810090309F7080FCE
:102430008F3A33620F6B1EF95C0A9FC969AFCBBA42
:10244000ACCBBACC020F8F3A8101281C10986302E2
:102450000219280844372585CF0027849CC65E7B57
:102460005C8DB3BA09A00985096B09520938091DA9
:10247000094B0A360A200A0D0AFA09E709D4095459
:10248000415241544F4D414D4F4D454E4F56415392
:102490004F53494B414B494D554E55545553555249
:1024A00045534554455045504F5049504100080848
:1024B0005040584455407F000808007F405544581C
:1024C000405008080A021A22AA02FE00080800FE6C
:1024D00002AA221A020A204982802078208053749E
:1024E0006174BDC68088203A0A53B3203A0A892015
:1024F0003A0A476F6C64203A0A44756E67656F6EDE
:1025000073203A80B62052756E65738020456E65E3
:102510006D7920537473804E616D653A0A88203A54
:102520000A89203A0A8053C4208A0A4E6577208A95
:102530000A8052C1C2208A80D280B168B921808BC2
:1025400020CA666C696374B880208CBC8D2E805064
:102550006CCB20616E208E20808B20CC6761CAB846
:10256000802068C86C7468208F2E80B790209120DE
:1025700080206870208F2E8020922C2080208D203B
:102580008C2E80932047656C6174CAC97320437593
:102590006265209120610AB6802094802095209663
:1025A00080208B20B3B89020972066CC65640A9871
:1025B000207669BE6167CE7320952098206375727E
:1025C000CD21808B2073636F72B880209920636F58
:1025D000CA732E80209A208F2E808B2064696564B8
:1025E00021204C6FCD2068616C66BC9B0AB5209998
:1025F0002097209A208F21804750805350808B2035
:102600009C20804EAE20218041535441524F4B803C
:10261000B64865CC206CC52056616D706972C62EB7
:102620000AB79D208733202D209E2086328020529D
:10263000C120496E2050C863652046696C6D6F7477
:10264000652E0AB79D208731202D209E2086398057
:10265000B650B420506C6179204F6E205461706583
:102660000AB5446576656C6F70B832303139805781
:10267000656C636F6D65207472C4BECE20BA98BB62
:10268000776E806F6620477269A3642E2093206561
:1026900076696C209080686173207475726EB8CB17
:1026A0002061BE20CABA70C76BCA8070656F706C3B
:1026B000652E20506CC8CD2068656C7020CB2064DE
:1026C0006566C874809F206372617A792077697A21
:1026D000CF6421804265207375CC20BA657175691D
:1026E00070209BCD6C668070726F70CE6C792E20DE
:1026F0008B20A02070B420222425BB8061636365F9
:102700007373209B2069822097BB80766965772050
:10271000CAA36D6174C3206162C97420A1206F7265
:10272000809B20656E656DC52E80496E20636F6D40
:102730006261742C209C20947320BA7363C280273A
:10274000706F6BCE27206897732E2050B4B920226B
:102750002325207769BE809C2098209473202D200B
:102760006AC720978074C9636820947320BACD6CBF
:1027700065637420986D80A320CC9CB92E204E6F89
:10278000726D61BE7920A180A0209C2033207469E5
:102790006D65732C2062757420A480C06D73206DEC
:1027A000696768742067BF20A1208E2E80437279EC
:1027B0007374616C20488180486967682048818013
:1027C00052C96E6420488180A520A6808820A680FA
:1027D000537065B8A680A520426C617A658048C8B0
:1027E0006CB92057CA6480526973B9205374CF8082
:1027F00056656E6F6D204DBD803520A520A78048A1
:10280000C86C2032302048508033352044616D61DF
:102810006765803220502E20A780D246BF8380D2A9
:1028200046C9728380D2D1CC65838054776F2050A3
:10283000616972732180D24675BE2048C9CD21805E
:102840008B207069636BB8757020A420485021807C
:10285000B620D1616E6B20A120A320736176B90AE6
:10286000B520CB2095209820437572CD2180204F34
:1028700076CE7772C0206578BDB920A93F0AB5B57C
:1028800084B6208580B75374CF7420D26E657720CC
:10289000A93F0AB584B6208580B78A20AB2072C1D3
:1028A000C2642180B6208B20AC20AD0A20AEBCAF24
:1028B000206881732180B78B20AC20AD2061730A22
:1028C0006D616E79BC98CD20706F74C3730AB76167
:1028D0007320A120A02063CF7279202180B6B02080
:1028E0009F20C06D3F0AB684B62085808BD0B12072
:1028F000AD0AB6B220992180B68B2061CC2063CF7F
:102900007279B90A20AEBCAF2094732180B7B02091
:102910009F20943F0AB784B6208580208BD0B120B9
:10292000AD0AB620B22053502180B5B641206D6F5C
:102930006E7374CE2092209680D1726F772098208B
:10294000947320616761CA2180B78A20AB2073C469
:10295000642180656C6D65F46E76656E746F72F9D6
:10296000206F662061204B696E64A12223252059C7
:1029700065F3222425204EEF3138B83138B448654C
:10298000616C74E8446566656E63E547616DE559A1
:102990006FF57074F364616D6167E565787472E179
:1029A000706F696E74F341737461726FCB73746F7F
:1029B0006CE561747461636BF35468E572756EE580
:1029C00066726FED796F75A1616EE47468E5676F8B
:1029D0006CE4736B696CEC796F75F2636173F4424C
:1029E0006F72EE4465E3746869F36361EE796FF5C5
:1029F00072756E65F3666FF2736F6DE5466972E529
:102A0000506F74696FEE444DC74B696E64A1676186
:102A10006DE55965F373746174E5616C72656164A9
:102A2000F9686176E56F6EE574686F73E54275F974
:102A30006E6FF4656E6F7567E86B696CEC72657349
:102A4000F320202020A02020A020A06564A0696E93
:102A5000E7746FA02074EF206F66A06973F46CECCC
:102A60006976E56974E56573F46F72E5696FEE6127
:102A700076E56965F36963F3756DF065E16FF56996
:102A8000EE75F372E573E565F261F220646FA054B0
:102A9000E861A00308000000002F00003C7EC3F5A1
:102AA000C381B5CB7E3C00000000030000000000A5
:102AB000000000000000081C084020000808080072
:102AC00020000000003F213F223F203329272329F7
:102AD000371E113F37253D3F253D3905033F253F33
:102AE00007053F1400000000000000000000000087
:102AF00000000229062000203C0B3C3F253B3F21E3
:102B0000333F213E3F25213F05013F213B3F043F0D
:102B10003F000030203F3F043B3F20003F0E3F3F3F
:102B2000023F3F213F3F090F1F113F3F053B372D1C
:102B30003B013F013F203F0F300F3F183F330C3325
:102B4000033C03312D2318243C3E24183C24241834
:102B5000243E183428083E0A5C543C3E04383A00AF
:102B600000403A003E0834023E003C083C3C043C35
:102B70003C243C7C241818247C3C040C2824140499
:102B80001E243C203C1C201C3C103C3408345C506F
:102B90003C34242C01010704041E14050500020224
:102BA0000404041919000014010105030323230080
:102BB000000006060606061E1402020000000A4176
:102BC0000001052800020523010002140101010F84
:102BD000010201140200011EDE2711241FBECFEFE7
:102BE000DAE0DEBFCDBF11E0A0E0B1E0ECE8FFE647
:102BF00002C005900D92AA36B107D9F726E0AAE6E1
:102C0000B1E001C01D92AA36B207E1F715E1CDEEA1
:102C1000D5E104C02197FE010E94BE37CC3ED1070A
:102C2000C9F70E941D280C94C4370C940000982FFB
:102C300080910806923051F0933019F0911107C03D
:102C4000089590910B06990F890F0895880F909120
:102C50000B06FACFE9EAF1E081E0A0E0B8E00080FD
:102C60000EBC8111012C1197A0FDFDCF0192B9F787
:102C70000DB408952F923F924F925F926F927F9280
:102C80008F929F92AF92BF92CF92DF92EF92FF927C
:102C90000F931F93CF93DF93CDB7DEB760970FB637
:102CA000F894DEBF0FBECDBF1C015A8349830B874A
:102CB000FA013491319644914E83832F8F778F5F41
:102CC000682E712CC301820D931D97FD99C150E8A8
:102CD000251631040CF094C1842F8F738F5FAB01E4
:102CE000480F511D57FD8CC1603471050CF088C12F
:102CF000331F3327331F388B91E09D833E8136FF8E
:102D00001D828B0177FF04C000271127061B170BBC
:102D100007701127AB0177FF02C0495F5F4FFA01CF
:102D2000A3E0F595E795AA95E1F7F887EF8377FF9C
:102D30000CC00115110549F03197F887EF8348E081
:102D400050E0BA01601B710B8B01682F6695669588
:102D50006695877009F06F5F7B85A301415051092B
:102D6000711102C050E040E097E0A0E1B0E080E0E7
:102D7000512C412C912C812CE62FF0E0FD87EC8723
:102D80006C857D85861697060CF03AC1EE24E39497
:102D9000F12CFD0173E0F695E7957A95E1F76981ED
:102DA0007A81E60FF71FE4916E2F70E0FD01E77066
:102DB000FF2702C075956795EA95E2F7FD01319608
:102DC000FF87EE8760FF06C0FFEFEF1AFF0AAE85B0
:102DD000BF85DFCF31E0E316F10409F0A1C0EE8535
:102DE000FF8563E0F695E7956A95E1F769817A8159
:102DF000E60FF71FE491F0E0EE84FF8477E0E7222E
:102E0000FF2402C0F595E795EA94E2F7E170FF2709
:102E1000BF016F5F7F4F7C836B831296F12CE12C97
:102E20006B817C816E157F0509F4DCC0788977237E
:102E300059F0692F70E03D81332309F4B9C06E5910
:102E40007E4FFB016081862B915008F0C7C088231C
:102E500009F448C0DF80D80CF7E0FD150CF442C03F
:102E6000B101640F751F60387105E0F590E0002E28
:102E700002C0880F991F0A94E2F7D7FC15C03D2DB8
:102E800060E83603F0011124E20DF31DE40FF51F95
:102E9000BF0167557E4F5B01FB016081222309F46E
:102EA0008EC0682BF501608301151105D9F0F7E09C
:102EB000DF16C1F03FEFD316ACF0ED2DDD0CFF0BAC
:102EC0003196F695FE2FEE27F795E795E20DF31D67
:102ED000E40FF51FE755FE4F6081222309F473C00C
:102EE000692B60836E8167FF04C07D8181E0782754
:102EF0007D839FEF491A590A3B85332309F467C044
:102F0000415051094614570444F04FEF841A940A73
:102F1000A30141505109512C412C97E080E05EC043
:102F2000B701615071097A876987E1E0F0E00984AF
:102F300002C0EE0FFF1F0A94E2F7BF016F5F7F4FE1
:102F40007C836B83D12CC12CAE84BF84AC0CBD1CA4
:102F5000F50133E0F695E7953A95E1F769817A81D5
:102F6000E60FF71FE4916E2F70E0E7E0AE22BB247E
:102F700002C075956795AA94E2F760FF0EC061E004
:102F800070E00C2C02C0660F771F0A94E2F7EB8109
:102F9000FC81E60FF71FFC83EB83FFEFCF1ADF0AFC
:102FA00069857A85C616D7067CF2AE0DBF1D36CF71
:102FB000E7E0F0E0E61BF70BEE59FE4F43CF782F2A
:102FC000709567236FCF892F809568238ACF461429
:102FD00057046CF44F5F5F4F80E097E06FEFE61AA5
:102FE000F60A1ECF71E03889731B788BC9CE5FEF6C
:102FF000851A950A50E040E080E0512C412CEDCF3D
:1030000060960FB6F894DEBF0FBECDBFDF91CF91B3
:103010001F910F91FF90EF90DF90CF90BF90AF90F6
:103020009F908F907F906F905F904F903F902F90E8
:1030300008952F923F924F925F926F927F928F925C
:103040009F92AF92BF92CF92DF92EF92FF920F9337
:103050001F93CF93DF9300D000D000D0CDB7DEB761
:10306000DB014115510509F43AC1FA0194903196FA
:1030700074914E5F5F4FA92CB12CBA82A982222392
:1030800021F1E1E0F0E0372F377011F4F0E0E0E0FB
:10309000C72EC694C694C694CE0EDF2ED11CA9802E
:1030A000BA80CA9CF001CB9CF00DDA9CF00D112483
:1030B00063E0B62EEB1002C0EE0FFF1F2E9F6001E3
:1030C0002F9FD00C11244C0D5D1D29813A81280FB2
:1030D000391F3A832983121613060CF000C1803879
:1030E00091050CF0FCC09D01270F311D121613062F
:1030F0000CF0F5C0A034B1050CF0F1C0411551053C
:1031000009F4EDC03A2F3770632E9D01B7FF02C05E
:10311000295F3F4FE3E035952795EA95E1F7F22FD8
:10312000B7FF04C0662011F0FFEFF20F222733270C
:10313000281B390B97FD02C030E020E0A981BA813D
:1031400060E8F62EF81AA038B1050CF4F92CF21A42
:10315000AF2F0F2E000CBB0BFF3F0CF0A1C0EA2FCE
:10316000E095E983E1E0672F677009F4E0E0769588
:1031700076957695E70FAE0FB11D199714F0E8E03C
:10318000EF1B79807F0E772D60E87603D001112444
:103190008A0F9B1F820F931F262C062C000C3308CE
:1031A00073E0A2E0E712A1E0B92DBF19BA9FB02DDC
:1031B0001124AA2EB12C6981969E200D311D112457
:1031C0002A9DB0012B9D700D3A9D700D11246A014E
:1031D000C60ED71E0115110509F48A01950121506B
:1031E0003109620F731F060F171F6FEF70E0062C77
:1031F00002C0660F771F0A94E2F79B012095309575
:103200003A8329834E2E4F0E4B2F50E0AF9D400D39
:10321000511D1124741409F462C0DC01A755BE4F7E
:103220001E821D82512CF51409F451C0ED81FE81DE
:10323000EC0DFD1D249130E0022C02C0220F331F43
:103240000A94E2F762E0E61609F43EC07BEFE7126B
:1032500029C0F901E095F095FC83EB8330E020E094
:1032600077FC05C09C907B819722922A9C926620D5
:1032700071F0E6E0E7155CF04D01F0E88F0E911C6F
:10328000F4012081FC812F23232BF401208353940C
:103290002D813E812A0D3B1D3E832D831196C3CF88
:1032A000198260CFED81FE81E00FF11FE491F0E023
:1032B000022C02C0EE0FFF1F0A94E2F7BF016095D7
:1032C00070957C836B83CCCF69817A81FACF7394BC
:1032D000C40ED51E040F151F80589F4F9BCF2696F6
:1032E0000FB6F894DEBF0FBECDBFDF91CF911F9117
:1032F0000F91FF90EF90DF90CF90BF90AF909F9095
:103300008F907F906F905F904F903F902F90089597
:10331000E1EFF5E080E0919191118F5F95E0E73F5B
:10332000F907C9F70895482F20910301309104014E
:1033300086B52827C9019695879520FF02C024EB02
:1033400092279093040180930301641B770B0E94E2
:103350009637840F08959091EF05981721F0809388
:10336000EF051092E7050895E091F0058091E505DD
:10337000E43041F094E0E99FF0011124E254F44D6F
:10338000E4918E0F0895E9EAF5E0A08DB0E0A85A27
:10339000BE4F8C918F3F49F4838D811107C03496C5
:1033A00095E0ED3BF90789F7089581E00895EF92E4
:1033B0000F931F93EE24E394890120E00E941918D3
:1033C0001F910F91EF900895CF92DF92EF92FF92AD
:1033D0000F931F93CF93DF93EC017B016A01A90147
:1033E00020E00E943A1621E0A601B701CE010E941A
:1033F0003A16DF91CF911F910F91FF90EF90DF90E0
:10340000CF9008952091A1013091A2012770332718
:10341000232B51F49091BD059F5F891719F090936C
:10342000BD0508951092BD05089520919101E09188
:103430008F01F0919001CF010296909390018093BB
:103440008F01222319F085919491089580819181B3
:103450000895E1E7F0E080818D7F808310929100F4
:103460004698479810928E010895CF92DF92EF927E
:10347000FF92CF93DF930E94151A811520E89207DF
:1034800041F4DF91CF91FF90EF90DF90CF900C94BB
:10349000291A21E020938E01813020E8920751F40F
:1034A00080918C0190918D019093900180938F0178
:1034B0000E94151A97FD05C020918B01222309F463
:1034C0005BC020918A01211157C021E02093920115
:1034D000EC01DF77209709F052C081E080939301DF
:1034E00046983FE9C32E3FE0D32EE12CF12CCAEFE2
:1034F000D0E0E0918801F09189010995811103C024
:1035000081E08093930180919201882329F080913A
:103510009301882309F446C047980E94151A009722
:1035200009F444C09C01DE010E946D37DC01CB012F
:1035300029E0B595A795979587952A95D1F710928B
:1035400090002AE020939100D0929900C0929800B8
:103550008093940190939501A0939601B093970165
:1035600080917100826080937100DF91CF91FF9014
:10357000EF90DF90CF90089510929201A9CF9E0115
:1035800050E040E060E472E48FE090E00E942C376D
:1035900069017A0181E0C81AD108E108F1081092A6
:1035A0009301A7CF4699B8CF479AB7CF8FEF9FEF38
:1035B000DC01C5CF9C01E1E7F0E090819D7F908325
:1035C00081E0809391013093900120938F0130939B
:1035D0008D0120938C010C94351AEF920F931F9359
:1035E0003AEFE32E10E000E00E9419181F910F91AE
:1035F000EF900895EF920F931F933BEFE32E10E0AF
:1036000000E00E9419181F910F91EF900895CF9339
:10361000DF93C82FCF7760919A01CA3061F480910F
:1036200099018093980180919D01680F60939A01A0
:10363000DF91CF9108959091980120EEC13608F066
:103640002AED2C0FD82F6F5F062E000C770B892FD9
:10365000990F990B30919B0143E95AE2313079F48B
:103660000E94ED1A90919801C03229F0DF75D9348B
:1036700011F0C73239F49E5F90939801D9CF0E9420
:10368000FA1AF0CFC252C43010F0DC3411F49D5F4E
:10369000F3CF80919C018D5F980FEECF1F93CF9356
:1036A000DF93EB01142F8823C1F0FE019491219642
:1036B000112321F09038C9F78150F5CF97FFF5CF4E
:1036C000FBCF87FD17C087FF12C08F7740E063E50F
:1036D00079E281500E944E1B2196FE0184911123B4
:1036E00081F3803881F7DF91CF911F9108950E9477
:1036F000071BF2CF8F77DF91CF911F910C94071B9F
:1037000041E066ED74E20C944E1B0F931F93CF9330
:10371000DF9300D000D0CDB7DEB71C82FE01349617
:103720002AE0622F0E947C37905D92938111F9CF3D
:103730008F01F80181918F01882319F00E94071BE6
:10374000F8CF0F900F900F900F90DF91CF911F91B6
:103750000F9108950E94851B8AE00C94071BEF923D
:103760000F931F9332E0E32E10E000E00E9419183F
:103770001F910F91EF900895F89487E780930008C8
:1037800080930108A89588E18093600088E0809389
:103790006000FFCFBC0190E080E0AB01FC010E9423
:1037A000E51B41505109E109F10928F068517C4FAE
:1037B0008F4F9F4FF6CFAB01FC010E94E51B6417B2
:1037C00075078E079F07C8F30895A3E8B1E02FB7E8
:1037D000F8947D918D919C9166B52FBFA89B05C0F3
:1037E0006F3F18F47F5F8F4F9F4F22E0660F771F68
:1037F000881F991F2A95D1F70895811109C086EA7B
:103800005C988EBD00000DB407FEFDCF5C9A089554
:1038100087EAF6CF809187010895109287013E983C
:103820003F9808953E9A3F9A81E0809387010895DA
:10383000480F592F511D14161506D4F580389105DF
:10384000B9F197FF02C090E080E04138510514F0D3
:1038500040E850E0481BFB0177FD379633E0F595D3
:10386000E7953A95E1F7F695FE2FEE27F795E79560
:10387000E80FF91FE755FE4F6770772781E090E06A
:1038800001C0880F6A95EAF7382F213041F4415082
:1038900078F08191DF011197832B8C93F8CF80957D
:1038A000415030F09191DF01119798239C93F8CF0C
:1038B000089520E191E061FD94E060FD990F62FDC3
:1038C0009295687F269FD0011124A80FA755BE4F5F
:1038D0008C91442319F0892B8C930895909589231A
:1038E000FBCFDF92EF92FF920F931F93CF93DF9363
:1038F0007C01D22E8B01040F111DEB0177FF02C05A
:10390000D0E0C0E0C8010134110514F080E490E07B
:10391000C817D9075CF480E8E816F10428F44D2DA7
:10392000BE01C7010E94591C2196ECCFDF91CF91B7
:103930001F910F91FF90EF90DF900895BF92CF926B
:10394000DF92EF92FF920F931F93CF93DF93C62FD7
:10395000D42F082F880F110B68017801E60EF11C97
:10396000CE14DF045CF420E04D2F70E060E0C6016F
:103970000E94711C8FEFC81AD80AF2CFBB24BA94E8
:10398000BD0EC25068019FEFC91AD90A21E04C2F21
:1039900070E060E0C6010E94181C8B2D8150990BCD
:1039A000BC018034910528F421E04C2FC6010E940F
:1039B000181C21E04B2D70E060E0C6010E94711CD4
:1039C000C6018C0F911D21E04B2D70E060E0019746
:1039D0000E94711C20E04CEC54E26FEF7FEFC801B5
:1039E0000E94AF1B98E0E91AF10820E042EC54E293
:1039F0006FEF7FEFC7010E94AF1B8D2F8850990B8F
:103A0000EC0120E048EB54E2BC01C8010E94AF1B6E
:103A100020E04EEA54E2BE01C701DF91CF911F9131
:103A20000F91FF90EF90DF90CF90BF900C94AF1B61
:103A3000EF92FF920F931F93CF93DF93182F8091F4
:103A4000E905C091E605882331F0E091EA05F0E050
:103A5000EC5BFE4FC0819091EF05892F8D7F01E0D7
:103A6000813009F000E08091E805D0E0E090F705B2
:103A7000F090F805882321F08770843008F04FC05B
:103A80002091E705923068F19430A8F58091A1016A
:103A900080FF3CC093E08091E705890F9927991F2B
:103AA000880F991FFC01EF58FB4D25913491FC01C3
:103AB000ED59FB4D45915491BE01C7010E94E41997
:103AC0008091F005843009F457C09091EF05913052
:103AD00009F490C090F100E0933009F090C001E04B
:103AE0008EC08091A1019091A20166E070E00E94D9
:103AF0009637892B11F090E0CECF2F5F233019F04D
:103B00002093E705F8CF1092E705F5CF2F5F24301B
:103B100019F02093E705BECF1092E705BBCF8DEFDC
:103B20009FEF002311F081E090E02FE234E245E4C2
:103B300054E2BE018E0D9F1DC1CF0091E705002309
:103B400009F45DC000E034E090E0880F991FFC01AB
:103B5000E75DFB4DA591B491FC01ED5DFB4D4591F9
:103B60005491BE01631B71098091F7059091F8058E
:103B70009D0102960E94E4198091E905882309F4C9
:103B800048C08091F7059091F805029620E048E141
:103B900054E26EE270E01123A1F10E94ED1A20EBD5
:103BA00033E243EE53E270E060E090E080E00E9498
:103BB000D7198091E205883040F42091A10130911D
:103BC000A2012F713327213130F1853608F084E6C8
:103BD00063E00E948837D82FC0E0CD17E0F48C2F27
:103BE00090E021E042E063E070E040960E94711CAA
:103BF000CE5FF3CF9091E70501E09111A4CF35E0BE
:103C0000A3CFDF91CF911F910F91FF90EF900C9474
:103C1000FA1A1111C4CFDF91CF911F910F91FF902C
:103C2000EF900895089566E080E00E949319482F70
:103C300056E0580FE6E0451700F5842F6E2F0E94DE
:103C40007C37892F292F30E027553A4FD901A85BBF
:103C5000BF4F9C91992379F09150843038F4409172
:103C6000F005841303C044E04093F005285B3F4F08
:103C7000F901908308954F5FDECF80E00895CF93E0
:103C8000C62FC69549E0849F402D1124455F80E4EE
:103C90008C1B0E949E1C8AE48C1BE8E9F1E0808367
:103CA000818385E08283CF910895FC0120812223C6
:103CB00041F01092B8051092AB05109200061082E8
:103CC00008958091AB0581508093AB0581E080938E
:103CD00000060895CF93DF93C82FD0916906DD23A6
:103CE000F9F0D23009F49BC0C5FF06C0DD2309F40A
:103CF000C6C0D150D0936906C6FF08C0809169063E
:103D0000833009F4BEC08F5F80936906C2FF05C08F
:103D1000109266068FEF80936306DF91CF9108952E
:103D20000E948819C7FF0EC090916106933020F061
:103D300091509093610606C020916006211113C036
:103D40009111F6CFC4FF24C090916106282F30E076
:103D5000923068F42150310992171306CCF49F5F1A
:103D60009093610615C0215020936006EBCF80919F
:103D70006006482F50E0BA016C5F7F4F62177307EF
:103D8000E4F0490F511D21503109421753073CF30C
:103D9000C3FFAACF8091610620916006280FE1EF52
:103DA000F5E030E090E04191442319F0231749F009
:103DB0003F5F9F5F9630B9F797CF8F5F8093600624
:103DC000E7CFEDEFE90FE33018F09093F0058CCFDB
:103DD000E130B1F0E230E9F090910806965F9093FF
:103DE0000806F0E0EC50FA4F9081915090839111C9
:103DF0007BCF882309F478CF81508093610674CFFC
:103E00009091E2059C5E953608F094E69093E20569
:103E1000E8CF9091AF059F5F9093AF05E2CF87FF0A
:103E200011C09091640683E0890F981758F4282FE9
:103E30002370E22FF0E0E551FA4F30813323D9F0BF
:103E400020936406C4FF50CF8091640621E0280FC0
:103E500090E003962817190611F00CF045CF322F89
:103E60003370E32FF0E0E551FA4F4081442329F00D
:103E70003093640639CF8150D8CF2F5FEBCFD3E09A
:103E800039CF80E041CF2093AB058093010660934A
:103E9000F9051092FD0581E08093FE054093FA0537
:103EA000809300060895E9EAF5E01182128291E01C
:103EB000938F89E0808F978F848F93A380A397A39C
:103EC00084A393A780A70895CF93C82F883099F033
:103ED00080E0CA3089F00E94531FC33039F008F0E7
:103EE00052C0CC2309F457C0C130F1F580E880936B
:103EF000010184E064C08BE68093AB053091040639
:103F00002091050680910606813091F580910A0680
:103F100090910906930F90930906820F80930A06E9
:103F2000809109068093080680910A06809309060D
:103F300010920A0680910C0680930B0680910D0664
:103F400080930C0610920D0610920606109207063A
:103F500083E08093AF05CA3039F48091B90584308D
:103F600019F481E08093B705C093B205CF9108950D
:103F700080910D0690910C06930F90930C06820F82
:103F800080930D06CDCFC530A1F0C93069F781E02F
:103F90008093AB05E9CF81E08093150680E880939C
:103FA000010182E08093020185EB9FE10E94DA1A11
:103FB000DBCF0E94291A80E88093010182E0809380
:103FC0000201D2CF1F93CF93DF93C0911106D091FE
:103FD00012068091F7059091F805C81BD90B8091C6
:103FE000B705811116C0809116068C0F9D2F911D6B
:103FF0000996439718F481E00E94641F8091170688
:104000008C0F9D2F911D0996439718F483E00E9411
:10401000641F10911C06112331F1809119069091B3
:104020001A0603968C0F9D1F4397E8F424E64EE58D
:1040300061E088E40E94431F10921C066FE085E057
:104040000E9493199091E205890F853608F084E665
:104050008093E20583EA9FE10E94DA1A812FDF91C3
:10406000CF911F910895A8E3B1E0E2E3F1E090E081
:1040700080E0182F2D913D912C0F3D1F2D5F3F4F5C
:104080002331310570F424E64EE562E081E2810FD0
:104090000E94431F123019F48AE38093000111E05B
:1040A000DDCF219131912C0F3D1F275F3F4F2331F1
:1040B000310530F51091B705112339F024E648E6B3
:1040C00062E089E40E94431FC9CFFC01E056F04E34
:1040D0002491FC01E356F04EE49188EC8093AB050B
:1040E000E093FF0582E08093F9051092FD0520938F
:1040F000FE0582E88093FA0581E080930006CFCF29
:1041000001968330910509F0B4CFC556D10910E06E
:10411000639708F0A3CF81E08093B8051092AB05B8
:10412000BECF8091F7059091F8058C5691098531A5
:10413000910568F42091B2052A3049F463E070E0FB
:104140000E94AA37660F6B5D6093E605089585E2CD
:104150008093E60508951F93CF93DF93D82FC62F42
:10416000122F85FF0BC080E00E94AB19D6FF34C030
:1041700081E0DF91CF911F910C94AB1965FF27C0AF
:104180008091F7059091F805853F2FEF9207ACF0ED
:10419000042E000C550B4817590744F782E00E9483
:1041A000AB198091F7059091F80501979093F80568
:1041B0008093F7050E949120D9CF8FE790E09093EC
:1041C000F8058093F70580E00E94641FCFCF8091AF
:1041D000EF05823059F6C7CFC6FF18C08091F705AA
:1041E0009091F80518171906B4F083E00E94AB19F6
:1041F0008091F7059091F80501969093F8058093CA
:10420000F705DF91CF911F910C9491208091EF05DC
:10421000833009F4ADCFDF91CF911F9108950F93B3
:10422000CF93DF93EB0100E021E0AC0161E270E0AD
:1042300088E090E00E943A1621E0AE016DE270E065
:1042400087E090E00E943A16DF91CF910F91089598
:104250008F929F92AF92BF92CF92DF92EF92FF9296
:104260000F931F93CF93DF939AE0499FA0011124EE
:10427000C82FD0E02396D12CC12CCA018152914E77
:104280007C01A62EB12C450194E0890E911CF7010A
:10429000EC0DFD1D149100E021E047EC5EE1B5015D
:1042A000CE0103970E943A16212F4DE95EE1B40139
:1042B000CE010E94AF1B8FEFC81AD80A2D9695E049
:1042C000C916D10421F7DF91CF911F910F91FF9073
:1042D000EF90DF90CF90BF90AF909F908F90089518
:1042E000CF93C82F85E6809398018093990185E349
:1042F00080939A0110929B0180E00E94851BC43636
:1043000040F480E00E94851BCA3018F480E00E94CF
:10431000851B8C2F0E94851B81E080939B01CF9190
:104320000895CF92DF92EF92FF920F931F93CF9356
:10433000DF93D82E88E1E82E86E0F82ED701159677
:104340008C911597D81227C0C090B705C09111065F
:10435000D0911206EC91E250E830E8F4F0E0ED5430
:10436000FE4D0C94BE37BB21DC21292237225A2274
:1043700042224C228722CE0106971196ED91FC91A4
:1043800000E024E53EE14DE65EE161E270E08E0F83
:104390009F1F0E94E419B6E0EB0EF11CE0E6EE165A
:1043A000E6E0FE0659F6DF91CF911F910F91FF9045
:1043B000EF90DF90CF900895F7018181928122E400
:1043C0003EE14AE45EE16AE070E08E0105511109C8
:1043D000800F911F0E94D719D7011196ED91FC9182
:1043E00020E044EE5DE162E070E0CE010D978E0FBB
:1043F0009F1F0E94AF1BF7018181928120E042ED57
:104400005DE162E170E0800F911F0E94AF1BD70158
:104410001196ED91FC9120E048E95DE162E270E0E7
:10442000CE014C978E0F9F1F0E94AF1BCC2009F42A
:10443000B2CFCE010997D7011196ED91FC9120E002
:1044400044E85DE164E270E08E0F9F1F0E94AF1BA5
:10445000A2CFF7018181928120E33DE14AE55DE150
:1044600062E270E08C0F9D1F0E94D71994CFCE019D
:1044700004971196ED91FC9120E048E15DE162E244
:1044800070E0E2CFF701818192812AED3CE148EFB3
:104490005CE168E270E0E6CF11968D919C9100E0BE
:1044A00020E040EC5CE162E270E08C0F9D1F0E9416
:1044B0003A1671CFF70123810180F281E02DCE0100
:1044C000CC20E1F0049746E75CE165E270E08E0FF6
:1044D0009F1F0E94FA1A8091A1019091A2018770FA
:1044E0009927892B09F057CFD70113968C911397F1
:1044F0008F5F833049F013968C934DCF059746E23A
:104500005CE162E270E0E3CFF701138244CF1496DE
:104510008C911497882309F43ECF8091A10190914A
:10452000A2018F719927813108F435CFCE0105970B
:104530001196ED91FC91129713962C914DE15CE14F
:104540006BE270E08E0F9F1F0E94FA1A24CFE8E9F9
:10455000F1E082E5808381838AE182838FE10C949C
:10456000801BCF93C82F682F81E00E943F1EC69505
:104570008CE48C1BE8E9F1E08083818385E0828311
:104580008EE1CF910C94801BCF93DF93EC01262F0B
:1045900041ED5AE163E270E089E590E00E94ED1A96
:1045A00020E0AE0163E270E087E690E0DF91CF911A
:1045B0000C94ED1AEF92FF920F93CF937C01C62FCC
:1045C00000E021E04CE45AE162E070E08DE490E02C
:1045D0000E943A1621E0A70168E070E08FE590E0C4
:1045E0000E943A1621E04EEE59E161E270E081E569
:1045F00090E00E943A1621E041EA59E163E370E05D
:1046000081E590E00E943A1621E041E459E16EE133
:1046100070E085E090E00E943A1680916606811174
:104620001BC06091B00581E0682770E020E046E3A0
:1046300059E181E290E00E94AF1B8091B1056BE3EC
:1046400070E0882311F06CE370E020E04BE259E168
:1046500081E290E00E94AF1B84E5809398018093F3
:10466000990185E380939A018CE1C11101C08DE12C
:10467000CF910F91FF90EF900C94801BCF93DF931D
:10468000EC0184E690E00E9416378883CE01DF912A
:10469000CF910895CF92DF92EF92FF920F931F93E5
:1046A000CF93DF9300D000D000D01F92CDB7DEB7FC
:1046B0008091B905843031F11F829EEBE92E95E09F
:1046C000F92E8E010F5F1F4F6801F70161917F0185
:1046D00070E0660F771F61587B4D42E050E0C601E5
:1046E0000E940D37F2E0CF0ED11C81ECE81685E078
:1046F000F80659F7F80181918F01882331F00E9463
:10470000071BF8CF80E20E94801B27960FB6F89413
:10471000DEBF0FBECDBFDF91CF911F910F91FF90F4
:10472000EF90DF90CF9008950F931F93CF938091D8
:10473000B905823009F48EC0C0F5882309F46DC034
:10474000813009F47FC000E021E04FE551E270E0E4
:1047500060E089E490E00E943A168091BA058830C2
:1047600048F42091A1013091A2012F71332721310A
:1047700008F4AEC021E2829FC00111246091BC0503
:1047800070E00E94AA378B01C0E08C2F90E0801768
:10479000910708F09DC021E042E06AE070E0855B8F
:1047A0009F4F0E94711CCE5FF0CF833009F465C02B
:1047B000843049F6E091BD05F0E0E051FD4D649193
:1047C00070E06B5E7F4F20E041E952E28DE490E0C3
:1047D0000E94ED1AE091BD05F0E0E357FD4D6491B4
:1047E00070E0625E7F4F2FE132E245E552E281E404
:1047F00090E00E94D719E091BD05F0E0E55EFD4D27
:10480000649170E0625E7F4F2DEA31E243EE51E247
:1048100086E690E00E94D7192EC0E091BD05F0E039
:10482000EE0FFF1FE655FC4D4591549100E021E04D
:1048300062E270E086E590E00E943A1683E00E9412
:10484000021A81CFE091BD05F0E0EE0FFF1FEC559D
:10485000FC4DEACFE091BD05F0E0EE0FFF1FE456FE
:10486000FC4D4591549100E021E062E170E08BE461
:1048700090E00E943A1684E0E2CFE091BD05F0E0BE
:10488000E756FC4D649170E0665E7F4F20E04BE59B
:1048900053E28BE490E00E94ED1AE091BD05F0E058
:1048A000E85AFC4D649170E06B5E7F4F22E133E289
:1048B00044E353E28CE490E00E94D71920E044EFF7
:1048C00052E26AE270E084E590E00E94ED1AB6CF11
:1048D0008091B905843069F080E5809398018093D8
:1048E000990181E080939A01CF911F910F910C94CF
:1048F0004A238EE4F2CF0F931F93CF93DF93CDB76C
:10490000DEB72A970FB6F894DEBF0FBECDBF9AE090
:10491000899FB0011124695F704E4AE050E0CE01DA
:1049200001960E940D3789818093B9051092BD05CB
:104930000EEB15E067E180E00E949319F801819386
:104940008F01F5E0013C1F07A9F78A818093BB0521
:104950008B818093BA058093BC052A960FB6F89494
:10496000DEBF0FBECDBFDF91CF911F910F91089594
:10497000DF92EF92FF920F931F93CF93DF93CDB708
:10498000DEB768970FB6F894DEBF0FBECDBFD090EC
:10499000B90584E0D81699F08FE50EEF1FEFE82EE9
:1049A000F12C0E151F056CF420E049E059E162E39B
:1049B00070E0C8010E94AF1B005F1F4FF2CF8FE76E
:1049C000ECCF84E0D81651F000E021E041EF58E14F
:1049D00066E370E080E790E00E943A1620E049EE3E
:1049E00058E16BEF7FEF87E790E00E94AF1B20E07C
:1049F00049EE58E170E060E08CE790E00E94AF1B68
:104A000087E0E8E0F1E0DE011B9601900D928A95C7
:104A1000E1F787E0EFE0F1E0DE01529601900D92C0
:104A20008A95E1F7809115068150990B2AE0289F1D
:104A3000B001299F700D1124695F704E4AE050E06B
:104A4000CE0101960E940D3710E000E08A8590E0CB
:104A5000002E02C0959587950A94E2F780FF1AC050
:104A6000F801EE0FFF1FE552F74E45915491E2E138
:104A7000F0E0EC0FFD1FE00FF11F608170E0EBE054
:104A8000F0E0EC0FFD1FE00FF11F808120E090E0CF
:104A90000E94ED1A0F5F1F4F08301105B9F6689696
:104AA0000FB6F894DEBF0FBECDBFDF91CF911F913F
:104AB0000F91FF90EF90DF900895FF920F931F9357
:104AC000CF93DF931092B80583E68093A90509EA96
:104AD00015E0C4E6D0E0F801F1908F01CE010E940C
:104AE0001637F81621F06F2DCE010E941E37219641
:104AF000C532F1E0DF0779F724E648E561E086E5B5
:104B0000DF91CF911F910F91FF900C94431F41E5CE
:104B100050E06AE878E18FE096E00E940D37E9EA1C
:104B2000F5E08CE0DF011D928A95E9F783E086834A
:104B3000089580E00E94641F0E9487258FEF809374
:104B4000640610921C0646E150E064E778E182EECC
:104B500095E00E940D378CE390E09093F8058093E8
:104B6000F70508951F920F920FB60F9211242F93FD
:104B70003F934F935F936F937F938F939F93AF93E5
:104B8000BF93EF93FF938091940190919501A09131
:104B90009601B0919701892B8A2B8B2B09F440C089
:104BA0008091930181110BC088B190E4892788B965
:104BB00080919201882319F088B1805888B980913A
:104BC000940190919501A0919601B09197011816CA
:104BD00019061A061B069CF4809194019091950188
:104BE000A0919601B09197010197A109B109809315
:104BF000940190939501A0939601B0939701FF9132
:104C0000EF91BF91AF919F918F917F916F915F9144
:104C10004F913F912F910F900FBE0F901F901895BD
:104C20000E94351AECCF0F920FB61F9211248F936A
:104C30009F93EF93FF93EFE7F1E080917E0191E086
:104C40008D5F8D3710F08D57939580937E01808115
:104C5000890F9181911D8083918382819381811D30
:104C6000911D82839383E3E8F1E080819181019635
:104C70008083918382819381811D911D828393839F
:104C8000FF91EF919F918F911F900FBE0F901895FC
:104C9000CF93DF93FC0190E09F5F9F012F5F3F4F19
:104CA000D901892F861750F44D915081451720F472
:104CB000ED012197588340838F5FF4CFF901691389
:104CC000EBCFDF91CF9108954F925F926F927F92D9
:104CD0008F929F92AF92BF92CF92DF92EF92FF920C
:104CE0000F931F93CF93DF93CDB7DEB763970FB6C4
:104CF000F894DEBF0FBECDBF8C01CE0101965C01E2
:104D000086E0D5011D928A95E9F780910501909181
:104D10000601A0910701898B9A8BAB8BE091F0057E
:104D2000512CE43021F0EC0FFD2FF11D51888FEF55
:104D3000F801808311821282138214868091C30548
:104D40008C878091C7058D878091CB058E87809158
:104D5000CF058F878091D305888B65E0CE010C96B7
:104D60000E9448268091EE05882359F18D859C8507
:104D7000981739F19E85891721F18F85981709F1C8
:104D800098898917F1F023E0D8012D93CD0144E0F3
:104D900050E068EB7BE20E940D37D801EC91BAE05D
:104DA000EB9FF0011124E356F44DE491E50DD80199
:104DB0001C96EC931C9782E014968C93149715968E
:104DC0008C939BEE692E95E0792E24E9C22E2BE27E
:104DD000D22E4301412CF40181914F01882309F423
:104DE00059C0C60184599B427C0145E050E0B601A0
:104DF000CE0107960E940D3765E0CE0107960E940E
:104E000048268985873009F445C02F819C85291360
:104E100041C028859D8529133DC09E8589133AC0D0
:104E20009A858F85981336C09B858889981332C0E0
:104E3000D8014D92CD01B7016656744D44E050E063
:104E40000E940D37F701E356F44DE491D8011C960A
:104E5000EC931C97411003C081E014968C93F801E9
:104E60008181580E518263960FB6F894DEBF0FBE53
:104E7000CDBFDF91CF911F910F91FF90EF90DF9009
:104E8000CF90BF90AF909F908F907F906F905F90EA
:104E90004F9008954394FAE0CF0ED11C84E048125D
:104EA0009ACFFE013C969E012F5E3F4FA191AA0D25
:104EB000BB2DB11D8C918F5F8C93E217F307B1F777
:104EC00066E0C5010E94482684E9C82E8BE2D82EF0
:104ED000F12CD3018D913D018823D1F1F601E459E4
:104EE000FB425F0145E050E0B601CE0107960E940B
:104EF0000D378985873061F58E81823048F18D814B
:104F0000823030F18F819D85891719F02F858213AA
:104F10001FC08A85981719F09F85891319C0D80179
:104F2000FD92CD01B5016656744D44E050E00E94FB
:104F30000D37B3E0FB1204C082E0F801848385835F
:104F4000D80111968C911197580E11965C928BCFC7
:104F5000F394BAE0CB0ED11CE4E0FE12BACF8E81FE
:104F6000853041F483E3D8018C938DE2850D119651
:104F70008C9379CF843039F484E3F80180838EE117
:104F8000850D818370CF833069F48D81823029F45F
:104F900087E3D8018C9389E1E9CF85E3F801808329
:104FA00084E1EECF823009F05ECF8D81823009F04E
:104FB0005ACF86E3D8018C938AE0D8CF1092A30110
:104FC0001092A40180E18093A5011092A201109299
:104FD000A1011092A70182E491E090939F01809338
:104FE0009E0189E080939D0181E080939C01109255
:104FF000990110929A011092980180939B012AE0E6
:105000003CE1309389012093880120E030E830931F
:105010007D0120937C0146983E9A47983F9A809361
:10502000EF05E8E1F6E080E696E021E024831582D2
:1050300036968E179F07D1F70895CDB7DEB76897DC
:10504000DEBFCDBF11E01093E0001092E20010929D
:10505000E10080E28093D8001092D7008091650033
:10506000806880936500789483E084BD83E085BD8B
:1050700010936E00E1E8F0E083E08083E0E881E0F7
:105080008083E3EC81E08083E2EC81E08083EAE7E7
:1050900087E0808380688083559A209A5D9A289A59
:1050A0008C9A84988AE090E00E94CA1B7C9B0E94A4
:1050B000BC1B81EC80937C0085B1806F85B984B185
:1050C000877E84B984B1876E84B95E9A5F988AB10D
:1050D000806D8AB9769A6E9881B3806F81BB89980A
:1050E00080B38D7080BB80E58CBD1DBD85E090E0F8
:1050F0000E94CA1B5F9A85E090E00E94CA1B5E98DE
:105100005C98EEE5FAE084918EBD00000DB407FED8
:10511000FDCF31962AE0EB36F207A9F75C9A81E8D9
:10512000809364008091650081608093650089E1CF
:105130008093A50182E090E00E941637882349F110
:105140000E94121C8824839411E02224239479E085
:10515000972EE1EC6E2EEAE07E2EFCE3CF2ED12CD2
:105160008FB7F89440917F01509180016091810147
:10517000709182018FBF8091A601342F381B832F3D
:105180009091A701992341F03093A8011092A701B3
:10519000E7CF0E940D1CD6CF9091A501391738F4A6
:1051A0008F5F8917E8F683BE889513BED9CF20920A
:1051B000A7014093A6018091A1019091A2010196BF
:1051C0009093A2018093A1012091A3012093A401B7
:1051D0008FB18095807F669B88601C9B84608093E4
:1051E000A30190916F01923009F4ACC008F057C050
:1051F000992309F478C0913009F0B2CF2095822329
:1052000069F080916E01882319F08CE780936E011C
:1052100080916E01811106C010936E0180916E0124
:10522000882341F08F5F80936E018D3719F482E0FF
:1052300080936F0100E021E042E658E161E170E017
:105240008FE290E00E943A1621E047E458E16AE1DB
:1052500070E08BE290E00E943A1621E047E458E1CA
:105260006AE170E089E490E00E943A16F0906E01E5
:10527000F1103EC021E047E458E16AE170E08AE3C2
:1052800090E00E943A1621E04FE058E16EE270E0B3
:105290008AE190E00E943A160E942A1661CF94306B
:1052A00009F4C8C008F459C0953009F059CF0091ED
:1052B000A3018091A40180958023888FE091B2059D
:1052C000EB3008F00BC1F0E0E859F64D0C94BE3716
:1052D000202ABA2B392C6F2CDF2C0A2D2E2DAE2F25
:1052E000BE2F7030A03010926E0110936F0186CFE8
:1052F00000E021E044EF57E16AE170E08AE390E0EA
:105300000E943A1621E048ED57E16EE270E08CE22F
:1053100090E00E943A168F2D6FE00E947C378370D8
:10532000B82E6FE4E62EF12CB01609F4B5CF41E0AB
:1053300061E370E0C7010E94591C0F5F42E0E40E78
:10534000F11CF2CF10926B0110926A0182E897E192
:105350000E94DA1A83E080936F012091A30180916B
:10536000A4018095822390916C01992319F09150AA
:1053700090936C0124FF57C090916A01903108F01E
:1053800096CE9F5F90936A0190916B01903218F4D2
:105390009F5F90936B0183FF03C094E090936F0134
:1053A00082FF1AC080918701882309F43FC00E94C0
:1053B0000D1C00E0F090870182E090E00E9416371B
:1053C000F81629F06F2D82E090E00E941E370093BE
:1053D0006D0188E280936C0100E021E046EE54E12B
:1053E00066E070E090E080E00E943A1680916B01E8
:1053F000803249F421E04BEB54E165E370E080E357
:1054000090E00E943A1680916C01882309F444CF01
:1054100020916D0149EA54E168E370E088E790E08B
:105420000E94AF1B39CF10926A01AECF0E94121CAE
:1054300001E0C0CF0E94992585E080936F0137CFAE
:10544000909166069111DCC69091B8052091AB054C
:1054500091111BC1222339F0283C09F46AC0CE0106
:1054600048960E94551E888D82FD10936606909185
:10547000AB05983C59F085FF66C080E00E94AB19EF
:10548000888D86FFA5C081E00E94AB19888D87FFBB
:105490000CC08091AB05883C09F0EEC08091FD0501
:1054A000882319F081508093FD05988D94FF13C0D7
:1054B0008091AB05883C79F48091FD05282F30E080
:1054C0002E5F3F4F4091FE054217130621F01CF05E
:1054D0008F5F8093FD0593FD0E94E21F8091E90597
:1054E000882349F08091EA058F5F8093EA05843133
:1054F00011F41092E9058091E805882319F0815094
:105500008093E8058091B2058B3010F00C945733EE
:10551000E82FF0E0E257F54D0C94BE3703313E33EF
:105520003E33E333E3333234323432343234A5346D
:10553000B5348C7021F01092AB05188E91E098254F
:105540009093000690CF05FF3DC082E00E94AB190A
:105550008091F7059091F8058D33910534F001970E
:105560009093F8058093F7058BCF20911106309129
:1055700012062F3F3105ECF48091A10180FD09C096
:1055800080910F06909110060196909310068093DB
:105590000F068091130690911406029690931406BC
:1055A000809313062F5F3F4F30931206209311060E
:1055B00067CF2F3F310509F063CF833091050CF49D
:1055C0005FCFCDCF8091EF05823009F059CF55CF15
:1055D00006FF4CC083E00E94AB198091F7059091C3
:1055E000F8058C33910534F401969093F805809377
:1055F000F7054CCF20911106309112062235AFEFFE
:105600003A07ECF08091A10180FD09C080910F065E
:105610009091100601979093100680930F06809149
:105620001306909114060297909314068093130624
:1056300021503109309312062093110627CF209173
:10564000B705211123CF8038910574F2009115061A
:10565000015085EF9FEF9093F8058093F70585E063
:105660000E94641F802F0E947B2410CF8091EF0541
:10567000833009F00BCF07CF0E94E21F811115CFB5
:105680001093E9051092EA0510CF211156C087FF4B
:1056900007C090916506992319F091509093650683
:1056A00084FF10C0CE0101960E943E2380916506C2
:1056B000882329F09981933629F4823018F48F5F7A
:1056C00080936506888D82FD1092B80583FF06CF12
:1056D00080916506813061F1E8F0823009F0FECEFC
:1056E00049EAA42E45E0B42E54E6E52EF12CC7017C
:1056F0000E941637F50181935F01FFEFEF1AFF0A51
:1057000025E2E21621E0F20691F724E644E661E0A4
:105710008CE40BC0CE0101960E943E238981833622
:1057200031F52FEF48E662E08AE40E94431FD6CEAF
:105730002EEF44E562E08BE4F8CF1093000682FF81
:1057400004C01092B8051092AB0583FFC7CE8091BC
:105750006506882361F0813009F0C0CE1092B8054B
:105760001092AB051092B7050E949925B7CE0E9402
:105770005D25B4CE90916606911142C58091AB052E
:10578000882321F0CE0148960E94551E988D292F1E
:10579000221F2227221F41F08091AD05882309F4A2
:1057A0003EC081508093AD052093B00521E094FD6B
:1057B00038C020E02093B10592FD1093660693FF58
:1057C0008DCE6091AD0534E0639FB0011124635725
:1057D0007B4E44E050E0CE0101960E940D37898156
:1057E0008130A9F140F1823009F4AEC09C818091F2
:1057F000E3058917C8F11092AB058FE48093010689
:1058000082E08093F9051092FD051093FE059CE45B
:105810009093FA05109300068093B2055FCE86E060
:10582000C1CF8091AD05863020F48F5F8093AD05A8
:10583000C1CF80E0FBCFEA81F0E0EF50FA4F8081EA
:105840008130A1F624E64EE562E08DE46ECFEA8178
:10585000ED5FF0E0EF50FA4F8081853039F624E6B5
:1058600048E563E08EE461CF24E646E462E080E54B
:105870005CCF1093000683FF1FC06091AD0544E02C
:10588000649FB001112463577B4E44E050E0CE0189
:1058900001960E940D378FE794E10E94DA1A898100
:1058A000882381F08130B1F08091E3059C81891BD0
:1058B0008093E3051093B205888D82FF0FCE10937D
:1058C000B2050CCEEA81F0E0EF50FA4F80818F5F95
:1058D0008083EACFEA81F0E0EC50FA4FF7CF909165
:1058E000660691118DC48091AB05882321F0CE010D
:1058F00048960E94551E988D97FF2AC08091AC054E
:10590000882321F181508093AC051093B00594FF5A
:1059100028C08091AC05843010F58F5F8093AC0572
:105920001093B10592FD1093660693FFD7CD209199
:10593000AC05822F90E0AAE02A9FF0011124EC51DF
:10594000F14EE4912430A1F480E0AAC184E0DBCFE1
:105950008091B0058823D9F21092B005D8CF80E0AD
:10596000DDCF8091B1058823E9F21092B105DACF3D
:1059700085519A4FDC018C91811109C08091E40519
:105980008E1750F424E646E462E083E5CECE24E6AA
:1059900046E562E081E5C9CE1092AB0582E58093D1
:1059A000010682E08093F9051092FD051093FE0533
:1059B0008AE48093FA051093000684E02DCF1093BB
:1059C000000683FF22C08FE794E10E94DA1A8091DB
:1059D000AC05A82FB0E02AE0829FF0011124EC5121
:1059E000F14EE491A551BA4F9C919F5F9C93909189
:1059F000E4059E1B9093E40593E09093B20590918B
:105A000064069F3F11F480936406888D82FF66CD03
:105A100083E002CF8091F7059091F805059759F43E
:105A200062E080E00E94931981110CC00E94531F14
:105A300086E08093B20521E344EF602F888D0E94B9
:105A4000AB204CCD0E94531F87E08093B20524E623
:105A500042E861E084E50E94431FEDCF9091660625
:105A60009111CEC39091AB05973609F44BC108F064
:105A7000DBC0953609F40BC108F022C1913008F063
:105A800071C382FD1093660621E340E0602F0E94FF
:105A9000AB20888D83FF31C08091AA059091AF051E
:105AA000891758F529EAE22E25E0F22E2DEB35E094
:105AB0005701D5015896EC91F0E0E85AFE4F9081DD
:105AC0009F3FD9F4B4E0AB0EB11C2A153B0589F712
:105AD000882309F4E9C1CE0101960E9464260E9440
