:100000000C9436160C945E160C945E160C945E16C8
:100010000C945E160C945E160C945E160C945E1690
:100020000C945E160C945E160C945E160C945E1680
:100030000C945E160C945E160C945E160C945E1670
:100040000C945E160C945E160C945E160C945E1660
:100050000C945E160C945E160C945E160C94B424EC
:100060000C945E160C945E160C945E160C945E1640
:100070000C945E160C945E160C945E160C945E1630
:100080000C945E160C945E160C945E160C945E1620
:100090000C945E160C945E160C945E160C945E1610
:1000A0000C945E160C945E160C945E160B0F97055E
:1000B0008B898B8905411CB0D7BD9B8D110B0954D1
:1000C00030B2486F0B0F2F172C260ED8EB7BDD6C50
:1000D0008C2CD2B70B0F2F172C5C9BBDBED74D229B
:1000E0009345FA160B8F7B8535941B72D223596F7B
:1000F0005A064E286C286630686F8BCF2B1CF5840F
:10010000DC901B3A16596D198C486143614361CAF2
:10011000A02D0B0F2F162C262EA603F67ADFCDC6A8
:100120008805238BF40D0B4FEFE766EEDF3064B2EA
:10013000C77B0B0F2F162C5C585C9BBDDE7793485A
:1001400005239345FA06612046756C6C20486F754F
:100150007365210054776F205061697273210061CB
:10016000205468726565206F662061204B696E645B
:1001700021006120466F7572206F662061204B69F7
:100180006E642100612046697665206F66206120DB
:100190004B696E6421006974656D73206D696768D1
:1001A00074206769766520796F752065787472614F
:1001B0002E0063616E206361737420332074696D57
:1001C00065732C2062757420736F6D6500666F72A5
:1001D00020726563617374696E672E204E6F726D55
:1001E000616C6C7920796F7500746F75636820722B
:1001F000756E657320746F2073656C65637420740D
:1002000068656D0063617374207468652072756E33
:100210006573202D206A756D7020616E64002770F3
:100220006F6B6572272068616E64732E2050726553
:100230007373696E67202320202077696C6C0049F6
:100240006E20636F6D6261742C2063617374207221
:10025000756E657320746F2073636F726500796FBC
:10026000757220656E656D6965732E0076696577B8
:1002700020696E666F726D6174696F6E2061626F66
:10028000757420796F75206F720061636365737395
:1002900020796F757220696E76656E746F72792041
:1002A000616E6420746F0070726F7065726C792E6D
:1002B00020596F752063616E2070726573732024FE
:1002C000202020746F004265207375726520746F62
:1002D00020657175697020796F757273656C660041
:1002E00074686973206372617A792077697A6172C0
:1002F00064210070656F706C652E20506C656173B1
:10030000652068656C70207573206465666561742E
:1003100000686173207475726E6564207573206166
:100320006C6C20696E746F2070756D706B696E00F7
:100330006F6620477269666F72642E20546865206C
:100340006576696C2041737461726F4B0057656C00
:10035000636F6D652074726176656C6C6572207474
:100360006F2074686520746F776E003220502E20E5
:10037000444D470033352044616D61676500486531
:10038000616C20323020485000352046697265206B
:10039000444D470056656E6F6D204D697374005271
:1003A0006973696E672053746172004865616C6996
:1003B0006E672057696E64004669726520426C6101
:1003C0007A6500537065656420506F74696F6E00C4
:1003D0004865616C746820506F74696F6E0046697F
:1003E000726520506F74696F6E00526F756E642075
:1003F00048656C6D657400486967682048656C6D78
:100400006574004372797374616C2048656C6D6526
:1004100074003B073FAC5B7B5B02725969D6654950
:10042000715D56329374BD5CC94CD2755997A0204A
:1004300028B93097FC3A3B473F6C0DC0E0655D241E
:100440008260F0B22E2BCDBA2C29065F4A04C1E09F
:1004500019D7C42ED0DED6000CFE503B073F649562
:10046000B12E4B406E5558BDACC9655D569A755955
:100470005294BCECAAD9B1B7755969D66549C9F887
:10048000413B073F78091CD765090CC96509C8CBF2
:1004900025204A2E6B72ABC2EA8528081A2E4B40E3
:1004A0007E38398F5F452EFB82BC4B30257BE415AF
:1004B000C3E101821BC4E9E6D1AD8C35C6E5B47B4E
:1004C000DB635D6E252069F07773E5035E0A17CA6A
:1004D00053F4C6953B78E2412E91CBB8E6D25B8EC1
:1004E000EB984BE4343E0E398F5F889A1258237094
:1004F000198E22468A79BFBA063D9DD0A5917539DD
:100500008D35CABA2C3AD638A9BA70AE71BA2C3A1F
:10051000D6B81D1659B3DFF114B9AC632E91CBF8E0
:10052000D4BA604E1ED70573C9711D73C9711D738E
:10053000895CD631B02002EB72F214B9A84739CFEA
:10054000EF5717ECDBA5738575B8A14B23EBF2E8E9
:10055000F68D0453B2478EA732D618EF5717ECDB4F
:10056000657596DE3EBF8EB9E43A2EC48BD775C151
:100570005C72CF251FF052B8508E9E2297F1A9755C
:10058000CC25C7F551398F1FE606DD851BA7E1286D
:1005900062A4980759418415B101D39DF2E856C66B
:1005A0001AE372DABDEDB12EB7129034F867F07924
:1005B0002E91CB78CD11725927E0792E91CBB8E6E8
:1005C000D25B8EEB984BE4343E0E3B073F24280869
:1005D0004A4E4B42C6690480044E230024701A21FF
:1005E000B85E2E91F63842C838B156080718A711E0
:1005F00042C66984397E003B471F5E83AECB08004C
:10060000819C940090715A57B2249CD622E3E92A27
:10061000D25E46081967B2249C061C460819A73109
:10062000C9F8053B873F6C09DC609CC6A25E870069
:1006300034F07215B1C721A1E3C45A211C609C8615
:10064000848ED35874FC503B073F64090CC96984FD
:1006500090711A938CD308739C4608AE17AB8C75B7
:100660001A012081CB3A8D304798E33402400227AB
:10067000D60AE1C33B473F6C0DBA2E03365483EBD9
:10068000B416194FD7A0EB32024020A77519938CEE
:1006900049C669048040CE6449F8453B471F58521B
:1006A000542F63B23C269939A10120813359124E4F
:1006B0004A00C838AD976BD07519012090D3BA8C19
:1006C00049C624E33402402067B2247C093B8FBF33
:1006D000E056026B046E8745D6ECEDB0585939AA46
:1006E000BA70AE718B5D185DCA89AEAE72E306DD7D
:1006F000851B8371FB0BE492E33A7A8A5CD4A3A74F
:10070000C8651D73895CD63197C8653C5D173EE0AE
:10071000F35CF27D3BCF5FBE6D585DB7C3226BF6D5
:10072000A4EAC2B9C6E5F6388D095DE634C61AF406
:10073000F47475C1BE5D5667E9ED17E692E33A7A47
:100740008A5CD4632E91CB3AE692C7920B2017EEC7
:10075000E38239F9781D73C971FD083B8F5F452E1F
:10076000FB82BC60DC2E63AC414FCF8244049356C5
:100770001446C9E6CDEA1AF4745A63DFBA4F97D526
:1007800005A1A1E41773E57D2EB98E0BE6E473E0B5
:10079000B42E81238FD70573F2B86E3DE692E3BA8B
:1007A000A0A77C0F3B8F7F186ED05DB8711A8E2288
:1007B000468AB9AFB20028008BAE41D73F239FE7EE
:1007C00012B98CC7C0897211E004FC79003BCF1FBD
:1007D000E006DD851BA7E12862A498FB2A0B8002B6
:1007E000B0E81A747D1DB9EC0B721E1D418A4BDEF8
:1007F000E5089E0080090CA0FE349FE712B98CC763
:10080000C0897211E004FC1CAE3C5E17CCC9179C79
:10081000809B003F023B8F076ED05DB871A3ABEBAE
:10082000742A638D715F65015000165D83AEAF2140
:10083000977D415E306E9731D6A0A7873982270019
:10084000600203A89FF25BEBE82972198F8113E520
:1008500022C009F83C57DEE792EBB8604EBEE004D8
:10086000DC04F8181B8FBF83AB57AF5EFD6D392AD0
:1008700038200222540802110431023B021B301BB3
:100880003025800920602400086EAF6B001B8F9F0D
:10089000F1CAAD65812A850D85A2541CCC9EBDF29E
:1008A000B11CB5820066A10201040422A8400920FF
:1008B0001003E800000402086811003304B032BCE1
:1008C000AE011B8F070F085E20AFB97AF5EAD5DFBE
:1008D000964D1504000041000010A0002008225091
:1008E000365036F5901A7090A086A02A314EB70780
:1008F000202020507265737320506C6179204F6EF8
:1009000020546170650A2020202020446576656CA3
:100910006F70656420323031390020526573742065
:10092000496E2050656163652046696C6D6F746522
:100930002E0A2020426F726E2031383431202D2053
:1009400044656320313837390020202048657265BE
:10095000206C6965732056616D7069726963732ECE
:100960000A2020426F726E2031383433202D20440B
:1009700065632031383832000908080C020D0B0D70
:10098000020C0808083A3B33333B3A013A110B108A
:1009900000101090100017001D18101010101010EB
:1009A000000000000706040404040404000400001E
:1009B0000027DF379A5DDD2C368BCD62A3B291B074
:1009C000596C169BC566B1195C2817CA45BA5336CF
:1009D0008B2D63A77C637FCEF08205BC21C0CC60E9
:1009E00073CA9D6FED2619090909ECEFED2F580622
:1009F000B00001560110D009DC107845189537BCBD
:100A0000DFE14018190CD99FE9B81CBD7A75272A77
:100A100021AAA871339C2C17D30BF1EAD5E305ED7D
:100A2000C8F278193D0327DF1776BA6AB9502E94B9
:100A30000BA50945004239B0D82C368BCDE240B920
:100A4000500E7625E542B950339BCD17F6E70C2FB3
:100A500058C01306303259DC7CC1273699196942D7
:100A60004202FB7BFB0B96012C4080550004747AFC
:100A700015DE1132C20B1EEE32B810460643F66781
:100A80003A2E47AF5EDD894A882A6A3C5037C3C197
:100A9000F6845EBD669D1487CBE5F1327A06279F0A
:100AA0002FD8E9AAE542B9502E9402A194413921E8
:100AB00037E486DC901B72434E3A1BB9A1DDE6C2D7
:100AC00007F7B7B864B178C20692C9E2414E7C6BB1
:100AD00093193126B0BFBF1F0B0359808C05202806
:100AE00070062EC00B823D70E22BBB0C06C321FBAF
:100AF000B31D97A357274B63100928A2CA74B05D92
:100B00002EAF868B57AF5927C5E1625D469F0127FF
:100B1000DF2756D6888BCDE042B9509A50042094F6
:100B20000BE542B9502E940BE542B950BB9A4DB932
:100B300050339BCD17F6E70C2F58C01B02CC0C3658
:100B4000A73CE053BB4946424202FB7BFB0B9601AC
:100B50002C4080550004740237045E1146E5091FDD
:100B6000D8E14018190CD99FE9B81CBD7A75272A1D
:100B700021AAA871339C2C17D30BF1EAD5E305ED1C
:100B8000C8F278193D030B4F3A9028250C6032D9F2
:100B90000C93F270C89883BA5C1EE80A03070B4FE7
:100BA0005AA5C8660093C96658078B1743C61C240C
:100BB00023230732C31E0B8F3180140D41E0821CAA
:100BC000C19903F0620C9CA5B9AC4DE7620C0B4FC8
:100BD000271319822200A10806A0A4CF5252521254
:100BE0008100902D105A5242030B0F37072A18101C
:100BF0008100200A29BB0F52424343350819D5868C
:100C00008686A60B4F1BAD220A8A0084221880928A
:100C10008637292989894000C8168829293B098FE8
:100C2000DB13012650603139A03F0A094F07242009
:100C30002C16D0408145032ABF08894F6E1630809C
:100C400005540C0200021188FC2000098FDBD39CA4
:100C50009775388C5FC115098F07649CC631A7B1A1
:100C6000E5277005098F6B1CF63CE5CC457E805767
:100C7000000D8F3B07B2C20694A1A0062630601C6F
:100C8000387002C2048EFBB28E5C628E0D8FBB93F5
:100C900031C20694A1A006265080BEE048D8C26D9D
:100CA0005FF6C983E90D0D8F133A980D1B508682AC
:100CB0001A9840B51F000E81E3BAEC9B9B404F0D84
:100CC0008FBB9331C20694A1A006265080BEE04897
:100CD000D8C26D5FF6C983E90D0D4F3B9B8E4D0069
:100CE000610082189940491FB280B2806397CB8E11
:100CF000A325A4070D4FBB9B8E4900610082189964
:100D00002C1C2F592C8670EB72D97135CE6E0D8F3D
:100D1000BB9331C20694A1A006265080BEE048D8FD
:100D2000C26D5FF6C983E90D0DCFC7B98E7C2EF376
:100D300011E470589775599775D9D90D8FBBF394F5
:100D4000CFB1E90B8E635FD6655DD6651D6E0D8FE5
:100D5000738D5B3EC7B41FC8E1B22EEBB22E6BD0D1
:100D6000130D8FBBF394CFB1E90B8E635FD6655D36
:100D7000D6651D6E0D8F3B87C3387AF59A45DF70B7
:100D80009AF3B22EEBB22E6BD0130D8FBBF3D4A31C
:100D900057AF393DE138F6655DD6655DD6E1060DA4
:100DA0008FBBF394CFB1E90B8E635FD6655DD665DB
:100DB0001D6ED5F08D14A1C881CFD9F1AF20001AD6
:100DC00020FFDFDFBF7F1FFFFFFF6F1FEFFFFFFF72
:100DD000FF77A3DDFFFFFFFFFF7FFFFFFFFFFF3B6D
:100DE00006A1F87FFFFFFEFEFD09F0DF3D1DCBE011
:100DF000EFE7F0FFFFFFFFFFFFFCF8FCF8E0F10278
:100E000005031014B3C1E8F4F9FFFFFFFFFFFFFF74
:100E1000FFFFFFFFFFFF7F1F00000060000067DF94
:100E2000BF7FFFFFFFFFFFFFFFFFEFDFBF7D02FD83
:100E3000FF7F2F9FEFFFFFFFFF77A3DDFFFFFF7F08
:100E4000FF7FFFFFBD7D7B3B0661F8FEFFFBF7F7F1
:100E5000ED01F0FFFF7F338F5F8FE0FFFFFFFEFFAD
:100E6000FFFEFCFCF801710307031014B3C1E8F4A2
:100E7000FBFCFFFFFFFFFFFFFFFFFFFF7F9F600EF9
:100E80000000C01F000067DFBF7FFFFFFFFFFFFF05
:100E9000FF51FF0079FF01D8FF005E0000D2000083
:100EA000A426320126011201FA00E400D400C40095
:100EB000AC00596F75206469656421204C6F7365BF
:100EC0002068616C66206F6620796F75720A202039
:100ED00020202020676F6C6420616E6420736B6932
:100EE0006C6C20706F696E7473210020736B696C79
:100EF0006C20706F696E74732E00596F7520736368
:100F00006F726564200020676F6C6420636F696E88
:100F1000732E00596F752073636F72656420002013
:100F2000596F75206B696C6C6564204173746172D4
:100F30006F6B20616E642066726565640A74686513
:100F40002076696C6C61676572732066726F6D20C4
:100F500074686520637572736521002066726F6D19
:100F600020796F7521002072756E650054686520C8
:100F700047656C6174696E6F757320437562652097
:100F800073746F6C6520610A202020002064616DFD
:100F9000616765207074732E002061747461636BE7
:100FA000732C200020687020706F696E74732E009F
:100FB0002020417A7461726F6B2073746F6C6520AE
:100FC00000206865616C746820706F696E74732EA0
:100FD00000596F752072656761696E656420002035
:100FE000707473206F662064616D6167652E0050B8
:100FF0006C757320616E20657874726120002070BA
:101000007473206F662064616D6167652E00596F8F
:101010007520696E666C696374656420006E6F7418
:1010200068696E672100840172015F015401460105
:1010300021006120000503010307030105030406E5
:101040000706040A004D0330031103F302E002C651
:1010500002A7028A026C025E023F021E020402E93B
:1010600001CD01B2019601526573746F726520471C
:10107000616D6500536176652047616D650A4E6557
:10108000772047616D650A000A004E616D653A0A76
:101090004865616C7468203A0A446566656E6365EC
:1010A000203A0A0020456E656D79205374730089DB
:1010B000037E0374036B03B803AB039F0394032005
:1010C00020202052756E6573004865616C7468203D
:1010D0003A0A536B696C6C203A0A446566656E6324
:1010E00065203A0A476F6C64203A0A44756E67655A
:1010F0006F6E73203A00537461746973746963731B
:10110000000703010307030502010703040607069E
:10111000050204020203030A002078200004073EAF
:1011200041553E0304F703EA03DE03D003C3032063
:10113000496E76656E746F72790003075F2E140333
:1011400007142E5F08083C42BDADA5BD423C003CE3
:1011500042BDAD423C0000003CFFC33C0000003CEF
:1011600042A5BD423C0037973F1338010013508021
:10117000004C112E201C44DC80ADC4600BB82178DB
:1011800000E102E20408800213003801BFDEAB5721
:10119000BE332F000000C08E174787A3C3515407EA
:1011A000822A451564A8D2E1E8707478311B0000EA
:1011B00000B8CCEF70F5EABB71904CF412003270BD
:1011C0001C12A10020C010EB0C9001108022825054
:1011D000B0425101280002500004A0000840015014
:1011E0002958A120881420002340A615078000500C
:1011F00030390C1901201765060F030B1000000091
:10120000A0F0D0A080000000FC02292028082902BC
:10121000FD02FC0605110A171B0E110605000C162F
:101220001F0C00040406090F060A0F0F08090D0F12
:101230000A090B0F0F03020F0F070D0D0D0F0A0EFA
:101240000E010D0F030E0B0B0F07050F0F0C083CC3
:10125000428181818181818181423C0B0DC7831B49
:101260002363FF03037B030318181B18181F1818A8
:101270001F1F1F81045B043604120485053E05E729
:1012800004A204280BF00804A4945404F454240881
:10129000F000FC02FDFDFDFDFDFDFDFDFDFDFDFD84
:1012A000FDFDFDFDFDFDFDFDFDFDFD02FC0001025E
:1012B0000202020202020201000001020505050508
:1012C00005050505050505050505050505050505CE
:1012D00005050502012DDF3F173881700000600110
:1012E000441A2B2AB60421B2B0B2B0B2086512E497
:1012F0004038F2C710B42A4398A3DEB8640C17092B
:10130000C60A646C1C28601CC19591845BB8D981A5
:101310000507BAFD261308000318BC6B11741B5196
:10132000308A04105DC80065220258010411A12012
:10133000280860119085441413842180D84CA8900B
:10134000944F399080200841861FA1005922EE0059
:101350004E41C20000B402012840400A008014013E
:101360000028020050800854501908004E11B7811F
:1013700094F21DB187AB9C870014725204A0E398CD
:10138000E1CA69084021CF6195705AB0C769084029
:10139000214F510168E0B4608FD390D07159123A57
:1013A000002997BF7ACD2CE3093C7A444E0C96175E
:1013B000FFAEF7EF7204E0001CF6EFE4B567AE5E37
:1013C0007DCE95EF71E6CC99D75EBD72F635FFFF05
:1013D000FFFFFFFFFFFFFFFFFFFFFFFFFFFFFFFF1D
:1013E000FFFFFFFFFFFFFFFFFFFFFFFFFFFFFFFF0D
:1013F000FFFFFF1F1F1F1F1F1F1F1F1F1F1F1F1F5D
:101400001F1F1F1F1F1F1F1F1F1F1F1F1F1F1F1FEC
:101410001F1F1F1F1F1F1F1F250DFFFFFFFFFFFFA8
:10142000FFFB0303BB0347FFFBC3033F83FBFFFB40
:101430000303BB13FF0303FFFFFFFFFFFFFFFF1FBC
:101440001F1F1F1F1F1F1B18181B181C1F1F1B18D7
:10145000181B1F1F1B18181B191F19191F1F1F1FCF
:101460001F1F1F1F9B06740647062306F705CA05A4
:101470001508CD07A4075B071407CD0612100080DE
:10148000403D010101F40404F40101013D408000EC
:10149000F7E8D1C0DCA24158444E5841A2DCC0D08C
:1014A000E8F7008040BDC1C101F40404F40161E12A
:1014B000FD408000F7E8D7C3DDA25D7663775F5D0E
:1014C000A2DCC1D7E8F70080403F151501FC7C5431
:1014D000D4011F1535408000F7E8D1C0DCA241548B
:1014E0005A5A4041A2DCC0D0E8F7118761C284EEAD
:1014F000100830901B7243061008D9850993009B91
:101500000FFF7E01C2088D0864083F87ABB042A977
:10151000A5D4526A29B5945A4A2DA596524BA9A52D
:10152000D4526A29B5945A4A2DA596524BA9A5D4EE
:10153000526A29B5945A4A2DA596524BA9A5D45260
:101540006A29B5945A4A1674010B0D0303BB232371
:10155000FF03037B030318181B1C181F18181F1FF9
:101560001F280BF00804F494D404F4542408F00069
:10157000FC02FDFDFDFDFDFDFDFDFDFDFDFDFDFD97
:10158000FDFDFDFDFDFDFDFDFD02FC000102020271
:10159000020202020201000001020505050505051F
:1015A00005050505050505050505050505050505EB
:1015B0000502012DDF3F1738817000006001441AD9
:1015C0002B2AB60421B2B0B2B0B2086512E440389A
:1015D000F2C710B42A4398A3DEB8640C97060343FD
:1015E000482E98251888C19591845BB8D981050744
:1015F000BAFD261308000318BC6B11741B51308A06
:1016000004105D8802CA05810B20880805612070DE
:10161000014445228A09C210406C265448CAA71CBE
:101620004840108420C38F50802C117700A7206180
:1016300000005A81001420200500408A0000140197
:10164000002840042AA80C0400A788DB404AF90EB1
:10165000100EBAB6BE5E3EFE7E7E6E76EE3E5EBE7C
:10166000BEB6040222142438051D252D140C0236A2
:101670000A040C0E0C0E0F0A00080C0C0E0E0F0EB6
:101680000C00000000000000000000000000080C3A
:101690000E0F0E0E0C0824040C020402050A0008AA
:1016A0000404020601020C0000000000000000001B
:1016B0000000000008040E01060204083221FFF2B7
:1016C0000C6C6C4824000000008600FFFFFFFB83C9
:1016D000FD83FBFFEFDF81FBF7FFFBF789F7FBFFE4
:1016E000FFFF00008C0000000024486C6C0CF3FF2E
:1016F000FFF30C6C6C482400000000CC000181C199
:10170000C1C1C1C1C10181C1C1C1C1C1C10181C1C9
:10171000C1C1C1C1C0008C0000000024486C6C0C29
:10172000F3FF3F330C6C6C482400000000C0000C39
:101730008CCCCCCCCCE018C4320A0A0A0A0418ECCF
:101740008CCCCCCCCCC0C8008C0000000024486CF1
:101750006C0C73BF00000C6C6C482400000000C0CF
:10176000000C8CCCCCCCCCFF00FF000000000000B3
:1017700000FF8CCCCCCCCCC0C8008C000000002476
:10178000486C6C0C00FF000000000000000000002E
:101790000000000000000000000000000000000049
:1017A0000000000000000000000000000000000039
:1017B00000000000000000011512FF7F7FFF0FF7FF
:1017C0000BF3DB4B394ADBF30BF70FFF7F7FFF0097
:1017D000FF0000ABAAA9A8A9A9A9A9A9A82122012B
:1017E00000FF0000000300000202020202020200E9
:1017F000000000020000030000000000000058FC90
:10180000FEFFFFFEFC580000000080800000C0E0EA
:10181000F0F8F8F0E0C0000080800000000058FC04
:10182000FEFFFFFEFC580000000000C0E0F0F8FCE6
:10183000FEFFFFFFFFFFFFFEFCFCFEFFFFFFFFFEC2
:10184000FFFFFFFFFFFFFFFFFEFFFFFFFFFEFCFCB0
:10185000FEFFFFFFFFFFFFFEFCF8F0E0C0321000CC
:101860000000000058A45AB5255AA45800000000F2
:1018700080800000C020D0A828D020C00000808038
:101880000000000058A45AB5255AA45800000000D2
:101890000040A050A8542A158AA4A48A352AB4442A
:1018A0004241A0AAB5AAB7ADA2A5A1A2ADB6AAB55C
:1018B000AA404142A4346A158AA4A48A152A54A8CD
:1018C00050A040F8FEFFFFFFFFFFFEF83F3F3F3F05
:1018D0003F3F3F3F3F090E07F986AA82AA86F907D4
:1018E000003F20242A26203F00E0F0F8FCFCFCFC0E
:1018F000FEFFFEFCFCF8F0E00103070707070707FF
:10190000070707070703010F0BE010E814E4B4947E
:101910007295B6E414E810E0010205020103020228
:10192000020301020502014B1CFFFFFFFFFFFFFF47
:10193000FFFFFFFF7FBFFF80FEFE00FF0000606033
:101940006060676361616161616161616161616181
:10195000616161616161616165690161010101014B
:101960000101010101010101010101010101030363
:10197000070F6F0FFFFFFFFF7F43BD423C722A2618
:101980002A723C42BD427F0002000000FEFE00FFC2
:101990000A0B0A0B8A4B2AABAAABAA4B8A0B0A0B7F
:1019A00000FEFE00000077323332333233323332FE
:1019B00033323332333233320000000000FFFF078E
:1019C000F71717109F1D99919F911F1D19919FF156
:1019D000BF50F003000000FFFF00FFD3D2D3FE0191
:1019E000FC03000000000001FED3D200FFFF000056
:1019F00000773333333333333333333333333333A6
:101A00003333330003000000FFFF000F0A04080215
:101A1000020200020000000001010F0A050F000091
:101A200000000F0F000F0D0D0D0F000F0000000044
:101A30000000000F0D0D000F0F000000070303034F
:101A40000303030303030303030303030303000369
:101A50000000000F0FFEFEFEFFFFFFFEFEFEFEFE7B
:101A6000FEFEFEFEFEFEFEFEFEFEFFFFFFFEFEFC95
:101A7000F87F7F7F7F7FFFFFFFFFFFFFFFFFFFFFFD
:101A8000FFFFFFFFFFFFFFFF7F7F7F7F7F000000E3
:101A9000000003030303030303030303030303031C
:101AA0000303030300000000001C12FE02FAF57598
:101AB000F57ABA5AAACA3A3A3ABA3ACAAA5ABA7A8B
:101AC000F575F5FA0204F87F405F5F5BDC1D9A9FB5
:101AD0009F9F9C98941B1C1F1F1F1A1D1CDB5F5F80
:101AE00040407F00000000000300010101010101EE
:101AF0000100000000000000000300000000009B47
:101B0000CF39EC79CA6B8FE3304F3DFA9CE3B8AC28
:101B1000C3217F5F1BC733A7358FBECE91CF791C02
:101B2000A71CE73A6502041055A055A075FFD5FF24
:101B30005468726F77207468652072756E657320C3
:101B4000616761696E210020202020202020204133
:101B5000206D6F6E737465722061747461636B7352
:101B600020796F75210020596F7520646F206E6F8A
:101B70007420686176650A20202020656E6F756785
:101B800068205350210020204275792074686973C1
:101B90002072756E653F0A2020232020205965732E
:101BA00020202020242020204E6F00202020596F4C
:101BB0007520617265206361727279696E670A20AF
:101BC0006F6E65206F662074686F73652072756E26
:101BD00065732100596F7520646F206E6F742068E3
:101BE0006176650A202020656E6F75676820676FD3
:101BF0006C6421002020204275792074686973206C
:101C00006974656D3F0A20202023202020596573C8
:101C100020202020242020204E6F002020596F7586
:101C200020616C72656164792068617665206173FA
:101C30000A6D616E79206F66207468657365207027
:101C40006F74696F6E730A2020617320796F75203D
:101C500063616E2063617272792021002020202050
:101C6000596F7520616C7265616479206861766571
:101C70000A206F6E65206F662074686F7365206838
:101C8000656C6D657473210000000A410001052830
:101C900000020523010002140101010F01020114D9
:101CA0000200011E202047616D6520737461746518
:101CB00020726573746F7265642100202053746113
:101CC00072742061206E65772067616D653F0A2020
:101CD000202020202320202059657320202020242C
:101CE0002020204E6F00204F7665727772697465F0
:101CF000206578697374696E672067616D653F0A56
:101D00002020202020202020202023202020596552
:101D10007320202020242020204E6F0000050A057B
:101D20000507202020205468616E6B20796F752094
:101D3000666F7220736176696E670A20202020200A
:101D40002075732066726F6D20746865204375720C
:101D50007365210049091A09F008596F75207069E7
:101D6000636B656420757020736F6D65204850212A
:101D700000A1CF536421F1DEB2981C330104985EB8
:101D800051800520C0428E28C00200E4D160920636
:101D900019DD197F588E005C40380113FFAF0C40ED
:101DA0007541A2408D12A40E407541A2408D07EAF4
:101DB00000821EA807EA813A80A007EA817AA00E75
:101DC000067A7508C3210C87301CC27080C3810C51
:101DD00087301CE0F0EAD5050C07381CE07020C302
:101DE000210C07381CC870315DC070381DE07020B0
:101DF000C3E1F4EA028603586E8643180E7078F544
:101E00006A39580E4A806139580E96831260580E0E
:101E1000C6029AC05205864582C6029AC05205463D
:101E20000A681C101840351844B180C6018101545D
:101E300003933081100E9C090093308110BEC04C7A
:101E400033F9C47EB7CBA2FBBECB48FCCABE3BD89D
:101E5000FBBEEF3B6C12BA53AAA4F71D66B6EFF6B1
:101E60007DDF771979CD4C3379094CC204209C3938
:101E700010024CC284688101816114A8281289165D
:101E80001810184681B680C6018101548341140B95
:101E9000681C1018403530091308E1C099002F99CB
:101EA0006C16892CAC2CAC2C4C586C54AA48B0A2A3
:101EB000A2202A22A222222A0351111409561656C0
:101EC0001622A2B259084A102B12AC04B1A22283E6
:101ED00085A0A85891602588092A1B9512165616C8
:101EE0005654AC2C42511988042B0B2D8B812CACF1
:101EF0002C64B0983C019E702004988409D10203A0
:101F000002C328505124122D3020308C026D018DD7
:101F1000030203A806832816D0382030806A601296
:101F20002610C28133016012260F3797C1CA306F65
:101F30005E2664C75853C972355F78F79D9DA935F1
:101F4000C6014F1C6F8ED3B132D77A755FB976DC7C
:101F5000DF3DBCEDACD567C0244C00C2990321C065
:101F6000244C881618101846818A229168810181B4
:101F70006114680B681C101840351844B180C60104
:101F800081015403933081100E9C0900933081F03D
:101F900064E923AF0FDE73140FFE82767F5D7D9BB5
:101FA0008FCD676BF9899CA8DB70CBF3C9E936C686
:101FB0005C3E230C26610210CE1C0801266142B44F
:101FC000C080C0300A541489440B0C080CA34095FF
:101FD0000BE542B9502E940BE542B9502E940BE517
:101FE00042B9502E940BE542B9017746C63872A12A
:101FF0005C2817CA8572A15C2817CAC3BEE042B923
:10200000502E940BE542B9502E940BE542B9502E58
:10201000940BE542B9502E940BE5C27B8FBCC8EE01
:1020200050DF71A15C2817CA8572A15C2817CA8588
:1020300072A15C2817CA0501A187DD0D9BBB201B7F
:10204000C46B2EBDE43864E33878DCB75EC04B6FF8
:10205000A11BC51B0D0F0CA4C0400A0CA4C0400A54
:102060000CA4C0400A0C78C1993367CE9C7904CD8A
:1020700087DDD213C7018702DCBA45397281E0914E
:102080000B04BFD52D3D71DC9BC531975E7296EC7C
:10209000E0730F1838782CDCD6A7C61EA7E04D7267
:1020A000EB969E380EDC088D8F119225244B4896B6
:1020B000902C215942B204762EEBB22EEBB22EEBCD
:1020C000B28E23474D474646F3DB46B3F839AC742E
:1020D0001C59E9D86405000025000000000000003C
:1020E000000104000000000000001E0078003C0019
:1020F00001309F0974FF00010106B0FF00010106D5
:10210000F8FF00010106FA000001010765FF000168
:10211000000325010001000425010001020200FF67
:102120000001010542FF0001010535FF0001010525
:1021300028FF0001010892FF0001018D098D098D22
:10214000098D0983097809071903106688336688A1
:10215000338FCF0B591B60C3458005DE0039F38DEB
:102160005EBD79EDD59BD79E59100E060E86C488AC
:10217000468E460E468648C48E060E08110C14285C
:102180001502010825102111240A1609040103076C
:102190000F070B0502010904080C0E0F0E0D0A04AF
:1021A000083F8FAE055CBD7AF5EAD5AB57AF5EBD93
:1021B0007AF5EAD5AB57AF5EBD7AF5EAD5AB57AF46
:1021C0005EBD7AF5EAD52BB0969D1C2817CA85729C
:1021D000A15C2817CA8572A15C2817CA8572A15C08
:1021E0002817CA8572A15C2817CA8572A15C2817B6
:1021F000CA8572A15C2817CA8572A15C2817CA819A
:10220000592997CC2937E486DC10B7885BC42DE2C6
:1022100016718BD885DC10B7885BC42DE216718BE4
:10222000D885DC901B72C339D97B7AF5EA1CEA4564
:10223000BDA817F5A25EF4EA1CEA45BDA817F5A2F1
:102240005EF4EAD5AB73EFB357AF5EBD7AF5EAD56E
:10225000AB57AF5EBD7AF5EAD5AB57AF5E3D030B2A
:102260000D0703FB0307FF0703FB03071C181B18DD
:102270001C1F1C181B181C0703FB0307FF8383DBB1
:102280001B1B1C181B181C1F18181B181CFFFFF702
:102290000303FF0703FB03071F1F1F18181F1C184A
:1022A0001B181CFFFFF70303FF8383DB1B1B1F1F90
:1022B0001F18181F18181B181CE3633B03C7FF07E0
:1022C00003FB030719181A1B1B1F1C181B181CE300
:1022D000633B03C7FF8383DB1B1B19181A1B1B1FE0
:1022E00018181B181C6363BB0347FF0703FB030796
:1022F0001C181B18181F1C181B181C6363BB0347F2
:10230000FF8383DB1B1B1C181B18181F18181B18B6
:102310001CFF1F870303FF0703FB03071C1C1D187B
:10232000181D1C181B181CFF1F870303FF8383DB6A
:102330001B1B1C1C1D18181F18181B181C8383DB63
:102340001B1BFF0703FB030718181B181C1F1C1877
:102350001B181C8383DB1B1BFF8383DB1B1B1818D1
:102360001B181C1F18181B181C0703DB1B33FF0747
:1023700003FB03071C181B181C1F1C181B181C0729
:1023800003DB1B33FF8383DB1B1B1C181B181C1F69
:1023900018181B181CFB7B0B83F3FF0703FB0307B9
:1023A0001B181C1F1F1F1C181B181C596F7520722F
:1023B0006F6C6C656420004E6F6E6520210007080D
:1023C0003E7F4377617F3E0D10F008F40C24754684
:1023D00074240CF408F000013AE7FE02C7C606FFB9
:1023E0002E1900E010E81848EA8CE84818E810E0D8
:1023F00001023DE6FC04CECC0CFE2D1A01F008F4DF
:102400000C24754674240CF408F000011CF3FE0241
:10241000C7C606FF160D000C10000080FCD6829681
:1024200046FEBC0000000F081F001818001F1C0704
:1024300000000000F8AC042C8CFCF80000000F0930
:102440001F011919001F1C0700000000F8AC042C24
:102450008CFC780000000F091F011919001F190ECC
:10246000000F8F9FE04066CB1C0CBE380F318521DA
:102470006010110938A0B7C61CE602E0F0F8FCFCB9
:10248000FCFCFEFFFEFCFCF8F0E001030707070779
:102490000707070707070703010F0BE010E814E41D
:1024A000B4947295B6E414E810E001020502010349
:1024B0000202020301020502010B10FFFFFF5F0F82
:1024C0002F5F7FFFFFFF03FDD6DFD7F7D6FD02FDAD
:1024D00003F8FEFFFFFFFFFFFEF83F3F3F3F3F3F98
:1024E0003F3F3F090E07F986AA82AA86F907003FF7
:1024F00020242A26203F001410FFFFFFFFFFFFFFCC
:10250000FFFFFFFFFFFFFFFFFFFFFFFFFFFFFFFFDB
:10251000FFFFFFFFFFFFFFFFFFFFFFFFFFFFFFFFCB
:10252000FF1410F04C141AFF003333221100000482
:10253000C0E900A0001400FFF0F6F606E6E606F695
:102540000000000000F0F0FF0014001C10FFFFFF6F
:10255000FFFFFFFFFF003333221100001A04C0E920
:102560001DC4320A0A0A0A051DF0F6F606E6E6065A
:10257000F60000000000F0F0FF04C0FF00FF008044
:1025800040A050A8000810FF00333322110000FFC4
:10259000003333221100001720EFF90636362412DB
:1025A0000000F906363624120000F90636362412E9
:1025B0008A54AA52EA34DA54D45AD42AD2A24A9477
:1025C000CAC4CA142A52A21A04C0E967AC532E27FF
:1025D0002ED3EC67A04C141AFF00333322111A04D7
:1025E000C0E965A04C141A04C0E965A04C141AFF98
:1025F0000033332211C0E0F0F8FCFEFFFF08088032
:1026000040A0502814CAC415D7EFBB7FD7DEBBF754
:102610003F93737AF5EAD5AB57AF5EBD7AF5EA041E
:102620001597DFC9057008B122A104370447B944E2
:102630002E793FA5C04026608B808214509085E0A3
:10264000AD5B417512000000E733CFFC5ACF9C010F
:1026500004050E111F0E121F1F10121B1F1611153D
:102660001F0E03041F1F16171D0D0E1F151D050538
:102670001F1E0E151F0E16151F0E0506EDF6C9F6C8
:10268000EDFDFDC0EFEFFCFBC0FBFCFDC1FEC1FD9D
:10269000F7EFC0FDFBFDFBC4FBFDEDCDE1ECEDFD77
:1026A000ACA6F0F98BCF2BACA1DC901B72D22359D6
:1026B0006D1938A1B0A1B0A198C1A02D01010704E6
:1026C000041E14050500020204040419000000148D
:1026D0000101050303232300000006060606061E6B
:1026E00014020200000019000B040603095C01003B
:1026F00023000E0407050B0300041E000B0508054C
:102700000B01010228000E050907104202083204DD
:10271000120A0F07102000041E040B0408050B1CEE
:10272000010228040E0409050B5000001E040B04CE
:1027300009050801010228040E050A07101C030AF6
:102740003C08170A0F071010000023080B050A05A4
:10275000084201022D080E050A050B1C000423087F
:102760000B060C050B10010428080E060C07100FB1
:10277000040C500C1A0000000042202047616D65D7
:1027800020737461746520736176656421000708A5
:102790003C7EC3F5C37E3C3C7E81B5CB7E3C0308CA
:1027A000002F0000000000000000000000000000FA
:1027B0000000030000000000000000000000081CF2
:1027C000084020000808080020000000003F213FCA
:1027D000223F203329272329371E113F37253D3F2C
:1027E000253D3905033F253F07053F140000000044
:1027F0000000000000000000000002290620002068
:102800003C0B3C3F253B3F21333F213E3F25213FB1
:1028100005013F213B3F043F3F000030203F3F0484
:102820003B3F20003F0E3F3F023F3F213F3F090F0C
:102830001F113F3F053B372D3B013F013F203F0F1D
:10284000300F3F183F330C33033C03312D2300007E
:102850000000000000000000000000000000000078
:1028600018243C3E24183C242418243E18342808FC
:102870003E0A5C543C3E04383A0000403A003E08B0
:1028800034023E003C083C3C043C3C243C7C241884
:1028900018247C3C040C282414041E243C203C1CDA
:1028A000201C3C103C3408345C503C34242C258FD4
:1028B000CF66387AF5EAD5AB57AF5EBD7AF5EAD583
:1028C000AB578F64BEEBA0501010111010111010F8
:1028D00011101011101011101011101011101011F2
:1028E00010101110101110101110101110101110E3
:1028F0001011101011101011100A65140000FCFEC8
:10290000FEFEFEFEFFFFFFFEFFFFFFFEFCB8F0FE37
:10291000FFFFFFFFFF7F7F7F7F3F3F7F3F1F1F0F37
:10292000000103030707070707020000000000007B
:10293000000012130000FC06FACA922E9DE5C9960B
:10294000CD6549165CB8F00E41AC563B874D43410E
:10295000442E37402217100F00010202050504051E
:102960000502000000000000000001010000B8FCAA
:10297000FEFFFFFFFEFFFFFFFEFEFEFEFEFC00006F
:102980000F1F1F3F7F3F3F7F7F7F7FFFFFFFFFFFC7
:10299000FEF0000000000000000002070707070724
:1029A000030301001213B85C164965CD96C9E59D75
:1029B0002E92CAFA06FC00000F10172240372E4450
:1029C00041434D873B56AC410EF000000000000033
:1029D00000000205050405050202010001000001D6
:1029E0001F168040A05028D4EA723A9A9A1232F503
:1029F000E191E1F234129A9A3A72EAD42850A04056
:102A0000800700020500E73F3C1D5CDC3DA420A9D7
:102A1000A429A0A43DDC5C1D3C3FE70005020007A3
:102A20000000000002152B242D2C2C262A2A2A2AED
:102A30002A2A2A262C2C2D242B1502000000000007
:102A40000102011C088046DFFF07038247DF7F8702
:102A50000307070E1E362E546C58B8B8D8B85C63FE
:102A60001C2060E0E0F0F8FBFAFCFFFEFCF0F0F068
:102A7000F0E00000000000000107070F0F0F07073C
:102A8000070301110C2060E0E0F0F87B6A6C7FFA2C
:102A9000FCF0F0E050A0000000000000010303057E
:102AA000030503010201000001011E1000000000E7
:102AB000000000008040000000800000818202B21F
:102AC000F4F8F870307070E0C08020405060E8E8A2
:102AD000F0E0E1FA7F3F02070FF50FFFFBFCFF017B
:102AE0000000000C229F7F0A0000010F0B9E0A26A7
:102AF0000AB109B60B9E0B860B030CE90BCE0B3CFF
:102B00007EFFFFFFFFFFFFFFFF7E3C003C7EFFFFDD
:102B1000FFFFFFFFFFFFFFFFFFFFFFFFFFFFFFFFC5
:102B2000FFFFFFFFFFFFFFFFFFFFFFFFFFFFFFFFB5
:102B30007E3C33083C4281BD89BD81BD9589423CC4
:102B4000003C42BDA5A5A5A5A5A5A5A5A5A5A5A58E
:102B5000A5A5A5A5A5A5A5A5A5A5A5A5A5A5A5A525
:102B6000A5A5A5A5BD423C09040408000700030073
:102B700008043A0C2B0C1E0C640C570C4B0C0F8FDA
:102B80003A33620F6B1EF95C0A9FC969AFCBBAACCE
:102B9000CBBACC020F8F3A8101281C109863020235
:102BA00019280844372585CF0027849CC65E7B5CA6
:102BB0008DB30E0DF40CD90CBF0CA60C8C0C710C43
:102BC0009F0D8A0D740D610D4E0D3B0D280D544166
:102BD0005241544F4D414D4F4D454E4F5641534F2D
:102BE00053494B414B494D554E55545553555245FC
:102BF000534554455045504F5049504100080850E6
:102C000040584455407F000808007F4055445840D4
:102C10005008080A021A22AA02FE00080800FE0252
:102C2000AA221A020A01010704041E140505000263
:102C30000204040419000000140101050303232306
:102C400000000006060606061E1402020000000A26
:102C500041000105280002052301000214010101C1
:102C60000F010201140200011E00C32611241FBE21
:102C7000CFEFDAE0DEBFCDBF11E0A0E0B1E0ECEFD6
:102C8000FDE602C005900D92A837B107D9F726E0FE
:102C9000A8E7B1E001C01D92A036B207E1F716E146
:102CA000C6E3D6E104C02197FE010E94F636C53383
:102CB000D107C9F70E94FC260C94FC360C94000046
:102CC0002F923F924F925F926F927F928F929F923C
:102CD000AF92BF92CF92DF92EF92FF920F931F932A
:102CE000CF93DF9300D000D000D0CDB7DEB7DB01AB
:102CF0004115510509F43AC1FA0194903196749145
:102D00004E5F5F4FA92CB12CBA82A982222321F1F8
:102D1000E1E0F0E0372F377011F4F0E0E0E0C72E8B
:102D2000C694C694C694CE0EDF2ED11CA980BA805C
:102D3000CA9CF001CB9CF00DDA9CF00D112463E0ED
:102D4000B62EEB1002C0EE0FFF1F2E9F60012F9FCB
:102D5000D00C11244C0D5D1D29813A81280F391F9B
:102D60003A832983121613060CF000C180389105AE
:102D70000CF0FCC09D01270F311D121613060CF03C
:102D8000F5C0A034B1050CF0F1C04115510509F4AE
:102D9000EDC03A2F3770632E9D01B7FF02C0295F47
:102DA0003F4FE3E035952795EA95E1F7F22FB7FF1E
:102DB00004C0662011F0FFEFF20F22273327281BF3
:102DC000390B97FD02C030E020E0A981BA8160E8AC
:102DD000F62EF81AA038B1050CF4F92CF21AAF2F20
:102DE0000F2E000CBB0BFF3F0CF0A1C0EA2FE095AB
:102DF000E983E1E0672F677009F4E0E07695769566
:102E00007695E70FAE0FB11D199714F0E8E0EF1BB0
:102E100079807F0E772D60E87603D00111248A0F28
:102E20009B1F820F931F262C062C000C330873E087
:102E3000A2E0E712A1E0B92DBF19BA9FB02D11246D
:102E4000AA2EB12C6981969E200D311D11242A9D38
:102E5000B0012B9D700D3A9D700D11246A01C60EB4
:102E6000D71E0115110509F48A0195012150310978
:102E7000620F731F060F171F6FEF70E0062C02C062
:102E8000660F771F0A94E2F79B01209530953A83ED
:102E900029834E2E4F0E4B2F50E0AF9D400D511DFC
:102EA0001124741409F462C0DC01A05ABD4F1E82C3
:102EB0001D82512CF51409F451C0ED81FE81EC0DF9
:102EC000FD1D249130E0022C02C0220F331F0A9412
:102ED000E2F762E0E61609F43EC07BEFE71229C094
:102EE000F901E095F095FC83EB8330E020E077FC7E
:102EF00005C09C907B819722922A9C92662071F05B
:102F0000E6E0E7155CF04D01F0E88F0E911CF4014E
:102F10002081FC812F23232BF401208353942D81C6
:102F20003E812A0D3B1D3E832D831196C3CF19820E
:102F300060CFED81FE81E00FF11FE491F0E0022C03
:102F400002C0EE0FFF1F0A94E2F7BF016095709573
:102F50007C836B83CCCF69817A81FACF7394C40E62
:102F6000D51E040F151F80589F4F9BCF26960FB676
:102F7000F894DEBF0FBECDBFDF91CF911F910F91AF
:102F8000FF90EF90DF90CF90BF90AF909F908F9089
:102F90007F906F905F904F903F902F900895982F63
:102FA0008091FE01923051F0933019F0911107C0D9
:102FB000089590910102990F890F0895880F9091BB
:102FC0000102FACFE0E6F2E081E0A0E0B8E00080A4
:102FD0000EBC8111012C1197A0FDFDCF0192B9F714
:102FE0000DB408952F923F924F925F926F927F920D
:102FF0008F929F92AF92BF92CF92DF92EF92FF9209
:103000000F931F93CF93DF93CDB7DEB760970FB6C3
:10301000F894DEBF0FBECDBF1C015A8349830B87D6
:10302000FA013491319644914E83832F8F778F5FCD
:10303000682E712CC301820D931D97FD99C150E834
:10304000251631040CF094C1842F8F738F5FAB0170
:10305000480F511D57FD8CC1603471050CF088C1BB
:10306000331F3327331F388B91E09D833E8136FF1A
:103070001D828B0177FF04C000271127061B170B49
:1030800007701127AB0177FF02C0495F5F4FFA015C
:10309000A3E0F595E795AA95E1F7F887EF8377FF29
:1030A0000CC00115110549F03197F887EF8348E00E
:1030B00050E0BA01601B710B8B01682F6695669515
:1030C0006695877009F06F5F7B85A30141505109B8
:1030D000711102C050E040E097E0A0E1B0E080E074
:1030E000512C412C912C812CE62FF0E0FD87EC87B0
:1030F0006C857D85861697060CF03AC1EE24E39424
:10310000F12CFD0173E0F695E7957A95E1F7698179
:103110007A81E60FF71FE4916E2F70E0FD01E770F2
:10312000FF2702C075956795EA95E2F7FD01319694
:10313000FF87EE8760FF06C0FFEFEF1AFF0AAE853C
:10314000BF85DFCF31E0E316F10409F0A1C0EE85C1
:10315000FF8563E0F695E7956A95E1F769817A81E5
:10316000E60FF71FE491F0E0EE84FF8477E0E722BA
:10317000FF2402C0F595E795EA94E2F7E170FF2796
:10318000BF016F5F7F4F7C836B831296F12CE12C24
:103190006B817C816E157F0509F4DCC0788977230B
:1031A00059F0692F70E03D81332309F4B9C06C599F
:1031B0007E4FFB016081862B915008F0C7C08823A9
:1031C00009F448C0DF80D80CF7E0FD150CF442C0CC
:1031D000B101640F751F60387105E0F590E0002EB5
:1031E00002C0880F991F0A94E2F7D7FC15C03D2D45
:1031F00060E83603F0011124E20DF31DE40FF51F22
:10320000BF01605A7D4F5B01FB016081222309F4FD
:103210008EC0682BF501608301151105D9F0F7E028
:10322000DF16C1F03FEFD316ACF0ED2DDD0CFF0B38
:103230003196F695FE2FEE27F795E795E20DF31DF3
:10324000E40FF51FE05AFD4F6081222309F473C09B
:10325000692B60836E8167FF04C07D8181E07827E0
:103260007D839FEF491A590A3B85332309F467C0D0
:10327000415051094614570444F04FEF841A940A00
:10328000A30141505109512C412C97E080E05EC0D0
:10329000B701615071097A876987E1E0F0E009843C
:1032A00002C0EE0FFF1F0A94E2F7BF016F5F7F4F6E
:1032B0007C836B83D12CC12CAE84BF84AC0CBD1C31
:1032C000F50133E0F695E7953A95E1F769817A8162
:1032D000E60FF71FE4916E2F70E0E7E0AE22BB240B
:1032E00002C075956795AA94E2F760FF0EC061E091
:1032F00070E00C2C02C0660F771F0A94E2F7EB8196
:10330000FC81E60FF71FFC83EB83FFEFCF1ADF0A88
:1033100069857A85C616D7067CF2AE0DBF1D36CFFD
:10332000E7E0F0E0E61BF70BEC59FE4F43CF782FB8
:10333000709567236FCF892F809568238ACF4614B5
:1033400057046CF44F5F5F4F80E097E06FEFE61A31
:10335000F60A1ECF71E03889731B788BC9CE5FEFF8
:10336000851A950A50E040E080E0512C412CEDCFC9
:1033700060960FB6F894DEBF0FBECDBFDF91CF9140
:103380001F910F91FF90EF90DF90CF90BF90AF9083
:103390009F908F907F906F905F904F903F902F9075
:1033A0000895E6EEF1E080E0919191118F5F91E058
:1033B000EC3EF907C9F70895282F36B58091020130
:1033C00090910301832780FD0EC0909303018093A9
:1033D0000201621B770B80910201909103010E9410
:1033E000CE36820F08959695879534EB9327EDCFCF
:1033F0009091E401981721F08093E4011092DC0190
:103400000895E091E5018091DA01E43041F094E023
:10341000E99FF0011124E15BF34DE4918E0F0895D3
:10342000EEE9F1E0A08DB0E0A65ABE4F8C918F3F3F
:1034300049F4838D811107C0349691E0E23BF9078E
:1034400089F7089581E00895EF920F931F93EE247A
:10345000E394890120E00E9460161F910F91EF9084
:103460000895CF92DF92EF92FF920F931F93CF9325
:10347000DF93EC017B016A01A90120E00E94F217B1
:1034800021E0A601B701CE010E94F217DF91CF9192
:103490001F910F91FF90EF90DF90CF9008952091B2
:1034A00096013091970127703327232B51F4909187
:1034B000B2019F5F891719F09093B201089510929D
:1034C000B2010895AF92BF92CF92DF92EF92FF9236
:1034D0000F931F93CF93DF936C017B018B01040F3C
:1034E000151FEB015E01AE18BF08C017D10759F0D8
:1034F0006991D601ED91FC910190F081E02DC6011A
:103500000995892B79F7C501DF91CF911F910F9113
:10351000FF90EF90DF90CF90BF90AF900895EF9223
:103520000F931F933AEFE32E10E000E00E94601625
:103530001F910F91EF900895EF920F931F933BEF20
:10354000E32E10E000E00E9460161F910F91EF90B3
:103550000895EF920F931F9332E0E32E10E000E006
:103560000E9460161F910F91EF900895F89487E7DD
:103570008093000880930108A89588E180936000FB
:1035800088E080936000FFCFBC0190E080E0AB0159
:10359000FC010E94DF1A41505109E109F10928F0AC
:1035A00068517C4F8F4F9F4FF6CFAB01FC010E94BB
:1035B000DF1A641775078E079F07C8F30895A5E8FB
:1035C000B1E02FB7F8947D918D919C9166B52FBF96
:1035D000A89B05C06F3F18F47F5F8F4F9F4F22E07D
:1035E000660F771F881F991F2A95D1F708958FB10D
:1035F0008095807F669B88601C9B84600895811104
:1036000009C086EA5C988EBD00000DB407FEFDCFB0
:103610005C9A089587EAF6CF480F592F511D14166A
:103620001506D4F580389105B9F197FF02C090E0F6
:1036300080E04138510514F040E850E0481BFB01A0
:1036400077FD379633E0F595E7953A95E1F7F695EE
:10365000FE2FEE27F795E795E80FF91FE05AFD4F8B
:103660006770772781E090E001C0880F6A95EAF7DC
:10367000382F213041F4415078F08191DF011197CA
:10368000832B8C93F8CF8095415030F09191DF01DE
:10369000119798239C93F8CF089580389105B8F43A
:1036A00060347105A0F420E191E061FD94E060FDDB
:1036B000990F62FD9295687F269FD0011124A80F73
:1036C000A05ABD4F8C9140FF03C0892B8C93089565
:1036D00090958923FBCFDF92EF92FF920F931F9378
:1036E000CF93DF937C01D22E8B01040F111DEB01D0
:1036F00077FF02C0D0E0C0E0C8010134110514F02A
:1037000080E490E0C817D9073CF44D2DBE01C701F5
:103710000E944D1B2196F0CFDF91CF911F910F9109
:10372000FF90EF90DF900895BF92CF92DF92EF92DB
:10373000FF920F931F93CF93DF93C62FD42F082FA1
:10374000880F110B68017801E60EF11CCE14DF041E
:103750005CF420E04D2F70E060E0C6010E946B1B1E
:103760008FEFC81AD80AF2CFBB24BA94BD0EC2504C
:1037700068019FEFC91AD90A21E04C2F70E060E080
:10378000C6010E940C1B8B2D8150990BBC0180340B
:10379000910528F421E04C2FC6010E940C1B21E06A
:1037A0004B2D70E060E0C6010E946B1BC6018C0FC0
:1037B000911D21E04B2D70E060E001970E946B1B92
:1037C00020E04BE15CE26FEF7FEFC8010E94A91A95
:1037D00098E0E91AF10820E041E15CE26FEF7FEF49
:1037E000C7010E94A91A8D2F8850990BEC0120E087
:1037F00047E05CE2BC01C8010E94A91A20E04DEF3D
:103800005BE2BE01C701DF91CF911F910F91FF9045
:10381000EF90DF90CF90BF900C94A91AEF92FF9297
:103820000F931F93CF93DF93182F8091DE01C091E8
:10383000DB01882331F0E091DF01F0E0EA5BFE4F2D
:10384000C0819091E401892F8D7F01E0813009F0E2
:1038500000E08091DD01D0E0E090EC01F090ED011E
:10386000882321F08770843008F04FC02091DC015C
:10387000923068F19430A8F58091960180FF3CC0A9
:1038800093E08091DC01890F9927991F880F991F78
:10389000FC01E054F44D25913491FC01EE54F44DBB
:1038A00045915491BE01C7010E94311A8091E501F2
:1038B000843009F457C09091E401913009F48FC02D
:1038C00090F100E0933009F08FC001E08DC080914D
:1038D00096019091970166E070E00E94CE36892BA8
:1038E00011F090E0CECF2F5F233019F02093DC0150
:1038F000F8CF1092DC01F5CF2F5F243019F0209320
:10390000DC01BECF1092DC01BBCF8DEF9FEF002317
:1039100011F081E090E02EE73BE244E95BE2BE017A
:103920008E0D9F1DC1CF0091DC01002309F45CC006
:1039300000E034E090E0880F991FFC01E858F44D56
:10394000A591B491FC01EE58F44D45915491BE01FE
:10395000631B71098091EC019091ED019D0102962C
:103960000E94311A8091DE01882361F08091EC0180
:103970009091ED0120E047E65BE26DE270E0029697
:103980000E948F1A112391F12FEF3AE242E35BE29A
:1039900070E060E090E080E00E94241A8091D701FE
:1039A000883040F420919601309197012F71332790
:1039B0002131E0F0853608F084E663E00E94C036ED
:1039C000D82FC0E0CD1790F48C2F90E021E042E09A
:1039D00063E070E040960E946B1BCE5FF3CF909146
:1039E000DC0101E09111A5CF35E0A4CFDF91CF91AB
:1039F0001F910F91FF90EF90089508951F93CF931B
:103A0000DF93EC016A3061F48D818C838E8199851E
:103A1000890F8E8381E090E0DF91CF911F9108950F
:103A20008C81603219F48E5F8C83F4CF162F6E81F7
:103A30006F5F133219F1143281F12FED210F322F04
:103A40002D3F8CF02F3FDCF027FD0DC0062E000C23
:103A5000770B082E000C990B3F814EE957E231306D
:103A6000F1F40E948F1A912F9F7D8C819934D9F2A5
:103A70001732C9F29C34B1F48D5FD6CF3DEF082EDA
:103A8000000C990B23E0230F062E000C770B6150DE
:103A900071093F814EE857E2E2CF3EEFF0CF0E943E
:103AA0009C1AE1CF98859D5F890FBECF0F931F931E
:103AB000CF93DF938C01D0E0C0E0F801EC0FFD1F45
:103AC0006491662341F089E891E00E94FE1C892BF5
:103AD00011F02196F2CFCE01DF91CF911F910F917E
:103AE0000895089590E080E0089566E080E00E94E7
:103AF000DC19482FE82FF0E0359656E04E171F06E8
:103B000009F004F5842F652F0E94B436892F292FE0
:103B100030E022563E4FD901A85BBF4F9C919923BC
:103B200079F09150843038F44091E501841303C05A
:103B300044E04093E501285B3F4FF90190830895ED
:103B40004F5FDCCF80E00895CF93C62FC69549E044
:103B5000849F402D1124455F80E48C1B0E94941BA0
:103B60008AE48C1BE9E8F1E08483858385E0868321
:103B7000CF910895FC012081222341F01092AD01E4
:103B80001092A0011092F501108208958091A00179
:103B900081508093A00181E08093F5010895CF9337
:103BA000DF93C82FD0915F02DD23F9F0D23009F402
:103BB0009EC0C5FF06C0DD2309F4C9C0D150D09313
:103BC0005F02C6FF08C080915F02833009F4C1C064
:103BD0008F5F80935F02C2FF05C010925C028FEF7F
:103BE00080935902DF91CF9108950E94D119C7FFA8
:103BF0000EC090915702933020F09150909357024D
:103C000006C020915602211113C09111F6CFC4FFB6
:103C100024C090915702282F30E0923068F4215050
:103C2000310992171306CCF49F5F9093570215C089
:103C3000215020935602EBCF80915602482F50E03E
:103C4000BA016C5F7F4F62177307E4F0490F511D93
:103C500021503109421753073CF3C3FFAACF2091EB
:103C6000570290915602920FE6EEF1E030E080E0CC
:103C70004191442319F0931749F03F5F8F5F8630DD
:103C8000B9F797CF8F5F80935602E7CFEDEFE80F3C
:103C9000E33018F08093E5018CCFE130B1F0E230F1
:103CA00001F18091FE01865F8093FE01F0E0E75113
:103CB000FE4F80818150808381117BCF222309F4C4
:103CC00078CF21502093570274CF8091D70190E094
:103CD00044968536910514F084E690E08093D701F0
:103CE000E5CF8091A4018F5F8093A401DFCF87FF90
:103CF00011C090915A0283E0890F981758F4282F29
:103D00002370E22FF0E0E052FE4F30813323D9F0F0
:103D100020935A02C4FF4DCF80915A0221E0280F10
:103D200090E003962817190611F00CF042CF322FBD
:103D30003370E32FF0E0E052FE4F4081442329F03E
:103D400030935A0236CF8150D8CF2F5FEBCFD3E0DC
:103D500036CF80E03ECF2093A0019093F70180936F
:103D6000F6016093EE011092F20181E08093F3017D
:103D70004093EF018093F5010895EEE9F1E011829F
:103D8000128291E0938F89E0808F978F848F93A325
:103D900080A397A384A393A780A70895CF93C82F48
:103DA000883099F080E0CA3089F00E94BD1EC3308F
:103DB00039F008F052C0CC2309F457C0C130F1F5F6
:103DC00080E88093000184E057C085E68093A001DD
:103DD0003091FA012091FB018091FC01813091F535
:103DE000809100029091FF01930F9093FF01820F49
:103DF000809300028091FF018093FE018091000278
:103E00008093FF01109200028091020280930102D0
:103E10008091030280930202109203021092FC012F
:103E20001092FD0183E08093A401CA3039F480919F
:103E3000AE01843019F481E08093AC01C093A701F6
:103E4000CF9108958091030290910202930F909375
:103E50000202820F80930302CDCFC53049F0C930F2
:103E600069F781E08093A001E9CF81E080930B02A4
:103E700080E88093000182E080930101DFCF809190
:103E8000EC019091ED018C5691098531910568F412
:103E90002091A7012A3049F463E070E00E94E236E5
:103EA000660F6B5D6093DB01089585E28093DB0113
:103EB00008951F93CF93DF93D82FC62F122F85FF1E
:103EC0000BC080E00E94F819D6FF34C081E0DF917A
:103ED000CF911F910C94F81965FF27C08091EC01D8
:103EE0009091ED01853F2FEF9207ACF0042E000C6E
:103EF000550B4817590744F782E00E94F819809142
:103F0000EC019091ED0101979093ED018093EC010C
:103F10000E943F1FD9CF8FE790E09093ED018093EF
:103F2000EC0180E00E94CE1ECFCF8091E401823070
:103F300059F6C7CFC6FF18C08091EC019091ED01F2
:103F400018171906B4F083E00E94F8198091EC016B
:103F50009091ED0101969093ED018093EC01DF913A
:103F6000CF911F910C943F1F8091E401833009F49D
:103F7000ADCFDF91CF911F9108950F93CF93DF9332
:103F8000EB0100E021E0AC0161E270E088E090E04C
:103F90000E94F21721E0AE016DE270E087E090E050
:103FA0000E94F217DF91CF910F9108958F929F9207
:103FB000AF92BF92CF92DF92EF92FF920F931F9337
:103FC000CF93DF939AE0499FA0011124C82FD0E03E
:103FD0002396D12CC12CCA018454994D7C01A62E64
:103FE000B12C450194E0890E911CF701EC0DFD1DEB
:103FF000149100E021E044EA56E2B501CE010397B6
:104000000E94F217212F4AE756E2B401CE010E9426
:10401000A91A8FEFC81AD80A2D9695E0C916D104AF
:1040200021F7DF91CF911F910F91FF90EF90DF90DB
:10403000CF90BF90AF909F908F900895EF92FF9296
:104040000F931F93CF93DF9300D000D0CDB7DEB78F
:10405000FE0131969E012B5F3F4F4AE0642F0E9484
:10406000B4369193E217F307C9F78F0182E6E82E81
:10407000F12CF80122918F0140E556E267E370E0F0
:10408000C7010E949C1AF5E0EF0EF11C86E7E816C6
:10409000F10479F70F900F900F900F90DF91CF916F
:1040A0001F910F91FF90EF900895CF92DF92EF92C2
:1040B000FF920F931F93CF93DF93182F8EE0E82E7C
:1040C00082E0F82ED70115968C911597181327C00A
:1040D0000091AC01C0910702D0910802EC91E2502E
:1040E000E830E8F4F0E0E958FF4D0C94F6367F2014
:1040F000A020DC20FD202021062112214D21CE010F
:1041000006971196ED91FC9100E027E036E240E23F
:1041100056E261E270E08E0F9F1F0E94311AB6E0F6
:10412000EB0EF11CE6E5EE16E2E0FE0659F6DF9135
:10413000CF911F910F91FF90EF90DF90CF90089556
:104140006E01B5E1CB1AD108F7018181928125EF8B
:1041500035E24DEF55E26AE070E08C0D9D1D0E9446
:10416000241AFE013D97D70111968D919C9120E074
:1041700047E955E262E070E08E0F9F1F0E94A91A86
:10418000F7018181928120E045E855E262E170E02B
:104190008C0D9D1D0E94A91ACE014C97D701119636
:1041A000ED91FC9120E04BE455E262E270E08E0F6D
:1041B0009F1F0E94A91AB3CFF7018181928127EF37
:1041C00034E241E255E262E270E08C0F9D1F0E94F2
:1041D000241A002309F4A3CFCE010997D701119621
:1041E000ED91FC9121ED34E243EE54E264E270E0A3
:1041F0008E0F9F1F0E94241A92CFCE010497119612
:10420000ED91FC9120E049EB54E2CFCFF7018181A1
:1042100092812BE734E249E954E268E270E08C0FC6
:104220009D1FE8CF11968D919C9100E020E041E622
:1042300054E262E270E08C0F9D1F0E94F2176FCF74
:10424000F70123810180F281E02DCE010023E1F00E
:10425000049747E154E265E270E08E0F9F1F0E94D1
:104260009C1A809196019091970187709927892BCC
:1042700009F055CFD70113968C9113978F5F833038
:1042800049F013968C934BCF059747EC53E262E2CB
:1042900070E0E3CFF701138242CF14968C9114970C
:1042A000882309F43CCF80919601909197018F71FA
:1042B0009927813108F433CFCE0105971196ED91FE
:1042C000FC91129713962C914EEB53E26BE270E047
:1042D0008E0F9F1F0E949C1A22CFE9E8F1E082E531
:1042E000848385838AE1868387EB93E20C94561D51
:1042F000CF93DF93EC01262F4FE552E264E270E0AA
:1043000089E590E00E948F1A20E0AE0164E270E03F
:1043100087E690E0DF91CF910C948F1A0F93CF93A3
:10432000DF93EB0100E021E0AC0163E070E08DE49D
:1043300090E00E94F21721E041E052E262E270E078
:1043400081E590E00E94F21720E0AE0164E370E0A6
:1043500081E590E00E94A91A21E041EA51E26EE174
:1043600070E085E090E00E94F21780915C0281117C
:104370001EC06091A50181E0682770E020E046E959
:1043800051E281E290E00E94A91A8091A6016BE3BC
:1043900070E0882311F06CE370E020E04BE851E21C
:1043A00081E290E0DF91CF910F910C94A91ADF91F7
:1043B000CF910F910895CF93DF93EC0184E690E0C5
:1043C0000E947C368883CE01DF91CF9108950F93B0
:1043D0001F93CF93DF93CDB7DEB72A970FB6F8942C
:1043E000DEBF0FBECDBF9AE0899FB00111246C5192
:1043F000794D4AE050E0CE0101960E9473368981E2
:104400008093AE011092B20103EB11E067E180E00E
:104410000E94DC19F80181938F01F1E0063B1F0730
:10442000A9F78A818093B0018B818093AF0180933B
:10443000B1012A960FB6F894DEBF0FBECDBFDF9153
:10444000CF911F910F910895DF92EF92FF920F93FA
:104450001F93CF93DF93CDB7DEB768970FB6F8946D
:10446000DEBF0FBECDBFD090AE0184E0D81699F06C
:104470008FE50EEF1FEFE82EF12C0E151F056CF4E3
:1044800020E049E651E262E370E0C8010E94A91A07
:10449000005F1F4FF2CF8FE7ECCF84E0D81651F0CA
:1044A00000E021E041E551E266E370E080E790E062
:1044B0000E94F21720E049E451E26BEF7FEF87E7BB
:1044C00090E00E94A91A20E049E451E270E060E027
:1044D0008CE790E00E94A91A87E0E7E0F1E0DE01B6
:1044E0001B9601900D928A95E1F787E0EEE0F1E0EE
:1044F000DE01529601900D928A95E1F780910B02B0
:104500008150990B2AE0289FB001299F700D11243A
:104510006C51794D4AE050E0CE0101960E9473360D
:1045200010E000E08A8590E0002E02C09595879506
:104530000A94E2F780FF1AC0F801EE0FFF1FE55C56
:10454000FE4D45915491E2E1F0E0EC0FFD1FE00FCC
:10455000F11F608170E0EBE0F0E0EC0FFD1FE00F79
:10456000F11F808120E090E00E948F1A0F5F1F4FA3
:1045700008301105B9F668960FB6F894DEBF0FBE85
:10458000CDBFDF91CF911F910F91FF90EF90DF9002
:104590000895FB0101900020E9F73197AF01461B18
:1045A000570B0C94621AAF92BF92CF92DF92EF92A8
:1045B000FF920F931F93CF93DF9300D000D000D0D2
:1045C0001F92CDB7DEB78091AE016CE671E084300A
:1045D00029F18E010F5F1F4F87E0F80111928A9534
:1045E000E9F793EBE92E91E0F92E680126EBA22E74
:1045F00021E0B22EF70161917F0170E0660F771F15
:104600006253744D42E050E0C6010E947336F2E0FE
:10461000CF0ED11CAE14BF0469F7B80189E891E050
:104620000E94C92227960FB6F894DEBF0FBECDBFF9
:10463000DF91CF911F910F91FF90EF90DF90CF907E
:10464000BF90AF9008950F931F93CF938091AE01C9
:10465000823009F48EC0C0F5882309F46DC0813022
:1046600009F47FC000E021E04EEA58E270E060E02B
:1046700089E490E00E94F2178091AF01883048F4FD
:1046800020919601309197012F713327213108F441
:10469000AEC021E2829FC00111246091B10170E09F
:1046A0000E94E2368B01C0E08C2F90E080179107CA
:1046B00008F09DC021E042E06AE070E0855B9F4F1A
:1046C0000E946B1BCE5FF0CF833009F465C084304D
:1046D00049F6E091B201F0E0E15CF54D649170E0E3
:1046E0006B5E7F4F20E040EE59E28DE490E00E9447
:1046F0008F1AE091B201F0E0E452F64D649170E05F
:10470000625E7F4F2EE639E244EA59E281E490E0AE
:104710000E94241AE091B201F0E0E659F64D64914E
:1047200070E0625E7F4F2CEF38E242E359E286E6AA
:1047300090E00E94241A2EC0E091B201F0E0EE0F4A
:10474000FF1FE750F54D4591549100E021E062E2F2
:1047500070E086E590E00E94F21783E00E944F1A15
:1047600081CFE091B201F0E0EE0FFF1FED50F54D6B
:10477000EACFE091B201F0E0EE0FFF1FE551F54DF9
:104780004591549100E021E062E170E08BE490E01B
:104790000E94F21784E0E2CFE091B201F0E0E8512C
:1047A000F54D649170E0665E7F4F20E04AEA5AE280
:1047B0008BE490E00E948F1AE091B201F0E0E9559D
:1047C000F54D649170E06B5E7F4F21E63AE243E87D
:1047D0005AE28CE490E00E94241A20E043E45AE27A
:1047E0006AE270E084E590E00E948F1AB6CF809173
:1047F000AE01843069F080E580938D0180938E0155
:1048000081E080938F01CF911F910F910C94D3225F
:104810008EE4F2CFCF92DF92EF92FF920F931F932D
:10482000CF93DF93CDB7DEB7A1970FB6F894DEBF75
:104830000FBECDBF282F30E050E040E019A28E011E
:104840000F5D1F4F8AE0C82ED12CE12CF12CCA013C
:10485000B901A70196010E949236605DF80162934A
:104860008F01211531054105510589F790E080E060
:10487000309729F0BF0189E891E00E94C922A196F2
:104880000FB6F894DEBF0FBECDBFDF91CF911F9161
:104890000F91FF90EF90DF90CF900895CF93DF932B
:1048A0000E940A24EC0164E771E089E891E00E942B
:1048B000C9228C0F9D1FDF91CF910895FF920F9316
:1048C0001F93CF93DF931092AD0183E680939E01F7
:1048D0000EE911E0C4E6D0E0F801F1908F01CE01BD
:1048E0000E947C36F81621F06F2DCE010E9484368E
:1048F0002196C632F1E0DF0779F724E648E561E06A
:104900008AE797E2DF91CF911F910F91FF900C946E
:10491000AB1E41E550E06AEE70E285E092E00E9455
:104920007336EEE9F1E08CE0DF011D928A95E9F73C
:1049300083E08683089580E00E94CE1E0E94892431
:104940008FEF80935A021092120246E150E064ED1C
:1049500070E287ED91E00E9473368CE390E09093D3
:10496000ED018093EC0108950F930FB70F931F9201
:1049700011248F939F93EF93FF93E1E8F1E08091EF
:10498000800191E08D5F8D3710F08D579395809366
:1049900080018081890F80839181911D91830281A3
:1049A000011D02838381811D838309270F700927DD
:1049B000029500937F0135D0811100937D018039EC
:1049C00089F400917E01901B963070F087E7809308
:1049D00000088093010888E198E08093600090933C
:1049E0006000FFCF90937E0180917C01815018F090
:1049F00080937C0159F3E5E8F1E080819181019693
:104A00008083918382819381811D911D8283938311
:104A1000FF91EF919F918F911F900F910FBF0F9179
:104A200018958FB18095807F669B88601C9B846001
:104A30000895CF93DF93FC0190E09F5F9F012F5F6C
:104A40003F4FD901892F861750F44D91508145175A
:104A500020F4ED012197588340838F5FF4CFF90153
:104A60006913EBCFDF91CF910895CF93C82F682FB3
:104A700081E00E94A41DC6958AE48C1BE9E8F1E060
:104A80008483858385E086838BEA93E2CF910C94BF
:104A9000561D4F925F926F927F928F929F92AF922C
:104AA000BF92CF92DF92EF92FF920F931F93CF931B
:104AB000DF93CDB7DEB763970FB6F894DEBF0FBEB6
:104AC000CDBF8C01CE0101965C0186E0D5011D921F
:104AD0008A95E9F78091040190910501A091060162
:104AE000898B9A8BAB8BE091E501512CE43021F05E
:104AF000EC0FFD2FF11D51888FEFF801808311829B
:104B00001282138214868091B8018C878091BC0137
:104B10008D878091C0018E878091C4018F8780919D
:104B2000C801888B65E0CE010C960E941925809102
:104B3000E301882359F18D859C85981739F19E856D
:104B4000891721F18F85981709F198898917F1F054
:104B500023E0D8012D93CD0144E050E069E47CE2EC
:104B60000E947336D801EC91BAE0EB9FF00111245A
:104B7000E25DF34DE491E50DD8011C96EC931C9792
:104B800082E014968C93149715968C9390EE692E70
:104B900091E0792E25E2C22E2CE2D22E4301412C47
:104BA000F40181914F01882309F459C0C60185524F
:104BB0009C427C0145E050E0B601CE0107960E9480
:104BC000733665E0CE0107960E94192589858730E6
:104BD00009F445C02F819C85291341C028859D85F6
:104BE00029133DC09E8589133AC09A858F859813F5
:104BF00036C09B858889981332C0D8014D92CD016B
:104C0000B701655D734D44E050E00E947336F701D3
:104C1000E25DF34DE491D8011C96EC931C97411092
:104C200003C081E014968C93F8018181580E518263
:104C300063960FB6F894DEBF0FBECDBFDF91CF9164
:104C40001F910F91FF90EF90DF90CF90BF90AF90AA
:104C50009F908F907F906F905F904F9008954394B6
:104C6000FAE0CF0ED11C84E048129ACFFE013C96A8
:104C70009E012F5E3F4FA191AA0DBB2DB11D8C91BE
:104C80008F5F8C93E217F307B1F766E0C5010E94CE
:104C9000192585E2C82E8CE2D82EF12CD3018D91F6
:104CA0003D018823D1F1F601E552FC425F0145E068
:104CB00050E0B601CE0107960E9473368985873091
:104CC00061F58E81823048F18D81823030F18F81A3
:104CD0009D85891719F02F8582131FC08A85981723
:104CE00019F09F85891319C0D801FD92CD01B50136
:104CF000655D734D44E050E00E947336B3E0FB12F3
:104D000004C082E0F80184838583D80111968C91D8
:104D10001197580E11965C928BCFF394BAE0CB0E9C
:104D2000D11CE4E0FE12BACF8E81853041F483E3DA
:104D3000D8018C938DE2850D11968C9379CF8430B8
:104D400039F484E3F80180838EE1850D818370CF8F
:104D5000833069F48D81823029F487E3D8018C9304
:104D600089E1E9CF85E3F801808384E1EECF8230E9
:104D700009F05ECF8D81823009F05ACF86E3D801E9
:104D80008C938AE0D8CF109298011092990180E11B
:104D900080939A01109297011092960110929C01B3
:104DA00084E491E0909394018093930110928C019C
:104DB00010928B0188E391E090938A01809389019E
:104DC00089E08093920181E08093910110928E019D
:104DD00010928F0110928D01809390018093E401D5
:104DE000EEE0F2E086E592E021E02483158236963B
:104DF0008E179F07D1F70895CDB7DEB76897DEBF4E
:104E0000CDBF11E01093E0001092E2001092E1009B
:104E100080E28093D8001092D7008091650080686E
:104E200080936500789483E084BD83E085BD109312
:104E30006E00E1E8F0E083E08083E0E881E08083D9
:104E4000E3EC81E08083E2EC81E08083EAE787E0C5
:104E5000808380688083559A209A5D9A289A8C9ADC
:104E600084988AE090E00E94C41A7C9B0E94B61A43
:104E700081EC80937C0085B1806F85B984B1877E99
:104E800084B984B1876E84B95E9A5F988AB1806D67
:104E90008AB9769A6E9881B3806F81BB899880B306
:104EA0008D7080BB80E58CBD1DBD85E090E00E94CB
:104EB000C41A5F9A85E090E00E94C41A5E985C98DC
:104EC000E2EBFDE084918EBD00000DB407FEFDCF46
:104ED00031962DE0EF3BF207A9F75C9A81E88093C9
:104EE0006400809165008160809365000E94F71ADC
:104EF00082FF46C02D980E94F71A84788438D9F42E
:104F00002D9A88EC90E00E94C41A2F9882E090E0DD
:104F10000E947C368F3F29F06FEF82E090E00E9484
:104F2000843684EF91E00E94C41A2F9A0E94F71AE7
:104F300084788438D9F30E94F71A84718431D9F4C3
:104F40002D9A88EC90E00E94C41A2E9882E090E09E
:104F50000E947C36882329F060E082E090E00E9485
:104F6000843684EF91E00E94C41A2E9A0E94F71AA8
:104F700084718431D9F388EC90E00E94C41AB6CFD2
:104F80002D9A89E180939A013324339455245394C4
:104F900022242394A9E04A2E8FB7F89440918101EE
:104FA0005091820160918301709184018FBF809143
:104FB0009B01342F381B832F90919C01992329F05A
:104FC00030939D0110929C01E7CF90919A0139177F
:104FD00038F48F5F891700F733BE889513BEDCCF96
:104FE00020929C0140939B018091960190919701A2
:104FF00001969093970180939601809198018093F8
:1050000099010E94F71A8093980190917B01923048
:1050100009F4ADC008F059C0992309F47AC0913061
:1050200009F0BACF909199019095892369F0809108
:105030007A01882319F08CE780937A0180917A01B4
:10504000811106C050927A0180917A01882341F043
:105050008F5F80937A018D3719F482E080937B0112
:1050600000E021E042EC50E261E170E08FE290E08C
:105070000E94F21721E047EA50E26AE170E08BE219
:1050800090E00E94F21721E047EA50E26AE170E006
:1050900089E490E00E94F21710917A0111113EC04C
:1050A00021E047EA50E26AE170E08AE390E00E9482
:1050B000F21721E04FE650E26EE270E08AE190E004
:1050C0000E94F2170E94E21767CF943009F48AC059
:1050D00008F454C0953009F05FCF10919801809189
:1050E000990180958123888FE091A701EB3008F02A
:1050F00052C1F0E0E258F74D0C94F636F828542BE4
:10510000D92B0B2C802CA62CCB2C1D2F2F2FDB2F3B
:105110000D3010927A0120927B0184CF00E021E0D3
:1051200044E550E26AE170E08AE390E00E94F21701
:1051300021E048E350E26EE270E08CE290E00E94F1
:10514000F217812F6FE00E94B4368370E82E0FE4CF
:1051500010E0F12CEF1409F4B5CF41E061E370E009
:10516000C8010E944D1BF3940E5F1F4FF3CF1092A6
:1051700079011092780193E090937B0190919901CD
:105180009095982384FF2BC080917801803108F09E
:105190006DCE8F5F8093780180917901803218F411
:1051A0008F5F8093790193FF03C084E080937B013C
:1051B00000E021E04CE95DE166E070E090E080E035
:1051C0000E94F21780917901803209F07BCF21E0B3
:1051D00041E75DE165E370E080E390E071CF10921C
:1051E0007801DACF0E949B2485E080937B0175CF04
:1051F00090915C02911163C79091AD012091A00143
:105200009111DFC1222339F0283C09F4EFC0CE010F
:1052100048960E94BA1D888D82FD50925C02909142
:10522000A001983C59F085FFEBC080E00E94F8197E
:10523000888D86FF2AC181E00E94F819888D87FF3A
:105240000CC08091A001883C09F073C18091F201EB
:10525000882319F081508093F201988D94FF13C038
:105260008091A001883C79F48091F201282F30E0F0
:105270002E5F3F4F4091F3014217130621F01CF0BF
:105280008F5F8093F20193FF86C0E0900702F09059
:1052900008028091EC019091ED01E81AF90AE8E228
:1052A000AE2EE1E0BE2EFEE26F2EF1E07F2E10E08A
:1052B00000E067018EE6C81AD108882499248C186A
:1052C0009D0880911202882321F180910F02909114
:1052D000100206978E0D9F1D0A97D8F424E64EE51E
:1052E00061E08AE59DE10E94AB1E109212026FE020
:1052F00085E00E94DC199091D701A92FA80FBB2748
:10530000BB1FCD01A536B10514F084E690E0809373
:10531000D701F301819191913F018E0D9F1D069759
:1053200097FF03C09195819591090A9764F4F8015C
:10533000EE0FFF1FEC5AF24E8591949124E64EE554
:1053400062E00E94AB1ED5018D919D915D018E0D95
:105350009F1D97FF03C09195819591090F9764F464
:105360008091AC01882309F412C124E648E662E08A
:1053700082E29DE10E94AB1EC601D7FCC4010A97E0
:1053800024F45092AD011092A0010F5F1F4F033023
:10539000110509F096CF8091DE01882349F08091B4
:1053A000DF018F5F8093DF01843111F41092DE0101
:1053B0008091DD01882319F081508093DD01809177
:1053C000A7018B3010F00C948632E82FF0E0E55105
:1053D000F64D0C94F63662306C326C321133113368
:1053E0006133613361336133CE33DE338C7021F04E
:1053F0001092A001188E91E093259093F5010BCFA8
:1054000015FF3DC082E00E94F8198091EC01909157
:10541000ED018D33910534F001979093ED01809368
:10542000EC0106CF20910702309108022F3F310591
:10543000ECF48091960180FD09C080910502909165
:10544000060201969093060280930502809109025C
:1054500090910A02029690930A02809309022F5FAC
:105460003F4F3093080220930702E2CE2F3F3105D1
:1054700009F0DECE833091050CF4DACECDCF8091E9
:10548000E401823009F0D4CED0CE16FF4CC083E0C8
:105490000E94F8198091EC019091ED018C339105F7
:1054A00034F401969093ED018093EC01C7CE2091E6
:1054B00007023091080222354FEF3407ECF080915B
:1054C000960180FD09C08091050290910602019726
:1054D00090930602809305028091090290910A023E
:1054E000029790930A028093090221503109309368
:1054F000080220930702A2CE2091AC0121119ECE7A
:105500008038910574F210910B02115085EF9FEFD6
:105510009093ED018093EC0185E00E94CE1E812FD7
:105520000E94E7218BCE8091E401833009F086CE82
:1055300082CE8091AC01811190CE00910702109132
:1055400008028091EC019091ED01081B190B8091EC
:105550000C02800F912F911D97FF03C091958195AB
:1055600091090A971CF481E00E94CE1E80910D02E1
:10557000080F111D17FF03C01195019511090A307D
:1055800011050CF06ACE83E00E94CE1E66CEF801B3
:10559000E15EF24E8491F801E45EF24EE491B8ECE3
:1055A000B093A001E093F40192E09093EE01109289
:1055B000F2018093F301E2E8E093EF015092F501EC
:1055C000DBCE211156C087FF07C090915B02992363
:1055D00019F0915090935B0284FF10C0CE010196A8
:1055E0000E94DB2180915B02882329F09981933608
:1055F00029F4823018F48F5F80935B02888D82FDDE
:105600001092AD0183FFC7CE80915B02813059F1CA
:10561000D8F0823009F0BFCE6EE9E62E61E0F62EBA
:1056200004E610E0C8010E947C36D7018D937D010D
:105630000F5F1F4F0632B1E01B07A1F724E644E6D7
:1056400061E084EA9CE10CC0CE0101960E94DB215E
:105650008981833631F52FEF48E662E086EE9CE1E2
:105660000E94AB1E98CE2EEF44E562E08BEB9CE1EE
:10567000F7CF5092F50182FF04C01092AD01109255
:10568000A00183FF88CE80915B02882351F0813096
:1056900009F081CE1092AD011092A0010E949B24CE
:1056A0007ACE0E945E2477CE90915C02911107C55C
:1056B0008091A001882321F0CE0148960E94BA1D56
:1056C000988D292F221F2227221F41F08091A201AD
:1056D000882309F441C081508093A2012093A50141
:1056E00021E094FD3BC020E02093A60192FD509262
:1056F0005C0293FF50CE6091A201E4E06E9FB00186
:1057000011246857734E44E050E0CE0101960E9488
:10571000733689818130C9F158F1823009F4B0C003
:105720009C818091D8018917F0F11092A00184EF3B
:105730009BE19093F7018093F60182E08093EE0164
:105740001092F2015092F3019CE49093EF01509279
:10575000F5018093A7011FCE86E0BECF8091A20104
:10576000863020F48F5F8093A201BECF80E0FBCF14
:10577000EA81F0E0EA51FE4F8081813089F624E62B
:105780004EE562E08CE59CE16BCFEA81ED5FF0E0F5
:10579000EA51FE4F8081853019F624E648E563E042
:1057A0008BE19CE15DCF24E646E462E084ED9BE181
:1057B00057CF5092F50183FF1BC06091A201F4E026
:1057C0006F9FB00111246857734E44E050E0CE0142
:1057D00001960E9473368981882381F08130B1F06F
:1057E0008091D8019C81891B8093D8015092A70198
:1057F000888D82FFD0CD5092A701CDCDEA81F0E017
:10580000EA51FE4F80818F5F8083EACFEA81F0E02A
:10581000E751FE4FF7CF90915C02911150C48091F7
:10582000A001882321F0CE0148960E94BA1D988DD0
:1058300097FF2AC08091A101882321F18150809394
:10584000A1015092A50194FF28C08091A10184304C
:1058500010F58F5F8093A1015092A60192FD5092A6
:105860005C0293FF98CD2091A101822F90E03AE055
:10587000239FF0011124EF53F94DE4912430A1F45A
:1058800080E0EFC084E0DBCF8091A5018823D9F2CE
:105890001092A501D8CF80E0DDCF8091A6018823AA
:1058A000E9F21092A601DACF80529E4FDC018C9172
:1058B00081110AC08091D9018E1760F424E646E474
:1058C00062E086E69BE1CCCE24E646E562E08BEA28
:1058D0009BE1C6CE1092A00186E89BE19093F70170
:1058E0008093F60182E08093EE011092F2015092D3
:1058F000F3018AE48093EF015092F50184E029CF0F
:105900005092F50183FF1EC09091A101A92FB0E034
:105910002AE0929FF0011124EF53F94DE491A05237
:10592000BE4F2C912F5F2C932091D9012E1B2093D9
:10593000D90123E02093A70120915A022F3F11F4AF
:1059400090935A0282FF27CD83E003CF8091EC0130
:105950009091ED01059759F462E080E00E94DC1916
:1059600081110CC00E94BD1E86E08093A70121E337
:1059700044EF612F888D0E94591F0DCD0E94BD1EDE
:1059800087E08093A70124E642E861E087E49BE199
:105990000E94AB1EECCF90915C02911190C390914C
:1059A000A001963609F46FC050F4913098F0953606
:1059B00008F04EC0CE0148960E94BA1DECCC983635
:1059C00009F4A7C008F481C0993609F43FC19A369A
:1059D00009F458C182FD50925C0221E340E0612F3E
:1059E0000E94591F888D83FF70C180919F01909103
:1059F000A401891708F069C10EE911E022EB31E03A
:105A00007801D7015896EC91F0E0E65AFE4F90816C
:105A10009F3F09F05AC1B4E0EB0EF11C2E153F0573
:105A200081F7882309F438C1CE0101960E944925E7
:105A30000E94101A8111CCC189818F3F09F0DCC10D
:105A400024E64EE561E080E39BE10E94AB1E3DC190
:105A50005092F50183FF9FCC8091F8018F3F21F494
:105A600088E00E94CE1E97CC8091F901882321F016
:105A700086E68093A0018FCC80910402882309F4EC
:105A80008ACC89E6F6CF5092F50183FF84CC8091D1
:105A9000F8018F3F29F388E68093A00188E0809386
:105AA000A3018091F9019091B001981748F4891BE6
:105AB0009091AF01891730F4981B9093AF016BCC94
:105AC00080E0F6CF1092AF0166CC5092F50183FFD3
:105AD00062CC88E68093A00188E08093A301809146
