:100000000C9436160C945E160C945E160C945E16C8
:100010000C945E160C945E160C945E160C945E1690
:100020000C945E160C945E160C945E160C945E1680
:100030000C945E160C945E160C945E160C945E1670
:100040000C945E160C945E160C945E160C945E1660
:100050000C945E160C945E160C945E160C94702C28
:100060000C945E160C945E160C945E160C945E1640
:100070000C945E160C945E160C945E160C945E1630
:100080000C945E160C945E160C945E160C945E1620
:100090000C945E160C945E160C945E160C945E1610
:1000A0000C945E160C945E160C945E160B0F97055E
:1000B0008B898B8905411CB0D7BD9B8D110B0954D1
:1000C00030B2486F0B0F2F172C260ED8EB7BDD6C50
:1000D0008C2CD2B70B0F2F172C5C9BBDBED74D229B
:1000E0009345FA160B8F7B8535941B72D223596F7B
:1000F0005A064E286C286630686F8BCF2B1CF5840F
:10010000DC901B3A16596D198C486143614361CAF2
:10011000A02D0B0F2F162C262EA603F67ADFCDC6A8
:100120008805238BF40D0B4FEFE766EEDF3064B2EA
:10013000C77B0B0F2F162C5C585C9BBDDE7793485A
:1001400005239345FA06612046756C6C20486F754F
:100150007365210054776F205061697273210061CB
:10016000205468726565206F662061204B696E645B
:1001700021006120466F7572206F662061204B69F7
:100180006E642100612046697665206F66206120DB
:100190004B696E6421006974656D73206D696768D1
:1001A00074206769766520796F752065787472614F
:1001B0002E0063616E206361737420332074696D57
:1001C00065732C2062757420736F6D6500666F72A5
:1001D00020726563617374696E672E204E6F726D55
:1001E000616C6C7920796F7500746F75636820722B
:1001F000756E657320746F2073656C65637420740D
:1002000068656D0063617374207468652072756E33
:100210006573202D206A756D7020616E64002770F3
:100220006F6B6572272068616E64732E2050726553
:100230007373696E67202320202077696C6C0049F6
:100240006E20636F6D6261742C2063617374207221
:10025000756E657320746F2073636F726500796FBC
:10026000757220656E656D6965732E0076696577B8
:1002700020696E666F726D6174696F6E2061626F66
:10028000757420796F75206F720061636365737395
:1002900020796F757220696E76656E746F72792041
:1002A000616E6420746F0070726F7065726C792E6D
:1002B00020596F752063616E2070726573732024FE
:1002C000202020746F004265207375726520746F62
:1002D00020657175697020796F757273656C660041
:1002E00074686973206372617A792077697A6172C0
:1002F00064210070656F706C652E20506C656173B1
:10030000652068656C70207573206465666561742E
:1003100000686173207475726E6564207573206166
:100320006C6C20696E746F2070756D706B696E00F7
:100330006F6620477269666F72642E20546865206C
:100340006576696C2041737461726F4B0057656C00
:10035000636F6D652074726176656C6C6572207474
:100360006F2074686520746F776E003220502E20E5
:10037000444D470033352044616D61676500486531
:10038000616C20323020485000352046697265206B
:10039000444D470056656E6F6D204D697374005271
:1003A0006973696E672053746172004865616C6996
:1003B0006E672057696E64004669726520426C6101
:1003C0007A6500537065656420506F74696F6E00C4
:1003D0004865616C746820506F74696F6E0046697F
:1003E000726520506F74696F6E00526F756E642075
:1003F00048656C6D657400486967682048656C6D78
:100400006574004372797374616C2048656C6D6526
:1004100074003B073FAC5B7B5B02725969D6654950
:10042000715D56329374BD5CC94CD2755997A0204A
:1004300028B93097FC3A3B473F6C0DC0E0655D241E
:100440008260F0B22E2BCDBA2C29065F4A04C1E09F
:1004500019D7C42ED0DED6000CFE503B073F649562
:10046000B12E4B406E5558BDACC9655D569A755955
:100470005294BCECAAD9B1B7755969D66549C9F887
:10048000413B073F78091CD765090CC96509C8CBF2
:1004900025204A2E6B72ABC2EA8528081A2E4B40E3
:1004A0007E38398F5F452EFB82BC4B30257BE415AF
:1004B000C3E101821BC4E9E6D1AD8C35C6E5B47B4E
:1004C000DB635D6E252069F07773E5035E0A17CA6A
:1004D00053F4C6953B78E2412E91CBB8E6D25B8EC1
:1004E000EB984BE4343E0E398F5F889A1258237094
:1004F000198E22468A79BFBA063D9DD0A5917539DD
:100500008D35CABA2C3AD638A9BA70AE71BA2C3A1F
:10051000D6B81D1659B3DFF114B9AC632E91CBF8E0
:10052000D4BA604E1ED70573C9711D73C9711D738E
:10053000895CD631B02002EB72F214B9A84739CFEA
:10054000EF5717ECDBA5738575B8A14B23EBF2E8E9
:10055000F68D0453B2478EA732D618EF5717ECDB4F
:10056000657596DE3EBF8EB9E43A2EC48BD775C151
:100570005C72CF251FF052B8508E9E2297F1A9755C
:10058000CC25C7F551398F1FE606DD851BA7E1286D
:1005900062A4980759418415B101D39DF2E856C66B
:1005A0001AE372DABDEDB12EB7129034F867F07924
:1005B0002E91CB78CD11725927E0792E91CBB8E6E8
:1005C000D25B8EEB984BE4343E0E3B073F24280869
:1005D0004A4E4B42C6690480044E230024701A21FF
:1005E000B85E2E91F63842C838B156080718A711E0
:1005F00042C66984397E003B471F5E83AECB08004C
:10060000819C940090715A57B2249CD622E3E92A27
:10061000D25E46081967B2249C061C460819A73109
:10062000C9F8053B873F6C09DC609CC6A25E870069
:1006300034F07215B1C721A1E3C45A211C609C8615
:10064000848ED35874FC503B073F64090CC96984FD
:1006500090711A938CD308739C4608AE17AB8C75B7
:100660001A012081CB3A8D304798E33402400227AB
:10067000D60AE1C33B473F6C0DBA2E03365483EBD9
:10068000B416194FD7A0EB32024020A77519938CEE
:1006900049C669048040CE6449F8453B471F58521B
:1006A000542F63B23C269939A10120813359124E4F
:1006B0004A00C838AD976BD07519012090D3BA8C19
:1006C00049C624E33402402067B2247C093B8FBF33
:1006D000E056026B046E8745D6ECEDB0585939AA46
:1006E000BA70AE718B5D185DCA89AEAE72E306DD7D
:1006F000851B8371FB0BE492E33A7A8A5CD4A3A74F
:10070000C8651D73895CD63197C8653C5D173EE0AE
:10071000F35CF27D3BCF5FBE6D585DB7C3226BF6D5
:10072000A4EAC2B9C6E5F6388D095DE634C61AF406
:10073000F47475C1BE5D5667E9ED17E692E33A7A47
:100740008A5CD4632E91CB3AE692C7920B2017EEC7
:10075000E38239F9781D73C971FD083B8F5F452E1F
:10076000FB82BC60DC2E63AC414FCF8244049356C5
:100770001446C9E6CDEA1AF4745A63DFBA4F97D526
:1007800005A1A1E41773E57D2EB98E0BE6E473E0B5
:10079000B42E81238FD70573F2B86E3DE692E3BA8B
:1007A000A0A77C0F3B8F7F186ED05DB8711A8E2288
:1007B000468AB9AFB20028008BAE41D73F239FE7EE
:1007C00012B98CC7C0897211E004FC79003BCF1FBD
:1007D000E006DD851BA7E12862A498FB2A0B8002B6
:1007E000B0E81A747D1DB9EC0B721E1D418A4BDEF8
:1007F000E5089E0080090CA0FE349FE712B98CC763
:10080000C0897211E004FC1CAE3C5E17CCC9179C79
:10081000809B003F023B8F076ED05DB871A3ABEBAE
:10082000742A638D715F65015000165D83AEAF2140
:10083000977D415E306E9731D6A0A7873982270019
:10084000600203A89FF25BEBE82972198F8113E520
:1008500022C009F83C57DEE792EBB8604EBEE004D8
:10086000DC04F8181B8FBF83AB57AF5EFD6D392AD0
:1008700038200222540802110431023B021B301BB3
:100880003025800920602400086EAF6B001B8F9F0D
:10089000F1CAAD65812A850D85A2541CCC9EBDF29E
:1008A000B11CB5820066A10201040422A8400920FF
:1008B0001003E800000402086811003304B032BCE1
:1008C000AE011B8F070F085E20AFB97AF5EAD5DFBE
:1008D000964D1504000041000010A0002008225091
:1008E000365036F5901A7090A086A02A314EB70780
:1008F0000908080C020D0B0D020C0808083A3B33DE
:10090000333B3A013A110B10001010901000170001
:100910001D1810101010101000000000070604042D
:1009200004040404000400000020202050726573B9
:100930007320506C6179204F6E20546170650A20DD
:1009400020202020446576656C6F7065642032300D
:10095000313900205265737420496E2050656163FF
:10096000652046696C6D6F74652E0A2020426F7297
:100970006E2031383431202D2044656320313837E2
:10098000390020202048657265206C696573205607
:10099000616D7069726963732E0A2020426F726EF6
:1009A0002031383433202D204465632031383832EB
:1009B0000027DF379A5DDD2C368BCD62A3B291B074
:1009C000596C169BC566B1195C2817CA45BA5336CF
:1009D0008B2D63A77C637FCEF08205BC21C0CC60E9
:1009E00073CA9D6FED2619090909ECEFED2F580622
:1009F000B00001560110D009DC107845189537BCBD
:100A0000DFE14018190CD99FE9B81CBD7A75272A77
:100A100021AAA871339C2C17D30BF1EAD5E305ED7D
:100A2000C8F278193D0327DF1776BA6AB9502E94B9
:100A30000BA50945004239B0D82C368BCDE240B920
:100A4000500E7625E542B950339BCD17F6E70C2FB3
:100A500058C01306303259DC7CC1273699196942D7
:100A60004202FB7BFB0B96012C4080550004747AFC
:100A700015DE1132C20B1EEE32B810460643F66781
:100A80003A2E47AF5EDD894A882A6A3C5037C3C197
:100A9000F6845EBD669D1487CBE5F1327A06279F0A
:100AA0002FD8E9AAE542B9502E9402A194413921E8
:100AB00037E486DC901B72434E3A1BB9A1DDE6C2D7
:100AC00007F7B7B864B178C20692C9E2414E7C6BB1
:100AD00093193126B0BFBF1F0B0359808C05202806
:100AE00070062EC00B823D70E22BBB0C06C321FBAF
:100AF000B31D97A357274B63100928A2CA74B05D92
:100B00002EAF868B57AF5927C5E1625D469F0127FF
:100B1000DF2756D6888BCDE042B9509A50042094F6
:100B20000BE542B9502E940BE542B950BB9A4DB932
:100B300050339BCD17F6E70C2F58C01B02CC0C3658
:100B4000A73CE053BB4946424202FB7BFB0B9601AC
:100B50002C4080550004740237045E1146E5091FDD
:100B6000D8E14018190CD99FE9B81CBD7A75272A1D
:100B700021AAA871339C2C17D30BF1EAD5E305ED1C
:100B8000C8F278193D030B4F3A9028250C6032D9F2
:100B90000C93F270C89883BA5C1EE80A03070B4FE7
:100BA0005AA5C8660093C96658078B1743C61C240C
:100BB00023230732C31E0B8F3180140D41E0821CAA
:100BC000C19903F0620C9CA5B9AC4DE7620C0B4FC8
:100BD000271319822200A10806A0A4CF5252521254
:100BE0008100902D105A5242030B0F37072A18101C
:100BF0008100200A29BB0F52424343350819D5868C
:100C00008686A60B4F1BAD220A8A0084221880928A
:100C10008637292989894000C8168829293B098FE8
:100C2000DB13012650603139A03F0A094F07242009
:100C30002C16D0408145032ABF08894F6E1630809C
:100C400005540C0200021188FC2000098FDBD39CA4
:100C50009775388C5FC115098F07649CC631A7B1A1
:100C6000E5277005098F6B1CF63CE5CC457E805767
:100C7000000D8F3B07B2C20694A1A0062630601C6F
:100C8000387002C2048EFBB28E5C628E0D8FBB93F5
:100C900031C20694A1A006265080BEE048D8C26D9D
:100CA0005FF6C983E90D0D8F133A980D1B508682AC
:100CB0001A9840B51F000E81E3BAEC9B9B404F0D84
:100CC0008FBB9331C20694A1A006265080BEE04897
:100CD000D8C26D5FF6C983E90D0D4F3B9B8E4D0069
:100CE000610082189940491FB280B2806397CB8E11
:100CF000A325A4070D4FBB9B8E4900610082189964
:100D00002C1C2F592C8670EB72D97135CE6E0D8F3D
:100D1000BB9331C20694A1A006265080BEE048D8FD
:100D2000C26D5FF6C983E90D0DCFC7B98E7C2EF376
:100D300011E470589775599775D9D90D8FBBF394F5
:100D4000CFB1E90B8E635FD6655DD6651D6E0D8FE5
:100D5000738D5B3EC7B41FC8E1B22EEBB22E6BD0D1
:100D6000130D8FBBF394CFB1E90B8E635FD6655D36
:100D7000D6651D6E0D8F3B87C3387AF59A45DF70B7
:100D80009AF3B22EEBB22E6BD0130D8FBBF3D4A31C
:100D900057AF393DE138F6655DD6655DD6E1060DA4
:100DA0008FBBF394CFB1E90B8E635FD6655DD665DB
:100DB0001D6ED5F08D14A1C881CFD9F1AF20001AD6
:100DC00020FFDFDFBF7F1FFFFFFF6F1FEFFFFFFF72
:100DD000FF77A3DDFFFFFFFFFF7FFFFFFFFFFF3B6D
:100DE00006A1F87FFFFFFEFEFD09F0DF3D1DCBE011
:100DF000EFE7F0FFFFFFFFFFFFFCF8FCF8E0F10278
:100E000005031014B3C1E8F4F9FFFFFFFFFFFFFF74
:100E1000FFFFFFFFFFFF7F1F00000060000067DF94
:100E2000BF7FFFFFFFFFFFFFFFFFEFDFBF7D02FD83
:100E3000FF7F2F9FEFFFFFFFFF77A3DDFFFFFF7F08
:100E4000FF7FFFFFBD7D7B3B0661F8FEFFFBF7F7F1
:100E5000ED01F0FFFF7F338F5F8FE0FFFFFFFEFFAD
:100E6000FFFEFCFCF801710307031014B3C1E8F4A2
:100E7000FBFCFFFFFFFFFFFFFFFFFFFF7F9F600EF9
:100E80000000C01F000067DFBF7FFFFFFFFFFFFF05
:100E9000FF51FF0079FF01D8FF005E0000D2000083
:100EA0006324320126011201FA00E400D400C400D8
:100EB000AC00596F75206469656421204C6F7365BF
:100EC0002068616C66206F6620796F75720A202039
:100ED00020202020676F6C6420616E6420736B6932
:100EE0006C6C20706F696E7473210020736B696C79
:100EF0006C20706F696E74732E00596F7520736368
:100F00006F726564200020676F6C6420636F696E88
:100F1000732E00596F752073636F72656420002013
:100F2000596F75206B696C6C6564204173746172D4
:100F30006F6B20616E642066726565640A74686513
:100F40002076696C6C61676572732066726F6D20C4
:100F500074686520637572736521002066726F6D19
:100F600020796F7521002072756E650054686520C8
:100F700047656C6174696E6F757320437562652097
:100F800073746F6C6520610A202020002064616DFD
:100F9000616765207074732E002061747461636BE7
:100FA000732C200020687020706F696E74732E009F
:100FB0002020417A7461726F6B2073746F6C6520AE
:100FC00000206865616C746820706F696E74732EA0
:100FD00000596F752072656761696E656420002035
:100FE000707473206F662064616D6167652E0050B8
:100FF0006C757320616E20657874726120002070BA
:101000007473206F662064616D6167652E00596F8F
:101010007520696E666C696374656420006E6F7418
:1010200068696E672100840172015F015401460105
:1010300021006120000503010307030105030406E5
:101040000706040A004D0330031103F302E002C651
:1010500002A7028A026C025E023F021E020402E93B
:1010600001CD01B2019601526573746F726520471C
:10107000616D6500536176652047616D650A4E6557
:10108000772047616D650A000A004E616D653A0A76
:101090004865616C7468203A0A446566656E6365EC
:1010A000203A0A0020456E656D79205374730089DB
:1010B000037E0374036B03B803AB039F0394032005
:1010C00020202052756E6573004865616C7468203D
:1010D0003A0A536B696C6C203A0A446566656E6324
:1010E00065203A0A476F6C64203A0A44756E67655A
:1010F0006F6E73203A00537461746973746963731B
:10110000000703010307030502010703040607069E
:10111000050204020203030A002078200004073EAF
:1011200041553E0304F703EA03DE03D003C3032063
:10113000496E76656E746F72790003075F2E140333
:1011400007142E5F08083C42BDADA5BD423C003CE3
:1011500042BDAD423C0000003CFFC33C0000003CEF
:1011600042A5BD423C0037973F1338010013508021
:10117000004C112E201C44DC80ADC4600BB82178DB
:1011800000E102E20408800213003801BFDEAB5721
:10119000BE332F000000C08E174787A3C3515407EA
:1011A000822A451564A8D2E1E8707478311B0000EA
:1011B00000B8CCEF70F5EABB71904CF412003270BD
:1011C0001C12A10020C010EB0C9001108022825054
:1011D000B0425101280002500004A0000840015014
:1011E0002958A120881420002340A615078000500C
:1011F00030390C1901201765060F030B1000000091
:10120000A0F0D0A080000000FC02292028082902BC
:10121000FD02FC0605110A171B0E110605000C162F
:101220001F0C00040406090F060A0F0F08090D0F12
:101230000A090B0F0F03020F0F070D0D0D0F0A0EFA
:101240000E010D0F030E0B0B0F07050F0F0C083CC3
:10125000428181818181818181423C0B0DC7831B49
:101260002363FF03037B030318181B18181F1818A8
:101270001F1F1F81045B043604120485053E05E729
:1012800004A204280BF00804A4945404F454240881
:10129000F000FC02FDFDFDFDFDFDFDFDFDFDFDFD84
:1012A000FDFDFDFDFDFDFDFDFDFDFD02FC0001025E
:1012B0000202020202020201000001020505050508
:1012C00005050505050505050505050505050505CE
:1012D00005050502012DDF3F173881700000600110
:1012E000441A2B2AB60421B2B0B2B0B2086512E497
:1012F0004038F2C710B42A4398A3DEB8640C17092B
:10130000C60A646C1C28601CC19591845BB8D981A5
:101310000507BAFD261308000318BC6B11741B5196
:10132000308A04105DC80065220258010411A12012
:10133000280860119085441413842180D84CA8900B
:10134000944F399080200841861FA1005922EE0059
:101350004E41C20000B402012840400A008014013E
:101360000028020050800854501908004E11B7811F
:1013700094F21DB187AB9C870014725204A0E398CD
:10138000E1CA69084021CF6195705AB0C769084029
:10139000214F510168E0B4608FD390D07159123A57
:1013A000002997BF7ACD2CE3093C7A444E0C96175E
:1013B000FFAEF7EF7204E0001CF6EFE4B567AE5E37
:1013C0007DCE95EF71E6CC99D75EBD72F635FFFF05
:1013D000FFFFFFFFFFFFFFFFFFFFFFFFFFFFFFFF1D
:1013E000FFFFFFFFFFFFFFFFFFFFFFFFFFFFFFFF0D
:1013F000FFFFFF1F1F1F1F1F1F1F1F1F1F1F1F1F5D
:101400001F1F1F1F1F1F1F1F1F1F1F1F1F1F1F1FEC
:101410001F1F1F1F1F1F1F1F250DFFFFFFFFFFFFA8
:10142000FFFB0303BB0347FFFBC3033F83FBFFFB40
:101430000303BB13FF0303FFFFFFFFFFFFFFFF1FBC
:101440001F1F1F1F1F1F1B18181B181C1F1F1B18D7
:10145000181B1F1F1B18181B191F19191F1F1F1FCF
:101460001F1F1F1F9B06740647062306F705CA05A4
:101470001508CD07A4075B071407CD0612100080DE
:10148000403D010101F40404F40101013D408000EC
:10149000F7E8D1C0DCA24158444E5841A2DCC0D08C
:1014A000E8F7008040BDC1C101F40404F40161E12A
:1014B000FD408000F7E8D7C3DDA25D7663775F5D0E
:1014C000A2DCC1D7E8F70080403F151501FC7C5431
:1014D000D4011F1535408000F7E8D1C0DCA241548B
:1014E0005A5A4041A2DCC0D0E8F7118761C284EEAD
:1014F000100830901B7243061008D9850993009B91
:101500000FFF7E01C2088D0864083F87ABB042A977
:10151000A5D4526A29B5945A4A2DA596524BA9A52D
:10152000D4526A29B5945A4A2DA596524BA9A5D4EE
:10153000526A29B5945A4A2DA596524BA9A5D45260
:101540006A29B5945A4A1674010B0D0303BB232371
:10155000FF03037B030318181B1C181F18181F1FF9
:101560001F280BF00804F494D404F4542408F00069
:10157000FC02FDFDFDFDFDFDFDFDFDFDFDFDFDFD97
:10158000FDFDFDFDFDFDFDFDFD02FC000102020271
:10159000020202020201000001020505050505051F
:1015A00005050505050505050505050505050505EB
:1015B0000502012DDF3F1738817000006001441AD9
:1015C0002B2AB60421B2B0B2B0B2086512E440389A
:1015D000F2C710B42A4398A3DEB8640C97060343FD
:1015E000482E98251888C19591845BB8D981050744
:1015F000BAFD261308000318BC6B11741B51308A06
:1016000004105D8802CA05810B20880805612070DE
:10161000014445228A09C210406C265448CAA71CBE
:101620004840108420C38F50802C117700A7206180
:1016300000005A81001420200500408A0000140197
:10164000002840042AA80C0400A788DB404AF90EB1
:10165000100EBAB6BE5E3EFE7E7E6E76EE3E5EBE7C
:10166000BEB6040222142438051D252D140C0236A2
:101670000A040C0E0C0E0F0A00080C0C0E0E0F0EB6
:101680000C00000000000000000000000000080C3A
:101690000E0F0E0E0C0824040C020402050A0008AA
:1016A0000404020601020C0000000000000000001B
:1016B0000000000008040E01060204083221FFF2B7
:1016C0000C6C6C4824000000008600FFFFFFFB83C9
:1016D000FD83FBFFEFDF81FBF7FFFBF789F7FBFFE4
:1016E000FFFF00008C0000000024486C6C0CF3FF2E
:1016F000FFF30C6C6C482400000000CC000181C199
:10170000C1C1C1C1C10181C1C1C1C1C1C10181C1C9
:10171000C1C1C1C1C0008C0000000024486C6C0C29
:10172000F3FF3F330C6C6C482400000000C0000C39
:101730008CCCCCCCCCE018C4320A0A0A0A0418ECCF
:101740008CCCCCCCCCC0C8008C0000000024486CF1
:101750006C0C73BF00000C6C6C482400000000C0CF
:10176000000C8CCCCCCCCCFF00FF000000000000B3
:1017700000FF8CCCCCCCCCC0C8008C000000002476
:10178000486C6C0C00FF000000000000000000002E
:101790000000000000000000000000000000000049
:1017A0000000000000000000000000000000000039
:1017B00000000000000000011512FF7F7FFF0FF7FF
:1017C0000BF3DB4B394ADBF30BF70FFF7F7FFF0097
:1017D000FF0000ABAAA9A8A9A9A9A9A9A82122012B
:1017E00000FF0000000300000202020202020200E9
:1017F000000000020000030000000000000058FC90
:10180000FEFFFFFEFC580000000080800000C0E0EA
:10181000F0F8F8F0E0C0000080800000000058FC04
:10182000FEFFFFFEFC580000000000C0E0F0F8FCE6
:10183000FEFFFFFFFFFFFFFEFCFCFEFFFFFFFFFEC2
:10184000FFFFFFFFFFFFFFFFFEFFFFFFFFFEFCFCB0
:10185000FEFFFFFFFFFFFFFEFCF8F0E0C0321000CC
:101860000000000058A45AB5255AA45800000000F2
:1018700080800000C020D0A828D020C00000808038
:101880000000000058A45AB5255AA45800000000D2
:101890000040A050A8542A158AA4A48A352AB4442A
:1018A0004241A0AAB5AAB7ADA2A5A1A2ADB6AAB55C
:1018B000AA404142A4346A158AA4A48A152A54A8CD
:1018C00050A040F8FEFFFFFFFFFFFEF83F3F3F3F05
:1018D0003F3F3F3F3F090E07F986AA82AA86F907D4
:1018E000003F20242A26203F00E0F0F8FCFCFCFC0E
:1018F000FEFFFEFCFCF8F0E00103070707070707FF
:10190000070707070703010F0BE010E814E4B4947E
:101910007295B6E414E810E0010205020103020228
:10192000020301020502014B1CFFFFFFFFFFFFFF47
:10193000FFFFFFFF7FBFFF80FEFE00FF0000606033
:101940006060676361616161616161616161616181
:10195000616161616161616165690161010101014B
:101960000101010101010101010101010101030363
:10197000070F6F0FFFFFFFFF7F43BD423C722A2618
:101980002A723C42BD427F0002000000FEFE00FFC2
:101990000A0B0A0B8A4B2AABAAABAA4B8A0B0A0B7F
:1019A00000FEFE00000077323332333233323332FE
:1019B00033323332333233320000000000FFFF078E
:1019C000F71717109F1D99919F911F1D19919FF156
:1019D000BF50F003000000FFFF00FFD3D2D3FE0191
:1019E000FC03000000000001FED3D200FFFF000056
:1019F00000773333333333333333333333333333A6
:101A00003333330003000000FFFF000F0A04080215
:101A1000020200020000000001010F0A050F000091
:101A200000000F0F000F0D0D0D0F000F0000000044
:101A30000000000F0D0D000F0F000000070303034F
:101A40000303030303030303030303030303000369
:101A50000000000F0FFEFEFEFFFFFFFEFEFEFEFE7B
:101A6000FEFEFEFEFEFEFEFEFEFEFFFFFFFEFEFC95
:101A7000F87F7F7F7F7FFFFFFFFFFFFFFFFFFFFFFD
:101A8000FFFFFFFFFFFFFFFF7F7F7F7F7F000000E3
:101A9000000003030303030303030303030303031C
:101AA0000303030300000000001C12FE02FAF57598
:101AB000F57ABA5AAACA3A3A3ABA3ACAAA5ABA7A8B
:101AC000F575F5FA0204F87F405F5F5BDC1D9A9FB5
:101AD0009F9F9C98941B1C1F1F1F1A1D1CDB5F5F80
:101AE00040407F00000000000300010101010101EE
:101AF0000100000000000000000300000000009B47
:101B0000CF39EC79CA6B8FE3304F3DFA9CE3B8AC28
:101B1000C3217F5F1BC733A7358FBECE91CF791C02
:101B2000A71CE73A6502041055A055A075FFD5FF24
:101B3000A1CF536421F1DEB2981C330104985E51A9
:101B4000800520C0428E28C00200E4D160920619B0
:101B5000DD197F588E005C40380113FFAF0C4075D3
:101B600041A2408D12A40E407541A2408D07EA00AB
:101B7000821EA807EA813A80A007EA817AA00E06B1
:101B80007A7508C3210C87301CC27080C3810C8712
:101B9000301CE0F0EAD5050C07381CE07020C321AA
:101BA0000C07381CC870315DC070381DE07020C350
:101BB000E1F4EA028603586E8643180E7078F56ADF
:101BC00039580E4A806139580E96831260580EC6F5
:101BD000029AC05205864582C6029AC05205460A3C
:101BE000681C101840351844B180C60181015403A7
:101BF000933081100E9C090093308110BEC04C338D
:101C0000F9C47EB7CBA2FBBECB48FCCABE3BD8FB17
:101C1000BEEF3B6C12BA53AAA4F71D66B6EFF67D71
:101C2000DF771979CD4C3379094CC204209C3910E7
:101C3000024CC284688101816114A8281289161897
:101C400010184681B680C6018101548341140B6887
:101C50001C1018403530091308E1C099002F996C09
:101C600016892CAC2CAC2C4C586C54AA48B0A2A2AF
:101C7000202A22A222222A0351111409561656168E
:101C800022A2B259084A102B12AC04B1A2228385B9
:101C9000A0A85891602588092A1B95121656165639
:101CA00054AC2C42511988042B0B2D8B812CAC2C5D
:101CB00064B0983C019E702004988409D10203020C
:101CC000C328505124122D3020308C026D018D0319
:101CD0000203A806832816D0382030806A601226B6
:101CE00010C28133016012260F3797C1CA306F5E70
:101CF0002664C75853C972355F78F79D9DA935C6CC
:101D0000014F1C6F8ED3B132D77A755FB976DCDFA5
:101D10003DBCEDACD567C0244C00C2990321C02462
:101D20004C881618101846818A22916881018161B9
:101D300014680B681C101840351844B180C6018126
:101D4000015403933081100E9C0900933081F0649C
:101D5000E923AF0FDE73140FFE82767F5D7D9B8FCC
:101D6000CD676BF9899CA8DB70CBF3C9E936C65CFB
:101D70003E230C26610210CE1C0801266142B4C02D
:101D800080C0300A541489440B0C080CA340950BF6
:101D9000E542B9502E940BE542B9502E940BE54222
:101DA000B9502E940BE542B9017746C63872A15C52
:101DB0002817CA8572A15C2817CAC3BEE042B95071
:101DC0002E940BE542B9502E940BE542B9502E9457
:101DD0000BE542B9502E940BE5C27B8FBCC8EE5088
:101DE000DF71A15C2817CA8572A15C2817CA8572A9
:101DF000A15C2817CA0501A187DD0D9BBB201BC470
:101E00006B2EBDE43864E33878DCB75EC04B6FA15D
:101E10001BC51B0D0F0CA4C0400A0CA4C0400A0C2B
:101E2000A4C0400A0C78C1993367CE9C7904CD8751
:101E3000DDD213C7018702DCBA45397281E0910B0C
:101E400004BFD52D3D71DC9BC531975E7296ECE0E9
:101E5000730F1838782CDCD6A7C61EA7E04D72EB9E
:101E6000969E380EDC088D8F119225244B48969053
:101E70002C215942B204762EEBB22EEBB22EEBB2ED
:101E80008E23474D474646F3DB46B3F839AC741C06
:101E900059E9D8640500002500000000000000009A
:101EA0000104000000000000001E0078003C00015A
:101EB000309F0974FF00010106B0FF00010106F820
:101EC000FF00010106FA000001010765FF000100A3
:101ED0000325010001000425010001020200FF00AA
:101EE00001010542FF0001010535FF000101052840
:101EF000FF0001010892FF0001010509050905091C
:101F00000509FB08F0080719031066883366883353
:101F10008FCF0B591B60C3458005DE0039F38D5E02
:101F2000BD79EDD59BD79E59100E060E86C4884606
:101F30008E460E468648C48E060E08110C142815CF
:101F400002010825102111240A1609040103070FB4
:101F5000070B0502010904080C0E0F0E0D0A0408F8
:101F60003F8FAE055CBD7AF5EAD5AB57AF5EBD7A63
:101F7000F5EAD5AB57AF5EBD7AF5EAD5AB57AF5EA4
:101F8000BD7AF5EAD52BB0969D1C2817CA8572A19B
:101F90005C2817CA8572A15C2817CA8572A15C28C3
:101FA00017CA8572A15C2817CA8572A15C2817CA56
:101FB0008572A15C2817CA8572A15C2817CA81594D
:101FC0002997CC2937E486DC10B7885BC42DE2164C
:101FD000718BD885DC10B7885BC42DE216718BD865
:101FE00085DC901B72C339D97B7AF5EA1CEA45BDC2
:101FF000A817F5A25EF4EA1CEA45BDA817F5A25E93
:10200000F4EAD5AB73EFB357AF5EBD7AF5EAD5AB63
:1020100057AF5EBD7AF5EAD5AB57AF5E3D030B0D0A
:102020000703FB0307FF0703FB03071C181B181C10
:102030001F1C181B181C0703FB0307FF8383DB1BF4
:102040001B1C181B181C1F18181B181CFFFFF7035C
:1020500003FF0703FB03071F1F1F18181F1C181B74
:10206000181CFFFFF70303FF8383DB1B1B1F1F1FCE
:1020700018181F18181B181CE3633B03C7FF07033E
:10208000FB030719181A1B1B1F1C181B181CE363E2
:102090003B03C7FF8383DB1B1B19181A1B1B1F186D
:1020A000181B181C6363BB0347FF0703FB03071CD4
:1020B000181B18181F1C181B181C6363BB0347FF51
:1020C0008383DB1B1B1C181B18181F18181B181CDC
:1020D000FF1F870303FF0703FB03071C1C1D1818C2
:1020E0001D1C181B181CFF1F870303FF8383DB1BAA
:1020F0001B1C1C1D18181F18181B181C8383DB1BA6
:102100001BFF0703FB030718181B181C1F1C181BB9
:10211000181C8383DB1B1BFF8383DB1B1B18181B13
:10212000181C1F18181B181C0703DB1B33FF0703A1
:10213000FB03071C181B181C1F1C181B181C07036B
:10214000DB1B33FF8383DB1B1B1C181B181C1F1896
:10215000181B181CFB7B0B83F3FF0703FB03071BF8
:10216000181C1F1F1F1C181B181C596F7520726F1D
:102170006C6C656420004E6F6E6520210007083E80
:102180007F4377617F3E0D10F008F40C2475467490
:10219000240CF408F000013AE7FE02C7C606FF2E41
:1021A0001900E010E81848EA8CE84818E810E00147
:1021B000023DE6FC04CECC0CFE2D1A01F008F40C16
:1021C00024754674240CF408F000011CF3FE02C7C9
:1021D000C606FF160D000C10000080FCD682964645
:1021E000FEBC0000000F081F001818001F1C07008D
:1021F000000000F8AC042C8CFCF80000000F091F54
:10220000011919001F1C0700000000F8AC042C8CF9
:10221000FC780000000F091F011919001F190E009A
:102220000F8F9FE04066CB1C0CBE380F31852160BC
:1022300010110938A0B7C61CE602E0F0F8FCFCFC5F
:10224000FCFEFFFEFCFCF8F0E001030707070707B0
:1022500007070707070703010F0BE010E814E4B4B2
:10226000947295B6E414E810E0010205020103023D
:1022700002020301020502010B10FFFFFF5F0F2F97
:102280005F7FFFFFFF03FDD6DFD7F7D6FD02FD031B
:10229000F8FEFFFFFFFFFFFEF83F3F3F3F3F3F3F9E
:1022A0003F3F090E07F986AA82AA86F907003F2058
:1022B000242A26203F001410FFFFFFFFFFFFFFFF2F
:1022C000FFFFFFFFFFFFFFFFFFFFFFFFFFFFFFFF1E
:1022D000FFFFFFFFFFFFFFFFFFFFFFFFFFFFFFFF0E
:1022E0001410F04C141AFF0033332211000004C004
:1022F000E900A0001400FFF0F6F606E6E606F60098
:1023000000000000F0F0FF0014001C10FFFFFFFFB2
:10231000FFFFFFFF003333221100001A04C0E91D44
:10232000C4320A0A0A0A051DF0F6F606E6E606F6C3
:102330000000000000F0F0FF04C0FF00FF0080403C
:10234000A050A8000810FF00333322110000FF0046
:102350003333221100001720EFF90636362412001D
:1023600000F906363624120000F906363624128AA1
:1023700054AA52EA34DA54D45AD42AD2A24A94CA79
:10238000C4CA142A52A21A04C0E967AC532E272EDD
:10239000D3EC67A04C141AFF00333322111A04C087
:1023A000E965A04C141A04C0E965A04C141AFF009A
:1023B00033332211C0E0F0F8FCFEFFFF0808804034
:1023C000A0502814CAC415D7EFBB7FD7DEBBF73F98
:1023D00093737AF5EAD5AB57AF5EBD7AF5EA04158B
:1023E00097DFC9057008B122A104370447B9442E0C
:1023F000793FA5C04026608B808214509085E0AD67
:102400005B417512000000E733CFFC5ACF9C0104FA
:10241000050E111F0E121F1F10121B1F1611151F64
:102420000E03041F1F16171D0D0E1F151D05051F7A
:102430001E0E151F0E16151F0E0506EDF6C9F6ED3C
:10244000FDFDC0EFEFFCFBC0FBFCFDC1FEC1FDF7D5
:10245000EFC0FDFBFDFBC4FBFDEDCDE1ECEDFDAC04
:10246000A6F0F98BCF2BACA1DC901B72D223596D57
:102470001938A1B0A1B0A198C1A02D5468726F778E
:10248000207468652072756E657320616761696E7E
:102490002100202020202020202041206D6F6E73FD
:1024A0007465722061747461636B7320796F752138
:1024B0000020596F7520646F206E6F7420686176FC
:1024C000650A20202020656E6F75676820535021B3
:1024D00000202042757920746869732072756E65DA
:1024E0003F0A20202320202059657320202020240B
:1024F0002020204E6F00202020596F7520617265CA
:10250000206361727279696E670A206F6E65206F51
:10251000662074686F73652072756E6573210001A3
:10252000010704041E140505000202040404190036
:102530000000140101050303232300000006060622
:1025400006061E14020200596F7520646F206E6F1C
:102550007420686176650A202020656E6F75676853
:1025600020676F6C642100202020427579207468F8
:102570006973206974656D3F0A2020202320202084
:1025800059657320202020242020204E6F00202019
:10259000596F7520616C7265616479206861766538
:1025A0002061730A6D616E79206F662074686573AF
:1025B0006520706F74696F6E730A202061732079D3
:1025C0006F752063616E2063617272792021002033
:1025D000202020596F7520616C72656164792068D4
:1025E0006176650A206F6E65206F662074686F7370
:1025F000652068656C6D657473210000000A4100F8
:1026000001052800020523010002140101010F0148
:102610000201140200011E202047616D65207374C1
:1026200061746520726573746F7265642100202087
:1026300053746172742061206E65772067616D65E7
:102640003F0A2020202020232020205965732020AD
:102650002020242020204E6F00204F766572777254
:10266000697465206578697374696E672067616D48
:10267000653F0A2020202020202020202023202009
:102680002059657320202020242020204E6F000038
:10269000050A050507202020205468616E6B20790B
:1026A0006F7520666F7220736176696E670A2020ED
:1026B0002020202075732066726F6D20746865205D
:1026C00043757273652100820953092909596F7591
:1026D000207069636B656420757020736F6D652071
:1026E00048502100000019000B040603095C01009A
:1026F00023000E0407050B0300041E000B0508054C
:102700000B01010228000E050907104202083204DD
:10271000120A0F07102000041E040B0408050B1CEE
:10272000010228040E0409050B5000001E040B04CE
:1027300009050801010228040E050A07101C030AF6
:102740003C08170A0F071010000023080B050A05A4
:10275000084201022D080E050A050B1C000423087F
:102760000B060C050B10010428080E060C07100FB1
:10277000040C500C1A0000000042202047616D65D7
:1027800020737461746520736176656421000708A5
:102790003C7EC3F5C37E3C3C7E81B5CB7E3C0308CA
:1027A000002F0000000000000000000000000000FA
:1027B0000000030000000000000000000000081CF2
:1027C000084020000808080020000000003F213FCA
:1027D000223F203329272329371E113F37253D3F2C
:1027E000253D3905033F253F07053F140000000044
:1027F0000000000000000000000002290620002068
:102800003C0B3C3F253B3F21333F213E3F25213FB1
:1028100005013F213B3F043F3F000030203F3F0484
:102820003B3F20003F0E3F3F023F3F213F3F090F0C
:102830001F113F3F053B372D3B013F013F203F0F1D
:10284000300F3F183F330C33033C03312D2300007E
:102850000000000000000000000000000000000078
:1028600018243C3E24183C242418243E18342808FC
:102870003E0A5C543C3E04383A0000403A003E08B0
:1028800034023E003C083C3C043C3C243C7C241884
:1028900018247C3C040C282414041E243C203C1CDA
:1028A000201C3C103C3408345C503C34242C258FD4
:1028B000CF66387AF5EAD5AB57AF5EBD7AF5EAD583
:1028C000AB578F64BEEBA0501010111010111010F8
:1028D00011101011101011101011101011101011F2
:1028E00010101110101110101110101110101110E3
:1028F0001011101011101011100A65140000FCFEC8
:10290000FEFEFEFEFFFFFFFEFFFFFFFEFCB8F0FE37
:10291000FFFFFFFFFF7F7F7F7F3F3F7F3F1F1F0F37
:10292000000103030707070707020000000000007B
:10293000000012130000FC06FACA922E9DE5C9960B
:10294000CD6549165CB8F00E41AC563B874D43410E
:10295000442E37402217100F00010202050504051E
:102960000502000000000000000001010000B8FCAA
:10297000FEFFFFFFFEFFFFFFFEFEFEFEFEFC00006F
:102980000F1F1F3F7F3F3F7F7F7F7FFFFFFFFFFFC7
:10299000FEF0000000000000000002070707070724
:1029A000030301001213B85C164965CD96C9E59D75
:1029B0002E92CAFA06FC00000F10172240372E4450
:1029C00041434D873B56AC410EF000000000000033
:1029D00000000205050405050202010001000001D6
:1029E0001F168040A05028D4EA723A9A9A1232F503
:1029F000E191E1F234129A9A3A72EAD42850A04056
:102A0000800700020500E73F3C1D5CDC3DA420A9D7
:102A1000A429A0A43DDC5C1D3C3FE70005020007A3
:102A20000000000002152B242D2C2C262A2A2A2AED
:102A30002A2A2A262C2C2D242B1502000000000007
:102A40000102011C088046DFFF07038247DF7F8702
:102A50000307070E1E362E546C58B8B8D8B85C63FE
:102A60001C2060E0E0F0F8FBFAFCFFFEFCF0F0F068
:102A7000F0E00000000000000107070F0F0F07073C
:102A8000070301110C2060E0E0F0F87B6A6C7FFA2C
:102A9000FCF0F0E050A0000000000000010303057E
:102AA000030503010201000001011E1000000000E7
:102AB000000000008040000000800000818202B21F
:102AC000F4F8F870307070E0C08020405060E8E8A2
:102AD000F0E0E1FA7F3F02070FF50FFFFBFCFF017B
:102AE0000000000C229F7F0A0000010F0B9E0A26A7
:102AF0000AB109B60B9E0B860B030CE90BCE0B3CFF
:102B00007EFFFFFFFFFFFFFFFF7E3C003C7EFFFFDD
:102B1000FFFFFFFFFFFFFFFFFFFFFFFFFFFFFFFFC5
:102B2000FFFFFFFFFFFFFFFFFFFFFFFFFFFFFFFFB5
:102B30007E3C33083C4281BD89BD81BD9589423CC4
:102B4000003C42BDA5A5A5A5A5A5A5A5A5A5A5A58E
:102B5000A5A5A5A5A5A5A5A5A5A5A5A5A5A5A5A525
:102B6000A5A5A5A5BD423C09040408000700030073
:102B700008043A0C2B0C1E0C640C570C4B0C0F8FDA
:102B80003A33620F6B1EF95C0A9FC969AFCBBAACCE
:102B9000CBBACC020F8F3A8101281C109863020235
:102BA00019280844372585CF0027849CC65E7B5CA6
:102BB0008DB30E0DF40CD90CBF0CA60C8C0C710C43
:102BC0009F0D8A0D740D610D4E0D3B0D280D544166
:102BD0005241544F4D414D4F4D454E4F5641534F2D
:102BE00053494B414B494D554E55545553555245FC
:102BF000534554455045504F5049504100080850E6
:102C000040584455407F000808007F4055445840D4
:102C10005008080A021A22AA02FE00080800FE0252
:102C2000AA221A020A01010704041E140505000263
:102C30000204040419000000140101050303232306
:102C400000000006060606061E1402020000000A26
:102C500041000105280002052301000214010101C1
:102C60000F010201140200011E004F2E11241FBE8D
:102C7000CFEFDAE0DEBFCDBF11E0A0E0B1E0E6E4E7
:102C8000FEE602C005900D92A837B107D9F726E0FD
:102C9000A8E7B1E001C01D92AC35B207E1F716E13B
:102CA000C6E3D6E104C02197FE010E941B37C5335D
:102CB000D107C9F70E94882E0C9421370C9400008C
:102CC0002F923F924F925F926F927F928F929F923C
:102CD000AF92BF92CF92DF92EF92FF920F931F932A
:102CE000CF93DF9300D000D000D0CDB7DEB7DB01AB
:102CF0004115510509F43AC1FA0194903196749145
:102D00004E5F5F4FA92CB12CBA82A982222321F1F8
:102D1000E1E0F0E0372F377011F4F0E0E0E0C72E8B
:102D2000C694C694C694CE0EDF2ED11CA980BA805C
:102D3000CA9CF001CB9CF00DDA9CF00D112463E0ED
:102D4000B62EEB1002C0EE0FFF1F2E9F60012F9FCB
:102D5000D00C11244C0D5D1D29813A81280F391F9B
:102D60003A832983121613060CF000C180389105AE
:102D70000CF0FCC09D01270F311D121613060CF03C
:102D8000F5C0A034B1050CF0F1C04115510509F4AE
:102D9000EDC03A2F3770632E9D01B7FF02C0295F47
:102DA0003F4FE3E035952795EA95E1F7F22FB7FF1E
:102DB00004C0662011F0FFEFF20F22273327281BF3
:102DC000390B97FD02C030E020E0A981BA8160E8AC
:102DD000F62EF81AA038B1050CF4F92CF21AAF2F20
:102DE0000F2E000CBB0BFF3F0CF0A1C0EA2FE095AB
:102DF000E983E1E0672F677009F4E0E07695769566
:102E00007695E70FAE0FB11D199714F0E8E0EF1BB0
:102E100079807F0E772D60E87603D00111248A0F28
:102E20009B1F820F931F262C062C000C330873E087
:102E3000A2E0E712A1E0B92DBF19BA9FB02D11246D
:102E4000AA2EB12C6981969E200D311D11242A9D38
:102E5000B0012B9D700D3A9D700D11246A01C60EB4
:102E6000D71E0115110509F48A0195012150310978
:102E7000620F731F060F171F6FEF70E0062C02C062
:102E8000660F771F0A94E2F79B01209530953A83ED
:102E900029834E2E4F0E4B2F50E0AF9D400D511DFC
:102EA0001124741409F462C0DC01A45ABD4F1E82BF
:102EB0001D82512CF51409F451C0ED81FE81EC0DF9
:102EC000FD1D249130E0022C02C0220F331F0A9412
:102ED000E2F762E0E61609F43EC07BEFE71229C094
:102EE000F901E095F095FC83EB8330E020E077FC7E
:102EF00005C09C907B819722922A9C92662071F05B
:102F0000E6E0E7155CF04D01F0E88F0E911CF4014E
:102F10002081FC812F23232BF401208353942D81C6
:102F20003E812A0D3B1D3E832D831196C3CF19820E
:102F300060CFED81FE81E00FF11FE491F0E0022C03
:102F400002C0EE0FFF1F0A94E2F7BF016095709573
:102F50007C836B83CCCF69817A81FACF7394C40E62
:102F6000D51E040F151F80589F4F9BCF26960FB676
:102F7000F894DEBF0FBECDBFDF91CF911F910F91AF
:102F8000FF90EF90DF90CF90BF90AF909F908F9089
:102F90007F906F905F904F903F902F900895982F63
:102FA0008091FA01923051F0933019F0911107C0DD
:102FB00008959091FD01990F890F0895880F9091C0
:102FC000FD01FACFECE5F2E081E0A0E0B8E000809E
:102FD0000EBC8111012C1197A0FDFDCF0192B9F714
:102FE0000DB408952F923F924F925F926F927F920D
:102FF0008F929F92AF92BF92CF92DF92EF92FF9209
:103000000F931F93CF93DF93CDB7DEB760970FB6C3
:10301000F894DEBF0FBECDBF1C015A8349830B87D6
:10302000FA013491319644914E83832F8F778F5FCD
:10303000682E712CC301820D931D97FD99C150E834
:10304000251631040CF094C1842F8F738F5FAB0170
:10305000480F511D57FD8CC1603471050CF088C1BB
:10306000331F3327331F388B91E09D833E8136FF1A
:103070001D828B0177FF04C000271127061B170B49
:1030800007701127AB0177FF02C0495F5F4FFA015C
:10309000A3E0F595E795AA95E1F7F887EF8377FF29
:1030A0000CC00115110549F03197F887EF8348E00E
:1030B00050E0BA01601B710B8B01682F6695669515
:1030C0006695877009F06F5F7B85A30141505109B8
:1030D000711102C050E040E097E0A0E1B0E080E074
:1030E000512C412C912C812CE62FF0E0FD87EC87B0
:1030F0006C857D85861697060CF03AC1EE24E39424
:10310000F12CFD0173E0F695E7957A95E1F7698179
:103110007A81E60FF71FE4916E2F70E0FD01E770F2
:10312000FF2702C075956795EA95E2F7FD01319694
:10313000FF87EE8760FF06C0FFEFEF1AFF0AAE853C
:10314000BF85DFCF31E0E316F10409F0A1C0EE85C1
:10315000FF8563E0F695E7956A95E1F769817A81E5
:10316000E60FF71FE491F0E0EE84FF8477E0E722BA
:10317000FF2402C0F595E795EA94E2F7E170FF2796
:10318000BF016F5F7F4F7C836B831296F12CE12C24
:103190006B817C816E157F0509F4DCC0788977230B
:1031A00059F0692F70E03D81332309F4B9C06C599F
:1031B0007E4FFB016081862B915008F0C7C08823A9
:1031C00009F448C0DF80D80CF7E0FD150CF442C0CC
:1031D000B101640F751F60387105E0F590E0002EB5
:1031E00002C0880F991F0A94E2F7D7FC15C03D2D45
:1031F00060E83603F0011124E20DF31DE40FF51F22
:10320000BF01645A7D4F5B01FB016081222309F4F9
:103210008EC0682BF501608301151105D9F0F7E028
:10322000DF16C1F03FEFD316ACF0ED2DDD0CFF0B38
:103230003196F695FE2FEE27F795E795E20DF31DF3
:10324000E40FF51FE45AFD4F6081222309F473C097
:10325000692B60836E8167FF04C07D8181E07827E0
:103260007D839FEF491A590A3B85332309F467C0D0
:10327000415051094614570444F04FEF841A940A00
:10328000A30141505109512C412C97E080E05EC0D0
:10329000B701615071097A876987E1E0F0E009843C
:1032A00002C0EE0FFF1F0A94E2F7BF016F5F7F4F6E
:1032B0007C836B83D12CC12CAE84BF84AC0CBD1C31
:1032C000F50133E0F695E7953A95E1F769817A8162
:1032D000E60FF71FE4916E2F70E0E7E0AE22BB240B
:1032E00002C075956795AA94E2F760FF0EC061E091
:1032F00070E00C2C02C0660F771F0A94E2F7EB8196
:10330000FC81E60FF71FFC83EB83FFEFCF1ADF0A88
:1033100069857A85C616D7067CF2AE0DBF1D36CFFD
:10332000E7E0F0E0E61BF70BEC59FE4F43CF782FB8
:10333000709567236FCF892F809568238ACF4614B5
:1033400057046CF44F5F5F4F80E097E06FEFE61A31
:10335000F60A1ECF71E03889731B788BC9CE5FEFF8
:10336000851A950A50E040E080E0512C412CEDCFC9
:1033700060960FB6F894DEBF0FBECDBFDF91CF9140
:103380001F910F91FF90EF90DF90CF90BF90AF9083
:103390009F908F907F906F905F904F903F902F9075
:1033A0000895E2EEF1E080E0919191118F5F91E05C
:1033B000E83EF907C9F70895482F2091020130919E
:1033C000030186B52827C9019695879520FF02C07D
:1033D00024EB92279093030180930201641B770BE7
:1033E0000E94F336840F08959091E001981721F020
:1033F0008093E0011092D8010895E091E10180915D
:10340000D601E43041F094E0E99FF0011124E15B42
:10341000F34DE4918E0F0895EAE9F1E0A08DB0E05C
:10342000A65ABE4F8C918F3F49F4838D811107C0FE
:10343000349691E0EE3AF90789F7089581E008950E
:10344000EF920F931F93EE24E394890120E00E94F2
:1034500060161F910F91EF900895CF92DF92EF9237
:10346000FF920F931F93CF93DF93EC017B016A01CF
:10347000A90120E00E94F21721E0A601B701CE01C8
:103480000E94F217DF91CF911F910F91FF90EF9063
:10349000DF90CF9008952091920130919301277091
:1034A0003327232B51F49091AE019F5F891719F0B8
:1034B0009093AE0108951092AE010895AF92BF921D
:1034C000CF92DF92EF92FF920F931F93CF93DF93F0
:1034D0006C017B018B01040F151FEB015E01AE181F
:1034E000BF08C017D10759F06991D601ED91FC9141
:1034F0000190F081E02DC6010995892B79F7C5016E
:10350000DF91CF911F910F91FF90EF90DF90CF90BF
:10351000BF90AF900895EF920F931F933AEFE32E71
:1035200010E000E00E9460161F910F91EF90089547
:10353000EF920F931F933BEFE32E10E000E00E9409
:1035400060161F910F91EF900895EF920F931F93C4
:1035500032E0E32E10E000E00E9460161F910F9110
:10356000EF900895F89487E780930008809301080E
:10357000A89588E18093600088E080936000FFCF89
:10358000BC0190E080E0AB01FC010E94DB1A4150DD
:103590005109E109F10928F068517C4F8F4F9F4F85
:1035A000F6CFAB01FC010E94DB1A641775078E078A
:1035B0009F07C8F30895A1E8B1E02FB7F8947D9173
:1035C0008D919C9166B52FBFA89B05C06F3F18F4E5
:1035D0007F5F8F4F9F4F22E0660F771F881F991FD5
:1035E0002A95D1F708958FB18095807F669B88607A
:1035F0001C9B84600895811109C086EA5C988EBD89
:1036000000000DB407FEFDCF5C9A089587EAF6CF5F
:10361000480F592F511D14161506D4F58038910501
:10362000B9F197FF02C090E080E04138510514F0F5
:1036300040E850E0481BFB0177FD379633E0F595F5
:10364000E7953A95E1F7F695FE2FEE27F795E79582
:10365000E80FF91FE45AFD4F6770772781E090E08B
:1036600001C0880F6A95EAF7382F213041F44150A4
:1036700078F08191DF011197832B8C93F8CF80959F
:10368000415030F09191DF01119798239C93F8CF2E
:10369000089580389105B8F460347105A0F420E1F4
:1036A00091E061FD94E060FD990F62FD9295687F65
:1036B000269FD0011124A80FA45ABD4F8C9140FF22
:1036C00003C0892B8C93089590958923FBCFDF92BB
:1036D000EF92FF920F931F93CF93DF937C01D22E33
:1036E0008B01040F111DEB0177FF02C0D0E0C0E099
:1036F000C8010134110514F080E490E0C817D9071F
:103700003CF44D2DBE01C7010E94491B2196F0CF0C
:10371000DF91CF911F910F91FF90EF90DF9008956F
:10372000BF92CF92DF92EF92FF920F931F93CF93AE
:10373000DF93C62FD42F082F880F110B6801780153
:10374000E60EF11CCE14DF045CF420E04D2F70E097
:1037500060E0C6010E94671B8FEFC81AD80AF2CF3B
:10376000BB24BA94BD0EC25068019FEFC91AD90A92
:1037700021E04C2F70E060E0C6010E94081B8B2DF9
:103780008150990BBC018034910528F421E04C2F25
:10379000C6010E94081B21E04B2D70E060E0C601CD
:1037A0000E94671BC6018C0F911D21E04B2D70E01C
:1037B00060E001970E94671B20E04BE15CE26FEF45
:1037C0007FEFC8010E94A51A98E0E91AF10820E0ED
:1037D00041E15CE26FEF7FEFC7010E94A51A8D2FD8
:1037E0008850990BEC0120E047E05CE2BC01C80185
:1037F0000E94A51A20E04DEF5BE2BE01C701DF91F8
:10380000CF911F910F91FF90EF90DF90CF90BF90DD
:103810000C94A51AEF92FF920F931F93CF93DF930F
:10382000182F8091DA01C091D701882331F0E091FF
:10383000DB01F0E0EA5BFE4FC0819091E001892F4F
:103840008D7F01E0813009F000E08091D901D0E066
:10385000E090E801F090E901882321F0877084303E
:1038600008F04FC02091D801923068F19430A8F54B
:103870008091920180FF3CC093E08091D801890F34
:103880009927991F880F991FFC01E054F44D259149
:103890003491FC01EE54F44D45915491BE01C701A1
:1038A0000E942D1A8091E101843009F457C0909153
:1038B000E001913009F48FC090F100E0933009F0FD
:1038C0008FC001E08DC0809192019091930166E0DC
:1038D00070E00E94F336892B11F090E0CECF2F5F7D
:1038E000233019F02093D801F8CF1092D801F5CFEA
:1038F0002F5F243019F02093D801BECF1092D80149
:10390000BBCF8DEF9FEF002311F081E090E02EE719
:103910003BE244E95BE2BE018E0D9F1DC1CF0091E9
:10392000D801002309F45CC000E034E090E0880F87
:10393000991FFC01E858F44DA591B491FC01EE5893
:10394000F44D45915491BE01631B71098091E801CA
:103950009091E9019D0102960E942D1A8091DA0151
:10396000882361F08091E8019091E90120E047E629
:103970005BE26DE270E002960E948B1A112391F1D6
:103980002FEF3AE242E35BE270E060E090E080E03B
:103990000E94201A8091D301883040F42091920136
:1039A000309193012F7133272131E0F0853608F0F3
:1039B00084E663E00E94E536D82FC0E0CD1790F48E
:1039C0008C2F90E021E042E063E070E040960E949E
:1039D000671BCE5FF3CF9091D80101E09111A5CF85
:1039E00035E0A4CFDF91CF911F910F91FF90EF9021
:1039F000089508951F93CF93DF93EC016A3061F42B
:103A00008D818C838E819985890F8E8381E090E0F2
:103A1000DF91CF911F9108958C81603219F48E5FF0
:103A20008C83F4CF162F6E816F5F133219F114322D
:103A300081F12FED210F322F2D3F8CF02F3FDCF045
:103A400027FD0DC0062E000C770B082E000C990BDD
:103A50003F814EE957E23130F1F40E948B1A912FE9
:103A60009F7D8C819934D9F21732C9F29C34B1F41C
:103A70008D5FD6CF3DEF082E000C990B23E0230F6E
:103A8000062E000C770B615071093F814EE857E21A
:103A9000E2CF3EEFF0CF0E94981AE1CF98859D5F6C
:103AA000890FBECF0F931F93CF93DF938C01D0E08C
:103AB000C0E0F801EC0FFD1F6491662341F085E83A
:103AC00091E00E94FA1C892B11F02196F2CFCE01D1
:103AD000DF91CF911F910F910895089590E080E0BC
:103AE000089566E080E00E94DC19482FE82FF0E09E
:103AF000359656E04E171F0609F004F5842F652F02
:103B00000E94D936892F292F30E026563E4FD90101
:103B1000A85BBF4F9C91992379F09150843038F481
:103B20004091E101841303C044E04093E101285B2C
:103B30003F4FF901908308954F5FDCCF80E00895F7
:103B4000CF93C62FC69549E0849F402D1124455F31
:103B500080E48C1B0E94901B8AE48C1BE5E8F1E05A
:103B60008483858385E08683CF910895FC0120813D
:103B7000222341F01092A90110929C011092F101B0
:103B80001082089580919C01815080939C0181E076
:103B90008093F1010895CF93DF93C82FD0915B02FA
:103BA000DD23F9F0D23009F49BC0C5FF06C0DD2348
:103BB00009F4C6C0D150D0935B02C6FF08C0809103
:103BC0005B02833009F4BEC08F5F80935B02C2FF4B
:103BD00005C0109258028FEF80935502DF91CF916C
:103BE00008950E94D119C7FF0EC0909153029330DF
:103BF00020F091509093530206C02091520221115F
:103C000013C09111F6CFC4FF24C090915302282F06
:103C100030E0923068F42150310992171306CCF449
:103C20009F5F9093530215C0215020935202EBCF17
:103C300080915202482F50E0BA016C5F7F4F6217AB
:103C40007307E4F0490F511D215031094217530702
:103C50003CF3C3FFAACF8091530220915202280F58
:103C6000E2EEF1E030E090E04191442319F02317B7
:103C700049F03F5F9F5F9630B9F797CF8F5F809392
:103C80005202E7CFEDEFE90FE33018F09093E10136
:103C90008CCFE130B1F0E230E9F09091FA01965F1B
:103CA0009093FA01F0E0EB51FE4F90819150908398
:103CB00091117BCF882309F478CF815080935302F0
:103CC00074CF9091D3019C5E953608F094E6909362
:103CD000D301E8CF9091A0019F5F9093A001E2CF24
:103CE00087FF11C09091560283E0890F981758F40E
:103CF000282F2370E22FF0E0E452FE4F308133236F
:103D0000D9F020935602C4FF50CF8091560221E093
:103D1000280F90E003962817190611F00CF045CFF4
:103D2000322F3370E32FF0E0E452FE4F4081442302
:103D300029F03093560239CF8150D8CF2F5FEBCF87
:103D4000D3E039CF80E041CF20939C019093F301E1
:103D50008093F2016093EA011092EE0181E080937A
:103D6000EF014093EB018093F1010895EAE9F1E05E
:103D70001182128291E0938F89E0808F978F848FD8
:103D800093A380A397A384A393A780A70895CF9319
:103D9000C82F883099F080E0CA3089F00E94B61EA2
:103DA000C33039F008F052C0CC2309F457C0C130F9
:103DB000F1F580E88093000184E057C08BE68093A2
:103DC0009C013091F6012091F7018091F80181303A
:103DD00091F58091FC019091FB01930F9093FB0171
:103DE000820F8093FC018091FB018093FA01809106
:103DF000FC018093FB011092FC018091FE018093F5
:103E0000FD018091FF018093FE011092FF0110924D
:103E1000F8011092F90183E08093A001CA3039F4CF
:103E20008091AA01843019F481E08093A801C093A5
:103E3000A301CF9108958091FF019091FE01930F0E
:103E40009093FE01820F8093FF01CDCFC53049F0E2
:103E5000C93069F781E080939C01E9CF81E08093CC
:103E6000070280E88093000182E080930101DFCFA8
:103E70008091E8019091E9018C5691098531910575
:103E800068F42091A3012A3049F463E070E00E94B5
:103E90000737660F6B5D6093D701089585E28093C5
:103EA000D70108951F93CF93DF93D82FC62F122FDA
:103EB00085FF0BC080E00E94F419D6FF34C081E07A
:103EC000DF91CF911F910C94F41965FF27C0809169
:103ED000E8019091E901853F2FEF9207ACF0042EA5
:103EE000000C550B4817590744F782E00E94F4195B
:103EF0008091E8019091E90101979093E901809305
:103F0000E8010E94381FD9CF8FE790E09093E90134
:103F10008093E80180E00E94C71ECFCF8091E0012E
:103F2000823059F6C7CFC6FF18C08091E801909142
:103F3000E90118171906B4F083E00E94F419809182
:103F4000E8019091E90101969093E9018093E801DD
:103F5000DF91CF911F910C94381F8091E001833045
:103F600009F4ADCFDF91CF911F9108950F93CF93B7
:103F7000DF93EB0100E021E0AC0161E270E088E05A
:103F800090E00E94F21721E0AE016DE270E087E060
:103F900090E00E94F217DF91CF910F9108958F92D8
:103FA0009F92AF92BF92CF92DF92EF92FF920F93C8
:103FB0001F93CF93DF939AE0499FA0011124C82F4C
:103FC000D0E02396D12CC12CCA01815E9A4D7C0190
:103FD000A62EB12C450194E0890E911CF701EC0D41
:103FE000FD1D149100E021E043E654E2B501CE014D
:103FF00003970E94F217212F49E354E2B401CE0146
:104000000E94A51A8FEFC81AD80A2D9695E0C916F6
:10401000D10421F7DF91CF911F910F91FF90EF9085
:10402000DF90CF90BF90AF909F908F900895EF92C8
:10403000FF920F931F93CF93DF9300D000D0CDB7A3
:10404000DEB7FE0131969E012B5F3F4F4AE0642FA1
:104050000E94D9369193E217F307C9F78F0182E6E0
:10406000E82EF12CF80122918F014FE054E267E332
:1040700070E0C7010E94981AF5E0EF0EF11C86E788
:10408000E816F10479F70F900F900F900F90DF91E1
:10409000CF911F910F91FF90EF900895CF92DF92F3
:1040A000EF92FF920F931F93CF93DF93182F8AE025
:1040B000E82E82E0F82ED70115968C9115971813EB
:1040C00027C00091A801C0910302D0910402EC9195
:1040D000E250E830E8F4F0E0E059FF4D0C941B3773
:1040E00078209920D520F6201921FF200B21462188
:1040F000CE0106971196ED91FC9100E026EC33E29B
:104100004FED53E261E270E08E0F9F1F0E942D1A67
:10411000B6E0EB0EF11CE2E5EE16E2E0FE0659F623
:10412000DF91CF911F910F91FF90EF90DF90CF9093
:1041300008956E01B5E1CB1AD108F7018181928112
:1041400024EB33E24CEB53E26AE070E08C0D9D1DF2
:104150000E94201AFE013D97D70111968D919C91E6
:1041600020E046E553E262E070E08E0F9F1F0E9460
:10417000A51AF7018181928120E044E453E262E1D3
:1041800070E08C0D9D1D0E94A51ACE014C97D701A1
:104190001196ED91FC9120E04AE053E262E270E07A
:1041A0008E0F9F1F0E94A51AB3CFF70181819281C4
:1041B00026EB32E240EE52E262E270E08C0F9D1F8D
:1041C0000E94201A002309F4A3CFCE010997D7013A
:1041D0001196ED91FC9120E932E242EA52E264E26A
:1041E00070E08E0F9F1F0E94201A92CFCE0104977D
:1041F0001196ED91FC9120E048E752E2CFCFF70114
:10420000818192812AE332E248E552E268E270E07D
:104210008C0F9D1FE8CF11968D919C9100E020E0BE
:1042200040E252E262E270E08C0F9D1F0E94F217A2
:104230006FCFF70123810180F281E02DCE010023B1
:10424000E1F0049746ED51E265E270E08E0F9F1FAA
:104250000E94981A809192019091930187709927FA
:10426000892B09F055CFD70113968C9113978F5F47
:10427000833049F013968C934BCF059746E851E273
:1042800062E270E0E3CFF701138242CF14968C9183
:104290001497882309F43CCF809192019091930167
:1042A0008F719927813108F433CFCE01059711968C
:1042B000ED91FC91129713962C914DE751E26BE230
:1042C00070E08E0F9F1F0E94981A22CFE5E8F1E060
:1042D00082E5848385838AE1868386E791E20C9474
:1042E000521DCF93DF93EC01262F4EE150E264E2A2
:1042F00070E089E590E00E948B1A20E0AE0164E254
:1043000070E087E690E0DF91CF910C948B1A0F93C9
:10431000CF93DF93EB0100E021E0AC0163E070E0BC
:104320008DE490E00E94F21721E040EC5FE162E250
:1043300070E081E590E00E94F21720E0AE0164E3B6
:1043400070E081E590E00E94A51A21E040E65FE17F
:104350006EE170E085E090E00E94F21780915802D3
:1043600081111EC06091A10181E0682770E020E00A
:1043700045E55FE181E290E00E94A51A8091A201EB
:104380006BE370E0882311F06CE370E020E04AE416
:104390005FE181E290E0DF91CF910F910C94A51A3B
:1043A000DF91CF910F910895CF93DF93EC0184E6D5
:1043B00090E00E94A1368883CE01DF91CF910895CD
:1043C0000F931F93CF93DF93CDB7DEB72A970FB626
:1043D000F894DEBF0FBECDBF9AE0899FB0011124D3
:1043E0006C51794D4AE050E0CE0101960E9498361A
:1043F00089818093AA011092AE010FEA11E067E172
:1044000080E00E94DC19F80181938F01F1E0023B0A
:104410001F07A9F78A818093AC018B818093AB0140
:104420008093AD012A960FB6F894DEBF0FBECDBFC4
:10443000DF91CF911F910F910895DF92EF92FF923C
:104440000F931F93CF93DF93CDB7DEB768970FB667
:10445000F894DEBF0FBECDBFD090AA0184E0D8167D
:1044600099F08FE50EEF1FEFE82EF12C0E151F05CA
:104470006CF420E048E25FE162E370E0C8010E9472
:10448000A51A005F1F4FF2CF8FE7ECCF84E0D8165C
:1044900051F000E021E040E15FE166E370E080E799
:1044A00090E00E94F21720E048E05FE16BEF7FEFC1
:1044B00087E790E00E94A51A20E048E05FE170E005
:1044C00060E08CE790E00E94A51A87E0E7E0F1E069
:1044D000DE011B9601900D928A95E1F787E0EEE0F0
:1044E000F1E0DE01529601900D928A95E1F78091FC
:1044F00007028150990B2AE0289FB001299F700D77
:1045000011246C51794D4AE050E0CE0101960E9491
:10451000983610E000E08A8590E0002E02C0959564
:1045200087950A94E2F780FF1AC0F801EE0FFF1F8B
:10453000E650F14E45915491E2E1F0E0EC0FFD1FA1
:10454000E00FF11F608170E0EBE0F0E0EC0FFD1F89
:10455000E00FF11F808120E090E00E948B1A0F5F36
:104560001F4F08301105B9F668960FB6F894DEBFF4
:104570000FBECDBFDF91CF911F910F91FF90EF90B4
:10458000DF900895FB0101900020E9F73197AF011A
:10459000461B570B0C945E1AAF92BF92CF92DF92DC
:1045A000EF92FF920F931F93CF93DF9300D000D031
:1045B00000D01F92CDB7DEB78091AA016CE671E002
:1045C000843029F18E010F5F1F4F87E0F8011192AF
:1045D0008A95E9F79FEAE92E91E0F92E680122EB2E
:1045E000A22E21E0B22EF70161917F0170E0660FEB
:1045F000771F6253744D42E050E0C6010E94983626
:10460000F2E0CF0ED11CAE14BF0469F7B80185E803
:1046100091E00E94C22227960FB6F894DEBF0FBE2B
:10462000CDBFDF91CF911F910F91FF90EF90DF9061
:10463000CF90BF90AF9008950F931F93CF93809129
:10464000AA01823009F48EC0C0F5882309F46DC038
:10465000813009F47FC000E021E04EEA58E270E0CA
:1046600060E089E490E00E94F2178091AB0188300D
:1046700048F420919201309193012F713327213119
:1046800008F4AEC021E2829FC00111246091AD0107
:1046900070E00E9407378B01C0E08C2F90E08017FC
:1046A000910708F09DC021E042E06AE070E0855B80
:1046B0009F4F0E94671BCE5FF0CF833009F465C027
:1046C000843049F6E091AE01F0E0E15CF54D649193
:1046D00070E06B5E7F4F20E040EE59E28DE490E0A9
:1046E0000E948B1AE091AE01F0E0E452F64D649125
:1046F00070E0625E7F4F2EE639E244EA59E281E4DF
:1047000090E00E94201AE091AE01F0E0E659F64DEB
:10471000649170E0625E7F4F2CEF38E242E359E231
:1047200086E690E00E94201A2EC0E091AE01F0E0F3
:10473000EE0FFF1FE750F54D4591549100E021E049
:1047400062E270E086E590E00E94F21783E00E944A
:104750004B1A81CFE091AE01F0E0EE0FFF1FED505C
:10476000F54DEACFE091AE01F0E0EE0FFF1FE5510D
:10477000F54D4591549100E021E062E170E08BE459
:1047800090E00E94F21784E0E2CFE091AE01F0E009
:10479000E851F54D649170E0665E7F4F20E04AEA93
:1047A0005AE28BE490E00E948B1AE091AE01F0E0B7
:1047B000E955F54D649170E06B5E7F4F21E63AE27A
:1047C00043E85AE28CE490E00E94201A20E043E49F
:1047D0005AE26AE270E084E590E00E948B1AB6CF5C
:1047E0008091AA01843069F080E5809389018093EB
:1047F0008A0181E080938B01CF911F910F910C94DE
:10480000CC228EE4F2CFCF92DF92EF92FF920F9301
:104810001F93CF93DF93CDB7DEB7A1970FB6F89470
:10482000DEBF0FBECDBF282F30E050E040E019A220
:104830008E010F5D1F4F8AE0C82ED12CE12CF12C88
:10484000CA01B901A70196010E94B736605DF8015F
:1048500062938F01211531054105510589F790E0DB
:1048600080E0309729F0BF0185E891E00E94C222E4
:10487000A1960FB6F894DEBF0FBECDBFDF91CF91EA
:104880001F910F91FF90EF90DF90CF900895CF93FD
:10489000DF930E940324EC0164E771E085E891E076
:1048A0000E94C2228C0F9D1FDF91CF910895FF922D
:1048B0000F931F93CF93DF931092A90183E6809308
:1048C0009A010AE911E0C4E6D0E0F801F1908F0105
:1048D000CE010E94A136F81621F06F2DCE010E9464
:1048E000A9362196C632F1E0DF0779F724E648E5DC
:1048F00061E08AE797E2DF91CF911F910F91FF90DE
:104900000C94A41E41E550E069EA7EE181E092E06A
:104910000E949836EAE9F1E08CE0DF011D928A9569
:10492000E9F783E08683089580E00E94C71E0E9415
:1049300082248FEF8093560210920E0246E150E0DF
:1049400063E97EE183ED91E00E9498368CE390E08C
:104950009093E9018093E80108954F925F926F92DE
:104960007F928F929F92AF92BF92CF92DF92EF92FF
:10497000FF920F931F93CF93DF93CDB7DEB7689766
:104980000FB6F894DEBF0FBECDBF10919401809199
:10499000950180958123888FE091A301EB3008F089
:1049A000E4C0F0E0EA52FB4D0C941B37E1244227AF
:1049B000CB27FE2778289F28C428242B372BE52BCC
:1049C000182C90915802911188C79091A9012091BB
:1049D0009C019111E1C1222339F0283C09F4F0C077
:1049E000CE0148960E94B61D888D82FF03C091E0DB
:1049F0009093580290919C01983C59F085FFEBC030
:104A000080E00E94F419888D86FF2AC181E00E940F
:104A1000F419888D87FF0CC080919C01883C09F0B7
:104A200073C18091EE01882319F081508093EE01CB
:104A3000988D94FF13C080919C01883C79F48091FB
:104A4000EE01282F30E02E5F3F4F4091EF014217DB
:104A5000130621F01CF08F5F8093EE0193FF85C059
:104A6000E0900302F09004028091E8019091E90146
:104A7000E81AF90A58E2652E51E0752E6EE2A62E6C
:104A800061E0B62E10E000E078EC572EE2E84E2E02
:104A900067018EE6C81AD108882499248C189D08CD
:104AA00080910E028823F1F080910B0290910C020C
:104AB00006978E0D9F1D0A97A8F424E64EE561E047
:104AC0008DEC96E20E94A41E10920E026FE085E02B
:104AD0000E94DC199091D301890F853608F084E695
:104AE0008093D301D5018D919D915D018E0D9F1D08
:104AF000069797FF03C09195819591090A9764F4F1
:104B0000F801EE0FFF1FE953F94D8591949124E6CA
:104B10004EE562E00E94A41EF301819191913F0154
:104B20008E0D9F1D97FF03C09195819591090F9759
:104B300064F48091A801882309F415C124E648E6AD
:104B400062E085E996E20E94A41EC601D7FCC4017A
:104B50000A972CF481E08093A90110929C010F5FC9
:104B60001F4F0330110509F09BCF8091DA01882394
:104B700049F08091DB018F5F8093DB01843111F478
:104B80001092DA018091D901882319F08150809325
:104B9000D90168960FB6F894DEBF0FBECDBFDF9186
:104BA000CF911F910F91FF90EF90DF90CF90BF902A
:104BB000AF909F908F907F906F905F904F900895EF
:104BC0008C7021F010929C01188E91E081E0982762
:104BD0009093F10109CF15FF3DC082E00E94F419C6
:104BE0008091E8019091E9018D33910534F00197AE
:104BF0009093E9018093E80106CF20910302309160
:104C000004022F3F3105ECF48091920180FD09C030
:104C1000809101029091020201969093020280938A
:104C2000010280910502909106020296909306027D
:104C3000809305022F5F3F4F3093040220930302BD
:104C4000E2CE2F3F310509F0DECE833091050CF422
:104C5000DACECDCF8091E001823009F0D4CED0CE33
:104C600016FF4CC083E00E94F4198091E8019091F6
:104C7000E9018C33910534F401969093E901809316
:104C8000E801C7CE209103023091040222354FEF94
:104C90003407ECF08091920180FD09C080910102FF
:104CA00090910202019790930202809301028091F9
:104CB00005029091060202979093060280930502E6
:104CC000215031093093040220930302A2CE209197
:104CD000A80121119ECE8038910574F2109107022F
:104CE000115085EF9FEF9093E9018093E80185E0F3
:104CF0000E94C71E812F0E94E0218BCE8091E0018F
:104D0000833009F086CE82CE8091A801811190CEA9
:104D100000910302109104022091E8013091E90111
:104D2000021B130B20910802200F312F311D37FF7A
:104D300003C03195219531092A3031051CF481E0F9
:104D40000E94C71E80910902800F912F911D97FF2D
:104D500003C09195819591090A970CF069CE83E083
:104D60000E94C71E65CEF801EE56F94D8491F801F8
:104D7000E157F94DE49150929C01E093F00192E0EB
:104D80009093EA011092EE018093EF014092EB01C3
:104D900081E08093F101D9CE211156C087FF07C071
:104DA00090915702992319F091509093570284FFE4
:104DB00010C0CE0101960E94D42180915702882311
:104DC00029F09981933629F4823018F48F5F80930B
:104DD0005702888D82FD1092A90183FFC6CE809173
:104DE0005702813059F1D8F0823009F0BECE3AE94D
:104DF000E32E31E0F32E04E610E0C8010E94A13654
:104E0000D7018D937D010F5F1F4F0632B1E01B0765
:104E1000A1F724E644E661E087E196E20CC0CE010A
:104E200001960E94D4218981833649F52FEF48E607
:104E300062E089E596E20E94A41E97CE2EEF44E53B
:104E400062E08EE296E2F7CF91E09093F10182FF6B
:104E500004C01092A90110929C0183FF86CE80911C
:104E60005702882361F0813009F07FCE1092A901AA
:104E700010929C011092A8010E94942476CE0E9468
:104E8000572473CE90915802911127C580919C01AF
:104E9000882321F0CE0148960E94B61D988D292FB7
:104EA000221F2227221F41F080919E01882309F4AE
:104EB00045C0815080939E012093A10121E094FD83
:104EC0003FC020E02093A20192FF03C081E08093C5
:104ED000580293FF4ACE60919E01E4E06E9FB001BC
:104EE000112465507A4D44E050E0CE0101960E94B5
:104EF000983689818130D9F168F1823009F4B7C0E0
:104F00009C818091D401891708F43FC010929C01C4
:104F100087E695E29093F3018093F20182E080931B
:104F2000EA011092EE0191E09093EF012CE42093BE
:104F3000EB019093F1018093A30117CE86E0BACFE5
:104F400080919E01863020F48F5F80939E01BACFBE
:104F500080E0FBCFEA81F0E0EE51FE4F80818130AE
:104F600079F624E64EE562E08FEC95E264CFEA81C3
:104F7000ED5FF0E0EE51FE4F8081853009F624E6CA
:104F800048E563E08EE895E256CF24E646E462E029
:104F900087E495E250CF91E09093F10183FF1CC02C
:104FA00060919E01F4E06F9FB001112465507A4D2D
:104FB00044E050E0CE0101960E9498368981882312
:104FC00081F08130B1F08091D4019C81891B809364
:104FD000D40181E08093A301888D82FFC6CD81E05A
:104FE000AACFEA81F0E0EE51FE4F80818F5F80838F
:104FF000EACFEA81F0E0EB51FE4FF7CF90915802F3
:1050000091116BC480919C01882321F0CE014896B8
:105010000E94B61D988D97FF2EC080919D01882318
:1050200041F1815080939D0181E08093A10194FF23
:105030002BC080919D01843028F58F5F80939D0166
:1050400081E08093A20192FF03C081E08093580227
:1050500093FF8BCD20919D01822F90E03AE0239F1A
:10506000F0011124EC5DFA4DE4912430A1F480E0CC
:10507000A0C184E0D7CF8091A1018823C1F2109212
:10508000A101D5CF80E0DACF8091A2018823D9F2A7
:105090001092A201D8CF84529E4FDC018C918111D5
:1050A0000AC08091D5018E1760F424E646E462E0E0
:1050B00081EB94E2C0CE24E646E562E086EF94E21E
:1050C000BACE10929C0181ED94E29093F30180930B
:1050D000F20182E08093EA011092EE0181E0809378
:1050E000EF019AE49093EB018093F10184E023CFE8
:1050F00091E09093F10183FF1EC090919D01A92F33
:10510000B0E02AE0929FF0011124EC5DFA4DE491A9
:10511000A452BE4F2C912F5F2C932091D5012E1BB2
:105120002093D50123E02093A301209156022F3F25
:1051300011F49093560282FF18CD83E0FCCE80914B
:10514000E8019091E901059759F462E080E00E943E
:10515000DC1981110CC00E94B61E86E08093A30169
:1051600021E344EF612F888D0E94521FFECC0E94E4
:10517000B61E87E08093A30124E642E861E082E95D
:1051800094E20E94A41EECCF909158029111A5C305
:1051900090919C01973609F43FC108F0CCC0953638
:1051A00009F4FDC008F015C1913008F053C382FF27
:1051B00003C091E09093580221E340E0612F0E94E8
:1051C000521F888D83FF30C080919B019091A00178
:1051D000891750F50AE911E02EEA31E07801D7018C
:1051E0005896EC91F0E0E65AFE4F90819F3FE1F433
:1051F000B4E0EB0EF11C2E153F0589F7882309F466
:10520000D4C1CE0101960E94D52C0E940C1A8111A6
:10521000E7C189818F3F09F0F5C124E64EE561E0E1
:105220008BE794E20E94A41E10919B011123B1F11F
:105230008091A001181790F5AAE9B1E05896EC9179
:105240005897F0E0E65AFE4F80818F3F39F514966B
:10525000F1E0AE3ABF0791F7888D87FF1FC08091BC
:10526000E8019091E9018B339105C0F407966DE058
:1052700070E00E940737FB01EE0FFF1FEE0FFF1FCC
:10528000E656FE4F838D91E08927838F811101C0FF
:10529000118E81E08093DA011092DB010E940C1ADA
:1052A00081110FC08091A00118130BC084EF91E011
:1052B0000E94D52C1092F3011092F2018BEA809398
:1052C0009C010AE911E0D80158962C915897E22FD9
:1052D000F0E0E65AFE4F60816F3F09F49FC170E035
:1052E00080919201909193010E94F336892BE1F411
:1052F000F801818D8F5F893009F487C1818FE1E0EA
:10530000E20FD8015896EC935897F0E0E65AFE4F1A
:1053100080818F3F09F07BC159968C9159978823E2
:1053200009F475C158962C930C5F1F4FF1E00E3AAB
:105330001F0749F61ACC9A3609F42CC1F8F49836AE
:1053400009F48FC0993609F032CF91E09093F101C2
:1053500083FF0BCC8091AA010E94CF178111FDC061
:10536000809100029091D301890F853608F084E680
:105370008093D3018BE680939C011AC021E9290F09
:105380002D3308F014CF83FD06C091509F3619F0DD
:1053900090939C01EACB85E680939C01E6CB91E05B
:1053A0009093F10183FFE1CB8091F4018F3F21F4D1
:1053B00088E00E94C71ED9CB8091F501882311F0A7
:1053C00086E6EACF80910002882309F4CECB89E6F5
:1053D000E3CF91E09093F10183FFC7CB8091F4017B
:1053E0008F3F31F388E680939C0188E080939F0192
:1053F0008091F5019091AC01981748F4891B909128
:10540000AB01891730F4981B9093AB01AECB80E0D1
:10541000F6CF1092AB01A9CB91E09093F10183FFFD
:10542000A4CB88E680939C0188E080939F018091C3
:10543000AA010E94CF179091AC01981768F4891BBC
:105440009091AB01891750F4981B9093AB01109287
:10545000FA011092FD0189CB80E0F2CF1092AB01EE
:10546000F6CF80919F01823090F081700E94FB1AEC
:10547000809192019091930183709927892B09F073
:1054800074CB80919F01815080939F016ECB1091CE
:10549000AB0111115BC08AE00E94C71E8091070218
:1054A0008150990B2AE0289FB001299F700D11248B
:1054B0006C51794D4AE050E0CE010E960E9498362C
:1054C0008091AA01843079F163E080E00E94DC19C8
:1054D000823028F46E898D890E94DC19182F109370
:1054E000A5018AE0E5E1F1E0DE01119601900D925F
:1054F0008A95E1F76CE080E00E94DC19853098F431
:1055000090E0880F991FA1E0B0E0AC0FBD1F8A0F9B
:105510009B1FFC018081918190930C0280930B0270
:1055200081E080930E026C898B890E94DC19809344
:10553000ED019091D501890F891708F48FEF8093C1
:10554000D50181E08093F10184E626CF1091AA0174
:10555000812F0E94CF17882311F087E61DCF1430CA
:1055600009F026CF9091F5018AE680939C01892F5E
:10557000869586958093F00181E08093F10180917A
:10558000D301981720F4891B8093D301EECA10929F
:10559000D301EBCA91E09093F10183FFE6CA8091B9
:1055A000D301811105CF89E004CF80E18093D90137
:1055B0001092B2011092B5011092B6011092B90189
:1055C0001092BA011092BD011092BE011092C10159
:1055D0001092C2011092C50181E080939B0124CEFC
:1055E000F801838D882311F0108E138E0C5F1F4FEE
:1055F0000E151F05A9F780E18093D90180919B01C9
:105600008F5FEBCF8091A001E8CF118E78CE66E05E
:1056100080E00E94DC19F801828F86CE5B968C9127
:105620005B97882309F480CE8091920180FD7CCE27
:1056300059968C9159978F5F893019F059968C93B0
:1056400073CEF801118E70CE8C7039F01092F30188
:105650001092F20188E00E94C71E21E344EF612FFF
:10566000888D0E94521F81E08093F1017ECA909143
:105670009C019C36F9F0E0F59B3609F076CA8091E2
:1056800007028150990B2AE0289FB001299F700DD5
:1056900011246C51794D4AE050E0CE0101960E94F0
:1056A00098366D818C810E94DC198093A4018CE670
:1056B00080939C0181E08093F101888D83FF55CA1E
:1056C0001091A4011123F1F08DE680939C0188E0F4
:1056D00080939F010E94FD198117C0F40E94FD195B
:1056E000181B8091D301181708F051CF811B4CCFA4
:1056F0009D3671F09E3609F038CA91E09093F10121
:1057000083FF33CA0E94B61E86E015CC10E0E9CFB5
:1057100080919F01823008F0A8CE8091D301882328
:1057200009F441CF8091AA01823061F70E94D1191A
:10573000082F1091E5018091E601180F8091E70193
:10574000180FECEDF1E020EE31E080E09191911145
:105750008F5F2E173F07D1F7011104C0111102C04E
:10576000882381F266E080E00E94DC198111CACFB3
:10577000011102C0112341F00E94711D9EE6909319
:105780009C018093F0016FCF64E080E00E94DC19FF
:10579000282F30E02D5F3F4F8217130609F064F485
:1057A000482F4370E42FF0E0E452FE4F908199239C
:1057B00051F091509083142F8EE680939C011A5FD4
:1057C0001093F00150CF8F5FE7CF91E09093F101FC
:1057D00090919C01913041F1923009F0C6C90E942C
:1057E000D119811109C08091E6019091E501890FDD
:1057F0009091E701890F11F00E94711D84E680935A
:10580000D3018091D50186958093D5018091D401F3
:1058100086958093D4018CE390E09093E901809386
:10582000E8010E94822423CC83FF9FC982E0B4CD8B
:1058300090915802911151C09091A80121E39111CA
:1058400001C020E844EF612F0E94521F80919C010B
:10585000882329F0CE0148960E94B61D86C9888DFE
:1058600082FF03C081E0809358028091E80190910B
:10587000E9018038910594F08091070291E0980F3A
:10588000909307020E94E0211092E9011092E80132
:1058900085E28093D70185E00E94C71E8091A50113
:1058A000882309F462C92091E8013091E90120358B
:1058B000310509F05AC92091D401982F920F9217FF
:1058C00008F49FEF9093D4018093EC018091A6019E
:1058D0008093ED011092A50137CE0E94CB1D45C9E2
:1058E0000F920FB61F9211248F939F93EF93FF9304
:1058F000EDE7F1E080917C0191E08D5F8D3710F054
:105900008D57939580937C018081890F9181911DA2
:105910008083918382819381811D911D82839383F2
:10592000E1E8F1E080819181019680839183828119
:105930009381811D911D82839383FF91EF919F91AC
:105940008F911F900FBE0F901895CF93DF93FC019E
:1059500090E09F5F9F012F5F3F4FD901892F8617EE
:1059600050F44D915081451720F4ED012197588353
:1059700040838F5FF4CFF9016913EBCFDF91CF91B3
:105980000895CF93C82F682F81E00E94A01DC6956F
:105990008AE48C1BE5E8F1E08483858385E08683D7
:1059A0008AE691E2CF910C94521D4F925F926F92D2
:1059B0007F928F929F92AF92BF92CF92DF92EF929F
:1059C000FF920F931F93CF93DF93CDB7DEB763970B
:1059D0000FB6F894DEBF0FBECDBF8C01CE0101968D
:1059E0005C0186E0D5011D928A95E9F7809104015A
:1059F00090910501A0910601898B9A8BAB8BE09168
:105A0000E101512CE43021F0EC0FFD2FF11D518804
:105A10008FEFF801808311821282138214868091A5
:105A2000B4018C878091B8018D878091BC018E87ED
:105A30008091C0018F878091C401888B65E0CE0181
:105A40000C960E94A52C8091DF01882359F18D8549
:105A50009C85981739F19E85891721F18F859817B4
:105A600009F198898917F1F023E0D8012D93CD0130
:105A700044E050E069E47CE20E949836D801EC9161
:105A8000BAE0EB9FF0011124E25DF34DE491E50DE6
:105A9000D8011C96EC931C9782E014968C93149773
:105AA00015968C939CED692E91E0792E25E2C22EFD
:105AB0002CE2D22E4301412CF40181914F01882325
:105AC00009F459C0C60185529C427C0145E050E072
:105AD000B601CE0107960E94983665E0CE01079682
