:100000000C946B160C9493160C9493160C949316F4
:100010000C9493160C9493160C9493160C949316BC
:100020000C9493160C9493160C9493160C949316AC
:100030000C9493160C9493160C9493160C9493169C
:100040000C9493160C9493160C9493160C9493168C
:100050000C9493160C9493160C9493160C94802580
:100060000C9493160C9493160C9493160C9493166C
:100070000C9493160C9493160C9493160C9493165C
:100080000C941F250C9493160C9493160C949316B1
:100090000C9493160C9493160C9493160C9493163C
:1000A0000C9493160C9493160C9493160B0F9705BF
:1000B0008B898B8905411CB0D7BD9B8D110B0954D1
:1000C00030B2486F0B0F2F172C260ED8EB7BDD6C50
:1000D0008C2CD2B70B0F2F172C5C9BBDBED74D229B
:1000E0009345FA160B8F7B8535941B72D223596F7B
:1000F0005A064E286C286630686F8BCF2B1CF5840F
:10010000DC901B3A16596D198C486143614361CAF2
:10011000A02D0B0F2F162C262EA603F67ADFCDC6A8
:100120008805238BF40D0B4FEFE766EEDF3064B2EA
:10013000C77B0B0F2F162C5C585C9BBDDE7793485A
:1001400005239345FA06612046756C6C20486F754F
:100150007365210054776F205061697273210061CB
:10016000205468726565206F662061204B696E645B
:1001700021006120466F7572206F662061204B69F7
:100180006E642100612046697665206F66206120DB
:100190004B696E6421006974656D73206D696768D1
:1001A00074206769766520796F752065787472614F
:1001B0002E0063616E206361737420332074696D57
:1001C00065732C2062757420736F6D6500666F72A5
:1001D00020726563617374696E672E204E6F726D55
:1001E000616C6C7920796F7500746F75636820722B
:1001F000756E657320746F2073656C65637420740D
:1002000068656D0063617374207468652072756E33
:100210006573202D206A756D7020616E64002770F3
:100220006F6B6572272068616E64732E2050726553
:100230007373696E67202223252077696C6C0049EF
:100240006E20636F6D6261742C2063617374207221
:10025000756E657320746F2073636F726500796FBC
:10026000757220656E656D6965732E0076696577B8
:1002700020696E666F726D6174696F6E2061626F66
:10028000757420796F75206F720061636365737395
:1002900020796F757220696E76656E746F72792041
:1002A000616E6420746F0070726F7065726C792E6D
:1002B00020596F752063616E207072657373202200
:1002C000242520746F004265207375726520746F59
:1002D00020657175697020796F757273656C660041
:1002E00074686973206372617A792077697A6172C0
:1002F00064210070656F706C652E20506C656173B1
:10030000652068656C70207573206465666561742E
:1003100000686173207475726E6564207573206166
:100320006C6C20696E746F2070756D706B696E00F7
:100330006F6620477269666F72642E20546865206C
:100340006576696C2041737461726F4B0057656C00
:10035000636F6D652074726176656C6C6572207474
:100360006F2074686520746F776E003220502E20E5
:10037000444D470033352044616D61676500486531
:10038000616C20323020485000352046697265206B
:10039000444D470056656E6F6D204D697374005271
:1003A0006973696E672053746172004865616C6996
:1003B0006E672057696E64004669726520426C6101
:1003C0007A6500537065656420506F74696F6E00C4
:1003D0004865616C746820506F74696F6E0046697F
:1003E000726520506F74696F6E00526F756E642075
:1003F00048656C6D657400486967682048656C6D78
:100400006574004372797374616C2048656C6D6526
:1004100074003B073FAC5B7B5B02725969D6654950
:10042000715D56329374BD5CC94CD2755997A0204A
:1004300028B93097FC3A3B473F6C0DC0E0655D241E
:100440008260F0B22E2BCDBA2C29065F4A04C1E09F
:1004500019D7C42ED0DED6000CFE503B073F649562
:10046000B12E4B406E5558BDACC9655D569A755955
:100470005294BCECAAD9B1B7755969D66549C9F887
:10048000413B073F78091CD765090CC96509C8CBF2
:1004900025204A2E6B72ABC2EA8528081A2E4B40E3
:1004A0007E38398F5F452EFB82BC4B30257BE415AF
:1004B000C3E101821BC4E9E6D1AD8C35C6E5B47B4E
:1004C000DB635D6E252069F07773E5035E0A17CA6A
:1004D00053F4C6953B78E2412E91CBB8E6D25B8EC1
:1004E000EB984BE4343E0E398F5F889A1258237094
:1004F000198E22468A79BFBA063D9DD0A5917539DD
:100500008D35CABA2C3AD638A9BA70AE71BA2C3A1F
:10051000D6B81D1659B3DFF114B9AC632E91CBF8E0
:10052000D4BA604E1ED70573C9711D73C9711D738E
:10053000895CD631B02002EB72F214B9A84739CFEA
:10054000EF5717ECDBA5738575B8A14B23EBF2E8E9
:10055000F68D0453B2478EA732D618EF5717ECDB4F
:10056000657596DE3EBF8EB9E43A2EC48BD775C151
:100570005C72CF251FF052B8508E9E2297F1A9755C
:10058000CC25C7F551398F1FE606DD851BA7E1286D
:1005900062A4980759418415B101D39DF2E856C66B
:1005A0001AE372DABDEDB12EB7129034F867F07924
:1005B0002E91CB78CD11725927E0792E91CBB8E6E8
:1005C000D25B8EEB984BE4343E0E3B073F24280869
:1005D0004A4E4B42C6690480044E230024701A21FF
:1005E000B85E2E91F63842C838B156080718A711E0
:1005F00042C66984397E003B471F5E83AECB08004C
:10060000819C940090715A57B2249CD622E3E92A27
:10061000D25E46081967B2249C061C460819A73109
:10062000C9F8053B873F6C09DC609CC6A25E870069
:1006300034F07215B1C721A1E3C45A211C609C8615
:10064000848ED35874FC503B073F64090CC96984FD
:1006500090711A938CD308739C4608AE17AB8C75B7
:100660001A012081CB3A8D304798E33402400227AB
:10067000D60AE1C33B473F6C0DBA2E03365483EBD9
:10068000B416194FD7A0EB32024020A77519938CEE
:1006900049C669048040CE6449F8453B471F58521B
:1006A000542F63B23C269939A10120813359124E4F
:1006B0004A00C838AD976BD07519012090D3BA8C19
:1006C00049C624E33402402067B2247C093B8FBF33
:1006D000E056026B046E8745D6ECEDB0585939AA46
:1006E000BA70AE718B5D185DCA89AEAE72E306DD7D
:1006F000851B8371FB0BE492E33A7A8A5CD4A3A74F
:10070000C8651D73895CD63197C8653C5D173EE0AE
:10071000F35CF27D3BCF5FBE6D585DB7C3226BF6D5
:10072000A4EAC2B9C6E5F6388D095DE634C61AF406
:10073000F47475C1BE5D5667E9ED17E692E33A7A47
:100740008A5CD4632E91CB3AE692C7920B2017EEC7
:10075000E38239F9781D73C971FD083B8F5F452E1F
:10076000FB82BC60DC2E63AC414FCF8244049356C5
:100770001446C9E6CDEA1AF4745A63DFBA4F97D526
:1007800005A1A1E41773E57D2EB98E0BE6E473E0B5
:10079000B42E81238FD70573F2B86E3DE692E3BA8B
:1007A000A0A77C0F3B8F7F186ED05DB8711A8E2288
:1007B000468AB9AFB20028008BAE41D73F239FE7EE
:1007C00012B98CC7C0897211E004FC79003BCF1FBD
:1007D000E006DD851BA7E12862A498FB2A0B8002B6
:1007E000B0E81A747D1DB9EC0B721E1D418A4BDEF8
:1007F000E5089E0080090CA0FE349FE712B98CC763
:10080000C0897211E004FC1CAE3C5E17CCC9179C79
:10081000809B003F023B8F076ED05DB871A3ABEBAE
:10082000742A638D715F65015000165D83AEAF2140
:10083000977D415E306E9731D6A0A7873982270019
:10084000600203A89FF25BEBE82972198F8113E520
:1008500022C009F83C57DEE792EBB8604EBEE004D8
:10086000DC04F8181B8FBF83AB57AF5EFD6D392AD0
:1008700038200222540802110431023B021B301BB3
:100880003025800920602400086EAF6B001B8F9F0D
:10089000F1CAAD65812A850D85A2541CCC9EBDF29E
:1008A000B11CB5820066A10201040422A8400920FF
:1008B0001003E800000402086811003304B032BCE1
:1008C000AE011B8F070F085E20AFB97AF5EAD5DFBE
:1008D000964D1504000041000010A0002008225091
:1008E000365036F5901A7090A086A02A314EB70780
:1008F000202020507265737320506C6179204F6EF8
:1009000020546170650A2020202020446576656CA3
:100910006F70656420323031390020526573742065
:10092000496E2050656163652046696C6D6F746522
:100930002E0A2020426F726E2031383431202D2053
:1009400044656320313837390020202048657265BE
:10095000206C6965732056616D7069726963732ECE
:100960000A2020426F726E2031383433202D20440B
:1009700065632031383832000908080C020D0B0D70
:10098000020C0808083A3B33333B3A013A110B108A
:1009900000101090100017001D18101010101010EB
:1009A000000000000706040404040404000400001E
:1009B0000027DF379A5DDD2C368BCD62A3B291B074
:1009C000596C169BC566B1195C2817CA45BA5336CF
:1009D0008B2D63A77C637FCEF08205BC21C0CC60E9
:1009E00073CA9D6FED2619090909ECEFED2F580622
:1009F000B00001560110D009DC107845189537BCBD
:100A0000DFE14018190CD99FE9B81CBD7A75272A77
:100A100021AAA871339C2C17D30BF1EAD5E305ED7D
:100A2000C8F278193D0327DF1776BA6AB9502E94B9
:100A30000BA50945004239B0D82C368BCDE240B920
:100A4000500E7625E542B950339BCD17F6E70C2FB3
:100A500058C01306303259DC7CC1273699196942D7
:100A60004202FB7BFB0B96012C4080550004747AFC
:100A700015DE1132C20B1EEE32B810460643F66781
:100A80003A2E47AF5EDD894A882A6A3C5037C3C197
:100A9000F6845EBD669D1487CBE5F1327A06279F0A
:100AA0002FD8E9AAE542B9502E9402A194413921E8
:100AB00037E486DC901B72434E3A1BB9A1DDE6C2D7
:100AC00007F7B7B864B178C20692C9E2414E7C6BB1
:100AD00093193126B0BFBF1F0B0359808C05202806
:100AE00070062EC00B823D70E22BBB0C06C321FBAF
:100AF000B31D97A357274B63100928A2CA74B05D92
:100B00002EAF868B57AF5927C5E1625D469F0127FF
:100B1000DF2756D6888BCDE042B9509A50042094F6
:100B20000BE542B9502E940BE542B950BB9A4DB932
:100B300050339BCD17F6E70C2F58C01B02CC0C3658
:100B4000A73CE053BB4946424202FB7BFB0B9601AC
:100B50002C4080550004740237045E1146E5091FDD
:100B6000D8E14018190CD99FE9B81CBD7A75272A1D
:100B700021AAA871339C2C17D30BF1EAD5E305ED1C
:100B8000C8F278193D030B4F3A9028250C6032D9F2
:100B90000C93F270C89883BA5C1EE80A03070B4FE7
:100BA0005AA5C8660093C96658078B1743C61C240C
:100BB00023230732C31E0B8F3180140D41E0821CAA
:100BC000C19903F0620C9CA5B9AC4DE7620C0B4FC8
:100BD000271319822200A10806A0A4CF5252521254
:100BE0008100902D105A5242030B0F37072A18101C
:100BF0008100200A29BB0F52424343350819D5868C
:100C00008686A60B4F1BAD220A8A0084221880928A
:100C10008637292989894000C8168829293B098FE8
:100C2000DB13012650603139A03F0A094F07242009
:100C30002C16D0408145032ABF08894F6E1630809C
:100C400005540C0200021188FC2000098FDBD39CA4
:100C50009775388C5FC115098F07649CC631A7B1A1
:100C6000E5277005098F6B1CF63CE5CC457E805767
:100C7000000D8F3B07B2C20694A1A0062630601C6F
:100C8000387002C2048EFBB28E5C628E0D8FBB93F5
:100C900031C20694A1A006265080BEE048D8C26D9D
:100CA0005FF6C983E90D0D8F133A980D1B508682AC
:100CB0001A9840B51F000E81E3BAEC9B9B404F0D84
:100CC0008FBB9331C20694A1A006265080BEE04897
:100CD000D8C26D5FF6C983E90D0D4F3B9B8E4D0069
:100CE000610082189940491FB280B2806397CB8E11
:100CF000A325A4070D4FBB9B8E4900610082189964
:100D00002C1C2F592C8670EB72D97135CE6E0D8F3D
:100D1000BB9331C20694A1A006265080BEE048D8FD
:100D2000C26D5FF6C983E90D0DCFC7B98E7C2EF376
:100D300011E470589775599775D9D90D8FBBF394F5
:100D4000CFB1E90B8E635FD6655DD6651D6E0D8FE5
:100D5000738D5B3EC7B41FC8E1B22EEBB22E6BD0D1
:100D6000130D8FBBF394CFB1E90B8E635FD6655D36
:100D7000D6651D6E0D8F3B87C3387AF59A45DF70B7
:100D80009AF3B22EEBB22E6BD0130D8FBBF3D4A31C
:100D900057AF393DE138F6655DD6655DD6E1060DA4
:100DA0008FBBF394CFB1E90B8E635FD6655DD665DB
:100DB0001D6ED5F08D14A1C881CFD9F1AF200019D7
:100DC0009F270E84C998008F0207CB67084042F81E
:100DD00000671E5064584AA650197DC081C5449CC6
:100DE000EDB3E80AC0211DCFB973EC29EC24A7713B
:100DF000600101CD1830E080FE2A6E822B6F5CE32B
:100E00008D6EC291EF0251FF0079FF01D8FF005EA5
:100E10000000D200006925320126011201FA00E427
:100E200000D400C400AC00596F752064696564216A
:100E3000204C6F73652068616C66206F6620796F47
:100E400075720A202020202020676F6C6420616E5C
:100E50006420736B696C6C20706F696E7473210011
:100E600020736B696C6C20706F696E74732E0059FF
:100E70006F752073636F726564200020676F6C6408
:100E800020636F696E732E00596F752073636F72E4
:100E90006564200020596F75206B696C6C65642057
:100EA00041737461726F6B20616E64206672656558
:100EB000640A7468652076696C6C6167657273207A
:100EC00066726F6D207468652063757273652100AA
:100ED0002066726F6D20796F7521002072756E65C6
:100EE000005468652047656C6174696E6F75732086
:100EF000437562652073746F6C6520610A20202041
:100F0000002064616D616765207074732E0020613C
:100F1000747461636B732C200020687020706F699B
:100F20006E74732E002020417A7461726F6B20738F
:100F3000746F6C652000206865616C746820706F48
:100F4000696E74732E00596F752072656761696EE2
:100F50006564200020707473206F662064616D6189
:100F600067652E00506C757320616E206578747211
:100F700061200020707473206F662064616D61676A
:100F8000652E00596F7520696E666C6963746564BF
:100F900020006E6F7468696E672100840172015FC2
:100FA0000154014601612000050301030703010507
:100FB0000304060706044D0330031103F302E002A5
:100FC000C602A7028A026C025E023F021E020402EF
:100FD000E901CD01B2019601526573746F7265200B
:100FE00047616D6500536176652047616D650A4E06
:100FF00065772047616D650A004E616D653A0A4864
:1010000065616C7468203A0A446566656E636520A4
:101010003A0A0020456E656D792053747300890388
:101020007E0374036B03B803AB039F039403202078
:10103000202052756E6573004865616C7468203AB3
:101040000A536B696C6C203A0A446566656E636589
:10105000203A0A476F6C64203A0A44756E67656FE0
:101060006E73203A0053746174697374696373001A
:10107000070301030703050201070304060706052A
:101080000204020203032078200004073E41553E7B
:101090000304F703EA03DE03D003C30320496E769B
:1010A000656E746F72790003075F2E140307142EA8
:1010B0005F08083C42BDADA5BD423C003C42BDAD11
:1010C000423C0000003CFFC33C0000003C42A5BD88
:1010D000423C0037973F13380100135080004C11F9
:1010E0002E201C44DC80ADC4600BB8217800E102E6
:1010F000E20408800213003801BFDEAB57BE332F75
:10110000000000C08E174787A3C3515407822A45A9
:101110001564A8D2E1E8707478311B000000B8CCE7
:10112000EF70F5EABB71904CF4120032701C12A102
:101130000020C010EB0C90011080228250B0425170
:1011400001280002500004A000084001502958A1C5
:1011500020881420002340A6150780005030390C49
:101160001901201765060F030B10000000A0F0D036
:10117000A080000000FC02292028082902FD02FCB2
:101180000605110A171B0E110605000C161F0C0090
:10119000040406090F060A0F0F08090D0F0A090BB0
:1011A0000F0F03020F0F070D0D0D0F0A0E0E010D8D
:1011B0000F030E0B0B0F07050F0F0C083C4281812C
:1011C000818181818181423C0B0DC7831B2363FF99
:1011D00003037B030318181B18181F18181F1F1F61
:1011E00081045B043604120485053E05E704A2046D
:1011F0000F0FB4698619AA4AD765A844356B65658F
:101200006D0406B00C1A318220208220468C18749E
:1012100029127404B187AB9C870014725204A0E3B6
:1012200098E1CA69084021CF6195705AB0C7690832
:1012300040214F510168E0B4608FD390D0715912B2
:101240003A002997BF7ACD2CE3093C7A444E0C969C
:1012500017FFAEF7EF7204E0001CF6EFE4B567AEDF
:101260005E7DCE95EF71E6CC99D75EBD72F635FF07
:10127000FFFFFFFFFFFFFFFFFFFFFFFFFFFFFFFF7E
:10128000FFFFFFFFFFFFFFFFFFFFFFFFFFFFFFFF6E
:10129000FFFFFFFF1F1F1F1F1F1F1F1F1F1F1F1FDE
:1012A0001F1F1F1F1F1F1F1F1F1F1F1F1F1F1F1F4E
:1012B0001F1F1F1F1F1F1F1F1F250DFFFFFFFFFFEA
:1012C000FFFFFB0303BB0347FFFBC3033F83FBFF9E
:1012D000FB0303BB13FF0303FFFFFFFFFFFFFFFF42
:1012E0001F1F1F1F1F1F1F1B18181B181C1F1F1B32
:1012F00018181B1F1F1B18181B191F19191F1F1F38
:101300001F1F1F1F1F9B06740647062306F705CAEB
:10131000051508CD07A4075B071407CD06121000BA
:1013200080403D010101F40404F40101013D4080CD
:1013300000F7E8D1C0DCA24158444E5841A2DCC0BD
:10134000D0E8F7008040BDC1C101F40404F401619C
:10135000E1FD408000F7E8D7C3DDA25D7663775FEB
:101360005DA2DCC1D7E8F70080403F151501FC7C89
:1013700054D4011F1535408000F7E8D1C0DCA241EC
:10138000545A5A4041A2DCC0D0E8F7118761C284A8
:10139000EE100830901B7243061008D9850993009F
:1013A0009B0FFF7E01C2088D0864083F87ABB042E7
:1013B000A9A5D4526A29B5945A4A2DA596524BA98B
:1013C000A5D4526A29B5945A4A2DA596524BA9A57F
:1013D000D4526A29B5945A4A2DA596524BA9A5D440
:1013E000526A29B5945A4A1674010B0D0303BB23A4
:1013F00023FF03037B030318181B1C181F18181F57
:101400001F1F0F0FB469469CE070F596E100E35A88
:1014100059591B0105582E970B414004415C2E97EA
:10142000AA22414700100EBAB6BE5E3EFE7E7E6E18
:1014300076EE3E5EBEBEB6040222142438051D259B
:101440002D140C02360A040C0E0C0E0F0A00080CA8
:101450000C0E0E0F0E0C000000000000000000003B
:10146000000000080C0E0F0E0E0C0824040C0204E1
:1014700002050A00080404020601020C0000000034
:1014800000000000000000000008040E0106020435
:10149000083221FFF20C6C6C48240000000086002A
:1014A000FFFFFFFB83FD83FBFFEFDF81FBF7FFFB0C
:1014B000F789F7FBFFFFFF00008C000000002448C5
:1014C0006C6C0CF3FFFFF30C6C6C48240000000004
:1014D000CC000181C1C1C1C1C1C10181C1C1C1C1B2
:1014E000C1C10181C1C1C1C1C1C0008C00000000E7
:1014F00024486C6C0CF3FF3F330C6C6C48240000E8
:101500000000C0000C8CCCCCCCCCE018C4320A0A51
:101510000A0A0418EC8CCCCCCCCCC0C8008C0000DF
:10152000000024486C6C0C73BF00000C6C6C4824E9
:1015300000000000C0000C8CCCCCCCCCFF00FF0025
:10154000000000000000FF8CCCCCCCCCC0C8008CCC
:101550000000000024486C6C0C00FF00000000003C
:10156000000000000000000000000000000000007B
:10157000000000000000000000000000000000006B
:10158000000000000000000000000000011512FF34
:101590007F7FFF0FF70BF3DB4B394ADBF30BF70FC2
:1015A000FF7F7FFF00FF0000ABAAA9A8A9A9A9A9F6
:1015B000A9A821220100FF0000000300000202028E
:1015C000020202020000000002000003000000000E
:1015D00000000058FCFEFFFFFEFC580000000080E9
:1015E000800000C0E0F0F8F8F0E0C000008080006B
:1015F00000000058FCFEFFFFFEFC58000000000049
:10160000C0E0F0F8FCFEFFFFFFFFFFFFFEFCFCFE6A
:10161000FFFFFFFFFEFFFFFFFFFFFFFFFFFEFFFFDC
:10162000FFFFFEFCFCFEFFFFFFFFFFFFFEFCF8F0EC
:10163000E0C03210000000000058A45AB5255AA49A
:10164000580000000080800000C020D0A828D020D2
:10165000C0000080800000000058A45AB5255AA49C
:1016600058000000000040A050A8542A158AA4A4E5
:101670008A352AB4444241A0AAB5AAB7ADA2A5A111
:10168000A2ADB6AAB5AA404142A4346A158AA4A460
:101690008A152A54A850A040090E07F986AA82AAE2
:1016A00086F907003F20242A26203F00E0F0F8FCBE
:1016B000FCFCFCFEFFFEFCFCF8F0E0010307070762
:1016C000070707070707070703010F0BE010E814D8
:1016D000E4B4947295B6E414E810E0010205020146
:1016E000030202020301020502014B1CFFFFFFFF80
:1016F000FFFFFFFFFFFFFF7FBFFF80FEFE00FF0039
:101700000060606060676361616161616161616126
:10171000616161616161616161616165690161016D
:1017200001010101010101010101010101010101A9
:10173000010303070F6F0FFFFFFFFF7F43BD423C15
:10174000722A262A723C42BD427F0002000000FE3F
:10175000FE00FF0A0B0A0B8A4B2AABAAABAA4B8AE4
:101760000B0A0B00FEFE00000077323332333233B7
:10177000323332333233323332333200000000003E
:10178000FFFF07F71717109F1D99919F911F1D19B4
:10179000919FF1BF50F003000000FFFF00FFD3D284
:1017A000D3FE01FC03000000000001FED3D200FFC5
:1017B000FF00000077333333333333333333333382
:1017C0003333333333330003000000FFFF000F0ACD
:1017D000040802020200020000000001010F0A05D5
:1017E0000F000000000F0F000F0D0D0D0F000F0078
:1017F0000000000000000F0D0D000F0F000000079B
:1018000003030303030303030303030303030303A8
:101810000300030000000F0FFEFEFEFFFFFFFEFEB1
:10182000FEFEFEFEFEFEFEFEFEFEFEFEFEFFFFFFD5
:10183000FEFEFCF87F7F7F7F7FFFFFFFFFFFFFFF44
:10184000FFFFFFFFFFFFFFFFFFFFFF7F7F7F7F7F28
:101850000000000000030303030303030303030367
:101860000303030303030300000000001C12FE0235
:10187000FAF575F57ABA5AAACA3A3A3ABA3ACAAAF7
:101880005ABA7AF575F5FA0204F87F405F5F5BDCBF
:101890001D9A9F9F9F9C98941B1C1F1F1F1A1D1C05
:1018A000DB5F5F40407F000000000003000101019A
:1018B0000101010100000000000000000300000021
:1018C00000009BCF39EC79CA6B8FE3304F3DFA9C17
:1018D000E3B8ACC3217F5F1BC733A7358FBECE9162
:1018E000CF791CA71CE73A6502041055A055A075D6
:1018F000FFD5FFDC00090093000A0083000600AF5B
:10190000000A000080AF001600AF001600008054EF
:1019100068726F77207468652072756E65732061D8
:101920006761696E2100570016005700160000809D
:10193000AF00030026010400B8010400A500010067
:101940000080DC00090093000A0083000600AF005D
:101950000A000080AF00030026010400B801040063
:10196000A5000100008020202020202020204120F0
:101970006D6F6E737465722061747461636B732034
:10198000796F75210020596F7520646F206E6F7418
:1019900020686176650A20202020656E6F75676873
:1019A00020535021002020427579207468697320EB
:1019B00072756E653F0A2020222325205965732009
:1019C000202020222425204E6F00202020596F75D2
:1019D00020617265206361727279696E670A206F97
:1019E0006E65206F662074686F73652072756E6512
:1019F000732100E4020200750506007D06080075EB
:101A00000504000080596F7520646F206E6F74208C
:101A1000686176650A202020656E6F7567682067AB
:101A20006F6C6421002020204275792074686973EE
:101A3000206974656D3F0A202020222325205965E6
:101A40007320202020222425204E6F002020596F53
:101A50007520616C726561647920686176652061CA
:101A6000730A6D616E79206F6620746865736520F6
:101A7000706F74696F6E730A2020617320796F75BF
:101A80002063616E20636172727920210020202022
:101A900020596F7520616C72656164792068617688
:101AA000650A206F6E65206F662074686F7365200D
:101AB00068656C6D657473210000000A41000105C2
:101AC0002800020523010002140101010F01020197
:101AD000140200011E202047616D6520737461743B
:101AE0006520726573746F726564210020205374E1
:101AF0006172742061206E65772067616D653F0AB1
:101B000020202020202223252059657320202020FA
:101B1000222425204E6F00204F76657277726974FB
:101B200065206578697374696E672067616D653FCC
:101B30000A20202020202020202020222325205978
:101B4000657320202020222425204E6F0000050AE6
:101B5000050507202020205468616E6B20796F7581
:101B600020666F7220736176696E670A20202020DC
:101B7000202075732066726F6D2074686520437530
:101B8000727365210049091A09F008DC0009009305
:101B9000000A0083000600AF000A000080596F753C
:101BA000207069636B656420757020736F6D6520AC
:101BB000485021000808805804524A201A01001891
:101BC000244242241800A1CF536421F1DEB2981CB4
:101BD000330104985E51800520C0428E28C0020067
:101BE000E4D160920619DD197F588E005C403801FF
:101BF00013FFAF0C407541A2408D12A40E407541F9
:101C0000A2408D07EA00821EA807EA813A80A00759
:101C1000EA817AA00E067A7508C3210C87301CC2AF
:101C20007080C3810C87301CE0F0EAD5050C0738C2
:101C30001CE07020C3210C07381CC870315DC070D7
:101C4000381DE07020C3E1F4EA028603586E864333
:101C5000180E7078F56A39580E4A806139580E9618
:101C6000831260580EC6029AC05205864582C6028B
:101C70009AC05205460A681C101840351844B180B5
:101C8000C60181015403933081100E9C09009330EA
:101C90008110BEC04C33F9C47EB7CBA2FBBECB488B
:101CA000FCCABE3BD8FBBEEF3B6C12BA53AAA4F7EA
:101CB0001D66B6EFF67DDF771979CD4C3379094C87
:101CC000C204209C3910024CC284688101816114D5
:101CD000A8281289161810184681B680C6018101FD
:101CE000548341140B681C1018403530091308E167
:101CF000C099002F996C16892CAC2CAC2C4C586CCC
:101D000054AA48B0A2A2202A22A222222A035111B8
:101D100014095616561622A2B259084A102B12ACB4
:101D200004B1A2228385A0A85891602588092A1BA6
:101D300095121656165654AC2C42511988042B0B8A
:101D40002D8B812CAC2C64B0983C019E70200498A3
:101D50008409D1020302C328505124122D302030AF
:101D60008C026D018D030203A806832816D038204B
:101D700030806A60122610C28133016012260F374C
:101D800097C1CA306F5E2664C75853C972355F78F1
:101D9000F79D9DA935C6014F1C6F8ED3B132D77AFE
:101DA000755FB976DCDF3DBCEDACD567C0244C0077
:101DB000C2990321C0244C881618101846818A2223
:101DC00091688101816114680B681C1018403518F6
:101DD00044B180C60181015403933081100E9C09E7
:101DE00000933081F064E923AF0FDE73140FFE829D
:101DF000767F5D7D9B8FCD676BF9899CA8DB70CB6F
:101E0000F3C9E936C65C3E230C26610210CE1C08DD
:101E100001266142B4C080C0300A541489440B0CBE
:101E2000080CA340950BE542B9502E940BE542B93E
:101E3000502E940BE542B9502E940BE542B9017730
:101E400046C63872A15C2817CA8572A15C2817CAD9
:101E5000C3BEE042B9502E940BE542B9502E940B0C
:101E6000E542B9502E940BE542B9502E940BE5C2D1
:101E70007B8FBCC8EE50DF71A15C2817CA8572A1A8
:101E80005C2817CA8572A15C2817CA0501707265A3
:101E900073656E747300507265737320506C617952
:101EA000204F6E2054617065000000FA00EE01FAC8
:101EB000001003FA00E402EE020000FA002A02FA1F
:101EC000000000FA00EE01FA001003FA00E402EE4E
:101ED000020000FA002A02FA000000FA00EE01FAFD
:101EE00000DC03FA007003EE020000EE028801FA43
:101EF000000B02FA004B02F4019302FA0001806425
:101F000005000025000000000000000001040000A2
:101F100000000000001E0078003C0001309F0974A2
:101F2000FF00010106B0FF00010106F8FF000101FA
:101F300006F0000001010765FF0001000325010014
:101F400001000425010001020200FF000101054219
:101F5000FF0001010535FF0001010528FF00010117
:101F60000892FF0001018D098D098D098D098309F2
:101F70007809CA1603106688336688338FCF0B59E9
:101F80001B60C3458005DE0039F38D5EBD79EDD55C
:101F90009BD79E59100E060E86C488468E460E4666
:101FA0008648C48E060E08110C1428150201082557
:101FB000102111240A165350004750000904010350
:101FC000070F070B0502010904080C0E0F0E0D0A7E
:101FD00004083F8FAE055CBD7AF5EAD5AB57AF5E1E
:101FE000BD7AF5EAD5AB57AF5EBD7AF5EAD5AB570A
:101FF000AF5EBD7AF5EAD52BB0969D1C2817CA8531
:1020000072A15C2817CA8572A15C2817CA8572A1C3
:102010005C2817CA8572A15C2817CA8572A15C2842
:1020200017CA8572A15C2817CA8572A15C2817CAD5
:102030008159298F198370436EC80DB92127C6B8FD
:10204000AC0570436EC80DB92137E486DC901B7275
:10205000436EC80DB901AC2547C28572A15C281733
:10206000CA09387B42614361436143614361436113
:102070004361436143614361436143618372122958
:1020800097CC2937E486DC10B7885BC42DE2167143
:102090008BD885DC10B7885BC42DE216718BD88590
:1020A000DC901B72C339D97B7AF5EA1CEA45BDA8DE
:1020B00017F5A25EF4EA1CEA45BDA817F5A25EF486
:1020C000EAD5AB73EFB357AF5EBD7AF5EAD5AB5740
:1020D000AF5EBD7AF5EAD5AB57AF5E3D032DDF3F6E
:1020E0001738817000022C60D16C542E04592C36A4
:1020F0008BCD62330972201CF963085A9521CC51AB
:102100006FECDF3FC2CD0E2C38D0ED379940001870
:10211000C0E05D8BA0DB8882512480E8B87A136E22
:10212000E0AD37E106DEBC8A3004109B091592F25F
:10213000290712100421C8F02314204BC41DC02904
:102140004818008056200005084801009022000031
:102150004500000A10810A2A0301C029E236905284
:10216000BE030B0D0703FB0307FF0703FB03071C5D
:10217000181B181C1F1C181B181C0703FB0307FF48
:102180008383DB1B1B1C181B181C1F18181B181C17
:10219000FFFFF70303FF0703FB03071F1F1F1818A9
:1021A0001F1C181B181CFFFFF70303FF8383DB1B97
:1021B0001B1F1F1F18181F18181B181CE3633B0355
:1021C000C7FF0703FB030719181A1B1B1F1C181B4B
:1021D000181CE3633B03C7FF8383DB1B1B19181A1F
:1021E0001B1B1F18181B181C6363BB0347FF070347
:1021F000FB03071C181B18181F1C181B181C6363F3
:10220000BB0347FF8383DB1B1B1C181B18181F18FD
:10221000181B181CFF1F870303FF0703FB03071C82
:102220001C1D18181D1C181B181CFF1F870303FFFB
:102230008383DB1B1B1C1C1D18181F18181B181C64
:102240008383DB1B1BFF0703FB030718181B181CEA
:102250001F1C181B181C8383DB1B1BFF8383DB1BCA
:102260001B18181B181C1F18181B181C0703DB1B36
:1022700033FF0703FB03071C181B181C1F1C181B2C
:10228000181C0703DB1B33FF8383DB1B1B1C181B82
:10229000181C1F18181B181CFB7B0B83F3FF07036C
:1022A000FB03071B181C1F1F1F1C181B181C596F32
:1022B00075206361737420004E6F6E6520210007E6
:1022C000083E7F4377617F3E0D10F008F40C2475C3
:1022D0004674240CF408F000013AE7FE02C7C60673
:1022E000FF2E1900E010E81848EA8CE84818E810BA
:1022F000E001023DE6FC04CECC0CFE2D1A01F008F4
:10230000F40C24754674240CF408F000011CF3FE50
:1023100002C7C606FF160D000C10000080FCD68216
:102320009646FEBC0000000F081F001818001F1C76
:102330000700000000F8AC042C8CFCF80000000F33
:10234000091F011919001F1C0700000000F8AC0448
:102350002C8CFC780000000F091F011919001F19AF
:102360000E000F8F9FE04066CB1C0CBE380F3185EE
:10237000216010110938A0B7C61CE602E0F0F8FC95
:10238000FCFCFCFEFFFEFCFCF8F0E0010307070785
:10239000070707070707070703010F0BE010E814FB
:1023A000E4B4947295B6E414E810E0010205020169
:1023B000030202020301020502010B10FFFFFF5F8F
:1023C0000F2F5F7FFFFFFF03FDD6DFD7F7D6FD029C
:1023D000FD031410FFFFFFFFFFFFFFFFFFFFFFFFE5
:1023E000FFFFFFFFFFFFFFFFFFFFFFFFFFFFFFFFFD
:1023F000FFFFFFFFFFFFFFFFFFFFFFFF1410F04C89
:10240000141AFF0033332211000004C0E900A000B9
:102410001400FFF0F6F606E6E606F60000000000FF
:10242000F0F0FF001400090E07F986AA82AA86F9C7
:1024300007003F20242A26203F001C10FFFFFFFF3B
:10244000FFFFFFFF003333221100001A04C0E91D13
:10245000C4320A0A0A0A051DF0F6F606E6E606F692
:102460000000000000F0F0FF04C0FF00FF0080400B
:10247000A050A8000810FF00333322110000FF0015
:102480003333221100001720EFF9063636241200EC
:1024900000F906363624120000F906363624128A70
:1024A00054AA52EA34DA54D45AD42AD2A24A94CA48
:1024B000C4CA142A52A21A04C0E967AC532E272EAC
:1024C000D3EC67A04C141AFF00333322111A04C056
:1024D000E965A04C141A04C0E965A04C141AFF0069
:1024E00033332211C0E0F0F8FCFEFFFF0808804003
:1024F000A0502814CAC415D7EFBB7FD7DEBBF73F67
:1025000093737AF5EAD5AB57AF5EBD7AF5EA041559
:1025100097DFC9057008B122A104370447B9442EDA
:10252000793FA5C04026608B808214509085E0AD35
:102530005B417512000000E733CFFC5ACF9C0105C8
:1025400006EDF6C9F6EDFDFDC0EFEFFCFBC0FBFCB0
:10255000FDC1FEC1FDF7EFC0FDFBFDFBC4FBFDEDC2
:10256000CDE1ECEDFDACA6F0F98BCF2BACA1DC906E
:102570001B72D223596D1938A1B0A1B0A198C1A086
:102580002D01010704041E140505000202040404C1
:1025900019000000140101050303232300000006B5
:1025A000060606061E14020200000019000B0204B3
:1025B00003095C010023000E0205050B0300041E45
:1025C000000B0305050B01010228000E030507108F
:1025D000420208320412060807102000041E040BF1
:1025E0000204050B1C010228040E0205050B500015
:1025F000001E040B0205050801010228040E030554
:1026000007101C030A3C08170508071010000023D8
:10261000080B020505084201022D080E0205050BF4
:102620001C000423080B0306050B10010428080EE8
:10263000030607100F040C500C1A00000000422083
:102640002047616D652073746174652073617665E0
:10265000642100BA02FA001003FA0070037701BA8D
:10266000027D0010037D0070037D00BA02FA0010A5
:1026700003FA00BA02FA004B02FA001704FA00A4A7
:1026800003FA007003FA001003FA007003F401105B
:1026900003FA001003FA00BA027D0010037D0070F7
:1026A000037701BA027D0010037D0070037D00BA3C
:1026B00002FA001003FA004B02FA004B02FA00176C
:1026C00004FA00A403FA007003FA001003FA00BA37
:1026D00002F4010000FA007505FA002705FA0093DC
:1026E00002FA001003FA001704770193027D00102C
:1026F00003FA001704FA00A4037D0017047D0010FC
:1027000003FA0070037D0010037D0070037D00104C
:10271000037D007003770110037D007003FA001041
:1027200003FA00BA02FA0010037D00BA027D00939A
:1027300002FA001003FA001704770193027D0010DB
:1027400003FA001704FA00A4037D0017047D0010AB
:1027500003FA007003F4019704F4017003F40175A7
:1027600005FA002705FA009302FA001003FA001791
:1027700004770193027D001003FA001704FA00BAEF
:1027800002FA0010037D00BA027D009302FA0010E5
:1027900003FA001704770193027D001003FA001773
:1027A00004FA00BA02FA0010037D00BA027D00A408
:1027B000037D0070037D00A4037D0070037D00A4F1
:1027C000037701BA027D009302770110037D00BAFE
:1027D00002FA0010037D00BA027D00A4037D0070A0
:1027E000037D00A4037D0070037D00A4037701BA7C
:1027F000027D009302770110037D000080258FCFBA
:1028000066387AF5EAD5AB57AF5EBD7AF5EAD5AB57
:10281000578F64BEEBA05010101110101110101142
:1028200010101110101110101110101110101110A3
:102830001011101011101011101011101011101093
:1028400011101011101011100A65140000FCFEFE8A
:10285000FEFEFEFFFFFFFEFFFFFFFEFCB8F0FEFFE7
:10286000FFFFFFFF7F7F7F7F3F3F7F3F1F1F0F00E7
:10287000010303070707070702000000000000002C
:102880000012130000FC06FACA922E9DE5C996CDEF
:102890006549165CB8F00E41AC563B874D43414448
:1028A0002E37402217100F0001020205050405050E
:1028B00002000000000000000001010000B8FCFE62
:1028C000FFFFFFFEFFFFFFFEFEFEFEFEFC00000F0F
:1028D0001F1F3F7F3F3F7F7F7F7FFFFFFFFFFFFE89
:1028E000F0000000000000000002070707070703D0
:1028F0000301001213B85C164965CD96C9E59D2EFB
:1029000092CAFA06FC00000F10172240372E4441ED
:10291000434D873B56AC410EF00000000000000024
:102920000002050504050502020100010000011F67
:10293000168040A05028D4EA723A9A9A1232F5E1F1
:1029400091E1F234129A9A3A72EAD42850A0408067
:102950000700020500E73F3C1D5CDC3DA420A9A464
:1029600029A0A43DDC5C1D3C3FE7000502000700F8
:1029700000000002152B242D2C2C262A2A2A2A2A74
:102980002A2A262C2C2D242B1502000000000001E1
:1029900002011C088046DFFF07038247DF7F8703B1
:1029A00007070E1E362E546C58B8B8D8B85C631C96
:1029B0002060E0E0F0F8FBFAFCFFFEFCF0F0F0F045
:1029C000E00000000000000107070F0F0F070707D6
:1029D0000301110C2060E0E0F0F87B6A6C7FFAFCE8
:1029E000F0F0E050A0000000000000010303050328
:1029F0000503010201000001011E1000000000009B
:102A00000000008040000000800000818202B2F4DB
:102A1000F8F870307070E0C08020405060E8E8F056
:102A2000E0E1FA7F3F02070FF50FFFFBFCFF01001B
:102A300000000C229F7F0A0000010F0B9E0A260A4D
:102A4000B109B60B9E0B860B030CE90BCE0B3C7E3B
:102A5000FFFFFFFFFFFFFFFF7E3C003C7EFFFFFF0D
:102A6000FFFFFFFFFFFFFFFFFFFFFFFFFFFFFFFF76
:102A7000FFFFFFFFFFFFFFFFFFFFFFFFFFFFFF7EE7
:102A80003C33083C4281BD89BD81BD9589423C00F3
:102A90003C42BDA5A5A5A5A5A5A5A5A5A5A5A5A59A
:102AA000A5A5A5A5A5A5A5A5A5A5A5A5A5A5A5A5D6
:102AB000A5A5A5BD423C09040408000700030008C1
:102AC000043A0C2B0C1E0C640C570C4B0C0F8F3A59
:102AD00033620F6B1EF95C0A9FC969AFCBBAACCBEE
:102AE000BACC020F8F3A8101281C10986302021998
:102AF000280844372585CF0027849CC65E7B5C8DE3
:102B0000B30E0DF40CD90CBF0CA60C8C0C710C9FE1
:102B10000D8A0D740D610D4E0D3B0D280D41535462
:102B200041524F4B0054415241544F4D414D4F4D36
:102B3000454E4F5641534F53494B414B494D554ECE
:102B400055545553555245534554455045504F5093
:102B50004950410008085040584455407F0008083B
:102B6000007F40554458405008080A021A22AA0221
:102B7000FE00080800FE02AA221A020A0101070448
:102B8000041E1405050002020404041900000014C8
:102B90000101050303232300000006060606061EA6
:102BA0001402020000000A4100010528000205236A
:102BB000010002140101010F010201140200011EB3
:102BC0000308000000002F00003C7EC3F5C381B560
:102BD000CB7E3C000000000300000000000000006D
:102BE000000000081C084020000808080020000021
:102BF00000003F213F223F203329272329371E1180
:102C00003F37253D3F253D3905033F253F07053F1C
:102C1000140000000000000000000000000000029E
:102C200029062000203C0B3C3F253B3F21333F2120
:102C30003E3F25213F05013F213B3F043F3F000030
:102C400030203F3F043B3F20003F0E3F3F023F3FCD
:102C5000213F3F090F1F113F3F053B372D3B013FF0
:102C6000013F203F0F300F3F183F330C33033C032D
:102C7000312D2300000000000000000000000000D3
:102C8000000000000018243C3E24183C2424182492
:102C90003E183428083E0A5C543C3E04383A000092
:102CA000403A003E0834023E003C083C3C043C3CB8
:102CB000243C7C241818247C3C040C282414041E76
:102CC000243C203C1C201C3C103C3408345C503C10
:102CD00034242C005F2711241FBECFEFDAE0DEBFC3
:102CE000CDBF11E0A0E0B1E0E4E8FFE602C005904E
:102CF0000D92A236B107D9F726E0A2E6B1E001C0F5
:102D00001D92A136B207E1F716E1CBE6D6E104C089
:102D10002197FE010E94BA37CA36D107C9F70E942F
:102D20009E270C94C0370C940000982F8091FF05CB
:102D3000923051F0933019F0911107C0089590919D
:102D40000206990F890F0895880F90910206FACF15
:102D5000EFE9F1E081E0A0E0B8E000800EBC811175
:102D6000012C1197A0FDFDCF0192B9F70DB4089584
:102D70002F923F924F925F926F927F928F929F928B
:102D8000AF92BF92CF92DF92EF92FF920F931F9379
:102D9000CF93DF9300D000D000D0CDB7DEB7DB01FA
:102DA0004115510509F43AC1FA0194903196749194
:102DB0004E5F5F4FA92CB12CBA82A982222321F148
:102DC000E1E0F0E0372F377011F4F0E0E0E0C72EDB
:102DD000C694C694C694CE0EDF2ED11CA980BA80AC
:102DE000CA9CF001CB9CF00DDA9CF00D112463E03D
:102DF000B62EEB1002C0EE0FFF1F2E9F60012F9F1B
:102E0000D00C11244C0D5D1D29813A81280F391FEA
:102E10003A832983121613060CF000C180389105FD
:102E20000CF0FCC09D01270F311D121613060CF08B
:102E3000F5C0A034B1050CF0F1C04115510509F4FD
:102E4000EDC03A2F3770632E9D01B7FF02C0295F96
:102E50003F4FE3E035952795EA95E1F7F22FB7FF6D
:102E600004C0662011F0FFEFF20F22273327281B42
:102E7000390B97FD02C030E020E0A981BA8160E8FB
:102E8000F62EF81AA038B1050CF4F92CF21AAF2F6F
:102E90000F2E000CBB0BFF3F0CF0A1C0EA2FE095FA
:102EA000E983E1E0672F677009F4E0E076957695B5
:102EB0007695E70FAE0FB11D199714F0E8E0EF1B00
:102EC00079807F0E772D60E87603D00111248A0F78
:102ED0009B1F820F931F262C062C000C330873E0D7
:102EE000A2E0E712A1E0B92DBF19BA9FB02D1124BD
:102EF000AA2EB12C6981969E200D311D11242A9D88
:102F0000B0012B9D700D3A9D700D11246A01C60E03
:102F1000D71E0115110509F48A01950121503109C7
:102F2000620F731F060F171F6FEF70E0062C02C0B1
:102F3000660F771F0A94E2F79B01209530953A833C
:102F400029834E2E4F0E4B2F50E0AF9D400D511D4B
:102F50001124741409F462C0DC01A156BE4F1E8214
:102F60001D82512CF51409F451C0ED81FE81EC0D48
:102F7000FD1D249130E0022C02C0220F331F0A9461
:102F8000E2F762E0E61609F43EC07BEFE71229C0E3
:102F9000F901E095F095FC83EB8330E020E077FCCD
:102FA00005C09C907B819722922A9C92662071F0AA
:102FB000E6E0E7155CF04D01F0E88F0E911CF4019E
:102FC0002081FC812F23232BF401208353942D8116
:102FD0003E812A0D3B1D3E832D831196C3CF19825E
:102FE00060CFED81FE81E00FF11FE491F0E0022C53
:102FF00002C0EE0FFF1F0A94E2F7BF0160957095C3
:103000007C836B83CCCF69817A81FACF7394C40EB1
:10301000D51E040F151F80589F4F9BCF26960FB6C5
:10302000F894DEBF0FBECDBFDF91CF911F910F91FE
:10303000FF90EF90DF90CF90BF90AF909F908F90D8
:103040007F906F905F904F903F902F9008952F92B8
:103050003F924F925F926F927F928F929F92AF9228
:10306000BF92CF92DF92EF92FF920F931F93CF9375
:10307000DF93CDB7DEB760970FB6F894DEBF0FBE13
:10308000CDBF1C015A8349830B87FA0134913196D5
:1030900044914E83832F8F778F5F682E712CC301ED
:1030A000820D931D97FD99C150E8251631040CF04F
:1030B00094C1842F8F738F5FAB01480F511D57FD53
:1030C0008CC1603471050CF088C1331F3327331F66
:1030D000388B91E09D833E8136FF1D828B0177FF07
:1030E00004C000271127061B170B07701127AB011F
:1030F00077FF02C0495F5F4FFA01A3E0F595E795BE
:10310000AA95E1F7F887EF8377FF0CC00115110549
:1031100049F03197F887EF8348E050E0BA01601B2F
:10312000710B8B01682F669566956695877009F01F
:103130006F5F7B85A30141505109711102C050E0BE
:1031400040E097E0A0E1B0E080E0512C412C912CD0
:10315000812CE62FF0E0FD87EC876C857D85861657
:1031600097060CF03AC1EE24E394F12CFD0173E0D4
:10317000F695E7957A95E1F769817A81E60FF71F71
:10318000E4916E2F70E0FD01E770FF2702C0759596
:103190006795EA95E2F7FD013196FF87EE8760FFBC
:1031A00006C0FFEFEF1AFF0AAE85BF85DFCF31E023
:1031B000E316F10409F0A1C0EE85FF8563E0F69502
:1031C000E7956A95E1F769817A81E60FF71FE49147
:1031D000F0E0EE84FF8477E0E722FF2402C0F5955B
:1031E000E795EA94E2F7E170FF27BF016F5F7F4F39
:1031F0007C836B831296F12CE12C6B817C816E15A4
:103200007F0509F4DCC07889772359F0692F70E0D5
:103210003D81332309F4B9C0675A7E4FFB016081B9
:10322000862B915008F0C7C0882309F448C0DF807E
:10323000D80CF7E0FD150CF442C0B101640F751F06
:1032400060387105E0F590E0002E02C0880F991FEC
:103250000A94E2F7D7FC15C03D2D60E83603F00173
:103260001124E20DF31DE40FF51FBF0161567E4FDF
:103270005B01FB016081222309F48EC0682BF501FC
:10328000608301151105D9F0F7E0DF16C1F03FEFBB
:10329000D316ACF0ED2DDD0CFF0B3196F695FE2F1D
:1032A000EE27F795E795E20DF31DE40FF51FE156C4
:1032B000FE4F6081222309F473C0692B60836E8105
:1032C00067FF04C07D8181E078277D839FEF491AE5
:1032D000590A3B85332309F467C04150510946140C
:1032E000570444F04FEF841A940AA3014150510946
:1032F000512C412C97E080E05EC0B701615071090C
:103300007A876987E1E0F0E0098402C0EE0FFF1FD1
:103310000A94E2F7BF016F5F7F4F7C836B83D12CF0
:10332000C12CAE84BF84AC0CBD1CF50133E0F69516
:10333000E7953A95E1F769817A81E60FF71FE49105
:103340006E2F70E0E7E0AE22BB2402C07595679552
:10335000AA94E2F760FF0EC061E070E00C2C02C09E
:10336000660F771F0A94E2F7EB81FC81E60FF71FE7
:10337000FC83EB83FFEFCF1ADF0A69857A85C616D7
:10338000D7067CF2AE0DBF1D36CFE7E0F0E0E61BBE
:10339000F70BE75AFE4F43CF782F709567236FCF17
:1033A000892F809568238ACF461457046CF44F5FA9
:1033B0005F4F80E097E06FEFE61AF60A1ECF71E0EC
:1033C0003889731B788BC9CE5FEF851A950A50E058
:1033D00040E080E0512C412CEDCF60960FB6F89480
:1033E000DEBF0FBECDBFDF91CF911F910F91FF9038
:1033F000EF90DF90CF90BF90AF909F908F907F9095
:103400006F905F904F903F902F900895E7EEF5E01A
:1034100080E0919191118F5F95E0ED3EF907C9F73A
:103420000895482F209103013091040186B5282783
:10343000C9019695879520FF02C024EB92279093AF
:10344000040180930301641B770B0E949237840F61
:1034500008959091E505981721F08093E505109265
:10346000DD050895E091E6058091DB05E43041F04B
:1034700094E0E99FF0011124EA55F44DE4918E0F98
:103480000895EFE9F5E0A08DB0E0A15BBE4F8C910F
:103490008F3F49F4838D811107C0349695E0E33B5B
:1034A000F90789F7089581E00895CF93DF93FC0130
:1034B000460F572F511D77FF02C070E060E030E1EA
:1034C000CA014134510514F080E490E0681779078F
:1034D000ECF4E038F105A0F4EB0181E0C1FD84E0FB
:1034E000C0FD880FC2FD8295C87F3C9FD00111248A
:1034F000AE0FA156BE4F9C91222329F0982B9C938E
:103500006F5F7F4FDDCF80959823F9CFDF91CF910B
:103510000895EF920F931F93EE24E394890120E026
:103520000E94B8161F910F91EF900895CF92DF92ED
:10353000EF92FF920F931F93CF93DF93EC017B01E8
:103540006A01A90120E00E94271821E0A601B70125
:10355000CE010E942718DF91CF911F910F91FF900C
:10356000EF90DF90CF9008952091910130919201DA
:1035700027703327232B51F49091B3059F5F891750
:1035800019F09093B30508951092B3050895209112
:103590008701E0918501F0918601CF010296909319
:1035A000860180938501222319F0859194910895D5
:1035B000808191810895CF92DF92EF92FF92CF9315
:1035C000DF930E94C71A811520E8920791F4809139
:1035D00071008D7F809371001092910046984798FA
:1035E00010928401DF91CF91FF90EF90DF90CF9008
:1035F000089521E020938401813020E8920751F45E
:10360000809182019091830190938601809385013E
:103610000E94C71A97FD05C020918101222309F459
:1036200054C020918001211150C021E020938801D5
:10363000EC01DF77209709F04BC081E0809389018E
:1036400046983FE9C32E3FE0D32EE12CF12CCAEF80
:10365000D0E0E0917E01F0917F010995811103C0D6
:1036600081E08093890180918801882329F08091ED
:103670008901882309F43FC047980E94C71A009720
:10368000F1F19C01DE010E946937DC01CB0129E0E8
:10369000B595A795979587952A95D1F710929000A3
:1036A0002AE020939100D0929900C09298008093D4
:1036B0008A0190938B01A0938C01B0938D0180912E
:1036C00071008260809371008DCF10928801B0CF1D
:1036D0009E0150E040E060E472E48FE090E00E94E0
:1036E000283769017A0181E0C81AD108E108F10898
:1036F00010928901AECF4699BFCF479ABECF8FEFC8
:103700009FEFDC01CBCF9C01E1E7F0E090819D7F52
:10371000908381E080938701309386012093850117
:1037200030938301209382010C94DB1AEF920F9364
:103730001F933AEFE32E10E000E00E94B8161F91AD
:103740000F91EF900895EF92FF920F931F93CF93F5
:10375000DF93182F8091DF05C091DC05882331F0BD
:10376000E091E005F0E0E55CFE4FC0819091E50559
:10377000892F8D7F01E0813009F000E08091DE0526
:10378000D0E0E090ED05F090EE05882321F0877001
:10379000843008F04FC02091DD05923068F19430FC
:1037A000A8F58091910180FF3CC093E08091DD05F8
:1037B000890F9927991F880F991FFC01E15FF44D2C
:1037C00025913491FC01EF5FF44D45915491BE0178
:1037D000C7010E94961A8091E605843009F457C00B
:1037E0009091E505913009F48FC090F100E093309D
:1037F00009F08FC001E08DC08091910190919201FC
:1038000066E070E00E949237892B11F090E0CECFF5
:103810002F5F233019F02093DD05F8CF1092DD05DE
:10382000F5CF2F5F243019F02093DD05BECF109225
:10383000DD05BBCF8DEF9FEF002311F081E090E01D
:103840002DEC3AE243EE5AE2BE018E0D9F1DC1CF30
:103850000091DD05002309F45CC000E034E090E055
:10386000880F991FFC01E953F54DA591B491FC0116
:10387000EF53F54D45915491BE01631B7109809141
:10388000ED059091EE059D0102960E94961A809199
:10389000DF05882361F08091ED059091EE0520E031
:1038A00046EB5AE26DE270E002960E94961B1123ED
:1038B00091F12EE43AE241E85AE270E060E090E0F3
:1038C00080E00E94891A8091D805883040F42091C8
:1038D0009101309192012F7133272131E0F085362B
:1038E00008F084E663E00E948437D82FC0E0CD174B
:1038F00090F48C2F90E021E042E063E070E040968D
:103900000E94551ACE5FF3CF9091DD0501E0911131
:10391000A5CF35E0A4CFDF91CF911F910F91FF90FC
:10392000EF900895EF920F931F933BEFE32E10E07B
:1039300000E00E94B8161F910F91EF900895CF9369
:1039400060919B018A3059F480919A01809399018A
:1039500080919E01680F60939B01CF910895C82FBD
:1039600020EE280F6F5F062E000C770B80919901D7
:10397000082E000C990B30919C0140EC5BE2313039
:1039800081F40E94961B80919901C03231F09C2FE6
:103990009F7D993411F0C73239F48E5F809399017D
:1039A000DCCF0E94921CEFCFC252C43010F09C3486
:1039B00011F48D5FF3CF90919D019D5F890FEECF44
:1039C000CF93DF93EC01FE0184912196882319F0B7
:1039D0000E949F1CF8CFDF91CF9108950F931F9302
:1039E000CF93DF9300D000D0CDB7DEB71C82FE01AD
:1039F00034962AE0622F0E947837905D929381116D
:103A0000F9CF8F01F80181918F01882319F00E946D
:103A10009F1CF8CF0F900F900F900F90DF91CF91D8
:103A20001F910F9108950E94EE1C8AE00C949F1C38
:103A3000EF920F931F9332E0E32E10E000E00E941C
:103A4000B8161F910F91EF900895F89487E780932F
:103A5000000880930108A89588E18093600088E0C1
:103A600080936000FFCFBC0190E080E0AB01FC01DF
:103A70000E944E1D41505109E109F10928F0685199
:103A80007C4F8F4F9F4FF6CFAB01FC010E944E1D24
:103A9000641775078E079F07C8F30895A9E7B1E07B
:103AA0002FB7F8947D918D919C9166B52FBFA89BFF
:103AB00005C06F3F18F47F5F8F4F9F4F22E0660F66
:103AC000771F881F991F2A95D1F70895811109C082
:103AD00086EA5C988EBD00000DB407FEFDCF5C9AAF
:103AE000089587EAF6CF80917D01089510927D01B7
:103AF0003E983F9808953E9A3F9A81E080937D01D9
:103B00000895480F592F511D14161506D4F5803805
:103B10009105B9F197FF02C090E080E0413851056E
:103B200014F040E850E0481BFB0177FD379633E086
:103B3000F595E7953A95E1F7F695FE2FEE27F7957F
:103B4000E795E80FF91FE156FE4F6770772781E090
:103B500090E001C0880F6A95EAF7382F213041F4D0
:103B6000415078F08191DF011197832B8C93F8CF2E
:103B70008095415030F09191DF01119798239C93EB
:103B8000F8CF0895BF92CF92DF92EF92FF920F93FA
:103B90001F93CF93DF93C62FD42F082F880F110BBD
:103BA00068017801E60EF11CCE14DF045CF420E01D
:103BB0004D2F70E060E0C6010E94551A8FEFC81AC1
:103BC000D80AF2CFBB24BA94BD0EC25068019FEF51
:103BD000C91AD90A21E04C2F70E060E0C6010E94AA
:103BE000811D8B2D8150990BBC018034910528F4E7
:103BF00021E04C2FC6010E94811D21E04B2D70E079
:103C000060E0C6010E94551AC6018C0F911D21E08B
:103C10004B2D70E060E001970E94551A20E042E7CA
:103C20005BE26FEF7FEFC8010E94181D98E0E91A70
:103C3000F10820E048E65BE26FEF7FEFC7010E94EA
:103C4000181D8D2F8850990BEC0120E04EE55BE2AA
:103C5000BC01C8010E94181D20E044E55BE2BE01E2
:103C6000C701DF91CF911F910F91FF90EF90DF90EF
:103C7000CF90BF900C94181D089566E080E00E94DC
:103C8000111A482F56E0580FE6E0451700F5842F2B
:103C90006E2F0E947837892F292F30E021563A4F16
:103CA000D901A85BBF4F9C91992379F09150843042
:103CB00038F44091E605841303C044E04093E605E0
:103CC000285B3F4FF901908308954F5FDECF80E07E
:103CD0000895CF93C62FC69549E0849F402D1124A7
:103CE000455F80E48C1B0E94C21D8AE48C1BE9E9BD
:103CF000F1E08083818385E08283CF910895FC0188
:103D00002081222341F01092AE051092A10510925D
:103D1000F605108208958091A10581508093A10538
:103D200081E08093F6050895CF93DF93C82FD0915B
:103D30006006DD23F9F0D23009F49BC0C5FF06C050
:103D4000DD2309F4C6C0D150D0936006C6FF08C079
:103D500080916006833009F4BEC08F5F8093600657
:103D6000C2FF05C010925D068FEF80935A06DF9167
:103D7000CF9108950E94061AC7FF0EC09091580671
:103D8000933020F091509093580606C0209157062A
:103D9000211113C09111F6CFC4FF24C09091580691
:103DA000282F30E0923068F4215031099217130621
:103DB000CCF49F5F9093580615C02150209357066E
:103DC000EBCF80915706482F50E0BA016C5F7F4FD0
:103DD00062177307E4F0490F511D21503109421752
:103DE00053073CF3C3FFAACF809158062091570692
:103DF000280FE7EEF5E030E090E04191442319F020
:103E0000231749F03F5F9F5F9630B9F797CF8F5FD9
:103E100080935706E7CFEDEFE90FE33018F090936A
:103E2000E6058CCFE130B1F0E230E9F09091FF058A
:103E3000965F9093FF05F0E0E651FA4F9081915024
:103E4000908391117BCF882309F478CF81508093A0
:103E5000580674CF9091D8059C5E953608F094E68C
:103E60009093D805E8CF9091A5059F5F9093A50505
:103E7000E2CF87FF11C090915B0683E0890F98170E
:103E800058F4282F2370E22FF0E0EF51FA4F3081E1
:103E90003323D9F020935B06C4FF50CF80915B069B
:103EA00021E0280F90E003962817190611F00CF076
:103EB00045CF322F3370E32FF0E0EF51FA4F4081BE
:103EC000442329F030935B0639CF8150D8CF2F5F40
:103ED000EBCFD3E039CF80E041CF2093A105909381
:103EE000F8058093F7056093EF051092F30581E0E4
:103EF0008093F4054093F0058093F6050895EFE96B
:103F0000F5E01182128291E0938F89E0808F978F84
:103F1000848F93A380A397A384A393A780A70895D6
:103F2000CF93C82F883099F080E0CA3089F00E9482
:103F30007F1FC33039F008F052C0CC2309F457C0BA
:103F4000C130F1F580E88093010184E062C08BE626
:103F50008093A1053091FB052091FC058091FD0522
:103F6000813091F58091010690910006930F909316
:103F70000006820F80930106809100068093FF0562
:103F8000809101068093000610920106809103063D
:103F90008093020680910406809303061092040623
:103FA0001092FD051092FE0583E08093A505CA30AE
:103FB00039F48091AF05843019F481E08093AD0528
:103FC000C093A805CF9108958091040690910306AF
:103FD000930F90930306820F80930406CDCFC530D4
:103FE000A1F0C93069F781E08093A105E9CF81E0B4
:103FF00080930C0680E88093010182E080930201A7
:1040000083E596E20E94831BDBCF80E88093010169
:1040100082E080930201D4CF8091ED059091EE056E
:104020008C5691098531910568F42091A8052A30B4
:1040300049F463E070E00E94A637660F6B5D609301
:10404000DC05089585E28093DC0508951F93CF93E6
:10405000DF93D82FC62F122F85FF0BC080E00E9460
:10406000291AD6FF34C081E0DF91CF911F910C94C3
:10407000291A65FF27C08091ED059091EE05853FD7
:104080002FEF9207ACF0042E000C550B4817590780
:1040900044F782E00E94291A8091ED059091EE0587
:1040A00001979093EE058093ED050E940C20D9CFE7
:1040B0008FE790E09093EE058093ED0580E00E94FD
:1040C000901FCFCF8091E505823059F6C7CFC6FF4C
:1040D00018C08091ED059091EE0518171906B4F0FF
:1040E00083E00E94291A8091ED059091EE050196DA
:1040F0009093EE058093ED05DF91CF911F910C9485
:104100000C208091E505833009F4ADCFDF91CF918C
:104110001F9108950F93CF93DF93EB0100E021E00F
:10412000AC0161E270E088E090E00E94271821E095
:10413000AE016DE270E087E090E00E942718DF9109
:10414000CF910F9108958F929F92AF92BF92CF928D
:10415000DF92EF92FF920F931F93CF93DF939AE03A
:10416000499FA0011124C82FD0E02396D12CC12C47
:10417000CA018F579A4D7C01A62EB12C450194E0BF
:10418000890E911CF701EC0DFD1D149100E021E05A
:1041900049E655E2B501CE0103970E942718212F69
:1041A0004FE355E2B401CE010E94181D8FEFC81AEB
:1041B000D80A2D9695E0C916D10421F7DF91CF9149
:1041C0001F910F91FF90EF90DF90CF90BF90AF9035
:1041D0009F908F900895CF93C82F85E68093990183
:1041E00080939A0185E380939B0110929C0180E06B
:1041F0000E94EE1CC43640F480E00E94EE1CCA30DF
:1042000018F480E00E94EE1C8C2F0E94EE1C81E0CE
:1042100080939C01CF910895CF92DF92EF92FF920D
:104220000F931F93CF93DF93D82E8FE0E82E86E075
:10423000F82ED70115968C911597D81227C0C090EB
:10424000AD05C0910806D0910906EC91E250E83026
:10425000E8F4F0E0E25DFE4D0C94BA3736215721C8
:10426000A421B221D521BD21C7210222CE0106976A
:104270001196ED91FC9100E026EF34E24FE055E21B
:1042800061E270E08E0F9F1F0E94961AB6E0EB0E5F
:10429000F11CE7E5EE16E6E0FE0659F6DF91CF9158
:1042A0001F910F91FF90EF90DF90CF900895F7014D
:1042B0008181928124EE34E24CEE54E26AE070E0B7
:1042C0008E0105511109800F911F0E94891AD70193
:1042D0001196ED91FC9120E046E854E262E070E036
:1042E000CE010D978E0F9F1F0E94181DF70181812F
:1042F000928120E044E754E262E170E0800F911F78
:104300000E94181DD7011196ED91FC9120E04AE31F
:1043100054E262E270E0CE014C978E0F9F1F0E9424
:10432000181DCC2009F4B2CFCE010997D701119600
:10433000ED91FC9120E046E254E264E270E08E0FE1
:104340009F1F0E94181DA2CFF7018181928122ED4B
:1043500033E24CEF53E262E270E08C0F9D1F0E944B
:10436000891A94CFCE0104971196ED91FC9120E02B
:104370004AEB53E262E270E0E2CFF7018181928181
:104380002CE733E24AE953E268E270E0E6CF1196A7
:104390008D919C9100E020E042E653E262E270E001
:1043A0008C0F9D1F0E94271871CFF7012381018078
:1043B000F281E02DCE01CC20E1F0049748E153E2F8
:1043C00065E270E08E0F9F1F0E94921C8091910108
:1043D0009091920187709927892B09F057CFD701C7
:1043E00013968C9113978F5F833049F013968C93BB
:1043F0004DCF059748EC52E262E270E0E3CFF7015F
:10440000138244CF14968C911497882309F43ECFDD
:1044100080919101909192018F719927813108F4D7
:1044200035CFCE0105971196ED91FC911297139619
:104430002C914FEB52E26BE270E08E0F9F1F0E94B7
:10444000921C24CFE9E9F1E082E5808381838AE14F
:10445000828388EB92E20C94E01CCF93DF93EC0113
:10446000262F42E651E263E270E089E590E00E9487
:10447000961B20E0AE0163E270E087E690E0DF91FA
:10448000CF910C94961BEF92FF920F93CF937C01E8
:10449000C62F00E021E04DED50E262E070E08DE4D7
:1044A00090E00E94271821E0A70168E070E08FE506
:1044B00090E00E94271821E04FE750E261E270E0AF
:1044C00081E590E00E94271821E042E350E263E397
:1044D00070E081E590E00E94271821E042ED5FE165
:1044E0006EE170E085E090E00E94271880915D0603
:1044F00081111BC06091A60581E0682770E020E073
:1045000047EC5FE181E290E00E94181D8091A705D1
:104510006BE370E0882311F06CE370E020E04CEB7B
:104520005FE181E290E00E94181D84E5809399018B
:1045300080939A0185E380939B0189EB9FE1C111F0
:1045400002C086EB9FE1CF910F91FF90EF900C940A
:10455000E01CCF93DF93EC0184E690E00E941237D9
:104560008883CE01DF91CF910895CF92DF92EF92B1
:10457000FF920F931F93CF93DF9300D000D000D012
:104580001F92CDB7DEB78091AF05843031F11F8225
:1045900094EBE92E95E0F92E8E010F5F1F4F680115
:1045A000F70161917F0170E0660F771F6B5D744DBD
:1045B00042E050E0C6010E940937F2E0CF0ED11C64
:1045C00087EBE81685E0F80659F7F80181918F012D
:1045D000882339F00E949F1CF8CF8DE19BE20E9456
:1045E000E01C27960FB6F894DEBF0FBECDBFDF915B
:1045F000CF911F910F91FF90EF90DF90CF90089592
:104600000F931F93CF938091AF05823009F48EC032
:10461000C0F5882309F46DC0813009F47FC000E043
:1046200021E04DEF57E270E060E089E490E00E9405
:1046300027188091B005883048F42091910130917D
:1046400092012F713327213108F4AEC021E2829FFD
:10465000C00111246091B20570E00E94A6378B0161
:10466000C0E08C2F90E08017910708F09DC021E0FA
:1046700042E06AE070E0855B9F4F0E94551ACE5F72
:10468000F0CF833009F465C0843049F6E091B3057A
:10469000F0E0E257F64D649170E06B5E7F4F20E0F2
:1046A0004FE259E28DE490E00E94961BE091B30541
:1046B000F0E0E55DF64D649170E0625E7F4F2DEBBA
:1046C00038E243EF58E281E490E00E94891AE091D9
:1046D000B305F0E0E754F74D649170E0625E7F4F00
:1046E0002BE438E241E858E286E690E00E94891A1D
:1046F0002EC0E091B305F0E0EE0FFF1FE85BF54D33
:104700004591549100E021E062E270E086E590E09E
:104710000E94271883E00E94B41A81CFE091B3056C
:10472000F0E0EE0FFF1FEE5BF54DEACFE091B30531
:10473000F0E0EE0FFF1FE65CF54D4591549100E06F
:1047400021E062E170E08BE490E00E94271884E0B1
:10475000E2CFE091B305F0E0E95CF54D649170E0E3
:10476000665E7F4F20E049EF59E28BE490E00E94C3
:10477000961BE091B305F0E0EA50F64D649170E0CD
:104780006B5E7F4F20EB39E242ED59E28CE490E022
:104790000E94891A20E042E959E26AE270E084E569
:1047A00090E00E94961BB6CF8091AF05843069F0EF
:1047B00080E58093990180939A0181E080939B0129
:1047C000CF911F910F910C94B5228EE4F2CF0F93ED
:1047D0001F93CF93DF93CDB7DEB72A970FB6F89428
:1047E000DEBF0FBECDBF9AE0899FB001112467558F
:1047F0007A4D4AE050E0CE0101960E940937898146
:104800008093AF051092B30504EB15E067E180E0FB
:104810000E94111AF80181938F01F5E0073B1F07F1
:10482000A9F78A818093B1058B818093B00580932D
:10483000B2052A960FB6F894DEBF0FBECDBFDF914A
:10484000CF911F910F910895DF92EF92FF920F93F6
:104850001F93CF93DF93CDB7DEB768970FB6F89469
:10486000DEBF0FBECDBFD090AF0584E0D81699F063
:104870008FE50EEF1FEFE82EF12C0E151F056CF4DF
:1048800020E044E95FE162E370E0C8010E94181D86
:10489000005F1F4FF2CF8FE7ECCF84E0D81651F0C6
:1048A00000E021E04CE75FE166E370E080E790E044
:1048B0000E94271820E044E75FE16BEF7FEF87E776
:1048C00090E00E94181D20E044E75FE170E060E0A6
:1048D0008CE790E00E94181D87E0E8E0F1E0DE013F
:1048E0001B9601900D928A95E1F787E0EFE0F1E0E9
:1048F000DE01529601900D928A95E1F780910C06A7
:104900008150990B2AE0289FB001299F700D112436
:1049100067557A4D4AE050E0CE0101960E94093772
:1049200010E000E08A8590E0002E02C09595879502
:104930000A94E2F780FF1AC0F801EE0FFF1FEA5950
:10494000F04E45915491E2E1F0E0EC0FFD1FE00FD5
:10495000F11F608170E0EBE0F0E0EC0FFD1FE00F75
:10496000F11F808120E090E00E94961B0F5F1F4F97
:1049700008301105B9F668960FB6F894DEBF0FBE81
:10498000CDBFDF91CF911F910F91FF90EF90DF90FE
:104990000895FF920F931F93CF93DF931092AE056C
:1049A00083E680939F050FE915E0C4E6D0E0F801A7
:1049B000F1908F01CE010E941237F81621F06F2D71
:1049C000CE010E941A372196C632F1E0DF0779F74F
:1049D00024E648E561E08FE396E2DF91CF911F91F5
:1049E0000F91FF900C946D1F41E550E065E17FE170
:1049F00086E096E00E940937EFE9F5E08CE0DF0100
:104A00001D928A95E9F783E08683089580E00E94ED
:104A1000901F0E94F4248FEF80935B061092130680
:104A200046E150E06FEF7EE188ED95E00E940937A6
:104A30008CE390E09093EE058093ED0508951F922E
:104A40000F920FB60F9211242F933F934F935F93C2
:104A50006F937F938F939F93AF93BF93EF93FF9346
:104A600080918A0190918B01A0918C01B0918D0170
:104A7000892B8A2B8B2B09F440C0809189018111ED
:104A80000BC088B190E4892788B980918801882378
:104A900019F088B1805888B980918A0190918B0172
:104AA000A0918C01B0918D01181619061A061B06EB
:104AB0009CF480918A0190918B01A0918C01B0911E
:104AC0008D010197A109B10980938A0190938B010F
:104AD000A0938C01B0938D01FF91EF91BF91AF91A5
:104AE0009F918F917F916F915F914F913F912F9106
:104AF0000F900FBE0F901F9018950E94DB1AECCFFD
:104B00000F920FB61F9211248F939F93EF93FF93F1
:104B1000E5E7F1E08091740191E08D5F8D3710F051
:104B20008D579395809374018081890F9181911D98
:104B30008083918382819381811D911D82839383E0
:104B4000E9E7F1E080819181019680839183828100
:104B50009381811D911D82839383FF91EF919F919A
:104B60008F911F900FBE0F901895CF93DF93FC018C
:104B700090E09F5F9F012F5F3F4FD901892F8617DC
:104B800050F44D915081451720F4ED012197588341
:104B900040838F5FF4CFF9016913EBCFDF91CF91A1
:104BA0000895CF93C82F682F81E00E94691EC69593
:104BB0008CE48C1BE9E9F1E08083818385E08283CA
:104BC0008EEA92E2CF910C94E01C4F925F926F922A
:104BD0007F928F929F92AF92BF92CF92DF92EF928D
:104BE000FF920F931F93CF93DF93CDB7DEB76397F9
:104BF0000FB6F894DEBF0FBECDBF8C01CE0101967B
:104C00005C0186E0D5011D928A95E9F78091050146
:104C100090910601A0910701898B9A8BAB8BE09153
:104C2000E605512CE43021F0EC0FFD2FF11D5188E9
:104C30008FEFF80180831182128213821486809193
:104C4000B9058C878091BD058D878091C1058E87C0
:104C50008091C5058F878091C905888B65E0CE015D
:104C60000C960E94B5258091E405882359F18D8525
:104C70009C85981739F19E85891721F18F859817A2
:104C800009F198898917F1F023E0D8012D93CD011E
:104C900044E050E060EA7BE20E940937D801EC91E1
:104CA000BAE0EB9FF0011124EB57F44DE491E50DD0
:104CB000D8011C96EC931C9782E014968C93149761
:104CC00015968C9391EE692E95E0792E2CE7C22EE5
:104CD0002BE2D22E4301412CF40181914F01882314
:104CE00009F459C0C6018C579B427C0145E050E055
:104CF000B601CE0107960E94093765E0CE010796FE
:104D00000E94B5258985873009F445C02F819C858F
:104D1000291341C028859D8529133DC09E8589138F
:104D20003AC09A858F85981336C09B8588899813D9
:104D300032C0D8014D92CD01B7016E57744D44E099
:104D400050E00E940937F701EB57F44DE491D80188
:104D50001C96EC931C97411003C081E014968C9331
:104D6000F8018181580E518263960FB6F894DEBF28
:104D70000FBECDBFDF91CF911F910F91FF90EF90AC
:104D8000DF90CF90BF90AF909F908F907F906F906B
:104D90005F904F9008954394FAE0CF0ED11C84E0C9
:104DA00048129ACFFE013C969E012F5E3F4FA19183
:104DB000AA0DBB2DB11D8C918F5F8C93E217F30769
:104DC000B1F766E0C5010E94B5258CE7C82E8BE2DD
:104DD000D82EF12CD3018D913D018823D1F1F6011C
:104DE000EC57FB425F0145E050E0B601CE0107966B
:104DF0000E9409378985873061F58E81823048F1BC
:104E00008D81823030F18F819D85891719F02F8532
:104E100082131FC08A85981719F09F85891319C0BE
:104E2000D801FD92CD01B5016E57744D44E050E0BC
:104E30000E940937B3E0FB1204C082E0F8018483CA
:104E40008583D80111968C911197580E11965C921A
:104E50008BCFF394BAE0CB0ED11CE4E0FE12BACFB4
:104E60008E81853041F483E3D8018C938DE2850DEA
:104E700011968C9379CF843039F484E3F8018083E0
:104E80008EE1850D818370CF833069F48D8182300E
:104E900029F487E3D8018C9389E1E9CF85E3F80110
:104EA000808384E1EECF823009F05ECF8D81823045
:104EB00009F05ACF86E3D8018C938AE0D8CF1092BC
:104EC00093011092940180E18093950110929201D8
:104ED000109291011092970189E391E090938F01D4
:104EE00080938E0189E080939E0181E080939D01F3
:104EF00010929A0110929B011092990180939C014B
:104F000023E73DE130937F0120937E0120E030E8EC
:104F1000309373012093720146983E9A47983F9AC6
:104F20008093E505EFE0F6E087E596E021E0248355
:104F3000158236968E179F07D1F70895CDB7DEB745
:104F40006897DEBFCDBF11E01093E0001092E20041
:104F50001092E10080E28093D8001092D7008091F7
:104F60006500806880936500789483E084BD83E069
:104F700085BD10936E00E1E8F0E083E08083E0E817
:104F800081E08083E3EC81E08083E2EC81E0808358
:104F9000EAE787E0808380688083559A209A5D9A4B
:104FA000289A8C9A84988AE090E00E94331D7C9B1A
:104FB0000E94251D81EC80937C0085B1806F85B9AE
:104FC00084B1877E84B984B1876E84B95E9A5F9814
:104FD0008AB1806D8AB9769A6E9881B3806F81BBF1
:104FE000899880B38D7080BB80E58CBD1DBD85E048
:104FF00090E00E94331D5F9A85E090E00E94331D8F
:105000005E985C98E2EBFDE08FEB9DE024912EBD75
:1050100000000DB407FEFDCF31968E179F07B1F744
:105020005C9A81E880936400809165008160809340
:10503000650089E18093950182E090E00E9412373B
:10504000882321F10E947B1DAA24A39411E0E9E0AA
:10505000BE2EF3EB4F2EF5E05F2E8FB7F894409104
:1050600075015091760160917701709178018FBF41
:1050700080919601242F281B822F909197019923CC
:1050800041F02093980110929701E7CF0E94761D7E
:10509000DBCF90919501291738F48F5F8917E8F6D7
:1050A000A3BE889513BED9CF31E0309397014093CA
:1050B00096018091910190919201019690939201B5
:1050C0008093910180919301809394018FB1809599
:1050D000807F669B88601C9B846080939301809195
:1050E0000001833081F008F077C0823009F0B5CF3D
:1050F000109263011092620189EA9EE10E94831B73
:1051000083E0809300012091930180919401809528
:10511000822390916401992319F091509093640136
:1051200024FF7CC090916201903108F041CF9F5FD5
:1051300090936201909163019C3818F49F5F909363
:10514000630183FF08C090916301973408F069C040
:1051500097E49093630122FF1EC087FD02C084FF85
:105160001AC080917D01882309F45FC00E94761DDA
:1051700000E0F0907D0182E090E00E941237F81686
:1051800029F06F2D82E090E00E941A3700936501AC
:1051900088E28093640180916301873408F449C0F8
:1051A0008D3808F05EC000E021E041EF5BE166E091
:1051B00070E090E080E00E942718809163018C38B5
:1051C00009F04FC021E046EC5BE165E370E080E36D
:1051D00090E00E94271845C0843009F453C0853000
:1051E00009F03BCF00919301809194018095802339
:1051F000888FE091A805EB3008F010C1F0E0ED5F7A
:10520000F64D0C94BA374829962B1B2C512CC62CE2
:10521000F12C162D912FA32F4D307F30109262016B
:1052200089CF94E09093000196CF0E947B1D01E00E
:10523000A0CF80E28093990180939A0185E18093C9
:105240009B0186E99EE10E94E01C81E38093990125
:1052500080939A0181E280939B018DE89EE10E94F8
:10526000E01C80916401882351F02091650144EB9A
:105270005BE168E370E088E790E00E94181D0E94FF
:10528000A816EBCE0E94062585E080930001AACFE8
:1052900090915D0691118DC79091AE052091A10569
:1052A0009111CCC1222339F0283C09F4E2C0CE018F
:1052B00048960E947F1E888D82FD10935D06909116
:1052C000A105983C59F085FFDEC080E00E94291AB4
:1052D000888D86FF1DC181E00E94291A888D87FF75
:1052E0000CC08091A105883C09F066C18091F3054E
:1052F000882319F081508093F305988D94FF13C093
:105300008091A105883C79F48091F305282F30E045
:105310002E5F3F4F4091F4054217130621F01CF019
:105320008F5F8093F30593FF79C0C0900806D090FB
:1053300009068091ED059091EE05C81AD90A69E237
:10534000262E61E0362E7FE2872E71E0972EF12C1B
:10535000E12C08EC3601A5E66A1A71088091130663
:10536000882311F1809110069091110603968C0DFF
:105370009D1D4397C8F424E64EE561E08DE99BE16D
:105380000E946D1F109213066FE085E00E94111AB3
:105390009091D805890F853608F084E68093D8056A
:1053A0008BE89BE10E94831BF401819191914F0155
:1053B0008C0D9D1D0396439760F4F701EE0FFF1FC0
:1053C000EB57F44E8591949124E64EE562E00E94FD
:1053D0006D1FD1018D919D911D018C0D9D1D099613
:1053E000439760F48091AD05882309F40EC124E64B
:1053F00048E662E083E59BE10E946D1FE3E16E16E3
:10540000710420F41093AE051092A105FFEFEF1A7E
:10541000FF0A23E0E216F10409F0A0CF8091DF0536
:10542000882349F08091E0058F5F8093E005843107
:1054300011F41092DF058091DE05882319F0815068
:105440008093DE058091A8058B3010F00C9410330A
:10545000E82FF0E0E25DF54D0C94BA37DC30F7321E
:10546000F7329C339C33EB33EB33EB33EB335E346B
:105470006E348C7021F01092A105188E91E09A255F
:105480009093F60518CF05FF3DC082E00E94291ACF
:105490008091ED059091EE058D33910534F00197E3
:1054A0009093EE058093ED0513CF2091080630917F
:1054B00009062F3F3105ECF48091910180FD09C070
:1054C00080910606909107060196909307068093B7
:1054D000060680910A0690910B06029690930B06A1
:1054E00080930A062F5F3F4F3093090620930806EA
:1054F000EFCE2F3F310509F0EBCE833091050CF450
:10550000E7CECDCF8091E505823009F0E1CEDDCE4A
:1055100006FF4CC083E00E94291A8091ED0590910E
:10552000EE058C33910534F401969093EE0580934B
:10553000ED05D4CE209108063091090622354FEFB3
:105540003407ECF08091910180FD09C0809106063E
:105550009091070601979093070680930606809125
:105560000A0690910B06029790930B0680930A0609
:10557000215031093093090620930806AFCE2091BF
:10558000AD052111ABCE8038910574F200910C0667
:10559000015085EF9FEF9093EE058093ED0585E038
:1055A0000E94901F802F0E94E72398CE8091E505EE
:1055B000833009F093CE8FCE8091AD0581119DCEC1
:1055C000E0900806F09009068091ED059091EE05B7
:1055D000E81AF90A80910D068E0D9F2D911D0996EE
:1055E000439718F481E00E94901F80910E06E80E08
:1055F000F11C89E0E80EF11C93E1E916F10408F0D2
:105600007CCE83E00E94901F78CEF701E05BF44EE1
:105610008491F701E35BF44EE4910093A105E093DC
:10562000F50592E09093EF051092F3058093F40551
:10563000B2E8B093F0051093F605E0CE211159C001
:1056400087FF07C090915C06992319F091509093C1
:105650005C0684FF10C0CE0101960E94A9228091B1
:105660005C06882329F09981933629F4823018F456
:105670008F5F80935C06888D82FD1092AE0583FF5C
:10568000CDCE80915C06813071F1F0F0823009F06E
:10569000C5CE3FE9E32E35E0F32E44E6C42ED12CEF
:1056A000C6010E941237D7018D937D01BFEFCB1A3F
:1056B000DB0AE6E2CE16E1E0DE0691F724E644E6F8
:1056C00061E085ED9AE10CC0CE0101960E94A9220D
:1056D0008981833641F52FEF48E662E087E19BE15F
:1056E0000E946D1F9BCE2EEF44E562E08CEE9AE1A6
:1056F000F7CF1093F60582FF04C01092AE0510920A
:10570000A10583FF8BCE80915C06882361F08130F8
:1057100009F084CE1092AE051092A1051092AD054D
:105720000E9406257BCE0E94C92478CE90915D060A
:1057300091113FC58091A105882321F0CE014896A3
:105740000E947F1E988D292F221F2227221F41F0A1
:105750008091A305882309F441C081508093A3055B
:105760002093A60521E094FD3BC020E02093A705EF
:1057700092FD10935D0693FF51CE6091A305F4E076
:105780006F9FB00111246754754E44E050E0CE0184
:1057900001960E94093789818130C9F158F1823020
:1057A00009F4B4C09C818091D9058917F0F1109259
:1057B000A10585E29AE19093F8058093F70582E0D0
:1057C0008093EF051092F3051093F4059CE49093F9
:1057D000F0051093F6058093A80520CE86E0BECF95
:1057E0008091A305863020F48F5F8093A305BECF00
:1057F00080E0FBCFEA81F0E0E951FA4F808181300F
:1058000089F624E64EE562E08DE89AE169CFEA8107
:10581000ED5FF0E0E951FA4F8081853019F624E61A
:1058200048E563E08CE49AE15BCF24E646E462E07D
:1058300085E09AE155CF1093F60583FF1FC0609174
:10584000A30524E0629FB00111246754754E44E023
:1058500050E0CE0101960E94093783EF99E10E9442
:10586000831B8981882381F08130B1F08091D90533
:105870009C81891B8093D9051093A805888D82FF90
:10588000CDCD1093A805CACDEA81F0E0E951FA4FD9
:1058900080818F5F8083EACFEA81F0E0E651FA4FA2
:1058A000F7CF90915D06911184C48091A105882362
:1058B00021F0CE0148960E947F1E988D97FF2AC046
:1058C0008091A205882321F181508093A205109335
:1058D000A60594FF28C08091A205843010F58F5F43
:1058E0008093A2051093A70592FD10935D0693FF88
:1058F00095CD2091A205822F90E03AE0239FF00100
:105900001124EA57FA4DE4912430A1F480E0ABC1B0
:1059100084E0DBCF8091A6058823D9F21092A605FA
:10592000D8CF80E0DDCF8091A7058823E9F21092DF
:10593000A705DACF8F519A4FDC018C9181110AC0F3
:105940008091DA058E1760F424E646E462E085E88B
:1059500099E1C6CE24E646E562E08AEC99E1C0CE44
:105960001092A10585EA99E19093F8058093F705D7
:1059700082E08093EF051092F3051093F4058AE41A
:105980008093F0051093F60584E025CF1093F6057B
:1059900083FF22C083EF99E10E94831B8091A205BF
:1059A000A82FB0E02AE0829FF0011124EA57FA4DB7
:1059B000E491AF51BA4F9C919F5F9C939091DA050F
:1059C0009E1B9093DA0593E09093A80590915B0657
:1059D0009F3F11F480935B06888D82FF1FCD83E08B
:1059E000FACE8091ED059091EE05059759F462E0AD
:1059F00080E00E94111A81110CC00E947F1F86E076
:105A00008093A80521E344EF602F888D0E94262013
:105A100005CD0E947F1F87E08093A80524E642E819
:105A200061E086E699E10E946D1FECCF90915D06E2
:105A30009111BFC39091A105973609F446C108F0B2
:105A4000D6C0953609F406C108F01DC1913008F0A2
:105A500068C382FD10935D0621E340E0602F0E9441
:105A60002620888D83FF30C08091A0059091A505E8
:105A7000891750F59FE9E92E95E0F92E6701D601C7
:105A80005896EC91F0E0E15BFE4F90819F3FE1F48E
:105A9000B4E0CB0ED11C4C145D0489F7882309F4C3
:105AA000E6C1CE0101960E94E5250E94411A8111AE
:105AB000FFC189818F3F09F00FC224E64EE561E006
:105AC0008FE099E10E946D1F8091A0058823D9F194
:105AD0009091A5058917B8F5AFE9B5E05896EC9116
